S02B0000436F6F7264696E61746F725F5263625F41746D656761313238726661315F384D687A5F4763632F4581
S2840000000C943D040C94051C0C94321C0C945F1C0C948C1C0C94B91C0C94E61C0C94131D0C94401D0C9475040C9475040C9475040C9475040C9477180C9475040C94C0180C9475040C9475040C9475040C9475040C9475040C9475040C9475040C9475040C94311F0C94451B0C94E91A0C94171B0C9475040C94CB1E0C94E81D0C947504F3
S2840000800C9475040C9475040C9475040C9475040C94D31B0C94771B0C94A51B0C946D1D0C9475040C9475040C946A1A0C94D0AB0C9475040C9475040C9475040C9475040C9475040C9475040C9475040C9475040C9475040C9475040C9475040C9475040C9475040C9475040C9475040C9475040C942DAC0C9475040C9475040C9455AC00
S2840001000C9475040C9475040C9475040C9475040C9475040C9475040C9475040C947504190F08000000340F01000100610F08000200C90E04000300E10F01000400D80F01000500440F01000600450F01000700460F01000800500F11000900350F02000A003B0F01000B00E30F02000C00DB0F01000D00F10F01000E006B0F01000F003F
S2840001806C0F02001300750F01001400E70F080015003A0F010016002808BD0017009C0C03001800890E160019002A0410001E004A0404001F00520402002000560417002100840414002200AC041100230070388137B538B538B53887379137B538B5389A37A037C937D237B538D837E137EC37B538F537FB37B538043841385638B53881
S284000200473850387038703870386238623862386238623862386238623862386238623862386238623862386238623818386238B538B538B538B538B538B538B538B538B538B538B538B538B538B53862385C38703862381338273A8739773A773A773A8D3992393E3A773A95399839B139B639773AB939BC39BF39773AC439C7393E3A89
S284000280CC391B3A303A773A1E3A213A8B39243A243A3E3A3E3A3E3A3E3A3E3A3E3A3E3A3E3A3E3A3E3A3E3A3E3A3E3A3E3A3E3A3E3A3E3A013A3E3A773A773A773A773A773A773A773A773A773A773A773A773A773A773A3E3A333A363A3E3AFA39D54CD54C6F4C764C764C824C824C934C934CB94CB94CB94C254DD54C30623D626A627E
S2840003007C62836290629D62A862B062CE62F862BA622B7CD47C987DB27DCB7DEE7E1B7FDC82DC82DC82DC82DC82DC82DC82DC82DC82747E827EDC82BD7BA67E857D3383408362835C83598362836C836585658565856585658565856585658565855C836283658530835F835083F387F887FD87028807880C88118811881F8822883B88D0
S284000380258828882B882E883B88318834883B883788318C6D8C6D8C6D8C378C508C438C498C7D8C3D8C568C568C5C8C6D8C748C788CC88CCB8CCE8CCE8CD18CDD8CD78CDA8CED8CD48CE08CE38CE68CE98C9A8E9E8EC68EA28EA68EC68EAA8EC68EB88EBC8EC38E0393C293D493BD921A941A94CF93D493D7930594EE931A941A9405947D
S284000400F19208946DA375A387A390A392A394A396A399A36AA4E3A4E3A492A498A4A7A4ADA4B0A4B3A4B6A4BCA400000100020003000400050006000700080009000A000B000C000D000E000F0013001400150016001A001B0000000100020003000400050006000700080009000A000B000C000D000E000F001300140015001600170083
S2840004801800190000000100020003000400050006000700080009000A000B000C000D000E000F00130014001500160000000100020003000400050006000700080009000A000B000C000D000E000F00180000000000000000000000000000000000000000000000000000000000000000000000000000000000000000000000000000006C
S284000500000000000000000000000000000000000000000000000000000000000000000000000000000000000000000000000000000000000000000000000202010002020508080000FFFF3412000000000000000002020100800000000000000000000000000000000000000000000000000000000000000000000000000000000005008A
S284000580FF00000200001E000003341201030300001027000010270000000001E803000004E80300001041746D656C2020202020202020202020000000000000000003010085000000070507040205020402040308010803020A01005F0035000E011410190F0800230F0100300F0400340F0100DF0F0100E00F0100E70F0800E30F020082
S2840006006C0F0200750F0100DB0F0100F10F0100E10F0100370F0100380F0100390F01003A0F0100350F02003B0F0100DD0F0100DC0F0100F30E0100F50E0100610F0800C90E0400470F04003C0F0400400F0400440F0100450F0100460F0100500F1100D80F01004B0F01004C0F0400690F0100F60E02006B0F01006A0F01000000000030
S284000680C1050200C5050100C3050200C7050100C8050100C9050100CA050100CB050100CC050100CD050100CE050100C6050100CF050100D0050100DE050200D3050100D4050100D5050100DA050400D1050100D2050100D6050100D7050100D805020009070000280800008E070000E5080000000000000F090000FF0D0000570E0000B5
S284000700EB0B00003D0C0000070C0000740C00009F0C0000B90D000000000000000000009C0C0000890E00009F0E0000BC10AB11C010C410A711C810A42AF22F000000000000000000000000D84B0000085FF06AA2447C52000018474D4E9E4D0000A34323678A41845B194100000000000000000000000002020302020201010101010196
S28400078001020201010102020202020202020202020202030302020302A94974430107F264F04E0101F264F04E010100000000010131494168010131491A680107E948B74B01019048D867010100000000010700000000010100000000010300000A3E010400000A3E010500000000010600000000010C000000000101F264000000010057
S284000800000000010D00000000010700000000010900000000010000000000010100000000010100000000000000000E42000700000E42000B00000E42000000000E4200253B0000603B413B593B00002C3B3A3B0000333B0000063BC13DC83D3A3EB33D673B0000F73F106A4A69585F5F680000FE6000009A4A00000000112480912916B1
S284000880823141F084B78F718093291680FF05C081E001C081E18093291614BE809160008861809360001092600011241FBECFEFD1E4DEBFCDBF13E0A0E0B2E0ECE7F1E601E00BBF02C007900D92AA36B107D9F716E1AAE6B3E001C01D92A932B107E1F70E94EE710E94B071FDCF0C9400007F937FB7F8949D9AA5988AEF0E94D6048AEF84
S2840009000E94D6049D9886E40E94D60481E0959980E08F9380EF0E94D6048F917FBF7F9108957F937FB7F8949D9AA59886E00E94D6049D988AE00E94D604889495990894881F8F9384E60E94D6048F917FBF7F9108959F937F9398E00E949104879577959A959923C9F7872F7F919F9108957F937FB7F894A5989D9A8F9386E00E94D6044A
S2840009808F91879508F49D988F9384E60E94D6048F919D987FBF7F9108959F9398E00E94B7049A959923D9F79F91089500000000000000008A958823C9F708955F937F937FB7F894CF93DF93C0E0D0E07F935091B2007091B2007517E1F3739521965091B2005717D9F77F91CE01DF91CF917FBF7F915F9108950F93DF93CF93CDB7DEB73C
S284000A0060970FB6F894DEBF0FBECDBF002309F459C029833A834B835C836D837E838F839887E0E2E01B29813A814B815C811E16BCF019861A861B861C868E2F992787FD9095909581959F4F04C0220F331F441F551F8A95D2F72D873E874F87588B2AC0CA01B901002E04C0660F771F881F991F0A94D2F769877A878B879C87DA01C90111
S284000A8004C0B695A79597958795EA95D2F72D813E814F81588504C0220F331F441F551F0A95D2F7822B932BA42BB52B8D879E87AF87B88B29853A854B855C856D857E858F85988960960FB6F894DEBF0FBECDBFCF91DF910F9108950895EF92FF92CF93DF93DC011F968C911F97882309F04DC00E94280DCFECD4E0CE0160E072E00E9436
S284000B00BCAD7E01EC2FFF2DDF010D900020E9F7AD01415050404E1B5F0B81E793E0BE010E94BA1180E00E94280D82E08093920387EC92E00E944A2B8FEC92E00E944A2B80ED97E0A0E0B0E08093990390939A03A0939B03B0939C0310929D038AEE95E090939F0380939E0383E993E00E94D90E2FB7F89480918F049091900494609093D2
S284000B80900480938F042FBF18C0CFECD4E0CE0161E272E00E94BCAD7E01EC2FFF2DDF010D900020E9F7AD01415050404E1B5F0B81E793E0BE010E94BA11DF91CF91FF90EF90089580E00E94480D089581E00E94480D0895EF92FF920F931F93CF93DF9321E0659B20E02093D40300D000D000D0EDB7FEB731960AE613E0ADB7BEB7129609
S284000C001C930E93119785E492E093838283248315820E94C3ADCFECD4E08DB79EB706960FB6F8949EBF0FBE8DBFCE0168E472E00E94BCADCE01B8010E94B1ADDE010D900020E9F7AD01415050404C1B5D0B81E793E0BE010E94BA1184ED93E09093ED038093EC0383E090E09093EB038093EA0381E090E09093E6038093E50322E020933B
S284000C80D9031092DB031092DA0321E02093E4039093E8038093E7032093E9038091EE0384608093EE031092EF0386EE95E09093F1038093F00387ED93E00E946628CDB7DEB7E6E00C9406ADEF92FF92CF93DF9380919203813009F46BC0813038F0823009F48DC0853009F0AAC06DC088EC80937C0310927D031092910389E190E0909328
S284000D007F0380937E0386E080938003109281031092820310928603109285031092880310928703CFECD4E0D0938A03C093890384EF91E090938C0380938B0310928E0310928D031092900310928F0381E793E00E9438120E94240D80E00E94380D81E00E94380D81E080939203CE016FE472E00E94BCAD7E01EC2FFF2DDF010D9000200A
S284000D80E9F7AD01415050404E1B5F0B81E793E0BE010E94BA112FB7F89480918F049091900494609093900480938F042FBF47C08DE695E09093B3038093B20380EA93E00E9447793CC0CFECD4E0CE0161E772E00E94BCAD7E01EC2FFF2DDF010D900020E9F7AD01415050404E1B5F0B81E793E0BE010E94BA1182E08093920320C087EC64
S284000E0092E00E944A2B8FEC92E00E944A2B80ED97E0A0E0B0E08093990390939A03A0939B03B0939C0310929D038AEE95E090939F0380939E0383E993E00E94D90EDF91CF91FF90EF900895A4E1B0E0EAE2F7E00C94EAAC7C018E010F5F1F4F84E1F80111928A95E9F780E00E94280DF70180818F3829F0823939F08035A9F427C0C80173
S284000E8063E972E013C085E0809392032FB7F89480918F049091900494609093900480938F042FBF13C0C80165EB72E00E94BCADF80101900020E9F7AF0141505040401B510B81E793E0B8010E94BA116496E6E00C9406AD0895089508950895A6E0B0E0E4E7F7E00C94ECAC8E010F5F1F4F26E0F80111922A95E9F7FC0123E0F695E795DF
S284000F002A95E1F7E00FF11F8770907021E030E002C0220F331F8A95E2F72083C8010E949A0BD801E7EEF6E0CE0107963D912081232B2193A817B907C9F7809102078460809302072696E4E00C9408AD02C00E94EB710E94C8148823D1F708950F931F93CF93DF938C01EB010E94A607C801BE010E94EF132FEF8F3F920739F087E0CD36CD
S284000F80D80729F40E94A60702C081E001C080E0DF91CF911F910F9108950F931F93CF93DF938C01EB010E94A607C801BE010E9453142FEF8F3F920739F087E0CD36D80729F40E94A60702C081E001C080E0DF91CF911F910F9108952F923F924F925F926F927F929F92AF92BF92CF92DF92EF92FF920F931F93DF93CF93CDB7DEB7629764
S2840010000FB6F894DEBF0FBECDBF8091020782608093020782FF94C087EF93E067EE76E00E944B0C809102078B7F8093020788C0E090FD03F090FE03F70103E0F695E7950A95E1F7EB52F94FC70187709070960102C0220F331F8A95E2F7C901809592898923828B69857A854B855C8580E00E946B0C982E588A4F863A8A298A8F819885D5
S28400108005979E878D87C5016DE677E00E94AE078A819816A1F58D819E81E816F90679F52B853C858B819C812817390741F581E090E08C0F9D1F988B8F87DA8AC98A00E010E017C08F819885800F911F9E878D87C5016DE677E00E94AE07AF85B889E985FA85E00FF11F9C918081981741F40F5F1F4F8B859C850817190720F336C09A820A
S284001100FE82ED828B859C859C838B83CE010296988B8F8785E090E09A8B898B8F81988505979E878D87CE010D966DE677E00E94CD07CE0107966CEE77E00E94CD0727C017E0612E712C6C0E7D1EB1E0CB2ED12CA2E04A2E512C4C0E5D1EF5E02F2E312CEDE0AE2EB12CAC0EBD1E87EF93E0B3010E943A0B882309F05BCF809102078D7F34
S284001180809302078FE060E070E00E94D97062960FB6F894DEBF0FBECDBFCF91DF911F910F91FF90EF90DF90CF90BF90AF909F907F906F905F904F903F902F900895282F392FF90180E09191992329F48F5F8630D1F780E0089581E008959C01CB0146E0DB011D924A95E9F7F90143E0F695E7954A95E1F7E60FF71F2770307041E050E023
S28400120002C0440F551F2A95E2F72081242B20830E949A0B0895972F882319F08130A1F40EC0ADEEB6E0E62FF72F9D9180818923819386E0A33FB807C1F791E006C0862F0E94DD0C91E0811190E0892F08950E946E078091020781FD02C00E94EC0781E00895A6E0B0E0E7E3F9E00C94ECAC8E010F5F1F4FB8010E94ED0880E0B8010E947F
S2840012800B09C8010E94DF08882381F0A1EEB6E0F8019D9180818923819386E0A73EB807C1F7CE0101960E94DF0801C080E02696E4E00C9408ADA8E1B0E0E1E6F9E00C94E2AC00E211E01093D6060093D5068AEA91E09093D8068093D7068AEA91E0801B910B26E030E0B9010E94A8AC8091D9069091DA06682B792B7093DA066093D90677
S2840013008EEC91E08A5A9140B9010E94A8AC8091DB069091DC06682B792B7093DC066093DB061092DD061092DE061092DF061092E00686E0EDEEF6E0DF011D928A95E9F7AA2483E1882E912C8C0E9D1EB1E0CB2ED12C38C0C401B80146E050E00E9479AD8D899E890596A0E0B0E02091DD063091DE064091DF065091E006820F931FA41FBB
S284001380B51F8093DD069093DE06A093DF06B093E0068F89988DFC01A3E0F695E795AA95E1F7EB52F94F87709070960102C0220F331F8A95E2F7C901208D282B208F0A5F1F4FA3942091D9063091DA068A2D90E08217930708F4BECFC901880F991F820F931F880F991F04966C01EE24FF24CE010D969A87898786E090E09C878B87AA24AD
S284001400BB2400E010E067E0862E912C8C0E9D1E53E1652E712C6C0E7D1EF80143E0F695E7954A95E1F7EB52F94F808D90E098012770307002C0969587952A95E2F780FF3DC0C501880F991F8A0D9B1D880F991F049698878F83C4016DE677E00E94AE0789899A898017910749F48D859E85AF85B8898C159D05AE05BF0559F01A8B098B9E
S284001480CD86DE86EF86F88AC4016DE677E00E94CD07C8010E947E0ABC01C30146E050E00E9479AD8D899E890596A0E0B0E0C80ED91EEA1EFB1E0894A11CB11C0F5F1F4F0D32110509F0A9CF0E94750ACE0101960E94DD0C6896EEE00C94FEAC80910007909101070E94270908951092FD068EE69AE09093FF068093FE060895A2E0B0E0CB
S284001500E4E8FAE00C94E4AC4C010091D5061091D606EE24FF245E010894A11CB11C13C06801B8016C5F7F4FC50142E050E00E9479AD0A5F1F4F89819A818815990561F00894E11CF11C8091D9069091DA06E816F90630F3CC24DD24C6012296ECE00C9400ADA2E1B0E0E7EBFAE00C94EBAC8B01BC0153E0769567955A95E1F7FB01EB52F1
S284001580F94F208D30E0AC014770507002C0369527954A95E2F720FF4AC0DE011D96EDEEF6E026E001900D922150E1F7FF2420E030E0FE013D961BC0DF01A40FB51F4C91542F569555754575540F452F4695469543735373450F4C93A42FA295AF7050E04F7050704A0F511D240F351FF3944F2D50E04617570700F3A0E087709070FE0102
S2840016003D96E60FF71F0DC0408150E00A2E02C0569547950A94E2F741705070240F351FAF5F4A2F50E04817590770F302C02FEF3FEFCE0107969C838B83C901880F991F820F931F880F991F04969A83898386E090E09E838D83CE0101966DE677E00E94AE078F819885F801918380836296E5E00C9407ADA6E0B0E0E0E4FBE00C94EAAC04
S2840016807C018B0180E090E0FC0163E0F695E7956A95E1F7EE0DFF1D6081AC0147705070262F30E0042E02C0369527950A94E2F720FF10C021E030E002C0220F331F4A95E2F72095262320830E947E0ABC01009731F426C001968D329105B1F621C0CE01019646E050E00E9479AD89819A81F801938382838D819E81B8010E94B10AF801E7
S284001700808191810596918380838B819C81958384838D819E81F7019783868381E006C08FEF9FEFF7019783868380E02696E6E00C9406AD4F925F926F927F929F92AF92BF92CF92DF92EF92FF920F931F93DF93CF93CDB7DEB728970FB6F894DEBF0FBECDBF8C013091D7062091D806FC01858186FD12C0C901E92EF82ECC24DD2483E04D
S284001780482E512C4C0E5D1EB1E0AB2EB12C3E010894611C711C61C0C8016FEF70E046E050E00E94AAAD61C0C201B70146E050E00E9479AD2F813885F901A3E0F695E795AA95E1F7E00FF11F408127703070842F90E0022E02C0969587950A94E2F780FF35C0C50102C0880F991F2A95E2F79C01209524232083992422C0880F991F6B8184
S2840018007C81680F791FC30142E050E00E9479AD89819A81FC0173E0F695E7957A95E1F7E00FF11F87709070950102C0220F331F8A95E2F7C9012081282B20839394892D90E02D813E8182179307B8F20894C11CD11C86E090E0E80EF91E8091DB069091DC06C816D90608F49FCF28960FB6F894DEBF0FBECDBFCF91DF911F910F91FF903C
S284001880EF90DF90CF90BF90AF909F907F906F905F904F900895CF93DF93EC018FEF9FEF9F838E83DE01862F972FFC0186E001900D928150E1F7CE010E949A0BEDEEF6E0919188818923899386E0E33FF807C1F7DF91CF910895262F372FF90120E030E004C09191890F2F5F3F4F24173507C8F30895ACE0B0E0EFE7FCE00C94E7AC7C01B8
S2840019008B01CE0102969A87898785E090E09C878B87FB0180819181059798878F8387E0C82ED12CCC0EDD1EC6016DE677E00E94AE078D819E81E816F906C1F5F801248135818B819C812817390781F5CE0101969A87898781E090E09C878B87EE24FF24BB24C601DC2CC92E18C0F801808191818E0D9F1D98878F838D2D9C2D6DE677E0FF
S2840019800E94AE0769857A858B2D41E050E00E946B0CB82E0894E11CF11CF80184819581E816F90610F38A81B81611F082E001C080E02C96E9E00C9403ADAEE0B0E0E3EEFCE00C94E6AC8C0147E0E42EF12CEC0EFD1EC701B8010E944B0C86E0D8011D928A95E9F7BE2CAF2C7E010894E11CF11C31E0C32ED12C1DC08D859E85B7010E94F3
S284001A00790C8823B1F48D859E85FC0123E0F695E7952A95E1F7E00FF11F87709070960102C0220F331F8A95E2F7C9012081282B20838B2D9A2DB7010E943A0B8823E1F62E96EAE00C9402AD6A9A6B9A80E00895813039F0813018F0853049F404C0729808957398089580E00E94280DFACF0895813039F0813018F0853049F404C0729A81
S284001A800895739A089580E00E94380DFACF0895882319F0813051F405C08EB194E089278EB908958EB198E089278EB908958091FF0380FF07C08091FF038E7F8093FF030E94940D8091FF0381FF07C08091FF038D7F8093FF030E94D80D8091FF0382FF07C08091FF038B7F8093FF030E94E10D8091FF0383FF07C08091FF03877F809361
S284001B00FF030E94EA0D8091FF03882361F02FB7F89480918F049091900491609093900480938F042FBF08958091000481FF12C0809100048D7F8093000480910004846080930004E0910104F0910204309711F081E009958091000482FF29C0659B16C0809100048B7F80930004809100048E7F80930004E0910304F0910404309711F012
S284001B8081E0099585E00E94811208958091FF0381608093FF032FB7F89480918F049091900491609093900480938F042FBF0895E0910507F091060781E060E070E009950895E0910707F091080781E060E070E009950895E0910307F091040780E090E009950895E8EFFEE088E3DF011D928A95E9F7B19682E08093190F1182128213822B
S284001C00148215821682178285E08093230F8CE69FE06EEC74E046E850E00E9479AD89EC9EE064E575E04FE250E00E9479AD87EC9EE063E875E042E050E00E9479AD80E39FE065E875E04CE350E00E9479AD8EEB97E0E9E0F7E0DF019C011D9221503040E1F70895A4E0B0E0E8E3FEE00C94EEAC682F70E0660F771F660F771F60527A4F01
S284001C80CE01019644E050E00E9479AD69817A818B819C812496E2E00C940AAD0E94F20D0E945B090895EF92FF921F93CF93DF93182FEB01209761F00E94320EAC01183220F0CE010E9479AD03C0CE010E948FADDF91CF911F91FF90EF900895EF92FF92CF93DF93EB01209771F0883260F406C0CB01BE01A9010E948FAD05C00E94320ED2
S284001D009C010097A9F7DF91CF91FF90EF900895CF93DF93EB010E94320E009711F479836883DF91CF910895EF92FF920F931F93CF93DF9318C086E094E060E070E0AE010E94B7168A85882359F4EA82FB820C831D8386E094E0BE01A80197010E94FF14EB85FC85099580910604909107040097D9F00E945F1A7B018C01C0910604D0911F
S284001D8007048A819B81AC81BD81A8019701281B390B4A0B5B0B8E819F81A885B985281739074A075B0738F6CDB7DEB7E6E00C9406ADCF93DF93EC01009771F0E0910604F091070406C0EC17FD0749F00190F081E02D3097C1F709C02FEF3FEF02C020E030E0C901DF91CF9108950E945F1A9B01AC01198218826A837B838C839D8386E007
S284001E0094E0BE010E94FF14EACFCF93DF93EC010097D1F080910604909107048C179D0749F086E094E0BE010E94D616BC01009719F40AC060E070E086E094E0AE010E94B71620E030E002C02FEF3FEFC901DF91CF9108958F929F92AF92BF92CF92DF92EF92FF920F930E94E3174B015C0120911A0430E040E050E060E070E080E090E06F
S284001E8000E20E94FB04282939294A295B290F91FF90EF90DF90CF90BF90AF909F908F90089580910C0482FF0BC09FB7F89480910C048B7F80930C049FBF0E94940EA9C08091080480FF0BC09FB7F894809108048E7F809308049FBF0E9432209AC08091080481FF0BC09FB7F894809108048D7F809308049FBF0E9446188BC080910C0479
S284001F0080FF0BC09FB7F89480910C048E7F80930C049FBF0E94961E7CC080910C0483FF0BC09FB7F89480910C04877F80930C049FBF0E94291E6DC080910A0486FF0BC09FB7F89480910A048F7B80930A049FBF0E9439175EC080910A0487FF0BC09FB7F89480910A048F7780930A049FBF0E94CC104FC080910B0481FF0BC09FB7F89408
S284001F8080910B048D7F80930B049FBF0E94E51640C080910B0482FF0BC09FB7F89480910B048B7F80930B049FBF0E94CF1431C080910B0480FF0BC09FB7F89480910B048E7F80930B049FBF0E94451922C080910C0481FF0BC09FB7F89480910C048D7F80930C049FBF0E94CC1313C080910C0484FF0FC09FB7F89480910C048F7E809364
S2840020000C049FBFE091F20FF091F30F309709F0099580910804882381F480910904882361F480910A04882341F480910B04882321F480910C04882361F02FB7F89480918F049091900482609093900480938F042FBF0895CF93DF93E82FF0E0DF01A05CB04093E0B595A7959A95E1F7B0E0AA0FBB1FA35FBB4F6D917C9111976115710559
S28400208099F14FB7F894EB012A813B81888199814FBF2817390729F12D913C911197E901288D398D280F391FE9013881019620812064208336830D90BC91A02D5A962D913C915B978217930711F480E090E02181206221832FB7F894FB01918380832FBF03C0818180648183DF91CF91089590E0805C904033E0959587953A95E1F7E82F0C
S284002100F0E0EE0FFF1FE35FFB4FA081B1811097B9F090968C919097887191F42FB7F89418968D919C9119972FBF009749F00190F081E02D048CF58DE02D309709F009950895FC0193898385992349F4803C19F0883C89F402C06A9A0895559A0895803C19F0883C41F404C06A987298729A089555985D985D9A089580EC0E942A100895B5
S28400218080EC0E947710089588EC0E942A10089588EC0E9477100895A3E0B0E0E2EDF0E10C94E9AC81E0898306E010E0DD2452E0E52EF12CEC0EFD1E9091140489818923B9F09FB7F8942091140489818227809314049FBF6D2D70E0660F771F645D784FC70142E050E00E9479ADEA81FB810995D3948981880F898301501040E9F623962E
S284002200E7E00C9405AD9091140421E030E002C0220F331F8A95E2F7922B9093140480910A04806880930A042FB7F89480918F049091900482609093900480938F042FBF0895CF93DF93C82FD0E0DE01A05CB040E3E0B595A795EA95E1F7B0E0AA0FBB1FA35FBB4FED91FC911197309721F489818F77898335C080A183FD32C0C489D58911
S28400228084FF0AC06883ED91FC911197848995890196958B848B24C0209711F1268137818681978101969783868346815781868997894817590711F41782168246815781848195814817590719F43783268308C0C20FD31F688380859185019691878087DF91CF91089590E0805C904033E0959587953A95E1F790E0DC01AA0FBB1FA35FCA
S284002300BB4FED91FC911197309701F16FB7F89442815381208131816FBF4217530711F421E02287FC01EE0FFF1FE35FFB4F0190F081E02D828D938D009711F4118E108E068CF78DE02D309709F00995089588EC0E947311089580EC0E9473110895805C893030F4E82FF0E0E151FD4F8081089580E00895A0E0B0E0E0ECF1E10C94E6ACDE
S284002380EC018B017A01009709F46AC0CB848C2D0E94AF11882309F463C00115110509F45FC0E114F10409F45BC0EC2DF0E0E05CF040B3E0F595E795BA95E1F7F0E0EE0FFF1FE35FFB4F80819181C817D90709F047C08A8D9B8D009779F42A813B818881998128173907E1F5198F088FFB82EA8219821882C7012CC08FB7F894CA80DB809F
S284002400A880B9808FBFD801960180E090E015C0A9014F5F5F4F6A8D7B8D4617570711F440E050E04A155B0559F06D91E88DF98DE20FF31F608301969A018E159F0540F34FB7F8943B832A834FBFCA14DB0431F41A86EB85F0E02181206221839C0102C02FEF3FEFC901CDB7DEB7EAE00C9402AD1F93CF93DF93EC010097E1F11B85812F83
S2840024800E94AF118823B1F1E12FF0E0E05CF04033E0F595E7953A95E1F7F0E0EE0FFF1FE35FFB4F80819181009721F5D183C0838C85803419F4CE010E94A110198218821B821A828C899D89009711F41F8A1E8A888D998D009711F41B8E1A8E1D821C821F821E8281E08A87CE010E94901A2B8530E002C02FEF3FEFC901DF91CF911F9179
S28400250008958830C0F4E82FF0E0EE0FFF1FE55DFB4F208131812115310569F09DB321E030E002C0220F331F8A95E2F7922B9DBB20E030E002C02FEF3FEFC9010895E0911504F091160487E0828380E98093BC0080910C04826080930C042FB7F89480918F049091900482609093900480938F042FBF0895E0911504F09116048281823011
S28400258031F08281833019F08281843019F48581880F06C08281853049F48581880F8F5F8093BB0085E88093BC0008950E949F120895E0911504F091160420813181868197812817390780F480819181A085B185A80FB91F2C910196918380832093BB0085E88093BC00089586E0828384E98093BC0080910C04826080930C042FB7F89440
S28400260080918F049091900482609093900480938F042FBF0895E0911504F091160483859485A585B6852081318121503040318320832081318143E0220F331F4A95E1F704C0B695A795979587952A95D2F78093BB0085E88093BC0080819181009741F48281823019F484E08283089585E082830895E0911504F09116048281843019F490
S2840026800E94D91208958281823019F08281833019F40E940B1308958281853021F485EA8093BC0008950E949F120895E0911504F091160482818530A1F4868197818130910521F48091BC008F7B03C08091BC0080648093BC008091BC0085688093BC0008950E949F120895E0911504F09116049281953011F520813181A085B185A20FB6
S284002700B31F8C932F5F3F4F31832083208131818681978101972817390720F48091BC00806403C08091BC008F7B8093BC008091BC0085688093BC0008950E949F120895E0911504F09116049281953011F520813181A085B185A20FB31F8C932F5F3F4F3183208386E0828384E98093BC0080910C04826080930C042FB7F89480918F047A
S2840027809091900482609093900480938F042FBF08950E949F120895A0911504B09116041F96ED91FC9150973097A1F012968C911297863049F48091BC0084FDFCCF81E012968C93129704C081E012968C9380E00995089581E012968C9312970895FC0180911704882309F057C0309709F457C08481958120813181820F931F20E181305F
S284002800920708F04CC081E0809317047093FB0F6093FA0FA4EFBFE086E001900D928150E1F7F999FECF80E090E017C0E091F60FF091F70FE80FF91F2091F40F3091F50FA9014F5F5F4F5093F50F4093F40F32BD21BDF89A20B5208301962091F80F3091F90F8217930710F31092F90F1092F80F80910B04846080930B042FB7F89480913E
S2840028808F049091900482609093900480938F042FBF20E030E005C02EEF3FEF02C02FEF3FEFC9010895CF93DF93FC019B0180911704882309F063C0309709F463C06081718184819581860F971F40E18130940708F058C081E080931704A4EFBFE086E001900D928150E1F73093FB0F2093FA0F2115310519F4C0E0D0E033C0CB01019624
S2840029009093F50F8093F40FE091F60FF091F70F4191F093F70FE093F60F8CE00E94DA1D8091F80F9091F90F01979093F90F8093F80F22C06091F40F7091F50FCB0101969093F50F8093F40FE091F60FF091F70F4191F093F70FE093F60F84E00E94DA1D21968091F80F9091F90FC817D90710F3F999FECF1092170420E030E005C02EEF12
S2840029803FEF02C02FEF3FEFC901DF91CF91089581E090911704913009F080E008958091F80F9091F90F009751F410921704E091FA0FF091FB0F309709F1099508956091F40F7091F50FCB0101969093F50F8093F40FE091F60FF091F70F4191F093F70FE093F60F8CE00E94DA1D8091F80F9091F90F01979093F90F8093F80F0895A2E184
S284002A00B0E0E5E0F5E10C94DEAC9A878987DB012B873C874D875E87FC01E080F180E114F10409F497C1222433244B855C856D857E859A01AB0160E070E0CB0129833A834B835C836D837E838F839887F88AEF86F701BA8BA98B02C01F01FC01E280F3800481158126813781408551856B857C858D859E856E157F058007910708F48FC0CE
S284002A8060E070E0CB0157016801EE24FF248701622E6A0C77247394621608F07724932E9B0C88248394931608F08824790C55245394791408F055248528542E5C0C99249394541608F09924850C44244394851408F044249428052F0D0D11E0051708F010E0900EEE24E394901608F0EE241E2944244394161608F0442401E0171608F098
S284002B0000E055245394181608F05524A62C7981A71A21E06A1408F020E0972D8A81981B81E0791608F080E0492F421B21E0941708F020E0822B282D9B81291B91E0821608F090E0522F581B81E0251708F080E0982B292DAC812A1B81E0921608F080E0E22EE91A91E02E1508F090E0892BB12FB81B8B2F91E01B1708F090E0242D291B92
S284002B80922F21E0491608F020E0302F321B232F31E0021708F030E0142F052F95C039014A01AA24BB24650110950095F094E094E11CF11C011D111D722F7E1961E0271708F060E0872D8F1991E0781608F090E0A82FA61B6A2F552453948A1708F055249529582C501A81E0851408F080E0B52DB91B9B2F442443945B1608F0442484290B
S284002C00292D211B31E0921608F030E0E22EE81A81E02E1508F080E0832B819551E0181608F050E0519541E0151608F040E0419521E0141608F020E0522E5194A72E2981A21A11E07A1508F010E0262F3A81231B31E0621708F030E0622F611B162F61E0211708F060E0362B692F7B81671B21E0961708F020E0062F031B91E0601708F025
S284002C8090E0292B3E2D9C81391B91E0E31608F090E0E32EE21A21E03E1508F020E0922B682F691B91E0861708F090E0A52FA91B9A2F81E05A1708F080E0242F281B31E0421708F030E0862F531A69F5222359F5992349F5882339F5A989BA8916962D913D914D915C91199760E070E0CB01992321F51816C0F0882301F51716A0F0772311
S284002D00E1F4161680F06623C1F4E51660F05E15A1F4041740F0401781F4131720F0311761F4A21650F480819181009709F094CE8F01A989BA891F0111C0EF84F8888F01A989BA89EE15FF0541F41196FC93EE93E985FA85B183A08306C0CF01F101B183A0838D939C936296E2E10C94FAACCF93DF93FC01DB01EA0180819181481759079F
S284002D8039F48881998119821882808391830BC08881998111969C938E93198218828C9111969C911197DF91CF910895DC01ED91FC91119706C0808191818617970719F0FC013097C1F7CF010895E0911804F09119040284F385E02D309709F00995089523982B981CBC0895E0913F04F091400426813781848195812817390769F0A48D5C
S284002E00B58D8481958101969583848384819581A80FB91F8C918EBD0895E0913F04F0914004309719F40E94F016089542855385228533852F5F3F4F33872287228533852A30310511F41386128662857385208531856217730719F45387428708954450504FDA018C938485958501969587848708952FB7F894E0913F04F091400484853E
S284002E8095852FBF009731F005A0F6A1E02D309709F0099508958FB7F89410921D0410921C0410921B048FBF08958091500480FF0FC081E00E940A1E809170008D7F809370000E944B17809150048B7F809350040895809170008C7F809370008091B60080628093B6001092B2001092B0001092B1001092B3008091B60090E08F7190705B
S284002F000097C9F783E087BB87E08093B1008091700081608093700008958091B60090E08F7190700097C9F7809170008C7F809370008091B100887F8093B10083B5826083BD8091B60090E08F7190700097C9F78091B6008F7D8093B60008959B01AC016091B200862F90E080959095AA2797FDA095BA2F9070A070B07082179307A4077C
S284002F80B50778F4281B390B4A0B5B0BBB27A52F942F832F90931C0480931B0420931D040895260F8091B60090E08F7190700097C9F72093B30082E087BB809170008260809370000895EF92FF920F931F938FB7F89490911E042091B20034E43093B4004091B60050E04F71507041155105C1F7B89904C030E040E050E009C02091B20058
S28400300030E040E050E021503F4F4F4F5F4F8FBF8FEF989FC0011124AA2797FDA095BA2F820F931FA41FB51F9C01AD0175E0220F331F441F551F7A95D1F77C018D0162E016950795F794E7946A95D1F72E0D3F1D401F511FE0901F04F090200400912104109122042E0D3F1D401F511F281B390B4A0B5B0BB901CA011F910F91FF90EF9073
S284003080089560E270E080E090E008958FB7F89460911E0410921E048FBF70E080E090E020E43FE140E050E00E947DAC9B01AC0180911F0490912004A0912104B0912204820F931FA41FB51F80931F0490932004A0932104B093220482179307A407B50728F480911A048F5F80931A0408951F920F920FB60F920BB60F9211242F933F93BE
S2840031004F935F936F937F938F939F93AF93BF93EF93FF93809170008D7F8093700010921D048091500480FF03C080E00E940A1E8091500482FF11C0809108048160809308042FB7F89480918F049091900482609093900480938F042FBFFF91EF91BF91AF919F918F917F916F915F914F913F912F910F900BBE0F900FBE0F901F901895C7
S2840031801F920F920FB60F920BB60F9211242F933F934F935F936F937F938F939F93AF93BF93EF93FF9380911B0490911C040097A1F580911D048823E9F48091500480FF03C080E00E940A1E8091500482FF34C0809108048160809308042FB7F89480918F049091900482609093900480938F042FBF22C08091B60090E08F71907000973B
S284003200C9F780911D048093B30082E087BB8091700082608093700009C080911B0490911C04019790931C0480931B048091500480FF02C00E94761E80911E048F5F80931E04809108048260809308042FB7F89480918F049091900482609093900480938F042FBFFF91EF91BF91AF919F918F917F916F915F914F913F912F910F900BBEB0
S2840032800F900FBE0F901F901895A0E1B0E0EBE4F9E10C94EBAC0091230410912404D80112968C911297823029F08430C9F0882331F074C070E060E088E0F82E6BC080E090E0D8011396ED91FC911497E80FF91F208120933F0101968031910591F75EC010923C0180E010923E018F5F8031D9F780913C01806880933C0180913D0180FF16
S284003300FCCFFE013196CE014196DF0120913F012D93A817B907D1F7219120933F01E817F907D1F7C7CFF8018281823019F410923C0102C0F0923C01872F90E0AC01405F5F4F9C01D8011396ED91FC911497E20FF31FE081E0933E012F5F3F4F2417350789F720913C01206820933C0120913D0120FFFCCF20913E01D8011396ED91FC9142
S2840033801497E80FF91F208301968417950791F7705F6F5FF8018581681728F283E294E00E94406F8091230490912404009789F080910B04816080930B042FB7F89480918F049091900482609093900480938F042FBFD8011696ED91FC91179709956096E5E00C9407AD80E197E29093A9008093A800E1EAF0E088E08083808182608083D2
S284003400E2E7F0E080818260808308959B01AC018091270490912804A0912904B0912A04820F931FA41FB51F8093270490932804A0932904B0932A0480910C04846080930C042FB7F89480918F049091900482609093900480938F042FBF08958FB7F89460912604109226048FBF70E080E090E02AE030E040E050E00E947DAC9B01AC01F2
S2840034808091270490912804A0912904B0912A04820F931FA41FB51F8093270490932804A0932904B0932A0482179307A407B50728F4809125048F5F8093250408950E942E1A60912704709128048091290490912A0408951F920F920FB60F9211242F938F939F93809126048F5F8093260480910C04846080930C042FB7F89480918F047E
S2840035009091900482609093900480938F042FBF9F918F912F910F900FBE0F901F901895FC01A385B0E011961C92A385B0E08585968515969C938E9314978485A385882349F4B0E082E08C93A385B0E012961C92129707C0B0E01C92A385B0E0828912968C93A385B0E012968C9112979485892B12968C93A385B0E012968C9112979785F4
S284003580892B12968C93A385B0E012968C9112979089892B12968C93A385B0E012968C9112979189892B12968C93A385B0E08C9180688C93A385B0E011968C911197886111968C931197E385F0E081818068818308951F920F920FB60F920BB60F9211242F933F934F935F936F937F938F939F93AF93BF93EF93FF93E1ECF0E080818F7D4B
S284003600808380E00E940311FF91EF91BF91AF919F918F917F916F915F914F913F912F910F900BBE0F900FBE0F901F9018951F920F920FB60F920BB60F9211242F933F934F935F936F937F938F939F93AF93BF93EF93FF93E1ECF0E080818F7B808381E00E940311FF91EF91BF91AF919F918F917F916F915F914F913F912F910F900BBEAC
S2840036800F900FBE0F901F9018951F920F920FB60F920BB60F9211242F933F934F935F936F937F938F939F93AF93BF93EF93FF938091C0006091C6008C7131F480EC0E94211182E00E940311FF91EF91BF91AF919F918F917F916F915F914F913F912F910F900BBE0F900FBE0F901F9018951F920F920FB60F920BB60F9211242F933F9383
S2840037004F935F936F937F938F939F93AF93BF93EF93FF93E9ECF0E080818F7D808383E00E940311FF91EF91BF91AF919F918F917F916F915F914F913F912F910F900BBE0F900FBE0F901F9018951F920F920FB60F920BB60F9211242F933F934F935F936F937F938F939F93AF93BF93EF93FF93E9ECF0E080818F7B808384E00E940311CF
S284003780FF91EF91BF91AF919F918F917F916F915F914F913F912F910F900BBE0F900FBE0F901F9018951F920F920FB60F920BB60F9211242F933F934F935F936F937F938F939F93AF93BF93EF93FF938091C8006091CE008C7131F488EC0E94211185E00E940311FF91EF91BF91AF919F918F917F916F915F914F913F912F910F900BBEE9
S2840038000F900FBE0F901F9018951F920F920FB60F920BB60F9211242F933F934F935F936F937F938F939F93AF93BF93EF93FF930E945517E0912B04F0912C040995FF91EF91BF91AF919F918F917F916F915F914F913F912F910F900BBE0F900FBE0F901F9018951F920F920FB60F920BB60F9211242F933F934F935F936F937F938F93FC
S2840038809F93AF93BF93EF93FF930E945517E0912D04F0912E040995FF91EF91BF91AF919F918F917F916F915F914F913F912F910F900BBE0F900FBE0F901F9018951F920F920FB60F920BB60F9211242F933F934F935F936F937F938F939F93AF93BF93EF93FF930E945517E0912F04F09130040995FF91EF91BF91AF919F918F917F91ED
S2840039006F915F914F913F912F910F900BBE0F900FBE0F901F9018951F920F920FB60F920BB60F9211242F933F934F935F936F937F938F939F93AF93BF93EF93FF930E945517E0913104F09132040995FF91EF91BF91AF919F918F917F916F915F914F913F912F910F900BBE0F900FBE0F901F9018951F920F920FB60F920BB60F921124C5
S2840039802F933F934F935F936F937F938F939F93AF93BF93EF93FF930E945517E0913304F09134040995FF91EF91BF91AF919F918F917F916F915F914F913F912F910F900BBE0F900FBE0F901F9018951F920F920FB60F920BB60F9211242F933F934F935F936F937F938F939F93AF93BF93EF93FF930E945517E0913504F0913604099536
S284003A00FF91EF91BF91AF919F918F917F916F915F914F913F912F910F900BBE0F900FBE0F901F9018951F920F920FB60F920BB60F9211242F933F934F935F936F937F938F939F93AF93BF93EF93FF930E945517E0913704F09138040995FF91EF91BF91AF919F918F917F916F915F914F913F912F910F900BBE0F900FBE0F901F90189507
S284003A801F920F920FB60F920BB60F9211242F933F934F935F936F937F938F939F93AF93BF93EF93FF930E945517E0913904F0913A040995FF91EF91BF91AF919F918F917F916F915F914F913F912F910F900BBE0F900FBE0F901F9018951F920F920FB60F920BB60F9211242F933F934F935F936F937F938F939F93AF93BF93EF93FF93EB
S284003B008091B90090E0887F90708832910569F1893291059CF48031910521F18131910534F4009729F18830910589F51BC088319105D9F08032910551F51AC088349105B9F0893491053CF48033910589F080349105E9F410C08035910581F088359105B1F411C00E94BA1212C00E9439130FC00E949F120CC00E94561309C08091BB005B
S284003B800E94741304C08091BB000E94A013FF91EF91BF91AF919F918F917F916F915F914F913F912F910F900BBE0F900FBE0F901F901895F999FECF07B600FCFDCF72BD61BD40BD9FB7F8948FBBF99A9FBF08951F920F920FB60F9211242F938F939F93FB9880910B04846080930B042FB7F89480918F0490919004826090939004809368
S284003C008F042FBF9F918F912F910F900FBE0F901F901895909150048170880F9C7F982B90935004E9E3F1E080818D7F808380910C04816080930C042FB7F89480918F049091900482609093900480938F042FBF08958091500480FF48C08091A1008D7F8093A10080913B0490913C04A0913D04B0913E040097A105B10551F40E94E317B6
S284003C8060933B0470933C0480933D0490933E048091500483FD02C00E943C6FF999FECF809150048860809350049091390192609093390182FF05C087E083BF889513BE0AC00E948D1785E083BF889513BE0E9469170E94EB1F84E48093B4008091B60090E08F7190700097C9F70895809150048160809350048091B60090E08F71907052
S284003D000097C9F780910C04886080930C042FB7F89480918F049091900482609093900480938F042FBF80E090E008950E94E31720913B0430913C0440913D0450913E04621B730B840B950B10923B0410923C0410923D0410923E040E94061A8091A10082608093A100809141018F718830D9F780915004877F809350040E94386F8091CF
S284003D80500481FD07C0E0914104F0914204309709F0099508951F920F920FB60F920BB60F9211242F933F934F935F938F939F93AF93BF93EF93FF93E0911804F0911904838126813781882349F48081918140917900280F391FD9014C930EC0808191814091780050917900DC01AA0FBB1FA20FB31F11965C934E93019691838083E091D2
S284003E001804F0911904208131818085918528173907B1F480917A00877F80937A0080910B04826080930B042FB7F89480918F049091900482609093900480938F042FBFFF91EF91BF91AF919F918F915F914F913F912F910F900BBE0F900FBE0F901F9018951F920F920FB60F920BB60F9211242F933F934F935F936F937F938F939F9379
S284003E80AF93BF93EF93FF93DF93CF930F92CDB7DEB78EB589830E94F41689810E940D1780910A04806480930A042FB7F89480918F049091900482609093900480938F042FBF0F90CF91DF91FF91EF91BF91AF919F918F917F916F915F914F913F912F910F900BBE0F900FBE0F901F901895A0E0B0E0EDE7FFE10C94DEAC10E0C2E8DBE8B7
S284003F0000E892E8692E9BE8792E812C912C82E8A82E8BE8B82E0E94DE042BE88338920718F16E01EE24FF249C0140E050E022583B4840405040C216D306E406F5064CF4123039F480916600815080936600000036C0209166002150209366000000EC01C258DB4811E028C02BE88238920739F16E01EE24FF249C0140E050E0130124018A
S284003F80221A330A440A550AC214D304E404F5044CF4113039F4809166008F5F8093660000000DC0209166002F5F209366000000E501C81BD90B12E0015009F0ACCFCDB7DEB7E2E10C94FAAC0E94CE20882311F40E94771F0895CF93DF93C8E8D3E188EC0E94D6042197D9F70E94E41FDF91CF910895CF93DF93EC01009741F10E9441180F
S2840040002E813F81488559850E947DAC28EE33E040E050E00E94BCAC2115310541055105C1F08091500482FD17C0846080935004E3E4F4E08DE0099001928150E1F7CA01B9010E94AE1720E030E008C02FEF3FEF05C02EEF3FEF02C02DEF3FEFC901DF91CF9108958091500482FF24C090914D049923B1F4E0914E04F0914F04309709F0E0
S28400408009958091500482FF15C06091490470914A0480914B0490914C040E94AE1708958B7F80935004E0914E04F0914F04309709F009950895ADE0B0E0E1E6F0E20C94EEACFC01009739F184819581909342048093410480819181A281B3818F839887A987BA8781E08B871D861C86CE0101960E94F91F2FEF8F3F920781F02FEF8D3FAF
S284004100920761F00E94761E2FEF8F3F920749F42DEF3FEF08C02FEF3FEF05C02EEF3FEF02C020E030E0C9012D96E2E00C940AAD8FB390E0FC01E270F07081FDF9CF8FB7F89499E090935700E4918FBFEF70E23019F41092510403C081E0809351048FB7F89490915104992349F45F9350E85093610050E0509361005F9108C05F9350E83D
S2840041805093610051E0509361005F918FBF80915104882311F40E94EB1F089580915104089580916704982F9F5F909367040895DC01ED91FC9111979093BF108093BE101092AB101092AC10809156048093B010209116103091171083899489B9010E94A8AC462F6093AE1083899489B9010E94A8AC009719F04F5F4093AE108FEF90E035
S2840042000090C80E02C0880F991F0A94E2F780958E7F8093AD100E94D1208093AF100895FC01878983FF0AC081E090E0238934892036310528F480E090E0089580E090E00895CF93DF934091061020910B1030910C1090E058C0F901225A3F4F578150FD51C0DF01AA5BBF4F11961C921E928230C1F0823018F0833009F048C090910A1018
S28400428020910810921708F041C09F5F90930A10138214821582168290859F709087128228C02091091090910710291778F530910D10A0910E10B0910F1090E014C0ED014C919396442371F42F5F2093091021E02883DF01AA5BBF4F68961196DC93CE93228303C09F5F931750F320910D10291769F09085907F9087880F8160878311824A
S284004300108206C09F5F941708F4A5CFE0E0F0E0CF01DF91CF91089520910B1030910C10821B930B6EE570E00E94A8ACEEE56E9FF0011124E20FF31F8781869590E08230910571F0833091051CF08330910539F580910A10882319F1815080930A101FC080910910882319F081508093091020910E1030910F10DF01AA5BBF4F8D919C91E7
S284004380821B930B63E270E00E94A8ACA3E26A9FD0011124A20FB31F8C9181111C9287818E7F8783089521E030E002C0220F331F8A95E2F780915504822B809355042FB7F89480918F049091900480629093900480938F042FBF0895CF93DF93EC01009729F16B8F4115510551F0FA0180819181A281B3818C8F9D8FAE8FBF8F04C01C8E5E
S2840044001D8E1E8E1F8EE98DFA8D309719F0CE014B960995CE010E941021882339F01092BF101092BE1081E00E94D321DF91CF9108951F9380916804815080936804809110108330C9F11091AA101123A9F181E0809310106091C80E70E061507040882777FD8095982F2AE030E040E050E00E947DAC20917C0430917D0440917E04509130
S2840044807F04620F731F841F951F2091560430E040E050E00E947DAC609318107093191080931A1090931B1011501093AA1087E594E00E9483710AC010921010109218101092191010921A1010921B101F910895A1E0B0E0EEE6F2E20C94ECAC8C0182E894E069830E94406F6981D80117966C9317971596ED91FC911697C801079609957A
S2840045008091820490918304009719F080E00E94D3212196E4E00C9408AD209168042F5F209368040E94B15B0895AF92BF92DF92EF92FF920F931F93DF93CF930F92CDB7DEB78C015B01FB01E05BFF4F81E594E291838083FB01EE5BFF4F82E08083FB01ED5BFF4FD80113968D919C91149791838083FB01E65BFF4F58968C915897808383
S284004580FB01E55BFF4F1082FB01E45BFF4F81E08083FB01E35BFF4F8083FB01E25BFF4F808357968C91579786FD0DC081E090E013962D913C911497BFEF283F3B0728F080E090E002C081E090E0F501E15BFF4F8083E0901610F0901710C8010E9410218823E9F12091AB10422F50E08091AE1090E001974817590711F0DE2C06C02E9DAE
S284004600802D1124F801D388D81A4091C0105091C110405E5F4F30E02E9DC0012F9D900D3E9D900D1124D80155962D913C915697280F391FCA01B9014D2D50E00E948FADF501EB5BFF4F8D2D865F8083F501EA5BFF4F8091C0109091C110469611C0F501EB5BFF4FD80153968C915397885F8083F501EA5BFF4F55968D919C915697089727
S28400468091838083F501EA5BFF4FE080F180F7012081822F8C7E8083D80113968D919C911497207EBFEF873F9B0710F02860F7012083D7019C91892F8F7D8C93F801278922FD03C09F799C9321C08064D7018C93F5012085207F21602087C80129830E94102129812F70882351F08091B0108295807F822BD50118968C93189707C080918B
S28400470056048295807F822BF5018087C8010E941021D7019C918823E1F090689C939091AB1018968C911897992359F48C7F816018968C9318978091AE1019968C9319970BC08C7F8260F70180878091AB10818703C09F77D7019C93F8018585D70111968C9311978089918913969C938E9312978685978515969C938E93149782891696C5
S2840047808C93C8010E941021882329F08091AF10F701878305C00E94D120D70117968C93C50109960E948D2280E00F90CF91DF911F910F91FF90EF90DF90BF90AF9008956091BE107091BF10FB01808191810E94952208952EE630E1A901405D5F4F50936F1040936E1092E090936A1040911F105091201050936C1040936B109BE090931E
S2840048006D10109272101092731091E090937410909375101092761049E152E250937910409378109093771092E890939E109091261090939F1040912210509123105093A1104093A01040912410509125105093A3104093A210909121109093A410909127109093A51092E09093A61090911D109093A71090911E109093A8109091A9100E
S28400488090938710109218101092191010921A1010921B1080931010C901CD970E948D220895BC018091680481508093680485E694E00E94876F81E00E94D3210895CF93DF93BC01C0918204D091830482E894E00E94876F209719F480E00E94D321DF91CF910895A3E0B0E0E8E7F4E20C94E8AC8C01675F7F4F7B836A838DE0BE016F5F08
S2840049007F4F0E94530E8981D80153962C915397882309F43FC0CA80DB8081E0F60181AF13968D919C91149793AF82AF285F24AF5596ED90FC90569788EF9FEFE80EF91EF6AEE5AE8FEFD70111968C931197F8018089918913969C938E9312978685978515969C938E931497828916968C930E94D120D70117968C93D601DD96ED91FC91D3
S284004980DE9788E08083EA81FB81E95BFF4F81E594E241C0CA80DB8082E0F60181AF8DEF9FEF93AF82AF275F24AFD8015596ED90FC905697E7EFFFEFEE0EFF1ED601DE96FC92EE92DD97F80183819481D70112969C938E9311978089918914969C938E9313978685978516969C938E931597828917968C930E94D120F7018087D601DD9641
S284004A00ED91FC91DE978CE08083EA81FB81E95BFF4F85E695E291838083EA81FB81EF5BFF4FD80158968C918083EA81FB81EE5BFF4F8091C70E8083EA81FB81ED5BFF4F81E08083EA81FB81EC5BFF4F8083EA81FB81EB5BFF4F8083EA81FB81EA5BFF4F80838A819B810E948D2280E02396E8E00C9404ADA4E0B0E0E0E4F5E20C94EDAC16
S284004A80182F89E1BE016F5F7F4F0E94530E612F70E080E090E020916C0430916D0440916E0450916F040E947DAC9B01AC0189819A81AB81BC81280F391F4A1F5B1FB901CA012496E3E00C9409AD0F931F93CF93DF93EC018C0109541040D801DD96ED91FC91DE97818192816FEF0E945655882349F0229781E594E299838883C8010E94B6
S284004B00745B03C0CE010E945124DF91CF911F910F9108958F929F92BF92CF92DF92EF92FF920F931F93DF93CF930F92CDB7DEB76B01B42E790180906A0490906B040091690426E1029F80011124080D191D009719F126E1822E912C880E991E1DC0F4012589243A11F02A3A99F4F4018085B81679F481859285C816D90651F4C401B70113
S284004B8048E050E029830E9482AD29810097B9F026E130E0820E931E8016910600F388249924C4010F90CF91DF911F910F91FF90EF90DF90CF90BF909F908F900895243A39F7EFCFA1E0B0E0E8EEF5E20C94E4AC4C017B010E947C3A6C01F701E45AFF4F0081118158EA5F0129C0F50111830083F80183858330A9F4C8010C960E94AE680B
S284004C000097D9F0F8012489F4012587FC0180819181F40194838383C401B7010E9495220AC0F80184859585F40194838383C401B7010E947224582F0EC059EAF40160897189C8014289960159830E948A258C015981009751F6852F2196ECE00C9400AD1F93CF93DF93EB01FB01E45AFF4F118210820E94E225182F882319F0CE010E941E
S284004C808C21812FDF91CF911F910895A0E0B0E0ECE4F6E20C94E7AC8C01B62EC0916A04D0916B049091690486E1989F70011124EC0EFD1E3CE0C32ED12CC00ED11E35C0F8012185328590858D89843A11F08A3A59F58885981741F589859A852817390719F5CE01B80148E050E00E9482AD0097D9F429C0813049F4F801248535858C8550
S284004D009D852817390781F417C0F80194898C89981751F4BE01645F7F4FC60148E050E00E9482AD009741F06696CE15DF0540F2F801B58AC0E0D0E07E01CE01CDB7DEB7E9E00C9403ADF80183859B85891761F7D1CFCF93DF930E9469ADEC0144E0CC0FDD1F4A95E1F7C0700E9469AD282F30E02C2B3D2BC901DF91CF91089588E36DE03C
S284004D8070E10E94530E8DE46EE070E10E94880E20910E1030910F1060E083E290E00DC0462F50E0489FF001499FF00D589FF00D1124E20FF31F10826F5F40910D10641778F387E366E070E10E94530E8CE46BE070E10E94880E80910610E0910B10F0910C1090E006C027812E7F27839F5FE25AFF4F9817C0F390910D10909307108230DE
S284004E0008F08150809308101092091010920A108FE366E170E10E94530E8EE365E170E10E94530E80911510882351F08EE461E170E10E94880E8FE460EC70E10E94880E4091151050E08091161090911710489F9001499F300D589F300D11248091111090911210820F931F9093141080931310109210100895A1E0B0E0E1E4F7E20C9475
S284004E80EAAC10E001E02EE55FEFE52EF12C42C0129FC0011124E0910B10F0910C10E80FF91F378130FF35C080858F70823089F53E7F323011F0363061F583819481A581B6818A309105A105B10548F00A97A109B10983839483A583B68300E01AC08085807F846080871382148215821682363059F4C7010090C80E02C0880F991F0A9478
S284004F00E2F780958093AD1081E029830E94D32129811F5F80910610181708F4B9CF8091181090911910A0911A10B0911B100097A105B10591F08B309105A105B10550F00A97A109B109E6E0F0E1828B938BA48BB58B09C082E00E94EA23002321F087E594E00E948D712196E6E00C9406AD0F931F93CF93DF938C01FC01C081D1816E3C9B
S284004F8011F0603F11F423E001C022E0F801E95AFF4F80819181A281B3818C8F9D8FAE8FBF8F6B8F233049F08A81882331F4CE01B8010E94E225883A61F4AE01445E5F4FF801808191816B8D0E94EC21C8010E948C21DF91CF911F910F910895CF93DF93EC01009709F44AC086EA8D8B8885882309F444C08F3F09F441C08B85833031F4F7
S2840050008C898823D9F18F3F19F438C08130B1F51D8ACE0160E00E944626009709F53091690480916A0490916B0420E00BC0FC0145894696483A29F484EA858B309739F41DC02F5F231798F38EEA8D8B17C0DF0186E109900D928150E1F784EA858B09C0CE0166EA0E94462624EAFC01258B009729F080E160E070E00E94D970DF91CF9114
S2840050800895FC01009709F186EA858B80858823E1F08F3FD1F08385833031F484898823A1F08F3F19F40895813079F4158ACF0164EA0E944626009741F028EAFC01258B80E160E070E00E94D9700895BC0180E894E00E94876F81E00E94D3210895BC018AE794E00E94876F81E00E94D3210895AAE0B0E0EEE7F8E20C94E8ACE090230F34
S2840051008EE2BE016F5F7F4F0E94530E8E01095F1F4F89E1B8010E94530E8F819885A985BA852E2D30E040E050E0281739074A075B0760F0880F991FAA1FBB1F8F839887A987BA8789E1B8010E946E0E2E2D30E0295F3F4F442737FD4095542F20936C0430936D0440936E0450936F04E980FF2400E010E0C801B701660F771F881F991F74
S2840051806E0D7F1D801F911F0E947DAC2F81388549855A85620F731F841F951F60937C0470937D0480937E0490937F0487E594E060E02AE030E040E050E00BE317E20E94967181E08B838EE2BE016E5F7F4F0E94530E8A8190E0A0E0B0E0880F991FAA1FBB1F8F3F9105A105B10529F020F08FEF90E0A0E0B0E00E943A256B017C0183E2CA
S284005200BE016D5F7F4F0E94530E2B8180E090E0DC018C0D9D1DAE1DBF1D81509E4FAF4FBF4FCC0CDD1CEE1CFF1C215091F71B827C018D01F9E016950795F794E794FA95D1F70894E11CF11C011D111D1E821D821C8289E3BE016C5F7F4F0E94530E87E4BE016B5F7F4F0E94880E6D817E818FEFE816F1040105110531F028F0EFEFEE2E5F
S284005280F12C012D112D80E794E04C8120E032E00E2DEE24E3940E94A76F2A96E8E00C9404AD882359F00E94A926809367041092680483E266E574E00E94530E109281041092800410927B0410927A04109266041092650410928504109284048AE090E0A0E0B0E08093B7109093B810A093B910B093BA1080EE93E29093BD108093BC10B5
S28400530081E08093BB1086E268EC7EE00E94530E10921E101092271010921C10109223101092221010921D101092211010922510109224101092201010921F101092261010921010109218101092191010921A1010921B108EE5E8E2F0E1DF011D928A95E9F783E2E6E8F0E1DF011D928A95E9F74091151050E08091161090911710019688
S284005380489F9001499F300D589F300D1124809111109091121060E070E0A9010E94AAAD8EE990E190936F1080936E100E9478280895A0E0B0E0EFEDF9E20C94E8AC7C01EC012997809152049091530427E08030920709F061C00AC080E894E00E94406FC80163EA40E050E00E94EC2100918004109181040115110579F72DC085E694E0E3
S284005400B8010E94516F20910B1030910C10C801821B930BB6010E94A8AC8EE5689FF0011124E20FF31F808191812781269530E02115310521F02130310581F406C0A8014B5F5F4FF801628103C067EA40E050E00E94EC2103C0AEE5CA2ED12C00916504109166040115110549F610E00EE510C0109F9001112480910B1090910C10820F7D
S284005480931FFC01278120FF02C00E948C211F5F80910610181760F3109255041092540481E00E9451290E94BE268A850E9480570A85102F11700695017081E56AE674E00E94880E8DE369E674E00E94530E000F012B033099F0E0916A04F0916B049091690486E1989FC00111248E0F9F1F28EA02C0258B7696E817F907D8F38A8581FF9A
S28400550003C08FE394E002C080E393E09093530480935204F70180818E8782E894E00E94406FEC85FD85CE010E9609958091820490918304009719F080E00E94D321CDB7DEB7E8E00C9404ADCF93DF93C0918204D09183048A818A3821F1853C09F44AC0893109F065C0809152049091530421E08031920719F480E092E002C080E097E006
S28400558090935304809352048A858D838B858E8389ED99E298878F83CE0103960E94B66A47C0809152049091530423E08033920721F026E08031920751F48FE394E090935304809352040E9478281D8202C083EA8D8382E894E00E94406FEB81FC81CE01059609958091820490918304009701F180E017C0809152049091530424E08F33AF
S284005600920791F480E095E0909353048093520482E090E09C838B8387E594E00E948D7181E00E94D32104C0CE0163EA0E946822DF91CF9108959C018FEF6F3F780731F4832F8095881F8827881F089581E02617370709F080E00895FC01009729F4809186049091870408958081918108951F93182FE0E0F0E005C0A381B4818C91181788
S28400568031F0CF010E942C2BFC010097A9F7CF011F910895CF93DF93EC010097E1F086EA8F83EB81FC813097B1F08081982F9150903F88F40E94372B009769F421E08D819E81009709F020E02A8386E894E0BE010E94876F1F82DF91CF910895A0E0B0E0E4E7FBE20C94E9ACEC0100E010E026C0D80112968C911297882301F51396ED9032
S284005700FC9014976C8D7D8DF701818192810E941B2B882399F0D701DC908B8D8D1539F4EF84F8880E94F852E816F90639F08B819C816D2D0E945655882339F4C8010E942C2B8C010097A1F609C0DD86D8011596ED91FC911697CE010995F0CFCDB7DEB7E7E00C9405ADADE2B0E0E9EBFBE20C94E4AC8C01C62EDC011A96ED90FC901B979D
S28400578015962D913C91169780E794E0B901F70147810E941570882309F42AC1D70111968C911197982F91509E3F30F40E94372B5C01009719F41CC1AA24BB24F801228183819481213009F022E02B839D838C83D70111968C918E87F801858196810E941264FC01009799F083E08F8780818A8B81818B8B82818C8B83818D8B84818E8B61
S28400580085818F8B8681888F8781898F02C082E08F87D80115968D919C911697998B888B17968D919C9118979B8F8A8FF70186818C8F848195819E8F8D8F8281938198A38F8F19968C91199790E09C012A5030403AA329A31DA2208127FD04C09C012850304009C0D70118962C911897237029F49C01295030403AA329A329A13AA1821B3B
S284005880930BF80122853385280F391F3CA32BA3CEA282898FA3848588A786859785A089B18989A79AA7ABA7BCA785858DA7D7018C9187FF53C018968C9118978370823009F04CC0E0911310F0911410808189A31AA280809924B1E0CB2ED12C33C08091111090911210DC01A80DB91DE0911310F0911410EC0DFD1D408160911610709191
S2840059001710C69E9001C79E300DD69E300D1124280F391FCD01B90150E00E948FADE0911310F0911410EC0DFD1D208189A19AA1820F911D9AA389A38081880E911C0894C11CD11C80911C1090E0C816D9063CF280911110909112109CA38BA3A114B10449F0D5011596ED91FC911697CE01019609953EC0F8018281813029F4CE0101962D
S2840059800E946E2B35C0D70111968C9111978F3F59F5EE24FF246E010894C11CD11C1DC0D7011396ED91FC911497A080AA20A9F012968C911297882381F46D8D7E8D818192810E941B2B882341F0AE86D7011596ED91FC911697C6010995C7010E942C2B7C010097E9F604C0CE0101960E948D79F801168A0488F589E02DC80146960995B8
S284005A00AD96ECE00C9400ADA1E0B0E0EAE0FDE20C94E6AC8C01DC011A96AD90BC901B97F5018181982F91509E3FC0F40E94372B7C01009709F423C1DC011396ED91FC911497D50114966D917C911597818192810E941B2B882309F412C102C0EE24FF24F501808187FF04C09085937009F007C186FF03C18C70883009F401C1D80115961E
S284005A802D913C911697BFEF273F3B0708F0F7C0E114F10429F0F7018281882309F0EFC0D5018C9186FFE5C08370813011F441E001C047E0F0900610E0910B10F0910C10ED5BFF4F50E0842F90E0B501680F791F1AC0DF01A354B0401796AC91A53081F4A081B1812A173B0759F4C380D480C80ED91EDB01EC90D601DC90ED1409F4B9C069
S284005B005F5FE25AFF4F5F1520F382E049830E9421214981009709F4ACC0FC01EA5BFF4F0190F081E02DDF0158972FEA11962C93119713961C930E931297DC01AE5BBF4F62E06C9353E4E52EF12CE80EF91ED80115962D913C911697D7012D933C93DC01A65BBF4F1C92DC01A55BBF4F1C92DC01A45BBF4F51E05C93DC01A35BBF4F5C935D
S284005B80DC01A25BBF4F1C92DC01A05BBF4F21E534E22D933C93DC01A15BBF4F5C9320812C7F22602083D5013C913C70237F232B20833C9130712F7E232B322F3F7930833C9130782F71232B20832C9150E035E4E32EF12CE80EF91E24FF0DC0D8011A962D913C911B97240F351FD9012C912183F701608339C028E0D7012C93D501169667
S284005C002C911697218312962D913C9113973383228314962D913C9115973583248311962C912683D8011A962D913C911B97240F351FD9012C912783D5012C9127FF14C018962C911897237031F41086F70120812F5F208309C0D7012C912D5F2C93D50118962C912370208709960E948D2291E001C090E081E08927B1C181E001C080E084
S284005C80F501908197FFA1C1F0849F2D937009F49CC1D80119968C911997E18440911510442309F49AC196EFD92ED80E80911010882321F0813009F090C158C0BF2DB13009F08BC14E1508F488C180911610909117102D2D30E08217930708F47EC150E00196489F9001499F300D589F300D1124809111109091121060E070E0A9010E94F3
S284005D00AAAD8FEA8093A910F0921010E0921C10F801858196819093201080931F10D50111968C9111978093211012968D919C911397909323108093221014968D919C911597909325108093241016968C9116978093261017968C91179780932710809156048093AA1010921D10EE24F5018085982F9370923019F0EE2009F02EC18C7F6E
S284005D8009F02BC180911C108E1508F426C120911F1030912010D80115968D919C9116972817390709F019C190912110F5018181981709F012C12091221030912310828193812817390709F008C12091241030912510848195812817390709F0FEC0909126108681981709F0F8C0909127108781981709F0F2C050911D104091C80E2E2DAF
S284005E0030E0852F90E0840F911D281739070CF0E4C08E2D642F0E949CACF92EE51670F48E2D891B80931D1081E090E002C0880F991F4A95E2F7819580931E10AE2CBB242091161030911710A29EC001A39E900DB29E900D11244091111050911210480F591FD8011A962D913C911B97265F3F4FCA01B9014D2D50E00E948FADE091131084
S284005E80F0911410EA0DFB1DD08250911D105E1591F420911C108091C80E2E19821708F4282F81E090E002C0880F991F2A95E2F7819580931E1081E090E00F2C02C0880F991F0A94E2F740911E10482B40931E104F3F79F4252F2150E0901C10FF248091C80E90E0E51AF1088E159F050CF47C01E20E2E2D30E080911C1090E00197281751
S284005F00390751F44F3F21F483E00E94EA235FC082E00E94EA2361C06091C80E70E061507040CB01850F911D2817390711F04F3F11F582E00E94EA2380911E108F3F09F04CC08091C80E90911D10980F90931D10E09490911C10E90E8E1508F4E82E81E090E00E2C02C0880F991F0A94E2F7819580931E1032C0882777FD8095982F2AE056
S284005F8030E040E050E00E947DAC20917C0430917D0440917E0450917F04620F731F841F951F2091560430E040E050E00E947DAC609318107093191080931A1090931B1087E594E00E94837108C0882331F0C8016FEA0E94B32B80E001C081E02196EAE00C9402ADA3E3B0E0E8EFFFE20C94DEAC409052045090530420E1421621E05206E0
S28400600009F472C330E3431633E0530609F07EC16BC320910B1030910C10C701821B930B6EE570E00E94A8AC4EE5649F80011124020F131F50E1451656E0550629F080E0481685E0580689F5D80117968C9117978E7F843001F520910E1030910F10F801EA5BFF4F80819181821B930B63E270E00E94A8ACB3E26B9FF0011124E20FF31F1E
S2840060806181D70112968C911297882321F4828193810E94B32BA7014B5F5F4FF8018081918163EA0E94EC212DC1D8011796CC901797C694DD24B1E0CB16D104D1F0E2E0CE16D10424F4C114D10461F022C1F2E0CF16D10409F4FCC023E0C216D10409F018C17DC0C801D70112966C910E94B72710C1F80180858F70813009F00AC1D701DD
S28400610019968C910E943A256EA77FA788AB99AB609056047724F801808582958F70681A7108D70112966C911297662351F50E94A9264C01AA24BB242FEF31E040E050E082229322A422B522062C02C0CC0CDD1C0A94E2F79601442737FD4095542F6EA57FA588A999A90E947DAC860E971EA81EB91ED80113968D929D92AD92BC921697A3
S28400618024C06E3C11F0603F61F4A7014B5F5F4FF801808191810E94EC21C7010E948C21A3C20E94A926917028EE33E002C0220F331F6A94E2F73901820F931FA0E0B0E0F80183839483A583B683D80118968C911897807F826018968C93189774C0F80180858F70813009F094C02091AB1030E08091AE1090E001972817390759F1E091B9
S284006200C80E7091AD10272F30E080E090E01FC00196A901062E02C0559547950A94E2F740FF15C0C101062E02C0880F991F0A94E2F7809587238093AD108091AC10860F8093AB1081EB90E10E94D90E62C0682F8E17F0F2D70119968C910E943A252091560430E0F801408542954F70241B3109A10102C0440F551F2A95E2F79A014427AF
S28400628037FD4095542F0E947DAC7B018C01C090BE10D090BF100E94A926A0E0B0E09170A070B0708E0D9F1DA01FB11FF60183839483A583B683E091BE10F091BF108085807F8260808787E594E00E94837121C020910E1030910F10F801EA5BFF4F80819181821B930B63E270E00E94A8AC43E2649FF0011124E20FF31F828193816181AE
S2840063000E94B32BC7010E948C2103C081E0282E312C85E694E00E94406F7C01009709F078CEE2C18AE794E00E94406F5FE3E51654E0F50651F0D8011A96ED91FC911B9780818370813009F0C3C1F80162855385E62FF52F4081A42FA07446FF14C0709109102091061030E0B0910A10872F90E08B0F911D821793070CF0AAC1809107100B
S284006380781708F0A5C1242F2C70243009F4A0C1AA2359F0842F8370823009F499C1283009F496C12C3009F493C145FD91C1D80112966C90B62DB13079F0B23009F088C18081837090E0009729F08230910509F07FC180C02C3039F0C8010E94042D882309F492C175C1E62EF52EF8016581768180E794E0D70118964C910E941570882346
S28400640009F466C1F8018185893008F461C12B82D70111968D919C9112979D838C83858196810E941264FC01009791F0AF8680818A8B81818B8B82818C8B83818D8B84818E8B85818F8B8681888F8781898F06C06F86F80185819681998B888BD80117968D919C9118979B8F8A8FF70187818C8F858196819E8F8D8F8381948198A38F8FB1
S28400648019968C91199790E009979AA389A31A968D919C911B9709969CA38BA31DA2BEA252968C9152978FA31C968C911C9788A71E968D919D910D90BC91A02D89A79AA7ABA7BCA7D8011D968C918DA7C4010E946E2BFEC0E62FF52FE0900B10F0900C1080910610BEE58B9FC00111248E0D9F1DEBC0D70117966C91179760FFE1C0189657
S2840065002C9118972F70223009F0DAC0AA5BBF4F7C9111966C90D7012D913C91D80115964D915C911697D90113962D913C9114974217530709F0C4C0A72FB62D378117962C911797321709F0BBC04481558114962D913C9115974217530709F0B1C04281538112962D913C9113974217530709F0A7C0318116962C911697321709F0A0C04B
S284006580368111962C911197321709F099C06E7F623031F4F7018085807F836080873EC0663009F08DC091858091AC10981709F08FC06091C80E262F30E0C601062E02C0880F991F0A94E2F781959285982B9287D70118968C911897807F836018968C931897E285EF3FE1F54091AE1050E07091AC10E72FE150CA01871B910928173907DE
S2840066000CF4C9018E0F8093AB1090E0415050408417950741F4C7010E94D820C70160E00E94B72755C0760F7093AC10809156048093B0107093AB10F20102C0EE0FFF1F6A95E2F7BF0160956E7F6093AD106091BE107091BF10DB018D919C9111972DC0E095E093AD1080E090E02E2F30E01BC00196A901072E02C0559547950A94E2F72D
S28400668040FF11C0C601072E02C0880F991F0A94E2F780958E238093AD108091AC10870F8093AB1003C0782F861710F36091BE107091BF10FB01808191810E94952208C02EE530E0E20EF31EE816F90608F411CFD80156961C9256975496ED91FC915597C8014696099510C0222423940FEAB02E4E010894811C911C13E0A12EB1E0CB2ECB
S284006700D12CAFEF4A2E512C00917A0410917B04E0905204F09053040115110509F002CEE1FE0CC006C180E894E0B8010E94516FC80163EA40E050E00E94EC2100918004109181040115110571F7FDC08091BE109091BF100097A1F0C8010E941021882351F40EC0F80190818181092F182F0115110509F4E8C0C8010E941021882391F73D
S284006780D8015796EC905797E7FC62C0C8010E941021882349F08091C0109091C110009709F456C0E2FE54C0F801838994898036910510F0E3FE4EC0D8015296CC905297CC2031F08C2D0E94372B009709F48AC02E2D2470E2FE0EC0F8018281823039F483819481FFEF883F9F0720F07BC0813009F478C0D80112968C911297982F925056
S284006800923040F41D968C911D97815F8E3008F064C168C0882309F060C1222309F45DC1F801E088F1880E947C3A4C0180E090E007C0DC011B962C911B97213009F452C0B7014C2D94010E948A25009791F745C12AEA49C020EA47C0C8010E941021882311F083E007C0F801878982FF02C081E001C080E00E9421217C01F0E3CF2EF6E26B
S284006880DF2E18C180E00E9421217C01E2E7CE2EE4E2DE2E0FC1C80105960E94AE680097F9F0DC018D919C91F801948383836282C8010E941021882311F083E009C0D80157968C91579782FF02C081E001C080E00E9421217C0175E9C72E72E2D72EEAC029EA01C026EACC24DD24EE24FF2480E894E0B8012BAB0E94516F2BA9222391F491
S284006900F70111830083C8010E941021882319F0C7010E94D820C801B701F6010995282F882349F0C801622F40E050E00E94EC2102C062E0662E00918004109181040115110509F003CF8091520490915304F5E080309F0721F026E08031920781F520E03EE528C0239F80011124E0910B10F0910C10E00FF11F87818330D9F480858F70C5
S284006980843011F08230A9F48081918163EA40E050E02BAB3AAB0E94EC2180910B1090910C10800F911F8E5A9F4F0E948C213AA92BA92F5F809106102817A0F260C034E08F33930709F05BC000E01EE553C0019FC0011124E0910B10F0910C10E80FF91F978190FF46C08085282F2F70243009F040C09E7F923011F09630D9F5807FA9F100
S284006A008085982F9F709130A1F1807F805181608087809168048F5F8093680487818E7F823049F4CF0109960E94B15B87E594E00E9483711EC08630E1F48091AD108E7F8093AD108091AC108093AB108091B01081508093B0106091BE107091BF10DB018D919C910E94952204C0CF0167EA0E94B7270F5F80910610081708F4A8CF8091DA
S284006A80520490915304B5E080309B07B9F580916804882399F514C080E00E94512980E196E09093530480935204C80160E00E94682224C0E114F10409F445CF20E017CF0091820410918304F801838194818D7F94838383009791F4DFCFD80112968C911297813009F4CECE813008F4B5CE823009F4DECE833009F0F5CECDCEE396E2E1CE
S284006B000C94FAAC80E191E090935304809352041092830410928204109255041092540410928704109286040E94BE260E94C66A089529E1FC0122830E945F2408952AE8FC0122830E945F24089525ECFC0122830E945F24089590910D10E0910E10F0910F1080E005C02081B3962223D1F48F5F8917C8F390910610E0910B10F0910C10F9
S284006B8080E006C02781E25AFF4F20FD0CC08F5F8917C0F381E090911010992329F480E0089581E0089581E00895A2E0B0E0EBEDF5E30C94EEAC9091540470915504272F30E0692F6F5F683008F060E0A901062E02C0569547950A94E2F740FF1CC06093540481E090E0062E02C0880F991F0A94E2F787278093550470E0660F771F685C25
S284006C00784FCE01019642E050E00E9479ADE981FA81099504C09617A9F69093540480915504882361F02FB7F89480918F049091900480629093900480938F042FBF2296E2E00C940AAD80912B0F8530A1F0863028F4882349F0823029F40DC0843169F0863149F080E008958091240F882329F08B3028F402C082E0089588E0089582E0A6
S284006C8008950E942336282F30E03695322F222737952795982F990F990F980F290F311DC9010895833014F083E01BC0982F9A5F923010F48BEF15C0982F985F923010F489EF0FC0982F965F923010F487EF09C0982F925F943010F484EF03C0823F0CF48FEE8093290F0895CF93DF930E9469ADEC0124E0CC0FDD1F2A95E1F7C0700E94F9
S284006D0069AD282F30E02C2B3D2BC901DF91CF91089580912B0F8530E9F0863028F4882349F0823029F40EC0843191F0863171F080E008958091240F882351F08B3050F489E108958091240F882331F488E2089582E3089580E1089580E10895CF93DF930E944136EC010E94893690E08C9FB0018D9F700D9C9F700D112480E090E028EED2
S284006D8033E040E050E00E94BCAC2F5F2093230FDF91CF910895FF920F931F93CF93DF93C4E2DFE08BE08093240F80E098EFAFEFB7E08093250F9093260FA093270FB093280F8E010B5F1F4F83E0B8010E94530E8091290F0E94523683E0B8010E946E0EFF24F394F0922A0F10922B0F0E94413690932D0F80932C0F0E942336982F990F30
S284006E00990F980F90932E0F0E94233680932F0F8E010C52104086E390E0A0E0B0E0F80180839183A283B38314821582F6821086178211860E947436F8018287A1978FEF838789838A838B838C838D838E838F83CFEFDFEFD48BC38B0E947436F801858B85E0868B84E0878B83E0808F818FD38FC28F80E2848F158E168ED0A3C78F11A6B4
S284006E8012A60E94AE36CDB7DEB7E5E00C9407AD0F931F93CF93DF93EC010E948936182FBE0180E090E020EC33E040E050E00E947DAC212F30E040E050E00E947DAC28EE33E040E050E00E94BCACB901CA01DF91CF911F910F910895A4E0B0E0E2E7F7E30C94EEACDC018C91282F30E0205430402434310508F0E6C029513F4FF9010C9453
S284006F0015AD11968C9111978093FD0E08C011968D919C9112979093000F8093FF0E80E027C111968C911197853308F020C18093010FF5CF11968C9111978093020FEFCF11968C9111978093030F12968C9112978093040F13968C9113978093050F14968C9114978093060F15968C9115978093070F16968C9116978093080F17968C9134
S284006F8017978093090F18968C91189780930A0FC6CF11968D919C91129790930C0F80930B0FBDCF11968C91119780930D0FB7CF11968C911197863008F0D9C080930F0FAECF11968C91119790910E0F981708F4CEC08093110FA3CF11968D919C9112979093130F8093120F9ACF11968C9111978093150F94CF11968D919C91129790939B
S284007000180F8093170F8BCF11968D919C9112970E94483769837A838B839C8382E0BE016F5F7F4F84C0BD016F5F7F4F82E07FC011968C9111978093190F12968C91129780931A0F13968C91139780931B0F14968C91149780931C0F15968C91159780931D0F16968C91169780931E0F17968C91179780931F0F18968C9118978093200FF7
S2840070804ECF11968C9111978093FC0E48CF11968C911197883008F06AC08093100F3FCF11968C9111978093140F39CF11968C91119780930E0F33CF11968C9111978093220F2DCF8330B1F1843028F4813041F0823008F507C08430A9F1883008F045C08BEF46C011962C918091250F9091260FA091270FB091280F022E04C0B695A795FB
S284007100979587950A94D2F781709070009779F12093240F27C011968C911197982F905E903428F50E94523683E069E27FE00E946E0EF5CE11968C9111978430C0F480932A0FEDCE11968C911197853049F0863018F4833060F404C0843111F0863139F480932B0F0E94AE36DACE84EF01C088EE2496E2E00C940AADA0E0B0E0E2ECF8E375
S2840071800C94E2ACE0900F0F60910E0F70E02091110F30E04E2D50E0CB01821B930B481759070CF4CA01AA2797FDA095BA2F0097A105B10521F481E090E0A0E0B0E0E0E0AA24BB2465013C014D0108946108710881089108E901219702E010E013C09E012E0F311DA80102C0440F551F2A95E2F79A01442737FD4095542FA20EB31EC41EB9
S284007200D51EEF5F2E2F30E040E050E0621673068406950620F7FF2400E010E0E81AF90A0A0B1B0B6150704022E030E002C0220F331F6A95E2F721503040442737FD4095542FC801B7010E947DAC6A0D7B1D8C1D9D1D24E130E040E050E00E947DAC7B018C010E944136A0E0B0E0E80EF91E0A1F1B1F0E948936282F30E040E050E0C801D2
S284007280B7010E947DAC28EE33E040E050E00E94BCACB901CA01CDB7DEB7EEE00C94FEAC0F931F930E948936182F6091140F70E080E090E020EC33E040E050E00E947DAC212F30E040E050E00E947DAC28EE33E040E050E00E94BCACB901CA011F910F910895A4E0B0E0E7E7F9E30C94E8AC8C01FC012081822F90E08054904084349105C3
S28400730008F0BCC0855D9E4FFC010C9415AD8091FD0EF801818380E0EBC08091FF0E9091000FD5C08091010FF4CF8091020FF1CF8091030FF80181838091040F82838091050F83838091060F84838091070F85838091080F86838091090F878380910A0F68C080910B0F90910C0FB1C080910D0FD0CF80910F0FCDCF8091110FCACF8091C9
S284007380120F9091130FA3C08091150FC2CF8091170F9091180F9BC082E0BE016F5F7F4F0E94530EC980DA80EB80FC80C114D104E104F104C9F00E948936682F70E080E090E020EC33E040E050E00E947DAC28EE33E040E050E00E94BCAC40E050E0C701B6010E94BCAC02C024EF31E0F8013283218391CFB8016F5F7F4F82E00E94530E9A
S2840074008ACF8091190FF801818380911A0F828380911B0F838380911C0F848380911D0F858380911E0F868380911F0F87838091200F808770CF8091FC0E6BCF8091100F68CF8091140F65CFF801118264CF8091F80E9091F90EA091FA0EB091FB0E2FC080910E0F56CF8091220F53CF0E945039F80161837283838394834DCF2330A1F0F5
S284007480243028F4213099F0223058F407C0263011F1273049F1253051F517C08091240F38CF8091290F35CF80912A0F32CF8091250F9091260FA091270FB091280FF80181839283A383B48326CF0E944136F8019283818320CF0E942336982F990F990F980FF801918317CF0E94233612CF84EF2496E8E00C9404AD89E19FE00895FC0151
S28400750080818093190F818180931A0F828180931B0F838180931C0F848180931D0F858180931E0F868180931F0F87818093200F0895BC0189E19FE048E050E00E9482AD9C0181E02115310509F080E00895AF92BF92CF92DF92EF92FF920F931F935B016C010E942336E82E0E948936FF2400E010E0282F30E040E050E0C801B7010E9450
S2840075807DACA60195010E947DAC28EE33E040E050E00E94BCACB901CA011F910F91FF90EF90DF90CF90BF90AF9008952FEF8C3F9207D9F02FEF8D3F920728F42FEF8B3F9207F1F409C02FEF8D3F9207A1F02FEF8F3F9207A9F416C08091D80F8130A1F49091740F92FD11C00BC081E09091D80F923058F005C09091740F81E093FD05C032
S28400760080E0089581E0089580E0089581E090912F119A3A09F080E00895E0911511F09116112091171130911811408140FF05C0418152818417950731F03B96E217F307A0F3E0E0F0E0CF01089581E09091E210913409F080E0089581E09091DD10963D09F080E0089581E090910911933109F080E0089581E090916811973B09F080E096
