:100000000C943D040C94E91F0C9416200C9443208E
:100010000C9470200C949D200C94CA200C94F72012
:100020000C9424210C9475040C9475040C947504A0
:100030000C9475040C945B1C0C9475040C94A41C17
:100040000C9475040C9475040C9475040C9475044C
:100050000C9475040C9475040C9475040C9475043C
:100060000C9415230C94291F0C94CD1E0C94FB1E8C
:100070000C9475040C94AF220C94CC210C94750450
:100080000C9475040C9475040C9475040C9475040C
:100090000C94B71F0C945B1F0C94891F0C94512176
:1000A0000C9475040C9475040C944E1E0C948EB034
:1000B0000C9475040C9475040C9475040C947504DC
:1000C0000C9475040C9475040C9475040C947504CC
:1000D0000C9475040C9475040C9475040C947504BC
:1000E0000C9475040C9475040C9475040C947504AC
:1000F0000C94EBB00C9475040C9475040C9413B12F
:100100000C9475040C9475040C9475040C9475048B
:100110000C9475040C9475040C9475040C9475047B
:100120000018080000001B18010001004818080012
:100130000200B01704000300C81801000400BF1833
:10014000010005002B18010006002C180100070013
:100150002D18010008003718110009001C180200B2
:100160000A00221801000B00CA1802000C00C21875
:1001700001000D00D81801000E00521801000F00F8
:100180005318020013005C1801001400CE18080078
:1001900015002118010016006C10BD0017001C1579
:1001A0000C0018007017160019002A0410001E0019
:1001B0004A0404001F0052040200200056041700E5
:1001C0002100840414002200AC0411002300543CDC
:1001D000653B993C993C993C6B3B753B993C993C00
:1001E0007E3B843BAD3BB63B993CBC3BC53BD03BE7
:1001F000993CD93BDF3B993CE83B253C3A3C993C58
:100200002B3C343C543C543C543C463C463C463CE1
:10021000463C463C463C463C463C463C463C463CCE
:10022000463C463C463C463C463C463CFC3B463C09
:10023000993C993C993C993C993C993C993C993C16
:10024000993C993C993C993C993C993C463C403CB2
:10025000543C463CF73B0B3E6B3D5B3E5B3E5B3E9E
:10026000713D763D223E5B3E793D7C3D953D9A3D1C
:100270005B3E9D3DA03DA33D5B3EA83DAB3D223E88
:10028000B03DFF3D143E5B3E023E053E6F3D083EE5
:10029000083E223E223E223E223E223E223E223E78
:1002A000223E223E223E223E223E223E223E223E4E
:1002B000223E223EE53D223E5B3E5B3E5B3E5B3E98
:1002C0005B3E5B3E5B3E5B3E5B3E5B3E5B3E5B3E66
:1002D0005B3E5B3E223E173E1A3E223EDE3DB9505B
:1002E000B95053505A505A50665066507750775014
:1002F0009D509D509D500951B950146621664E661F
:1003000060666766746681668C669466B266DC6653
:100310009E66E9809281568270828982AC83D983FD
:100320009A879A879A879A879A879A879A879A87C5
:100330009A87328340839A877B8064834382F187E4
:10034000FE8720881A88178820882A88238A238A8B
:10035000238A238A238A238A238A238A238A1A8840
:100360002088238AEE871D880E88B18CB68CBB8CC2
:10037000C08CC58CCA8CCF8CCF8CDD8CE08CF98C7A
:10038000E38CE68CE98CEC8CF98CEF8CF28CF98C9C
:10039000F58CEF902B912B912B91F5900E91019173
:1003A00007913B91FB90149114911A912B913291EA
:1003B0003691869189918C918C918F919B91959199
:1003C0009891AB9192919E91A191A491A7915893EC
:1003D0005C938493609364938493689384937693FB
:1003E0007A938193C197809892987B97D898D89860
:1003F0008D9892989598C398AC98D898D898C398A7
:10040000AF97C6982BA833A845A84EA850A852A8C5
:1004100054A857A828A9A1A9A1A950A956A965A976
:100420006BA96EA971A974A97AA900000100020044
:1004300003000400050006000700080009000A0088
:100440000B000C000D000E000F001300140015002F
:1004500016001A001B000000010002000300040047
:10046000050006000700080009000A000B000C0048
:100470000D000E000F0013001400150016001700E9
:10048000180019000000010002000300040005002C
:1004900006000700080009000A000B000C000D0010
:1004A0000E000F00130014001500160000000100DC
:1004B0000200030004000500060007000800090010
:1004C0000A000B000C000D000E000F0018000000C9
:1004D000000000000000000000000000000000001C
:1004E000000000000000000000000000000000000C
:1004F00000000000000000000000000000000000FC
:1005000000000000000000000000000000000000EB
:1005100000000000000000000000000000000000DB
:1005200000000000000000000000000000000000CB
:1005300000000000000000000000000201000202B4
:100540000508080000FFFF34120000000000000052
:100550000002020100800000000000000000000016
:10056000000000000000000000000000000000008B
:100570000000000000000000000000000000050076
:10058000FF00000200001E000003341201030300FC
:1005900000B80B000010270000010001E803000074
:1005A00004E80300001041746D656C2020202020B9
:1005B000202020202020AAAAAAAAAAAAAAAA030127
:1005C0000085000000070507040205020402040379
:1005D00014040804020A01005F0035000E01141023
:1005E000001808000A180100171804001B18010061
:1005F000C6180100C7180100CE180800CA1802006A
:10060000531802005C180100C2180100D81801003C
:10061000C81801001E1801001F1801002018010051
:10062000211801001C18020022180100C418010042
:10063000C3180100DA170100DC1701004818080090
:10064000B01704002E180400231804002718040013
:100650002B1801002C1801002D180100371811006B
:10066000BF180100321801003318040050180100AF
:10067000DD170200521801005118010000000000AF
:10068000C1050200C5050100C3050200C705010040
:10069000C8050100C9050100CA050100CB0501001C
:1006A000CC050100CD050100CE050100C605010005
:1006B000CF050100D0050100DE050200D3050100D1
:1006C000D4050100D5050100DA050400D1050100BB
:1006D000D2050100D6050100D7050100D8050200AA
:1006E0004D0F00006C100000D20F00002911000017
:1006F0000000000053110000E61600003E17000045
:100700002F140000811400004B140000B8140000E6
:1007100028150000A01600000000000000000000E6
:100720001C15000070170000861700003D142C15E2
:100730004114451428154914882ED63300000000B2
:100740000000000000000000BC4F0000EC62F36EEF
:10075000864860560000FC4A3152825100008747AB
:10076000076B6E45685FFD4400000000000000005C
:100770000000000002020302020201010101010166
:10078000010202010101020202020202020202024D
:100790000202020303020203028D4D58470107D6ED
:1007A00068D4520101D668D4520101000000000152
:1007B00001154D256C0101154DFE6B0107CD4C9BBC
:1007C0004F0101744CBC6B010100000000010700E7
:1007D00000000001010000000001030000EE4101E3
:1007E000040000EE410105000000000106000000C9
:1007F00000010C000000000101D6680000000100AB
:10080000000000010D0000000001070000000001D1
:1008100009000000000100000000000101000000CC
:100820000001010000000000000000F24500070088
:1008300000F245000B0000F24500000000F2450008
:10084000093F0000443F253F3D3F0000103F1E3F51
:100850000000173F0000EA3EA541AC411E4297410F
:100860004B3F0000DB43F46D2E6D3C63436C000096
:10087000E26400007E4E0000000011248091EF1E13
:10088000823141F084B78F718093EF1E80FF05C0E5
:1008900081E001C081E18093EF1E14BE8091600071
:1008A0008861809360001092600011241FBECFEF1A
:1008B000D1E4DEBFCDBF13E0A0E0B2E0E8EFFAE69E
:1008C00001E00BBF02C007900D92A23AB107D9F721
:1008D0001EE1A2EAB3E001C01D92AF3EB107E1F70D
:1008E0000E94F1750E94B375FDCF0C9400007F93B8
:1008F0007FB7F8949D9AA5988AEF0E94D6048AEF54
:100900000E94D6049D9886E40E94D60481E09599C1
:1009100080E08F9380EF0E94D6048F917FBF7F91FC
:1009200008957F937FB7F8949D9AA59886E00E94DA
:10093000D6049D988AE00E94D604889495990894DC
:10094000881F8F9384E60E94D6048F917FBF7F918A
:1009500008959F937F9398E00E94910487957795DF
:100960009A959923C9F7872F7F919F9108957F9337
:100970007FB7F894A5989D9A8F9386E00E94D6043D
:100980008F91879508F49D988F9384E60E94D604F2
:100990008F919D987FBF7F9108959F9398E00E94CB
:1009A000B7049A959923D9F79F9108950000000004
:1009B000000000008A958823C9F708955F937F930C
:1009C0007FB7F894CF93DF93C0E0D0E07F9350914E
:1009D000B2007091B2007517E1F3739521965091B2
:1009E000B2005717D9F77F91CE01DF91CF917FBF2A
:1009F0007F915F9108950F93DF93CF93CDB7DEB7CB
:100A000060970FB6F894DEBF0FBECDBF002309F488
:100A100059C029833A834B835C836D837E838F83A4
:100A20009887E0E2E01B29813A814B815C811E16A8
:100A3000BCF019861A861B861C868E2F992787FD87
:100A40009095909581959F4F04C0220F331F441FAE
:100A5000551F8A95D2F72D873E874F87588B2AC01E
:100A6000CA01B901002E04C0660F771F881F991FA5
:100A70000A94D2F769877A878B879C87DA01C90144
:100A800004C0B695A79597958795EA95D2F72D81DD
:100A90003E814F81588504C0220F331F441F551FCC
:100AA0000A95D2F7822B932BA42BB52B8D879E878B
:100AB000AF87B88B29853A854B855C856D857E85AA
:100AC0008F85988960960FB6F894DEBF0FBECDBFB4
:100AD000CF91DF910F910895DC019296ED91FC91F9
:100AE0009397808190E09093120B8093110B08955F
:100AF0000895A0E9B1E0EFE7F5E00C949EB16C0138
:100B0000DC011A968C911A97882309F0B3C08E01E4
:100B10000F5F1F4F00D000D000D0EDB7FEB7319669
:100B2000ADB7BEB712961C930E93119780E092E07A
:100B300093838283D6011D968C91848315820E94B3
:100B400081B2D8010D900020E9F7AD01415050402D
:100B5000401B510BEDB7FEB736960FB6F894FEBFAB
:100B60000FBEEDBF8EEA93E0B8010E949E155EE0D5
:100B7000E52EF12CEC0CFD1C470143EA642E4BE8FA
:100B8000742EC801B02EA92E31E2432E32E0532E2E
:100B90003DC08DB79EB708970FB6F8949EBF0FBEA5
:100BA0008DBFEDB7FEB73196ADB7BEB712961C93A9
:100BB0000E93119753824282D70152968C9152978D
:100BC00083708483158250968D919C915197978361
:100BD00086830E9481B2D8010D900020E9F7AD0113
:100BE00041505040401B510BEDB7FEB738960FB641
:100BF000F894FEBF0FBEEDBF8EEA93E06B2D7A2D09
:100C00000E949E1586E190E0E80EF91EC701881942
:100C1000990995958795869D9001879D300D969DA4
:100C2000300D1124D6011D968C911D9790E0281748
:100C300039070CF4AECFC80162E472E00E947AB2C8
:100C4000D8010D900020E9F7AD0141505040401B04
:100C5000510B8EEA93E06B2D7A2D0E949E158091A8
:100C60000104882339F483E0809301048FEC93E03E
:100C70000E94FB7EC057DE4FE0E10C94BAB121E345
:100C800030E03093D6032093D5031092D70390938E
:100C9000D9038093D80389E795E090934804809323
:100CA00047048FEC93E00E94FB7E0895FC0187854A
:100CB000882389F40E94B41082E0809399042FB7AE
:100CC000F8948091E9069091EA0694609093EA0680
:100CD0008093E9062FBF089581E00E94D410089503
:100CE000EF92FF920F931F93CF93DF938EEA93E0DF
:100CF00063E17BE04AE050E00E943B15CDE1D9E0A2
:100D0000CE0163E17BE00E946FB28091130B8A35C4
:100D1000C1F08091140B8A35A1F08091150B8A35B2
:100D200081F08091160B8A3561F08091170B8A351E
:100D300041F08091180B8A3521F08091190B8A358A
:100D4000A9F589E297E004EF11E0DC01F8011D92BA
:100D50003197E9F76DE179E00E947AB27E01EC2FDC
:100D6000FF2DDF010D900020E9F7AD01415050400B
:100D70004E1B5F0BCDE1D9E08EEA93E0BE010E94ED
:100D80009E15FE019801119221503040E1F788E054
:100D9000809399042FB7F8948091E9069091EA0620
:100DA00094609093EA068093E9062FBFCDB7DEB733
:100DB000E6E00C94C4B1A3EAB0E0E1EEF6E00C94F6
:100DC0009CB180919904823009F487C0833030F45B
:100DD000882371F0813009F065C35AC0873009F467
:100DE0009DC0883009F4B7C2853009F05BC36CC080
:100DF00088EC8093B9031092BA031092CE0389E174
:100E000090E09093BC038093BB0386E08093BD0386
:100E10001092BE031092BF038DE19BE09093C30339
:100E20008093C20384EF91E09093C5038093C40341
:100E300021E13DE03093C7032093C6039093C9039B
:100E40008093C80380E796E09093CB038093CA0316
:100E50001092CD031092CC038EEA93E00E941C16F0
:100E60000E94B01080E00E94C41081E00E94C41073
:100E700081E0809399042FB7F8948091E9069091CE
:100E8000EA0694609093EA068093E9062FBF0AC3AE
:100E9000898381E191E19B838A8382E1BE016F5F57
:100EA0007F4F0E94EF1181E1BE016E5F7F4F0E9474
:100EB000EF1186E596E0909386058093850583E79C
:100EC00095E00E94057EEEC280919A04882309F085
:100ED000E9C282E080939904E5C280E093E00E9439
:100EE0002E2F88E093E00E942E2F83E090E0A0E078
:100EF000B0E08093A1049093A204A093A304B093C4
:100F0000A4041092A5048CE696E09093A704809325
:100F1000A6048BE994E00E945A12C4C298EAE92E12
:100F200094E0F92E8DEBD7011D928A95E9F70DE13A
:100F300019E084EFC82E81E0D82EF80196011192B5
:100F400021503040E1F7C7010E944A7DC801B02E10
:100F5000A92E65E472E00E947AB2D8010D900020BB
:100F6000E9F7AD0141505040401B510B8EEA93E030
:100F7000B8010E949E15F80196011192215030404F
:100F8000E1F7B4E0CB2ED12CCC0EDD1EA7E48A2EE7
:100F9000A2E09A2EFBE56F2EF2E07F2EE8EA4E2EBD
:100FA000E3E05E2E7BE4272E72E0372ED1C0D6011F
:100FB000EAE01D92EA95E9F7D7011A968C911A9703
:100FC000813009F1813020F0823009F07AC05DC0B3
:100FD00000D000D000D0EDB7FEB73196ADB7BEB7A8
:100FE0001296DC92CE92119793828282358224826D
:100FF0000E9481B2EDB7FEB736960FB6F894FEBFE9
:101000000FBEEDBF5EC000D000D000D0EDB7FEB780
:101010003196ADB7BEB71296DC92CE9211979382FD
:101020008282758264820E9481B28091FE029091D8
:10103000FF02F70120813181DC0112963C932E934F
:1010400011978B5A9340EDB7FEB736960FB6F894CA
:10105000FEBF0FBEEDBF8330910520F45092FF021A
:101060004092FE028091FE029091FF0203969093BF
:10107000FF028093FE028FEF99E6A8E18150904035
:10108000A040E1F700C000001CC000D000D000D09C
:10109000EDB7FEB73196ADB7BEB71296DC92CE92E1
:1010A00011979382828226E632E0358324830E9460
:1010B00081B28DB79EB706960FB6F8949EBF0FBE4D
:1010C0008DBF00D000D000D0EDB7FEB73196ADB7E0
:1010D000BEB71196BC9211971296AC9225E732E0FA
:1010E00033832283D7018D919C91958384830E94C1
:1010F00081B2F70182852DB73EB72A5F3F4F0FB609
:10110000F8943EBF0FBE2DBF882349F18B2D9A2D39
:10111000B6010E946FB2EB2DFA2DDF010D90002079
:10112000E9F7AD01415050404E1B5F0B8EEA93E052
:101130006B2D7A2D0E949E15EDE1F9E024EF31E050
:10114000119221503040E1F78BE190E0E80EF91E5A
:10115000C701885A94408D3B91050CF428CF8DE14E
:1011600099E068E772E00E947AB2D8010D90002001
:10117000E9F7AD0141505040401B510B0DE119E022
:101180008EEA93E0B8010E949E1584EF91E0F80189
:101190009C01119221503040E1F765E6E62E65E0B2
:1011A000F62E87E0D7011D928A95E9F789E1B7010C
:1011B0006E5F7F4F0E94D4118E01025F1F4FEDB70B
:1011C000FEB738970FB6F894FEBF0FBEEDBF31964D
:1011D000ADB7BEB712961C930E9311978AE792E0B3
:1011E000938382838091670590916805A09169053A
:1011F000B0916A0584839583A683B7830E9481B2E8
:10120000D8010D900020E9F7AD0141505040401B3E
:10121000510BEDB7FEB738960FB6F894FEBF0FBE70
:10122000EDBF8EEA93E0B8010E949E1584E0B701FD
:101230006A5F7F4F0E94D41100D000D000D0EDB77C
:10124000FEB73196ADB7BEB712961C930E931197A9
:101250008AE992E09383828380916B05848315826F
:101260000E9481B2D8010D900020E9F7AD014150F4
:101270005040401B510BEDB7FEB736960FB6F894B1
:10128000FEBF0FBEEDBF8EEA93E0B8010E949E152F
:101290008FE0B7010E94D41100D000D000D0EDB78C
:1012A000FEB73196ADB7BEB712961C930E93119749
:1012B0008CEB92E093838283809165058483158211
:1012C0000E9481B2D8010D900020E9F7AD01415094
:1012D0005040401B510BEDB7FEB736960FB6F89451
:1012E000FEBF0FBEEDBF8EEA93E0B8010E949E15CF
:1012F0008DE0B7016F5F7F4F0E94D41100D000D006
:1013000000D0EDB7FEB73196ADB7BEB712961C93BD
:101310000E93119782EE92E093838283809166050B
:10132000848315820E9481B2D8010D900020E9F7D4
:10133000AD0141505040401B510BEDB7FEB7369602
:101340000FB6F894FEBF0FBEEDBF8EEA93E0B80172
:101350000E949E15A7C0E9E2F7E001900020E9F79E
:101360003197E952F740E330F10541F0E430F105FF
:1013700051F0E230F10509F08BC016C080912A07C8
:1013800090E0C0970DC080912B0790E08051924073
:1013900030912A072AE0329F90011124820F931F77
:1013A000009709F475C002C081E090E02091290700
:1013B0002D34F9F02E3430F4233469F0263409F05A
:1013C00067C00FC0213509F450C0223549F12035DE
:1013D00009F05EC015C08093720584E062E775E095
:1013E00005C080936C058FE06CE675E00E94EF11FC
:1013F0004FC081E080936D058DE06DE675E0F6CF1E
:1014000087E0809399042FB7F8948091E906909132
:10141000EA0694609093EA068093E9062FBF38C0ED
:1014200084E390E090938E0580938D0510928F0554
:101430001092910510929005109200061092FF05EF
:10144000E9EBF5E01092B905118212821382148241
:101450001582168217828091C105806C8093C10528
:10146000CF01C2970E94FB7E13C01092010481300D
:10147000910529F48091A9039091AA0307C08230B5
:10148000910531F48091AC039091AD030E943F0629
:1014900084EF91E0E9E2F7E0DF019C011D92215029
:1014A0003040E1F7CD55DF4FE2E10C94B8B1EF9257
:1014B000FF920F931F93CF93DF938C0180E00E94E4
:1014C000B410D8018C91823921F0833909F089C098
:1014D00051C085E08093990481E080939A04CDE126
:1014E000D9E000D000D000D0EDB7FEB73196ADB74F
:1014F000BEB71296DC93CE93119785E792E0938363
:101500008283D80111968D919C9112979583848343
:101510000E9481B27E01EC2FFF2DDF010D90002093
:10152000E9F7AD01415050404E1B5F0BEDB7FEB7E0
:1015300036960FB6F894FEBF0FBEEDBF8EEA93E06D
:10154000BE010E949E1584EF91E0DE01FC011D9218
:101550003197E9F781E00E94D4102FB7F894809179
:10156000E9069091EA0694609093EA068093E90672
:101570002FBF37C081E00E94D410CDE1D9E000D068
:1015800000D000D0EDB7FEB73196ADB7BEB712961A
:10159000DC93CE93119785E792E093838283D80101
:1015A00011968D919C911297958384830E9481B2AC
:1015B0007E01EC2FFF2DDF010D900020E9F7AD013A
:1015C000415050404E1B5F0BEDB7FEB736960FB63D
:1015D000F894FEBF0FBEEDBF8EEA93E0BE010E94FD
:1015E0009E15CDB7DEB7E6E00C94C4B1089508951A
:1015F00008950895A6E0B0E0E0E0FBE00C94AAB105
:101600008E010F5F1F4F26E0F80111922A95E9F72E
:10161000FC0123E0F695E7952A95E1F7E00FF11F2D
:101620008770907021E030E002C0220F331F8A954E
:10163000E2F72083C8010E94260FD801EBE2FFE009
:10164000CE0107963D912081232B2193A817B9073E
:10165000C9F78091460F84608093460F2696E4E098
:101660000C94C6B102C00E94EE750E94AC1888238B
:10167000D1F708950F931F93CF93DF938C01EB0164
:101680000E94320BC801BE010E94D3172FEF8F3F7B
:10169000920739F08AE0C93FD80729F40E94320B3B
:1016A00002C081E001C080E0DF91CF911F910F91D6
:1016B00008950F931F93CF93DF938C01EB010E944A
:1016C000320BC801BE010E9437182FEF8F3F9207DF
:1016D00039F08AE0C93FD80729F40E94320B02C0D2
:1016E00081E001C080E0DF91CF911F910F910895BB
:1016F0002F923F924F925F926F927F929F92AF9202
:10170000BF92CF92DF92EF92FF920F931F93DF93DE
:10171000CF93CDB7DEB762970FB6F894DEBF0FBE9A
:10172000CDBF8091460F82608093460F82FF94C0A8
:1017300081E596E06BE27FE00E94D70F8091460F33
:101740008B7F8093460F88C0E0905706F090580634
:10175000F70103E0F695E7950A95E1F7E75EF04FAC
:10176000C70187709070960102C0220F331F8A95BF
:10177000E2F7C901809592898923828B69857A85F0
:101780004B855C8580E00E94F70F982E588A4F8623
:101790003A8A298A8F81988505979E878D87C5010A
:1017A00069EF7AE00E943A0B8A819816A1F58D8143
:1017B0009E81E816F90679F52B853C858B819C8105
:1017C0002817390741F581E090E08C0F9D1F988B19
:1017D0008F87DA8AC98A00E010E017C08F81988568
:1017E000800F911F9E878D87C50169EF7AE00E9467
:1017F0003A0BAF85B889E985FA85E00FF11F9C9116
:101800008081981741F40F5F1F4F8B859C850817C7
:10181000190720F336C09A82FE82ED828B859C8563
:101820009C838B83CE010296988B8F8785E090E016
:101830009A8B898B8F81988505979E878D87CE019E
:101840000D9669EF7AE00E94590BCE01079668E782
:101850007BE00E94590B27C017E0612E712C6C0EA3
:101860007D1EB1E0CB2ED12CA2E04A2E512C4C0E85
:101870005D1EF5E02F2E312CEDE0AE2EB12CAC0E1E
:10188000BD1E81E596E0B3010E94C60E882309F0D3
:101890005BCF8091460F8D7F8093460F8FE060E095
:1018A00070E00E94DC7462960FB6F894DEBF0FBE43
:1018B000CDBFCF91DF911F910F91FF90EF90DF90FF
:1018C000CF90BF90AF909F907F906F905F904F9020
:1018D0003F902F900895282F392FF90180E09191A2
:1018E000992329F48F5F8630D1F780E0089581E055
:1018F00008959C01CB0146E0DB011D924A95E9F772
:10190000F90143E0F695E7954A95E1F7E60FF71FF1
:101910002770307041E050E002C0440F551F2A95F7
:10192000E2F72081242B20830E94260F0895972F11
:10193000882319F08130A1F40EC0A1E3BFE0E62FA7
:10194000F72F9D918081892381938FE0A733B8077A
:10195000C1F791E006C0862F0E94691091E08111C5
:1019600090E0892F08950E94FA0A8091460F81FD28
:1019700002C00E94780B81E00895A6E0B0E0E3EC9D
:10198000FCE00C94AAB18E010F5F1F4FB8010E94BA
:10199000790C80E0B8010E94970CC8010E946B0C82
:1019A000882381F0A5E2BFE0F8019D918081892321
:1019B00081938FE0AB32B807C1F7CE0101960E9448
:1019C0006B0C01C080E02696E4E00C94C6B1A8E15F
:1019D000B0E0EDEEFCE00C94A0B100E211E0109359
:1019E0001A0F0093190F8AEA91E090931C0F8093CD
:1019F0001B0F8AEA91E0801B910B26E030E0B901D1
:101A00000E9466B180911D0F90911E0F682B792B5B
:101A100070931E0F60931D0F8EEC91E08A5A9140D7
:101A2000B9010E9466B180911F0F9091200F682B21
:101A3000792B7093200F60931F0F1092210F10923B
:101A4000220F1092230F1092240F86E0E1E3FFE0B3
:101A5000DF011D928A95E9F7AA2483E1882E912C53
:101A60008C0E9D1EB1E0CB2ED12C38C0C401B80124
:101A700046E050E00E9437B28D899E890596A0E02D
:101A8000B0E02091210F3091220F4091230F50910F
:101A9000240F820F931FA41FB51F8093210F9093D3
:101AA000220FA093230FB093240F8F89988DFC01F0
:101AB000A3E0F695E795AA95E1F7E75EF04F87700A
:101AC0009070960102C0220F331F8A95E2F7C90178
:101AD000208D282B208F0A5F1F4FA39420911D0F6C
:101AE00030911E0F8A2D90E08217930708F4BECF25
:101AF000C901880F991F820F931F880F991F0496A1
:101B00006C01EE24FF24CE010D969A87898786E02A
:101B100090E09C878B87AA24BB2400E010E067E05C
:101B2000862E912C8C0E9D1E53E1652E712C6C0E11
:101B30007D1EF80143E0F695E7954A95E1F7E75EEB
:101B4000F04F808D90E098012770307002C096951C
:101B500087952A95E2F780FF3DC0C501880F991F40
:101B60008A0D9B1D880F991F049698878F83C40147
:101B700069EF7AE00E943A0B89899A898017910768
:101B800049F48D859E85AF85B8898C159D05AE0578
:101B9000BF0559F01A8B098BCD86DE86EF86F88A51
:101BA000C40169EF7AE00E94590BC8010E940A0E35
:101BB000BC01C30146E050E00E9437B28D899E8986
:101BC0000596A0E0B0E0C80ED91EEA1EFB1E0894E0
:101BD000A11CB11C0F5F1F4F0D32110509F0A9CFD9
:101BE0000E94010ECE0101960E9469106896EEE0F7
:101BF0000C94BCB18091440F9091450F0E94B30C9E
:101C000008951092410F8AEF9DE09093430F8093C7
:101C1000420F0895A2E0B0E0E0E1FEE00C94A2B132
:101C20004C010091190F10911A0FEE24FF245E0150
:101C30000894A11CB11C13C06801B8016C5F7F4FF0
:101C4000C50142E050E00E9437B20A5F1F4F898110
:101C50009A818815990561F00894E11CF11C809126
:101C60001D0F90911E0FE816F90630F3CC24DD24E9
:101C7000C6012296ECE00C94BEB1A2E1B0E0E3E430
:101C8000FEE00C94A9B18B01BC0153E076956795F9
:101C90005A95E1F7FB01E75EF04F208D30E0AC0193
:101CA0004770507002C0369527954A95E2F720FF9D
:101CB0004AC0DE011D96E1E3FFE026E001900D92AF
:101CC0002150E1F7FF2420E030E0FE013D961BC0EB
:101CD000DF01A40FB51F4C91542F569555754575CE
:101CE000540F452F4695469543735373450F4C93B8
:101CF000A42FA295AF7050E04F7050704A0F511D45
:101D0000240F351FF3944F2D50E04617570700F36B
:101D1000A0E087709070FE013D96E60FF71F0DC0A2
:101D2000408150E00A2E02C0569547950A94E2F78A
:101D300041705070240F351FAF5F4A2F50E0481795
:101D4000590770F302C02FEF3FEFCE0107969C8337
:101D50008B83C901880F991F820F931F880F991FCA
:101D600004969A83898386E090E09E838D83CE01DA
:101D7000019669EF7AE00E943A0B8F819885F8010D
:101D8000918380836296E5E00C94C5B1A6E0B0E053
:101D9000ECECFEE00C94A8B17C018B0180E090E0BB
:101DA000FC0163E0F695E7956A95E1F7EE0DFF1DFE
:101DB0006081AC0147705070262F30E0042E02C0C5
:101DC000369527950A94E2F720FF10C021E030E015
:101DD00002C0220F331F4A95E2F720952623208365
:101DE0000E940A0EBC01009731F426C001968D3284
:101DF0009105B1F621C0CE01019646E050E00E9467
:101E000037B289819A81F801938382838D819E8183
:101E1000B8010E943D0EF801808191810596918361
:101E200080838B819C81958384838D819E81F70142
:101E30009783868381E006C08FEF9FEFF70197833A
:101E4000868380E02696E6E00C94C4B14F925F92C0
:101E50006F927F929F92AF92BF92CF92DF92EF925A
:101E6000FF920F931F93DF93CF93CDB7DEB72897E1
:101E70000FB6F894DEBF0FBECDBF8C0130911B0FA3
:101E800020911C0FFC01858186FD12C0C901E92E3D
:101E9000F82ECC24DD2483E0482E512C4C0E5D1E00
:101EA000B1E0AB2EB12C3E010894611C711C61C0E5
:101EB000C8016FEF70E046E050E00E9468B261C078
:101EC000C201B70146E050E00E9437B22F81388549
:101ED000F901A3E0F695E795AA95E1F7E00FF11F68
:101EE000408127703070842F90E0022E02C09695BA
:101EF00087950A94E2F780FF35C0C50102C0880FBC
:101F0000991F2A95E2F79C01209524232083992488
:101F100022C0880F991F6B817C81680F791FC301D4
:101F200042E050E00E9437B289819A81FC0173E05F
:101F3000F695E7957A95E1F7E00FF11F87709070BD
:101F4000950102C0220F331F8A95E2F7C901208153
:101F5000282B20839394892D90E02D813E81821738
:101F60009307B8F20894C11CD11C86E090E0E80EFB
:101F7000F91E80911F0F9091200FC816D90608F402
:101F80009FCF28960FB6F894DEBF0FBECDBFCF917E
:101F9000DF911F910F91FF90EF90DF90CF90BF9056
:101FA000AF909F907F906F905F904F900895CF93E8
:101FB000DF93EC018FEF9FEF9F838E83DE01862FEF
:101FC000972FFC0186E001900D928150E1F7CE0140
:101FD0000E94260FE1E3FFE0919188818923899394
:101FE0008FE0E733F807C1F7DF91CF910895262FEF
:101FF000372FF90120E030E004C09191890F2F5F65
:102000003F4F24173507C8F30895ACE0B0E0EBE08C
:10201000F0E10C94A5B17C018B01CE0102969A8768
:10202000898785E090E09C878B87FB018081918187
:10203000059798878F8387E0C82ED12CCC0EDD1EA4
:10204000C60169EF7AE00E943A0B8D819E81E81605
:10205000F906C1F5F801248135818B819C8128170F
:10206000390781F5CE0101969A87898781E090E052
:102070009C878B87EE24FF24BB24C601DC2CC92E51
:1020800018C0F801808191818E0D9F1D98878F83E4
:102090008D2D9C2D69EF7AE00E943A0B69857A8537
:1020A0008B2D41E050E00E94F70FB82E0894E11C00
:1020B000F11CF80184819581E816F90610F38A81F4
:1020C000B81611F082E001C080E02C96E9E00C9493
:1020D000C1B1AEE0B0E0EFE6F0E10C94A4B18C0148
:1020E00047E0E42EF12CEC0EFD1EC701B8010E9462
:1020F000D70F86E0D8011D928A95E9F7BE2CAF2C48
:102100007E010894E11CF11C31E0C32ED12C1DC0CE
:102110008D859E85B7010E9405108823B1F48D85B9
:102120009E85FC0123E0F695E7952A95E1F7E00FFF
:10213000F11F87709070960102C0220F331F8A959D
:10214000E2F7C9012081282B20838B2D9A2DB7011E
:102150000E94C60E8823E1F62E96EAE00C94C0B1E8
:102160006A9A6B9A80E00895813039F0813018F0D6
:10217000853049F404C0729808957398089580E0FA
:102180000E94B410FACF0895813039F0813018F0F0
:10219000853049F404C0729A0895739A089580E0D6
:1021A0000E94C410FACF0895882319F0813051F4A9
:1021B00005C08EB194E089278EB908958EB198E05C
:1021C00089278EB908958091590680FF07C08091B4
:1021D00059068E7F809359060E94201180915906DE
:1021E00081FF07C0809159068D7F809359060E9418
:1021F00064118091590682FF07C0809159068B7F38
:10220000809359060E946D118091590683FF07C083
:1022100080915906877F809359060E94761180919C
:102220005906882361F02FB7F8948091E9069091C0
:10223000EA0691609093EA068093E9062FBF08951D
:1022400080915A0681FF12C080915A068D7F80933B
:102250005A0680915A06846080935A06E0915B0684
:10226000F0915C06309711F081E0099580915A0653
:1022700082FF29C0659B16C080915A068B7F809390
:102280005A0680915A068E7F80935A06E0915D0629
:10229000F0915E06309711F081E0099585E00E948B
:1022A00065160895809159068160809359062FB76D
:1022B000F8948091E9069091EA0691609093EA067D
:1022C0008093E9062FBF0895E091490FF0914A0FDE
:1022D00081E060E070E009950895E0914B0FF09186
:1022E0004C0F81E060E070E009950895E091470FA0
:1022F000F091480F80E090E00995089588E3EFEDB4
:10230000F7E1DF011D928A95E9F785E080930A18CD
:1023100083E598E16EEC74E046E850E00E9437B245
:1023200080EB97E164E575E04FE250E00E9437B240
:102330008EEA97E163E875E042E050E00E9437B230
:1023400087E198E165E875E04CE350E00E9437B220
:1023500081E698E0EDE4FFE0DF019C011D92215051
:102360003040E1F70895A4E0B0E0E9EBF1E10C942E
:10237000ACB1682F70E0660F771F660F771F605251
:102380007A4FCE01019644E050E00E9437B2698155
:102390007A818B819C812496E2E00C94C8B10E94E2
:1023A0007E110E94E70C0895EF92FF921F93CF9346
:1023B000DF93182FEB01209761F00E94B311AC015D
:1023C000183220F0CE010E9437B203C0CE010E9425
:1023D0004DB2DF91CF911F91FF90EF900895EF9252
:1023E000FF92CF93DF93EB01209771F0883260F476
:1023F00006C0CB01BE01A9010E944DB205C00E94DA
:10240000B3119C010097A9F7DF91CF91FF90EF9056
:102410000895CF93DF93EB010E94B311009711F45D
:1024200079836883DF91CF910895EF92FF920F93A4
:102430001F93CF93DF9318C080E696E060E070E0D2
:10244000AE010E949B1A8A85882359F4EA82FB8296
:102450000C831D8380E696E0BE01A80197010E94CF
:10246000E318EB85FC8509958091600690916106E3
:102470000097D9F00E94431E7B018C01C091600639
:10248000D09161068A819B81AC81BD81A8019701B1
:10249000281B390B4A0B5B0B8E819F81A885B98560
:1024A000281739074A075B0738F6CDB7DEB7E6E0ED
:1024B0000C94C4B1CF93DF93EC01009771F0E091DD
:1024C0006006F091610606C0EC17FD0749F0019027
:1024D000F081E02D3097C1F709C02FEF3FEF02C028
:1024E00020E030E0C901DF91CF9108950E94431EA2
:1024F0009B01AC01198218826A837B838C839D8344
:1025000080E696E0BE010E94E318EACFCF93DF9306
:10251000EC010097D1F080916006909161068C17D4
:102520009D0749F080E696E0BE010E94BA1ABC0100
:10253000009719F40AC060E070E080E696E0AE0112
:102540000E949B1A20E030E002C02FEF3FEFC9014C
:10255000DF91CF9108958F929F92AF92BF92CF92C9
:10256000DF92EF92FF920F930E94C71B4B015C0119
:102570002091740630E040E050E060E070E080E0E0
:1025800090E000E20E94FB04282939294A295B29AE
:102590000F91FF90EF90DF90CF90BF90AF909F9002
:1025A0008F9008958091660682FF0BC09FB7F894C4
:1025B000809166068B7F809366069FBF0E941512EE
:1025C000A9C08091620680FF0BC09FB7F8948091EC
:1025D00062068E7F809362069FBF0E9416249AC077
:1025E0008091620681FF0BC09FB7F89480916206CC
:1025F0008D7F809362069FBF0E942A1C8BC08091B2
:10260000660680FF0BC09FB7F894809166068E7FA8
:10261000809366069FBF0E947A227CC080916606E6
:1026200083FF0BC09FB7F89480916606877F8093E5
:1026300066069FBF0E940D226DC08091640686FFD2
:102640000BC09FB7F894809164068F7B80936406DB
:102650009FBF0E941D1B5EC08091640687FF0BC058
:102660009FB7F894809164068F77809364069FBF2C
:102670000E944D144FC08091650681FF0BC09FB72B
:10268000F894809165068D7F809365069FBF0E94B8
:10269000C91A40C08091650682FF0BC09FB7F894AD
:1026A000809165068B7F809365069FBF0E94B3185B
:1026B00031C08091650680FF0BC09FB7F894809170
:1026C00065068E7F809365069FBF0E94291D22C0EC
:1026D0008091660681FF0BC09FB7F89480916606D3
:1026E0008D7F809366069FBF0E94B01713C08091B4
:1026F000660684FF0FC09FB7F894809166068F7EB0
:10270000809366069FBFE091D918F091DA18309750
:1027100009F0099580916206882381F4809163060F
:10272000882361F480916406882341F480916506D2
:10273000882321F480916606882361F02FB7F894EE
:102740008091E9069091EA0682609093EA06809370
:10275000E9062FBF0895CF93DF93E82FF0E0DF0164
:10276000A05CB04093E0B595A7959A95E1F7B0E0ED
:10277000AA0FBB1FA959B94F6D917C911197611593
:10278000710599F14FB7F894EB012A813B8188815B
:1027900099814FBF2817390729F12D913C91119745
:1027A000E901288D398D280F391FE90138810196FB
:1027B00020812064208336830D90BC91A02D5A96F1
:1027C0002D913C915B978217930711F480E090E084
:1027D0002181206221832FB7F894FB0191838083AC
:1027E0002FBF03C0818180648183DF91CF910895E1
:1027F00090E0805C904033E0959587953A95E1F7BD
:10280000E82FF0E0EE0FFF1FE959F94FA081B181E9
:102810001097B9F090968C919097887191F42FB79A
:10282000F89418968D919C9119972FBF009749F0B5
:102830000190F081E02D048CF58DE02D309709F0AA
:1028400009950895FC0193898385992349F4803C77
:1028500019F0883C89F402C06A9A0895559A08953F
:10286000803C19F0883C41F404C06A987298729ACE
:10287000089555985D985D9A089580EC0E94AB1379
:10288000089580EC0E94F813089588EC0E94AB1321
:10289000089588EC0E94F8130895A3E0B0E0E3E502
:1028A000F4E10C94A7B181E0898306E010E0DD2417
:1028B00052E0E52EF12CEC0EFD1E90916E06898102
:1028C0008923B9F09FB7F89420916E0689818227F9
:1028D00080936E069FBF6D2D70E0660F771F645D5D
:1028E000784FC70142E050E00E9437B2EA81FB8195
:1028F0000995D3948981880F898301501040E9F6A6
:102900002396E7E00C94C3B190916E0621E030E08D
:1029100002C0220F331F8A95E2F7922B90936E0626
:10292000809164068068809364062FB7F894809144
:10293000E9069091EA0682609093EA068093E906A0
:102940002FBF0895CF93DF93C82FD0E0DE01A05CA6
:10295000B040E3E0B595A795EA95E1F7B0E0AA0F9E
:10296000BB1FA959B94FED91FC911197309721F4F4
:1029700089818F77898335C080A183FD32C0C48966
:10298000D58984FF0AC06883ED91FC9111978489F1
:1029900095890196958B848B24C0209711F126810F
:1029A00037818681978101969783868346815781F7
:1029B000868997894817590711F41782168246812C
:1029C0005781848195814817590719F437832683E5
:1029D00008C0C20FD31F68838085918501969187B7
:1029E0008087DF91CF91089590E0805C904033E044
:1029F000959587953A95E1F790E0DC01AA0FBB1F0A
:102A0000A959B94FED91FC911197309701F16FB72A
:102A1000F89442815381208131816FBF421753075F
:102A200011F421E02287FC01EE0FFF1FE959F94F55
:102A30000190F081E02D828D938D009711F4118E1D
:102A4000108E068CF78DE02D309709F009950895CA
:102A500088EC0E94F414089580EC0E94F414089508
:102A6000805C893030F4E82FF0E0E85DFC4F808135
:102A7000089580E00895A0E0B0E0E1E4F5E10C9471
:102A8000A7B1EC018B017A01009709F44FC0DB84F8
:102A90008D2D0E943015882309F448C001151105B9
:102AA00009F444C0E114F10409F440C0ED2DF0E054
:102AB000E05CF04073E0F595E7957A95E1F7F0E09A
:102AC000EE0FFF1FE959F94F80819181C817D9078F
:102AD00069F52FB7F8944E815F818C819D812FBF5E
:102AE000D80120E030E010C0EC89FD89E80FF91F23
:102AF00060816D9301966E897F898617970711F41F
:102B000080E090E02F5F3F4F8417950719F02E1556
:102B10003F0550F34FB7F8949D838C838885998542
:102B2000821B930B998788874FBF02C02FEF3FEF1F
:102B3000C901CDB7DEB7E7E00C94C3B1A0E0B0E0C7
:102B4000E4EAF5E10C94A4B1EC018B017A01009761
:102B500009F46AC0CB848C2D0E943015882309F4B7
:102B600063C00115110509F45FC0E114F10409F413
:102B70005BC0EC2DF0E0E05CF040B3E0F595E7954C
:102B8000BA95E1F7F0E0EE0FFF1FE959F94F8081A8
:102B90009181C817D90709F047C08A8D9B8D00978E
:102BA00079F42A813B818881998128173907E1F5D9
:102BB000198F088FFB82EA8219821882C7012CC004
:102BC0008FB7F894CA80DB80A880B9808FBFD80106
:102BD000960180E090E015C0A9014F5F5F4F6A8DBC
:102BE0007B8D4617570711F440E050E04A155B050E
:102BF00059F06D91E88DF98DE20FF31F6083019616
:102C00009A018E159F0540F34FB7F8943B832A83B2
:102C10004FBFCA14DB0431F41A86EB85F0E0218142
:102C2000206221839C0102C02FEF3FEFC901CDB785
:102C3000DEB7EAE00C94C0B11F93CF93DF93EC01B1
:102C40000097E1F11B85812F0E9430158823B1F197
:102C5000E12FF0E0E05CF04033E0F595E7953A9540
:102C6000E1F7F0E0EE0FFF1FE959F94F8081918104
:102C7000009721F5D183C0838C85803419F4CE016F
:102C80000E942214198218821B821A828C899D89C3
:102C9000009711F41F8A1E8A888D998D009711F470
:102CA0001B8E1A8E1D821C821F821E8281E08A87E3
:102CB000CE010E94741E2B8530E002C02FEF3FEF43
:102CC000C901DF91CF911F9108958830C0F4E82F9A
:102CD000F0E0EE0FFF1FEB57F94F208131812115F6
:102CE000310569F09DB321E030E002C0220F331FAF
:102CF0008A95E2F7922B9DBB20E030E002C02FEFD7
:102D00003FEFC9010895E0916F06F091700687E0EA
:102D1000828380E98093BC00809166068260809304
:102D200066062FB7F8948091E9069091EA068260D2
:102D30009093EA068093E9062FBF0895E0916F060D
:102D4000F09170068281823031F08281833019F0F7
:102D50008281843019F48581880F06C08281853094
:102D600049F48581880F8F5F8093BB0085E880934D
:102D7000BC0008950E9483160895E0916F06F091BB
:102D8000700620813181868197812817390780F468
:102D900080819181A085B185A80FB91F2C910196E2
:102DA000918380832093BB0085E88093BC000895C5
:102DB00086E0828384E98093BC008091660682600D
:102DC000809366062FB7F8948091E9069091EA0601
:102DD00082609093EA068093E9062FBF0895E09100
:102DE0006F06F091700683859485A585B685208150
:102DF000318121503040318320832081318143E073
:102E0000220F331F4A95E1F704C0B695A795979511
:102E100087952A95D2F78093BB0085E88093BC0004
:102E200080819181009741F48281823019F484E09D
:102E30008283089585E082830895E0916F06F09182
:102E400070068281843019F40E94BD160895828133
:102E5000823019F08281833019F40E94EF160895B0
:102E60008281853021F485EA8093BC0008950E9418
:102E700083160895E0916F06F09170068281853087
:102E8000A1F4868197818130910521F48091BC0065
:102E90008F7B03C08091BC0080648093BC008091D4
:102EA000BC0085688093BC0008950E948316089535
:102EB000E0916F06F09170069281953011F52081B6
:102EC0003181A085B185A20FB31F8C932F5F3F4F37
:102ED0003183208320813181868197810197281752
:102EE000390720F48091BC00806403C08091BC004D
:102EF0008F7B8093BC008091BC0085688093BC0070
:102F000008950E9483160895E0916F06F09170066F
:102F10009281953011F520813181A085B185A20F74
:102F2000B31F8C932F5F3F4F3183208386E08283D2
:102F300084E98093BC008091660682608093660677
:102F40002FB7F8948091E9069091EA0682609093F9
:102F5000EA068093E9062FBF08950E94831608951C
:102F6000A0916F06B09170061F96ED91FC9150975D
:102F70003097A1F012968C911297863049F4809187
:102F8000BC0084FDFCCF81E012968C93129704C0A4
:102F900081E012968C9380E00995089581E0129665
:102FA0008C9312970895FC0180917106882309F093
:102FB00057C0309709F457C08481958120813181B1
:102FC000820F931F20E18130920708F04CC081E00E
:102FD000809371067093E2186093E118ABEDB8E14D
:102FE00086E001900D928150E1F7F999FECF80E0E3
:102FF00090E017C0E091DD18F091DE18E80FF91F9E
:103000002091DB183091DC18A9014F5F5F4F50937E
:10301000DC184093DB1832BD21BDF89A20B520831F
:1030200001962091DF183091E0188217930710F372
:103030001092E0181092DF188091650684608093EA
:1030400065062FB7F8948091E9069091EA068260B0
:103050009093EA068093E9062FBF20E030E005C098
:103060002EEF3FEF02C02FEF3FEFC9010895CF933E
:10307000DF93FC019B0180917106882309F063C0F6
:10308000309709F463C06081718184819581860FD6
:10309000971F40E18130940708F058C081E0809389
:1030A0007106ABEDB8E186E001900D928150E1F739
:1030B0003093E2182093E1182115310519F4C0E08E
:1030C000D0E033C0CB0101969093DC188093DB18DD
:1030D000E091DD18F091DE184191F093DE18E09355
:1030E000DD188CE00E94BE218091DF189091E018DD
:1030F00001979093E0188093DF1822C06091DB184D
:103100007091DC18CB0101969093DC188093DB184A
:10311000E091DD18F091DE184191F093DE18E09314
:10312000DD1884E00E94BE2121968091DF189091E5
:10313000E018C817D90710F3F999FECF109271065D
:1031400020E030E005C02EEF3FEF02C02FEF3FEF51
:10315000C901DF91CF91089581E09091710691307E
:1031600009F080E008958091DF189091E0180097B1
:1031700051F410927106E091E118F091E218309745
:1031800009F1099508956091DB187091DC18CB0165
:1031900001969093DC188093DB18E091DD18F09194
:1031A000DE184191F093DE18E093DD188CE00E9468
:1031B000BE218091DF189091E01801979093E0185C
:1031C0008093DF180895A2E1B0E0E9EEF8E10C94F5
:1031D0009CB19A878987DB012B873C874D875E8767
:1031E000FC01E080F180E114F10409F497C122248C
:1031F00033244B855C856D857E859A01AB0160E04B
:1032000070E0CB0129833A834B835C836D837E839B
:103210008F839887F88AEF86F701BA8BA98B02C053
:103220001F01FC01E280F380048115812681378132
:10323000408551856B857C858D859E856E157F05C6
:103240008007910708F48FC060E070E0CB01570160
:103250006801EE24FF248701622E6A0C77247394A0
:10326000621608F07724932E9B0C8824839493167F
:1032700008F08824790C55245394791408F05524C7
:103280008528542E5C0C99249394541608F09924A4
:10329000850C44244394851408F044249428052F75
:1032A0000D0D11E0051708F010E0900EEE24E394E8
:1032B000901608F0EE241E2944244394161608F0B4
:1032C000442401E0171608F000E055245394181622
:1032D00008F05524A62C7981A71A21E06A1408F079
:1032E00020E0972D8A81981B81E0791608F080E014
:1032F000492F421B21E0941708F020E0822B282D53
:103300009B81291B91E0821608F090E0522F581BF8
:1033100081E0251708F080E0982B292DAC812A1B2D
:1033200081E0921608F080E0E22EE91A91E02E1575
:1033300008F090E0892BB12FB81B8B2F91E01B1761
:1033400008F090E0242D291B922F21E0491608F067
:1033500020E0302F321B232F31E0021708F030E03D
:10336000142F052F95C039014A01AA24BB246501F9
:1033700010950095F094E094E11CF11C011D111DC5
:10338000722F7E1961E0271708F060E0872D8F19F2
:1033900091E0781608F090E0A82FA61B6A2F55241C
:1033A00053948A1708F055249529582C501A81E017
:1033B000851408F080E0B52DB91B9B2F442443945D
:1033C0005B1608F044248429292D211B31E0921634
:1033D00008F030E0E22EE81A81E02E1508F080E0D7
:1033E000832B819551E0181608F050E0519541E08B
:1033F000151608F040E0419521E0141608F020E091
:10340000522E5194A72E2981A21A11E07A1508F0A4
:1034100010E0262F3A81231B31E0621708F030E0DC
:10342000622F611B162F61E0211708F060E0362B38
:10343000692F7B81671B21E0961708F020E0062F9B
:10344000031B91E0601708F090E0292B3E2D9C8132
:10345000391B91E0E31608F090E0E32EE21A21E038
:103460003E1508F020E0922B682F691B91E086172B
:1034700008F090E0A52FA91B9A2F81E05A1708F0B9
:1034800080E0242F281B31E0421708F030E0862F1F
:10349000531A69F5222359F5992349F5882339F5FB
:1034A000A989BA8916962D913D914D915C911997F4
:1034B00060E070E0CB01992321F51816C0F0882355
:1034C00001F51716A0F07723E1F4161680F06623B5
:1034D000C1F4E51660F05E15A1F4041740F0401742
:1034E00081F4131720F0311761F4A21650F4808193
:1034F0009181009709F094CE8F01A989BA891F01A3
:1035000011C0EF84F8888F01A989BA89EE15FF05EB
:1035100041F41196FC93EE93E985FA85B183A0837B
:1035200006C0CF01F101B183A0838D939C93629675
:10353000E2E10C94B8B1CF93DF93FC01DB01EA0127
:10354000808191814817590739F4888199811982BE
:103550001882808391830BC08881998111969C93F6
:103560008E93198218828C9111969C911197DF91FC
:10357000CF910895DC01ED91FC91119706C08081F7
:1035800091818617970719F0FC013097C1F7CF0199
:103590000895E0917206F09173060284F385E02DA0
:1035A000309709F00995089523982B981CBC08952D
:1035B000E0919906F0919A06268137818481958160
:1035C0002817390769F0A48DB58D848195810196FE
:1035D0009583848384819581A80FB91F8C918EBDBA
:1035E0000895E0919906F0919A06309719F40E9497
:1035F000D41A089542855385228533852F5F3F4F26
:1036000033872287228533852A30310511F41386CA
:10361000128662857385208531856217730719F4D8
:103620005387428708954D51574EDA018C93848514
:10363000958501969587848708952FB7F894E09132
:103640009906F0919A06848595852FBF009731F0F1
:1036500005A0F6A1E02D309709F0099508958FB7E0
:10366000F8941092770610927606109275068FBF26
:1036700008958091AA0680FF0FC081E00E94EE218C
:10368000809170008D7F809370000E942F1B80912D
:10369000AA068B7F8093AA060895809170008C7F84
:1036A000809370008091B60080628093B600109283
:1036B000B2001092B0001092B1001092B30080914D
:1036C000B60090E08F7190700097C9F783E087BBD8
:1036D00087E08093B10080917000816080937000DA
:1036E00008958091B60090E08F7190700097C9F7AF
:1036F000809170008C7F809370008091B100887FF2
:103700008093B10083B5826083BD8091B60090E064
:103710008F7190700097C9F78091B6008F7D80936C
:10372000B60008959B01AC016091B200862F90E035
:1037300080959095AA2797FDA095BA2F9070A070BC
:10374000B07082179307A407B50778F4281B390BCC
:103750004A0B5B0BBB27A52F942F832F90937606E4
:1037600080937506209377060895260F8091B60002
:1037700090E08F7190700097C9F72093B30082E0BA
:1037800087BB809170008260809370000895EF92F3
:10379000FF920F931F938FB7F89490917806209122
:1037A000B20034E43093B4004091B60050E04F7161
:1037B000507041155105C1F7B89904C030E040E0A0
:1037C00050E009C02091B20030E040E050E02150CC
:1037D0003F4F4F4F5F4F8FBF8FEF989FC001112416
:1037E000AA2797FDA095BA2F820F931FA41FB51F7C
:1037F0009C01AD0175E0220F331F441F551F7A95C0
:10380000D1F77C018D0162E016950795F794E79456
:103810006A95D1F72E0D3F1D401F511FE09079068C
:10382000F0907A0600917B0610917C062E0D3F1DCC
:10383000401F511F281B390B4A0B5B0BB901CA01F2
:103840001F910F91FF90EF90089560E270E080E08B
:1038500090E008958FB7F8946091780610927806FA
:103860008FBF70E080E090E020E43FE140E050E076
:103870000E943BB19B01AC018091790690917A0640
:10388000A0917B06B0917C06820F931FA41FB51FE9
:103890008093790690937A06A0937B06B0937C067A
:1038A00082179307A407B50728F4809174068F5FE9
:1038B0008093740608951F920F920FB60F920BB665
:1038C0000F9211242F933F934F935F936F937F93A6
:1038D0008F939F93AF93BF93EF93FF93809170006B
:1038E0008D7F80937000109277068091AA0680FFEA
:1038F00003C080E00E94EE218091AA0682FF11C0E1
:10390000809162068160809362062FB7F89480915F
:10391000E9069091EA0682609093EA068093E906B0
:103920002FBFFF91EF91BF91AF919F918F917F91A9
:103930006F915F914F913F912F910F900BBE0F9020
:103940000FBE0F901F9018951F920F920FB60F92F7
:103950000BB60F9211242F933F934F935F936F9366
:103960007F938F939F93AF93BF93EF93FF93809138
:103970007506909176060097A1F5809177068823C9
:10398000E9F48091AA0680FF03C080E00E94EE2146
:103990008091AA0682FF34C0809162068160809384
:1039A00062062FB7F8948091E9069091EA0682604A
:1039B0009093EA068093E9062FBF22C08091B6005B
:1039C00090E08F7190700097C9F78091770680938F
:1039D000B30082E087BB80917000826080937000AA
:1039E00009C08091750690917606019790937606AE
:1039F000809375068091AA0680FF02C00E945A2219
:103A0000809178068F5F809378068091620682604D
:103A1000809362062FB7F8948091E9069091EA06A8
:103A200082609093EA068093E9062FBFFF91EF91A1
:103A3000BF91AF919F918F917F916F915F914F91C6
:103A40003F912F910F900BBE0F900FBE0F901F90C4
:103A50001895A0E1B0E0EFE2FDE10C94A9B100916E
:103A60007D0610917E06D80112968C9112978230B5
:103A700029F08430C9F0882331F074C070E060E030
:103A800088E0F82E6BC080E090E0D8011396ED91AD
:103A9000FC911497E80FF91F208120933F010196B4
:103AA0008031910591F75EC010923C0180E0109248
:103AB0003E018F5F8031D9F780913C01806880930F
:103AC0003C0180913D0180FFFCCFFE013196CE018B
:103AD0004196DF0120913F012D93A817B907D1F737
:103AE000219120933F01E817F907D1F7C7CFF801DB
:103AF0008281823019F410923C0102C0F0923C01A4
:103B0000872F90E0AC01405F5F4F9C01D801139676
:103B1000ED91FC911497E20FF31FE081E0933E01D9
:103B20002F5F3F4F2417350789F720913C0120680C
:103B300020933C0120913D0120FFFCCF20913E01CC
:103B4000D8011396ED91FC911497E80FF91F20838B
:103B500001968417950791F7705F6F5FF801858173
:103B6000681728F28DE796E00E94437380917D06E6
:103B700090917E06009789F0809165068160809320
:103B800065062FB7F8948091E9069091EA06826065
:103B90009093EA068093E9062FBFD8011696ED911F
:103BA000FC91179709956096E5E00C94C5B180E10A
:103BB00097E29093A9008093A800E1EAF0E088E002
:103BC0008083808182608083E2E7F0E08081826090
:103BD000808308959B01AC018091810690918206BB
:103BE000A0918306B0918406820F931FA41FB51F76
:103BF0008093810690938206A0938306B0938406F7
:103C0000809166068460809366062FB7F894809151
:103C1000E9069091EA0682609093EA068093E906AD
:103C20002FBF08958FB7F894609180061092800698
:103C30008FBF70E080E090E02AE030E040E050E0AC
:103C40000E943BB19B01AC0180918106909182065C
:103C5000A0918306B0918406820F931FA41FB51F05
:103C60008093810690938206A0938306B093840686
:103C700082179307A407B50728F480917F068F5F0A
:103C800080937F0608950E94121E609181067091B4
:103C90008206809183069091840608951F920F9268
:103CA0000FB60F9211242F938F939F9380918006CC
:103CB0008F5F80938006809166068460809366069D
:103CC0002FB7F8948091E9069091EA06826090936C
:103CD000EA068093E9062FBF9F918F912F910F9055
:103CE0000FBE0F901F901895FC01A385B0E01196B0
:103CF0001C92A385B0E08585968515969C938E933E
:103D000014978485A385882349F4B0E082E08C93DE
:103D1000A385B0E012961C92129707C0B0E01C92E7
:103D2000A385B0E0828912968C93A385B0E01296A9
:103D30008C9112979485892B12968C93A385B0E071
:103D400012968C9112979785892B12968C93A38546
:103D5000B0E012968C9112979089892B12968C93D1
:103D6000A385B0E012968C9112979189892B1296B7
:103D70008C93A385B0E08C9180688C93A385B0E090
:103D800011968C911197886111968C931197E38508
:103D9000F0E081818068818308951F920F920FB6B1
:103DA0000F920BB60F9211242F933F934F935F9373
:103DB0006F937F938F939F93AF93BF93EF93FF93F3
:103DC000E1ECF0E080818F7D808380E00E948414AC
:103DD000FF91EF91BF91AF919F918F917F916F91E3
:103DE0005F914F913F912F910F900BBE0F900FBE9F
:103DF0000F901F9018951F920F920FB60F920BB64F
:103E00000F9211242F933F934F935F936F937F9360
:103E10008F939F93AF93BF93EF93FF93E1ECF0E009
:103E200080818F7B808381E00E948414FF91EF91D9
:103E3000BF91AF919F918F917F916F915F914F91C2
:103E40003F912F910F900BBE0F900FBE0F901F90C0
:103E500018951F920F920FB60F920BB60F92112466
:103E60002F933F934F935F936F937F938F939F9382
:103E7000AF93BF93EF93FF938091C0006091C60012
:103E80008C7131F480EC0E94A21482E00E948414B0
:103E9000FF91EF91BF91AF919F918F917F916F9122
:103EA0005F914F913F912F910F900BBE0F900FBEDE
:103EB0000F901F9018951F920F920FB60F920BB68E
:103EC0000F9211242F933F934F935F936F937F93A0
:103ED0008F939F93AF93BF93EF93FF93E9ECF0E041
:103EE00080818F7D808383E00E948414FF91EF9115
:103EF000BF91AF919F918F917F916F915F914F9102
:103F00003F912F910F900BBE0F900FBE0F901F90FF
:103F100018951F920F920FB60F920BB60F921124A5
:103F20002F933F934F935F936F937F938F939F93C1
:103F3000AF93BF93EF93FF93E9ECF0E080818F7B29
:103F4000808384E00E948414FF91EF91BF91AF9130
:103F50009F918F917F916F915F914F913F912F91A1
:103F60000F900BBE0F900FBE0F901F9018951F92D1
:103F70000F920FB60F920BB60F9211242F933F930F
:103F80004F935F936F937F938F939F93AF93BF9361
:103F9000EF93FF938091C8006091CE008C7131F453
:103FA00088EC0E94A21485E00E948414FF91EF9196
:103FB000BF91AF919F918F917F916F915F914F9141
:103FC0003F912F910F900BBE0F900FBE0F901F903F
:103FD00018951F920F920FB60F920BB60F921124E5
:103FE0002F933F934F935F936F937F938F939F9301
:103FF000AF93BF93EF93FF930E94391BE091850627
:10400000F09186060995FF91EF91BF91AF919F9135
:104010008F917F916F915F914F913F912F910F9071
:104020000BBE0F900FBE0F901F9018951F920F920E
:104030000FB60F920BB60F9211242F933F934F930D
:104040005F936F937F938F939F93AF93BF93EF9300
:10405000FF930E94391BE0918706F091880609952D
:10406000FF91EF91BF91AF919F918F917F916F9150
:104070005F914F913F912F910F900BBE0F900FBE0C
:104080000F901F9018951F920F920FB60F920BB6BC
:104090000F9211242F933F934F935F936F937F93CE
:1040A0008F939F93AF93BF93EF93FF930E94391B1E
:1040B000E0918906F0918A060995FF91EF91BF91F1
:1040C000AF919F918F917F916F915F914F913F91B0
:1040D0002F910F900BBE0F900FBE0F901F90189551
:1040E0001F920F920FB60F920BB60F9211242F93BF
:1040F0003F934F935F936F937F938F939F93AF9370
:10410000BF93EF93FF930E94391BE0918B06F091D0
:104110008C060995FF91EF91BF91AF919F918F917F
:104120007F916F915F914F913F912F910F900BBEB7
:104130000F900FBE0F901F9018951F920F920FB601
:104140000F920BB60F9211242F933F934F935F93CF
:104150006F937F938F939F93AF93BF93EF93FF934F
:104160000E94391BE0918D06F0918E060995FF9112
:10417000EF91BF91AF919F918F917F916F915F91DF
:104180004F913F912F910F900BBE0F900FBE0F904C
:104190001F9018951F920F920FB60F920BB60F92A9
:1041A00011242F933F934F935F936F937F938F933C
:1041B0009F93AF93BF93EF93FF930E94391BE091BE
:1041C0008F06F09190060995FF91EF91BF91AF9105
:1041D0009F918F917F916F915F914F913F912F911F
:1041E0000F900BBE0F900FBE0F901F9018951F924F
:1041F0000F920FB60F920BB60F9211242F933F938D
:104200004F935F936F937F938F939F93AF93BF93DE
:10421000EF93FF930E94391BE0919106F091920673
:104220000995FF91EF91BF91AF919F918F917F91F0
:104230006F915F914F913F912F910F900BBE0F9017
:104240000FBE0F901F9018951F920F920FB60F92EE
:104250000BB60F9211242F933F934F935F936F935D
:104260007F938F939F93AF93BF93EF93FF930E949E
:10427000391BE0919306F09194060995FF91EF9117
:10428000BF91AF919F918F917F916F915F914F916E
:104290003F912F910F900BBE0F900FBE0F901F906C
:1042A00018951F920F920FB60F920BB60F92112412
:1042B0002F933F934F935F936F937F938F939F932E
:1042C000AF93BF93EF93FF938091B90090E0887F05
:1042D00090708832910569F1893291059CF48031A2
:1042E000910521F18131910534F4009729F188304D
:1042F000910589F51BC088319105D9F0803291056F
:1043000051F51AC088349105B9F0893491053CF40F
:104310008033910589F080349105E9F410C080352F
:10432000910581F088359105B1F411C00E949E1667
:1043300012C00E941D170FC00E9483160CC00E945D
:104340003A1709C08091BB000E94581704C08091A1
:10435000BB000E948417FF91EF91BF91AF919F9195
:104360008F917F916F915F914F913F912F910F901E
:104370000BBE0F900FBE0F901F901895F999FECFAE
:1043800007B600FCFDCF72BD61BD40BD9FB7F8947C
:104390008FBBF99A9FBF08951F920F920FB60F928D
:1043A00011242F938F939F93FB98809165068460CF
:1043B000809365062FB7F8948091E9069091EA06FC
:1043C00082609093EA068093E9062FBF9F918F91B8
:1043D0002F910F900FBE0F901F9018959091AA06E5
:1043E0008170880F9C7F982B9093AA06E9E3F1E0F7
:1043F00080818D7F808380916606816080936606D0
:104400002FB7F8948091E9069091EA068260909324
:10441000EA068093E9062FBF08958091AA0680FFDF
:1044200048C08091A1008D7F8093A1008091950666
:1044300090919606A0919706B09198060097A105D5
:10444000B10551F40E94C71B6093950670939606C0
:1044500080939706909398068091AA0683FD02C0E8
:104460000E943F73F999FECF8091AA0688608093DD
:10447000AA069091390192609093390182FF05C09C
:1044800087E083BF889513BE0AC00E94711B85E038
:1044900083BF889513BE0E944D1B0E94CF2384E4E6
:1044A0008093B4008091B60090E08F719070009777
:1044B000C9F708958091AA0681608093AA06809129
:1044C000B60090E08F7190700097C9F780916606F2
:1044D0008860809366062FB7F8948091E9069091E2
:1044E000EA0682609093EA068093E9062FBF80E097
:1044F00090E008950E94C71B209195063091960682
:104500004091970650919806621B730B840B950B94
:1045100010929506109296061092970610929806A1
:104520000E94EA1D8091A10082608093A100809189
:1045300041018F718830D9F78091AA06877F8093D7
:10454000AA060E943B738091AA0681FD07C0E091F4
:104550009B06F0919C06309709F0099508951F92EB
:104560000F920FB60F920BB60F9211242F933F9319
:104570004F935F938F939F93AF93BF93EF93FF936B
:10458000E0917206F091730683812681378188233A
:1045900049F48081918140917900280F391FD90118
:1045A0004C930EC0808191814091780050917900A8
:1045B000DC01AA0FBB1FA20FB31F11965C934E9391
:1045C000019691838083E0917206F09173062081B9
:1045D00031818085918528173907B1F480917A005F
:1045E000877F80937A00809165068260809365065C
:1045F0002FB7F8948091E9069091EA068260909333
:10460000EA068093E9062FBFFF91EF91BF91AF912A
:104610009F918F915F914F913F912F910F900BBE82
:104620000F900FBE0F901F9018951F920F920FB60C
:104630000F920BB60F9211242F933F934F935F93DA
:104640006F937F938F939F93AF93BF93EF93FF935A
:10465000DF93CF930F92CDB7DEB78EB589830E94DB
:10466000D81A89810E94F11A80916406806480932F
:1046700064062FB7F8948091E9069091EA0682606B
:104680009093EA068093E9062FBF0F90CF91DF91B8
:10469000FF91EF91BF91AF919F918F917F916F911A
:1046A0005F914F913F912F910F900BBE0F900FBED6
:1046B0000F901F901895A0E0B0E0E1E6F3E20C94B3
:1046C0009CB110E0C2E8DBE800E892E8692E9BE8C4
:1046D000792E812C912C82E8A82E8BE8B82E0E948E
:1046E000DE042BE88338920718F16E01EE24FF24D4
:1046F0009C0140E050E022583B4840405040C216E8
:10470000D306E406F5064CF4123039F480916600C5
:10471000815080936600000036C0209166002150D1
:10472000209366000000EC01C258DB4811E028C06D
:104730002BE88238920739F16E01EE24FF249C01A8
:1047400040E050E013012401221A330A440A550ABA
:10475000C214D304E404F5044CF4113039F480910C
:1047600066008F5F8093660000000DC02091660098
:104770002F5F209366000000E501C81BD90B12E0F3
:10478000015009F0ACCFCDB7DEB7E2E10C94B8B17F
:104790000E94B224882311F40E945B230895CF93D2
:1047A000DF93C8E8D3E188EC0E94D6042197D9F7BB
:1047B0000E94C823DF91CF910895CF93DF93EC013E
:1047C000009741F10E94251C2E813F814885598523
:1047D0000E943BB128EE33E040E050E00E947AB105
:1047E0002115310541055105C1F08091AA0682FDD0
:1047F00017C084608093AA06EDE9F6E08DE0099089
:1048000001928150E1F7CA01B9010E94921B20E098
:1048100030E008C02FEF3FEF05C02EEF3FEF02C0A2
:104820002DEF3FEFC901DF91CF9108958091AA0646
:1048300082FF24C09091A7069923B1F4E091A806C5
:10484000F091A906309709F009958091AA0682FF98
:1048500015C06091A3067091A4068091A506909161
:10486000A6060E94921B08958B7F8093AA06E09172
:10487000A806F091A906309709F009950895ADE0D2
:10488000B0E0E5E4F4E20C94ACB1FC01009739F13E
:104890008481958190939C0680939B068081918171
:1048A000A281B3818F839887A987BA8781E08B879C
:1048B0001D861C86CE0101960E94DD232FEF8F3FBF
:1048C000920781F02FEF8D3F920761F00E945A22EC
:1048D0002FEF8F3F920749F42DEF3FEF08C02FEFE6
:1048E0003FEF05C02EEF3FEF02C020E030E0C901EE
:1048F0002D96E2E00C94C8B18FB390E0FC01E27019
:10490000F07081FDF9CF8FB7F89499E0909357003C
:10491000E4918FBFEF70E23019F41092AB0603C040
:1049200081E08093AB068FB7F8949091AB06992302
:1049300049F45F9350E85093610050E05093610058
:104940005F9108C05F9350E85093610051E050932D
:1049500061005F918FBF8091AB06882311F40E94A4
:10496000CF2308958091AB0608958091C106982FBA
:104970009F5F9093C1060895DC01ED91FC91119722
:104980009093A6198093A5191092921910929319D9
:104990008091B006809397192091FD183091FE18F0
:1049A00083899489B9010E9466B1462F6093951955
:1049B00083899489B9010E9466B1009719F04F5F0D
:1049C000409395198FEF90E00090AF1702C0880FC9
:1049D000991F0A94E2F780958E7F809394190E9424
:1049E000B524809396190895FC01878983FF0AC036
:1049F00081E090E0238934892036310528F480E075
:104A000090E0089580E090E00895CF93DF93409187
:104A1000ED182091F2183091F31890E058C0F90188
:104A2000225A3F4F578150FD51C0DF01AA5BBF4F53
:104A300011961C921E928230C1F0823018F08330A1
:104A400009F048C09091F1182091EF18921708F0E2
:104A500041C09F5F9093F1181382148215821682D1
:104A600090859F709087128228C02091F0189091B5
:104A7000EE18291778F53091F418A091F518B09137
:104A8000F61890E014C0ED014C919396442371F414
:104A90002F5F2093F01821E02883DF01AA5BBF4F2E
:104AA00068961196DC93CE93228303C09F5F931781
:104AB00050F32091F418291769F09085907F908722
:104AC000880F816087831182108206C09F5F9417D0
:104AD00008F4A5CFE0E0F0E0CF01DF91CF91089599
:104AE0002091F2183091F318821B930B6EE570E061
:104AF0000E9466B1EEE56E9FF0011124E20FF31FF4
:104B00008781869590E08230910571F08330910520
:104B10001CF08330910539F58091F118882319F143
:104B200081508093F1181FC08091F018882319F0EC
:104B300081508093F0182091F5183091F618DF011C
:104B4000AA5BBF4F8D919C91821B930B63E270E037
:104B50000E9466B1A3E26A9FD0011124A20FB31F85
:104B60008C9181111C9287818E7F8783089521E02B
:104B700030E002C0220F331F8A95E2F78091AF0622
:104B8000822B8093AF062FB7F8948091E90690911D
:104B9000EA0680629093EA068093E9062FBF0895A3
:104BA000CF93DF93EC01009729F16B8F41155105ED
:104BB00051F0FA0180819181A281B3818C8F9D8F08
:104BC000AE8FBF8F04C01C8E1D8E1E8E1F8EE98D72
:104BD000FA8D309719F0CE014B960995CE010E94BF
:104BE000F424882339F01092A6191092A51981E0B7
:104BF0000E94B725DF91CF9108951F938091C2063F
:104C000081508093C2068091F7188330C9F11091CA
:104C100091191123A9F181E08093F7186091AF17E2
:104C200070E061507040882777FD8095982F2AE0CA
:104C300030E040E050E00E943BB12091D606309138
:104C4000D7064091D8065091D906620F731F841F72
:104C5000951F2091B00630E040E050E00E943BB14B
:104C60006093FF18709300198093011990930219B3
:104C700011501093911981EB96E00E9486750AC03D
:104C80001092F7181092FF18109200191092011943
:104C9000109202191F910895A1E0B0E0E2E5F6E25A
:104CA0000C94AAB18C018CED96E069830E94437349
:104CB0006981D80117966C9317971596ED91FC9121
:104CC0001697C801079609958091DC069091DD063C
:104CD000009719F080E00E94B7252196E4E00C943B
:104CE000C6B12091C2062F5F2093C2060E94955F35
:104CF0000895AF92BF92DF92EF92FF920F931F93AE
:104D0000DF93CF930F92CDB7DEB78C015B01FB0130
:104D1000E05BFF4F85E398E291838083FB01EE5BCC
:104D2000FF4F82E08083FB01ED5BFF4FD8011396BC
:104D30008D919C91149791838083FB01E65BFF4FDB
:104D400058968C9158978083FB01E55BFF4F10824A
:104D5000FB01E45BFF4F81E08083FB01E35BFF4FDE
:104D60008083FB01E25BFF4F808357968C915797BE
:104D700086FD0DC081E090E013962D913C91149733
:104D8000BFEF283F3B0728F080E090E002C081E0C1
:104D900090E0F501E15BFF4F8083E090FD18F0901B
:104DA000FE18C8010E94F4248823E9F12091921989
:104DB000422F50E08091951990E0019748175907CC
:104DC00011F0DE2C06C02E9D802D1124F801D38811
:104DD000D81A4091A7195091A819405E5F4F30E052
:104DE0002E9DC0012F9D900D3E9D900D1124D80148
:104DF00055962D913C915697280F391FCA01B9013C
:104E00004D2D50E00E944DB2F501EB5BFF4F8D2D13
:104E1000865F8083F501EA5BFF4F8091A71990912F
:104E2000A819469611C0F501EB5BFF4FD8015396C8
:104E30008C915397885F8083F501EA5BFF4F55960D
:104E40008D919C915697089791838083F501EA5B39
:104E5000FF4FE080F180F7012081822F8C7E8083DC
:104E6000D80113968D919C911497207EBFEF873FB8
:104E70009B0710F02860F7012083D7019C91892FB0
:104E80008F7D8C93F801278922FD03C09F799C9325
:104E900021C08064D7018C93F5012085207F21609B
:104EA0002087C80129830E94F42429812F70882338
:104EB00051F0809197198295807F822BD5011896A9
:104EC0008C93189707C08091B0068295807F822BC3
:104ED000F5018087C8010E94F424D7019C918823A2
:104EE000E1F090689C939091921918968C91189784
:104EF000992359F48C7F816018968C931897809130
:104F0000951919968C9319970BC08C7F8260F701C5
:104F1000808780919219818703C09F77D7019C93E6
:104F2000F8018585D70111968C9311978089918915
:104F300013969C938E9312978685978515969C93CE
:104F40008E931497828916968C93C8010E94F4243C
:104F5000882329F080919619F701878305C00E9464
:104F6000B524D70117968C93C50109960E94712626
:104F700080E00F90CF91DF911F910F91FF90EF9004
:104F8000DF90BF90AF9008956091A5197091A61918
:104F9000FB01808191810E947926089525E539E100
:104FA000A901405D5F4F509356194093551992E007
:104FB0009093511940910619509107195093531924
:104FC000409352199BE090935419109259191092E2
:104FD0005A1991E090935B1990935C1910925D19A6
:104FE0004DEF55E25093601940935F1990935E190D
:104FF00092E89093851990910D199093861940919C
:10500000091950910A1950938819409387194091B2
:105010000B1950910C1950938A194093891990914A
:10502000081990938B1990910E1990938C1992E016
:1050300090938D199091041990938E199091051960
:1050400090938F199091901990936E191092FF1868
:105050001092001910920119109202198093F718FA
:10506000C901CD970E9471260895BC018091C206A6
:1050700081508093C2068FEB96E00E948A7381E094
:105080000E94B7250895CF93DF93BC01C091DC0641
:10509000D091DD068CED96E00E948A73209719F47A
:1050A00080E00E94B725DF91CF910895A3E0B0E0A2
:1050B000ECE5F8E20C94A6B18C01675F7F4F7B832F
:1050C0006A838DE0BE016F5F7F4F0E94D41189819A
:1050D000D80153962C915397882309F43FC0CA8076
:1050E000DB8081E0F60181AF13968D919C9114973E
:1050F00093AF82AF285F24AF5596ED90FC90569702
:1051000088EF9FEFE80EF91EF6AEE5AE8FEFD70100
:1051100011968C931197F8018089918913969C932D
:105120008E9312978685978515969C938E931497E8
:10513000828916968C930E94B524D70117968C937A
:10514000D601DD96ED91FC91DE9788E08083EA81BF
:10515000FB81E95BFF4F85E398E241C0CA80DB80B9
:1051600082E0F60181AF8DEF9FEF93AF82AF275FB3
:1051700024AFD8015596ED90FC905697E7EFFFEFDE
:10518000EE0EFF1ED601DE96FC92EE92DD97F80140
:1051900083819481D70112969C938E931197808975
:1051A000918914969C938E9313978685978516966E
:1051B0009C938E931597828917968C930E94B524A1
:1051C000F7018087D601DD96ED91FC91DE978CE0AA
:1051D0008083EA81FB81E95BFF4F89E499E2918357
:1051E0008083EA81FB81EF5BFF4FD80158968C9159
:1051F0008083EA81FB81EE5BFF4F8091AE17808355
:10520000EA81FB81ED5BFF4F81E08083EA81FB81D6
:10521000EC5BFF4F8083EA81FB81EB5BFF4F808378
:10522000EA81FB81EA5BFF4F80838A819B810E9438
:10523000712680E02396E8E00C94C2B1A4E0B0E0CF
:10524000E4E2F9E20C94ABB1182F89E1BE016F5F83
:105250007F4F0E94D411612F70E080E090E0209198
:10526000C6063091C7064091C8065091C9060E94F3
:105270003BB19B01AC0189819A81AB81BC81280F34
:10528000391F4A1F5B1FB901CA012496E3E00C9441
:10529000C7B10F931F93CF93DF93EC018C01095497
:1052A0001040D801DD96ED91FC91DE9781819281CD
:1052B0006FEF0E943A59882349F0229785E398E2DC
:1052C00099838883C8010E94585F03C0CE010E9461
:1052D0003528DF91CF911F910F9108958F929F9262
:1052E000BF92CF92DF92EF92FF920F931F93DF93C3
:1052F000CF930F92CDB7DEB76B01B42E79018090BA
:10530000C4069090C5060091C30626E1029F800165
:105310001124080D191D009719F126E1822E912CF8
:10532000880E991E1DC0F4012589243A11F02A3AED
:1053300099F4F4018085B81679F481859285C816B0
:10534000D90651F4C401B70148E050E029830E9416
:1053500040B229810097B9F026E130E0820E931E19
:105360008016910600F388249924C4010F90CF91F0
:10537000DF911F910F91FF90EF90DF90CF90BF9042
:105380009F908F900895243A39F7EFCFA1E0B0E0D5
:10539000ECECF9E20C94A2B14C017B010E94603E5E
:1053A0006C01F701E45AFF4F0081118158EA5F0157
:1053B00029C0F50111830083F80183858330A9F4A6
:1053C000C8010C960E94926C0097D9F0F8012489CC
:1053D000F4012587FC0180819181F401948383830A
:1053E000C401B7010E9479260AC0F8018485958519
:1053F000F40194838383C401B7010E945628582F77
:105400000EC059EAF40160897189C8014289960188
:1054100059830E946E298C015981009751F6852F7E
:105420002196ECE00C94BEB11F93CF93DF93EB0178
:10543000FB01E45AFF4F118210820E94C629182FE7
:10544000882319F0CE010E947025812FDF91CF9122
:105450001F910895A0E0B0E0E0E3FAE20C94A5B15A
:105460008C01B62EC091C406D091C5069091C3069A
:1054700086E1989F70011124EC0EFD1E3CE0C32EC6
:10548000D12CC00ED11E35C0F80121853285908502
:105490008D89843A11F08A3A59F58885981741F533
:1054A00089859A852817390719F5CE01B80148E092
:1054B00050E00E9440B20097D9F429C0813049F4ED
:1054C000F801248535858C859D852817390781F459
:1054D00017C0F80194898C89981751F4BE01645F54
:1054E0007F4FC60148E050E00E9440B2009741F073
:1054F0006696CE15DF0540F2F801B58AC0E0D0E02F
:105500007E01CE01CDB7DEB7E9E00C94C1B1F80160
:1055100083859B85891761F7D1CFCF93DF930E9455
:1055200027B2EC0144E0CC0FDD1F4A95E1F7C070D3
:105530000E9427B2282F30E02C2B3D2BC901DF9190
:10554000CF91089588E364EF78E10E94D4118DE44F
:1055500065EF78E10E9409122091F5183091F61854
:1055600060E083E290E00DC0462F50E0489FF001DC
:10557000499FF00D589FF00D1124E20FF31F108288
:105580006F5F4091F418641778F387E36DEE78E16C
:105590000E94D4118CE462EF78E10E94091280919C
:1055A000ED18E091F218F091F31890E006C0278111
:1055B0002E7F27839F5FE25AFF4F9817C0F3909189
:1055C000F4189093EE18823008F081508093EF1811
:1055D0001092F0181092F1188FE36DEF78E10E94AD
:1055E000D4118EE36CEF78E10E94D4118091FC1805
:1055F000882351F08EE468EF78E10E9409128FE46D
:1056000067EA79E10E9409124091FC1850E080910C
:10561000FD189091FE18489F9001499F300D589FAA
:10562000300D11248091F8189091F918820F931F72
:105630009093FB188093FA181092F7180895A1E040
:10564000B0E0E5E2FBE20C94A8B110E001E02EE549
:105650005FEFE52EF12C42C0129FC0011124E091B2
:10566000F218F091F318E80FF91F378130FF35C0B9
:1056700080858F70823089F53E7F323011F0363070
:1056800061F583819481A581B6818A309105A10558
:10569000B10548F00A97A109B10983839483A583D2
:1056A000B68300E01AC08085807F84608087138283
:1056B000148215821682363059F4C7010090AF1754
:1056C00002C0880F991F0A94E2F78095809394197D
:1056D00081E029830E94B72529811F5F8091ED1801
:1056E000181708F4B9CF8091FF1890910019A09174
:1056F0000119B09102190097A105B10591F08B3005
:105700009105A105B10550F00A97A109B109EDEE87
:10571000F8E1828B938BA48BB58B09C082E00E9449
:10572000CE27002321F081EB96E00E949075219610
:10573000E6E00C94C4B10F931F93CF93DF938C01D9
:10574000FC01C081D1816E3C11F0603F11F423E077
:1057500001C022E0F801E95AFF4F80819181A281C6
:10576000B3818C8F9D8FAE8FBF8F6B8F233049F0AD
:105770008A81882331F4CE01B8010E94C629883A73
:1057800061F4AE01445E5F4FF801808191816B8DC1
:105790000E94D025C8010E947025DF91CF911F91F2
:1057A0000F910895CF93DF93EC01009709F44AC05D
:1057B00086EA8D8B8885882309F444C08F3F09F4DD
:1057C00041C08B85833031F48C898823D9F18F3F98
:1057D00019F438C08130B1F51D8ACE0160E00E9415
:1057E0002A2A009709F53091C3068091C40690914A
:1057F000C50620E00BC0FC0145894696483A29F4CD
:1058000084EA858B309739F41DC02F5F231798F3F6
:105810008EEA8D8B17C0DF0186E109900D928150D1
:10582000E1F784EA858B09C0CE0166EA0E942A2A44
:1058300024EAFC01258B009729F080E160E070E00C
:105840000E94DC74DF91CF910895FC01009709F16B
:1058500086EA858B80858823E1F08F3FD1F08385B0
:10586000833031F484898823A1F08F3F19F408959F
:10587000813079F4158ACF0164EA0E942A2A0097C0
:1058800041F028EAFC01258B80E160E070E00E9495
:10589000DC740895BC018AED96E00E948A7381E071
:1058A0000E94B7250895BC0184ED96E00E948A739A
:1058B00081E00E94B7250895AAE0B0E0E2E6FCE2AC
:1058C0000C94A6B1E0900A188EE2BE016F5F7F4F84
:1058D0000E94D4118E01095F1F4F89E1B8010E9417
:1058E000D4118F819885A985BA852E2D30E040E0AE
:1058F00050E0281739074A075B0760F0880F991FA7
:10590000AA1FBB1F8F839887A987BA8789E1B8012F
:105910000E94EF112E2D30E0295F3F4F442737FDC5
:105920004095542F2093C6063093C7064093C8066F
:105930005093C906E980FF2400E010E0C801B701D8
:10594000660F771F881F991F6E0D7F1D801F911F87
:105950000E943BB12F81388549855A85620F731F9C
:10596000841F951F6093D6067093D7068093D80640
:105970009093D90681EB96E060E02AE030E040E0C9
:1059800050E00FE11BE20E94997581E08B838EE26B
:10599000BE016E5F7F4F0E94D4118A8190E0A0E02B
:1059A000B0E0880F991FAA1FBB1F8F3F9105A1056B
:1059B000B10529F020F08FEF90E0A0E0B0E00E9468
:1059C0001E296B017C0183E2BE016D5F7F4F0E9447
:1059D000D4112B8180E090E0DC018C0D9D1DAE1D6B
:1059E000BF1D81509E4FAF4FBF4FCC0CDD1CEE1C36
:1059F000FF1C215091F71B827C018D01F9E0169567
:105A00000795F794E794FA95D1F70894E11CF11CF7
:105A1000011D111D1E821D821C8289E3BE016C5F67
:105A20007F4F0E94D41187E4BE016B5F7F4F0E94BD
:105A300009126D817E818FEFE816F10401051105D1
:105A400031F028F0EFEFEE2EF12C012D112D8AEC24
:105A500096E04C8120E032E00E2DEE24E3940E948B
:105A6000AA732A96E8E00C94C2B1882359F00E94E8
:105A70008D2A8093C1061092C20683E260EB76E025
:105A80000E94D4111092DB061092DA061092D5060D
:105A90001092D4061092C0061092BF061092DF0634
:105AA0001092DE068AE090E0A0E0B0E080939E19BC
:105AB00090939F19A093A019B093A11984EC97E239
:105AC0009093A4198093A31981E08093A21986E290
:105AD0006FEA77E10E94D4111092051910920E1905
