:100000000C943D040C94E51F0C9412200C943F209A
:100010000C946C200C9499200C94C6200C94F32022
:100020000C9420210C9475040C9475040C947504A4
:100030000C9475040C94571C0C9475040C94A01C1F
:100040000C9475040C9475040C9475040C9475044C
:100050000C9475040C9475040C9475040C9475043C
:100060000C9411230C94251F0C94C91E0C94F71E9C
:100070000C9475040C94AB220C94C8210C94750458
:100080000C9475040C9475040C9475040C9475040C
:100090000C94B31F0C94571F0C94851F0C944D2186
:1000A0000C9475040C9475040C944A1E0C948AB03C
:1000B0000C9475040C9475040C9475040C947504DC
:1000C0000C9475040C9475040C9475040C947504CC
:1000D0000C9475040C9475040C9475040C947504BC
:1000E0000C9475040C9475040C9475040C947504AC
:1000F0000C94E7B00C9475040C9475040C940FB137
:100100000C9475040C9475040C9475040C9475048B
:100110000C9475040C9475040C9475040C9475047B
:10012000F419080000000F1A010001003C1A080031
:100130000200A41904000300BC1A01000400B31A51
:10014000010005001F1A01000600201A0100070027
:10015000211A010008002B1A11000900101A0200D0
:100160000A00161A01000B00BE1A02000C00B61A93
:1001700001000D00CC1A01000E00461A01000F000C
:10018000471A02001300501A01001400C21A080096
:100190001500151A010016006012BD001700101797
:1001A0000C0018006419160019002A0410001E0023
:1001B0004A0404001F0052040200200056041700E5
:1001C0002100840414002200AC0411002300503CE0
:1001D000613B953C953C953C673B713B953C953C20
:1001E0007A3B803BA93BB23B953CB83BC13BCC3B07
:1001F000953CD53BDB3B953CE43B213C363C953C78
:10020000273C303C503C503C503C423C423C423C01
:10021000423C423C423C423C423C423C423C423CEE
:10022000423C423C423C423C423C423CF83B423C29
:10023000953C953C953C953C953C953C953C953C36
:10024000953C953C953C953C953C953C423C3C3CD2
:10025000503C423CF33B073E673D573E573E573EBE
:100260006D3D723D1E3E573E753D783D913D963D3C
:10027000573E993D9C3D9F3D573EA43DA73D1E3EA8
:10028000AC3DFB3D103E573EFE3D013E6B3D043E06
:10029000043E1E3E1E3E1E3E1E3E1E3E1E3E1E3E98
:1002A0001E3E1E3E1E3E1E3E1E3E1E3E1E3E1E3E6E
:1002B0001E3E1E3EE13D1E3E573E573E573E573EB8
:1002C000573E573E573E573E573E573E573E573E86
:1002D000573E573E1E3E133E163E1E3EDA3DB5507B
:1002E000B5504F5056505650625062507350735034
:1002F0009950995099500551B55010661D664A663F
:100300005C66636670667D6688669066AE66D86673
:100310009A66E5808E8152826C828582A883D5831D
:1003200096879687968796879687968796879687E5
:1003300096872E833C839687778060833F82ED8704
:10034000FA871C88168813881C8826881F8A1F8AAB
:100350001F8A1F8A1F8A1F8A1F8A1F8A1F8A168860
:100360001C881F8AEA8719880A88AD8CB28CB78CE2
:10037000BC8CC18CC68CCB8CCB8CD98CDC8CF58C9A
:10038000DF8CE28CE58CE88CF58CEB8CEE8CF58CBC
:10039000F18CEB90279127912791F1900A91FD9094
:1003A00003913791F79010911091169127912E910A
:1003B000329182918591889188918B9197919191B9
:1003C0009491A7918E919A919D91A091A39154930C
:1003D000589380935C93609380936493809372931B
:1003E00076937D93BD977C988E987797D498D49880
:1003F00089988E989198BF98A898D498D498BF98C7
:10040000AB97C29827A82FA841A84AA84CA84EA8E5
:1004100050A853A824A99DA99DA94CA952A961A996
:1004200067A96AA96DA970A976A900000100020058
:1004300003000400050006000700080009000A0088
:100440000B000C000D000E000F001300140015002F
:1004500016001A001B000000010002000300040047
:10046000050006000700080009000A000B000C0048
:100470000D000E000F0013001400150016001700E9
:10048000180019000000010002000300040005002C
:1004900006000700080009000A000B000C000D0010
:1004A0000E000F00130014001500160000000100DC
:1004B0000200030004000500060007000800090010
:1004C0000A000B000C000D000E000F0018000000C9
:1004D000000000000000000000000000000000001C
:1004E000000000000000000000000000000000000C
:1004F00000000000000000000000000000000000FC
:1005000000000000000000000000000000000000EB
:1005100000000000000000000000000000000000DB
:1005200000000000000000000000000000000000CB
:1005300000000000000000000000000201000202B4
:100540000508080000FFFF34120000000000000052
:100550000002020100800000000000000000000016
:10056000000000000000000000000000000000008B
:100570000000000000000000000000000000050076
:10058000FF00000200001E000003341201030300FC
:1005900000B80B000010270000010001E803000074
:1005A00004E80300001041746D656C2020202020B9
:1005B000202020202020AAAAAAAAAAAAAAAA030127
:1005C0000085000000070507040205020402040379
:1005D00014040804020A01005F0035000E01141023
:1005E000F4190800FE1901000B1A04000F1A01008B
:1005F000BA1A0100BB1A0100C21A0800BE1A020092
:10060000471A0200501A0100B61A0100CC1A010064
:10061000BC1A0100121A0100131A0100141A010079
:10062000151A0100101A0200161A0100B81A01006A
:10063000B71A0100CE190100D01901003C1A0800B8
:10064000A4190400221A0400171A04001B1A04003B
:100650001F1A0100201A0100211A01002B1A110093
:10066000B31A0100261A0100271A0400441A0100D7
:10067000D1190200461A0100451A010000000000CD
:10068000C1050200C5050100C3050200C705010040
:10069000C8050100C9050100CA050100CB0501001C
:1006A000CC050100CD050100CE050100C605010005
:1006B000CF050100D0050100DE050200D3050100D1
:1006C000D4050100D5050100DA050400D1050100BB
:1006D000D2050100D6050100D7050100D8050200AA
:1006E0004111000060120000C61100001D1300003F
:1006F0000000000047130000DA1800003219000063
:1007000023160000751600003F160000AC1600000E
:100710001C170000941800000000000000000000FA
:1007200010170000641900007A1900003914281508
:100730003D14411424154514842ED23300000000CA
:100740000000000000000000B84F0000E862EF6EFB
:1007500082485C560000F84A2D527E5100008347C3
:10076000036B6A45645FF94400000000000000006C
:100770000000000002020302020201010101010166
:10078000010202010101020202020202020202024D
:10079000020202030302020302894D54470107D2F9
:1007A00068D0520101D268D052010100000000015E
:1007B00001114D216C0101114DFA6B0107C94C97D4
:1007C0004F0101704CB86B010100000000010700EF
:1007D00000000001010000000001030000EA4101E7
:1007E000040000EA410105000000000106000000CD
:1007F00000010C000000000101D2680000000100AF
:10080000000000010D0000000001070000000001D1
:1008100009000000000100000000000101000000CC
:100820000001010000000000000000EE450007008C
:1008300000EE45000B0000EE4500000000EE450014
:10084000053F0000403F213F393F00000C3F1A3F69
:100850000000133F0000E63EA141A8411A42934127
:10086000473F0000D743F06D2A6D38633F6C0000AE
:10087000DE6400007A4E0000000011248091E32025
:10088000823141F084B78F718093E32080FF05C0EF
:1008900081E001C081E18093E32014BE809160007B
:1008A0008861809360001092600011241FBECFEF1A
:1008B000D1E4DEBFCDBF13E0A0E0B2E0E0EFFAE6A6
:1008C00001E00BBF02C007900D92A23AB107D9F721
:1008D00010E2A2EAB3E001C01D92A33EB107E1F726
:1008E0000E94ED750E94AF75FDCF0C9400007F93C0
:1008F0007FB7F8949D9AA5988AEF0E94D6048AEF54
:100900000E94D6049D9886E40E94D60481E09599C1
:1009100080E08F9380EF0E94D6048F917FBF7F91FC
:1009200008957F937FB7F8949D9AA59886E00E94DA
:10093000D6049D988AE00E94D604889495990894DC
:10094000881F8F9384E60E94D6048F917FBF7F918A
:1009500008959F937F9398E00E94910487957795DF
:100960009A959923C9F7872F7F919F9108957F9337
:100970007FB7F894A5989D9A8F9386E00E94D6043D
:100980008F91879508F49D988F9384E60E94D604F2
:100990008F919D987FBF7F9108959F9398E00E94CB
:1009A000B7049A959923D9F79F9108950000000004
:1009B000000000008A958823C9F708955F937F930C
:1009C0007FB7F894CF93DF93C0E0D0E07F9350914E
:1009D000B2007091B2007517E1F3739521965091B2
:1009E000B2005717D9F77F91CE01DF91CF917FBF2A
:1009F0007F915F9108950F93DF93CF93CDB7DEB7CB
:100A000060970FB6F894DEBF0FBECDBF002309F488
:100A100059C029833A834B835C836D837E838F83A4
:100A20009887E0E2E01B29813A814B815C811E16A8
:100A3000BCF019861A861B861C868E2F992787FD87
:100A40009095909581959F4F04C0220F331F441FAE
:100A5000551F8A95D2F72D873E874F87588B2AC01E
:100A6000CA01B901002E04C0660F771F881F991FA5
:100A70000A94D2F769877A878B879C87DA01C90144
:100A800004C0B695A79597958795EA95D2F72D81DD
:100A90003E814F81588504C0220F331F441F551FCC
:100AA0000A95D2F7822B932BA42BB52B8D879E878B
:100AB000AF87B88B29853A854B855C856D857E85AA
:100AC0008F85988960960FB6F894DEBF0FBECDBFB4
:100AD000CF91DF910F910895DC019296ED91FC91F9
:100AE0009397808190E09093120B8093110B08955F
:100AF0000895A0E9B1E0EFE7F5E00C949AB16C013C
:100B0000DC011A968C911A97882309F0B3C08E01E4
:100B10000F5F1F4F00D000D000D0EDB7FEB7319669
:100B2000ADB7BEB712961C930E93119780E092E07A
:100B300093838283D6011D968C91848315820E94B3
:100B40007DB2D8010D900020E9F7AD014150504031
:100B5000401B510BEDB7FEB736960FB6F894FEBFAB
:100B60000FBEEDBF8EEA93E0B8010E949A155EE0D9
:100B7000E52EF12CEC0CFD1C470143EA642E4BE8FA
:100B8000742EC801B02EA92E31E2432E32E0532E2E
:100B90003DC08DB79EB708970FB6F8949EBF0FBEA5
:100BA0008DBFEDB7FEB73196ADB7BEB712961C93A9
:100BB0000E93119753824282D70152968C9152978D
:100BC00083708483158250968D919C915197978361
:100BD00086830E947DB2D8010D900020E9F7AD0117
:100BE00041505040401B510BEDB7FEB738960FB641
:100BF000F894FEBF0FBEEDBF8EEA93E06B2D7A2D09
:100C00000E949A1586E190E0E80EF91EC701881946
:100C1000990995958795869D9001879D300D969DA4
:100C2000300D1124D6011D968C911D9790E0281748
:100C300039070CF4AECFC80162E472E00E9476B2CC
:100C4000D8010D900020E9F7AD0141505040401B04
:100C5000510B8EEA93E06B2D7A2D0E949A158091AC
:100C60000104882339F483E0809301048FEC93E03E
:100C70000E94F77EC057DE4FE0E10C94B6B121E34D
:100C800030E03093D6032093D5031092D70390938E
:100C9000D9038093D80389E795E090934804809323
:100CA00047048FEC93E00E94F77E0895FC0187854E
:100CB000882389F40E94B01082E0809399042FB7B2
:100CC000F8948091E9069091EA0694609093EA0680
:100CD0008093E9062FBF089581E00E94D010089507
:100CE000EF92FF920F931F93CF93DF938EEA93E0DF
:100CF00063E17BE04AE050E00E943715C9E1DFE0A4
:100D0000CE0163E17BE00E946BB28091130B8A35C8
:100D1000C1F08091140B8A35A1F08091150B8A35B2
:100D200081F08091160B8A3561F08091170B8A351E
:100D300041F08091180B8A3521F08091190B8A358A
:100D4000E1F589E297E004EF11E0DC01F8011D9282
:100D50003197E9F769E17FE00E9476B27E01EC2FDE
:100D6000FF2DDF010D900020E9F7AD01415050400B
:100D70004E1B5F0BC9E1DFE08EEA93E0BE010E94EB
:100D80009A15FE019801119221503040E1F78AE056
:100D9000E3E1FBE0DF011D928A95E9F788E08093AB
:100DA00099042FB7F8948091E9069091EA0694602F
:100DB0009093EA068093E9062FBFCDB7DEB7E6E051
:100DC0000C94C0B1A3EAB0E0E8EEF6E00C9498B160
:100DD00080919904823009F487C0833030F48823ED
:100DE00071F0813009F05AC35AC0873009F49DC0B0
:100DF000883009F4ACC2853009F050C36CC088EC6F
:100E00008093B9031092BA031092CE0389E190E067
:100E10009093BC038093BB0386E08093BD03109244
:100E2000BE031092BF038DE19BE09093C3038093B8
:100E3000C20384EF91E09093C5038093C40321E142
:100E40003DE03093C7032093C6039093C90380937A
:100E5000C80380E796E09093CB038093CA03109277
:100E6000CD031092CC038EEA93E00E9418160E94E4
:100E7000AC1080E00E94C01081E00E94C01081E0B0
:100E8000809399042FB7F8948091E9069091EA062F
:100E900094609093EA068093E9062FBFFFC289838E
:100EA00081E191E19B838A8382E1BE016F5F7F4F85
:100EB0000E94EB1181E1BE016E5F7F4F0E94EB113A
:100EC00086E596E0909386058093850583E795E017
:100ED0000E94017EE3C280919A04882309F0DEC259
:100EE00082E080939904DAC280E093E00E942A2F86
:100EF00088E093E00E942A2F83E090E0A0E0B0E039
:100F00008093A1049093A204A093A304B093A4049B
:100F10001092A5048CE696E09093A7048093A60413
:100F20008BE994E00E945612B9C298EAE92E94E047
:100F3000F92E8DEBD7011D928A95E9F70DE119E0A5
:100F400084EFC82E81E0D82EF8019601119221502D
:100F50003040E1F7C7010E94467DC801B02EA92E9E
:100F600065E472E00E9476B2D8010D900020E9F7A6
:100F7000AD0141505040401B510B8EEA93E0B80147
:100F80000E949A15F8019601119221503040E1F724
:100F9000B4E0CB2ED12CCC0EDD1EA7E48A2EA2E02D
:100FA0009A2EFBE56F2EF2E07F2EE8EA4E2EE3E06C
:100FB0005E2E7BE4272E72E0372EC6C0D601EAE013
:100FC0001D92EA95E9F7D7011A968C911A9781300C
:100FD00009F1813020F0823009F06FC052C000D09A
:100FE00000D000D0EDB7FEB73196ADB7BEB71296C0
:100FF000DC92CE92119793828282358224820E9463
:101000007DB2EDB7FEB736960FB6F894FEBF0FBEB1
:10101000EDBF53C000D000D000D0EDB7FEB7319681
:10102000ADB7BEB71296DC92CE92119793828282B0
:10103000758264820E947DB2E091FE02F091FF020F
:10104000D7018D919C91119792838183CF018B5A07
:1010500093402DB73EB72A5F3F4F0FB6F8943EBF7F
:101060000FBE2DBF8330910528F45092FF024092AD
:10107000FE0223C0CF0103969093FF028093FE02ED
:101080001CC000D000D000D0EDB7FEB73196ADB790
:10109000BEB71296DC92CE9211979382828226E698
:1010A00032E0358324830E947DB28DB79EB70696C9
:1010B0000FB6F8949EBF0FBE8DBF00D000D000D0F9
:1010C000EDB7FEB73196ADB7BEB71196BC9211978A
:1010D0001296AC9225E732E033832283D7018D91BB
:1010E0009C91958384830E947DB2F70182852DB700
:1010F0003EB72A5F3F4F0FB6F8943EBF0FBE2DBFDD
:10110000882349F18B2D9A2DB6010E946BB2EB2DED
:10111000FA2DDF010D900020E9F7AD01415050405C
:101120004E1B5F0B8EEA93E06B2D7A2D0E949A1571
:10113000EDE1F9E024EF31E0119221503040E1F788
:101140008BE190E0E80EF91EC701885A94408D3B70
:1011500091050CF433CF8DE199E068E772E00E94CD
:1011600076B2D8010D900020E9F7AD014150504012
:10117000401B510B0DE119E08EEA93E0B8010E948B
:101180009A1584EF91E0F8019C01119221503040B2
:10119000E1F765E6E62E65E0F62E87E0D7011D92C1
:1011A0008A95E9F789E1B7016E5F7F4F0E94D01100
:1011B0008E01025F1F4FEDB7FEB738970FB6F89458
:1011C000FEBF0FBEEDBF3196ADB7BEB712961C93F2
:1011D0000E9311978AE792E093838283809167054B
:1011E00090916805A0916905B0916A058483958303
:1011F000A683B7830E947DB2D8010D900020E9F745
:10120000AD0141505040401B510BEDB7FEB7389631
:101210000FB6F894FEBF0FBEEDBF8EEA93E0B801A3
:101220000E949A1584E0B7016A5F7F4F0E94D01137
:1012300000D000D000D0EDB7FEB73196ADB7BEB745
:1012400012961C930E9311978AE992E093838283FE
:1012500080916B05848315820E947DB2D8010D9028
:101260000020E9F7AD0141505040401B510BEDB754
:10127000FEB736960FB6F894FEBF0FBEEDBF8EEAEE
:1012800093E0B8010E949A158FE0B7010E94D01137
:1012900000D000D000D0EDB7FEB73196ADB7BEB7E5
:1012A00012961C930E9311978CEB92E0938382839A
:1012B00080916505848315820E947DB2D8010D90CE
:1012C0000020E9F7AD0141505040401B510BEDB7F4
:1012D000FEB736960FB6F894FEBF0FBEEDBF8EEA8E
:1012E00093E0B8010E949A158DE0B7016F5F7F4FC0
:1012F0000E94D01100D000D000D0EDB7FEB73196DB
:10130000ADB7BEB712961C930E93119782EE92E082
:101310009383828380916605848315820E947DB2C7
:10132000D8010D900020E9F7AD0141505040401B1D
:10133000510BEDB7FEB736960FB6F894FEBF0FBE51
:10134000EDBF8EEA93E0B8010E949A15A7C0E9E2CA
:10135000F7E001900020E9F73197E952F740E330D8
:10136000F10541F0E430F10551F0E230F10509F00A
:101370008BC016C080912A0790E0C0970DC0809165
:101380002B0790E08051924030912A072AE0329F4B
:1013900090011124820F931F009709F475C002C0B9
:1013A00081E090E0209129072D34F9F02E3430F4BB
:1013B000233469F0263409F067C00FC0213509F4E1
:1013C00050C0223549F1203509F05EC015C0809328
:1013D000720584E062E775E005C080936C058FE0DC
:1013E0006CE675E00E94EB114FC081E080936D05C3
:1013F0008DE06DE675E0F6CF87E0809399042FB716
:10140000F8948091E9069091EA0694609093EA0638
:101410008093E9062FBF38C084E390E090938E0557
:1014200080938D0510928F05109291051092900572
:10143000109200061092FF05E9EBF5E01092B90555
:101440001182128213821482158216821782809171
:10145000C105806C8093C105CF01C2970E94F77EC1
:1014600013C0109201048130910529F48091A903E1
:101470009091AA0307C08230910531F48091AC03AA
:101480009091AD030E943F0684EF91E0E9E2F7E01E
:10149000DF019C011D9221503040E1F7CD55DF4F17
:1014A000E2E10C94B4B1EF92FF920F931F93CF93AC
:1014B000DF938C0180E00E94B010D8018C918239BA
:1014C00021F0833909F089C051C085E080939904E7
:1014D00081E080939A04CDE1D9E000D000D000D023
:1014E000EDB7FEB73196ADB7BEB71296DC93CE938B
:1014F000119785E792E093838283D80111968D91AD
:101500009C911297958384830E947DB27E01EC2F7B
:10151000FF2DDF010D900020E9F7AD014150504053
:101520004E1B5F0BEDB7FEB736960FB6F894FEBFB5
:101530000FBEEDBF8EEA93E0BE010E949A1584EFC4
:1015400091E0DE01FC011D923197E9F781E00E94F4
:10155000D0102FB7F8948091E9069091EA06946034
:101560009093EA068093E9062FBF37C081E00E947E
:10157000D010CDE1D9E000D000D000D0EDB7FEB75B
:101580003196ADB7BEB71296DC93CE93119785E72F
:1015900092E093838283D80111968D919C9112974A
:1015A000958384830E947DB27E01EC2FFF2DDF01A5
:1015B0000D900020E9F7AD01415050404E1B5F0BEC
:1015C000EDB7FEB736960FB6F894FEBF0FBEEDBF6F
:1015D0008EEA93E0BE010E949A15CDB7DEB7E6E031
:1015E0000C94C0B10895089508950895A6E0B0E060
:1015F000ECEFFAE00C94A6B18E010F5F1F4F26E0CE
:10160000F80111922A95E9F7FC0123E0F695E79598
:101610002A95E1F7E00FF11F8770907021E030E02C
:1016200002C0220F331F8A95E2F72083C8010E946F
:10163000220FD801EFE1F1E1CE0107963D91208123
:10164000232B2193A817B907C9F780913A11846019
:1016500080933A112696E4E00C94C2B102C00E9435
:10166000EA750E94A8188823D1F708950F931F9355
:10167000CF93DF938C01EB010E942E0BC801BE01BA
:101680000E94CF172FEF8F3F920739F08AE0C53FB6
:10169000D80729F40E942E0B02C081E001C080E02F
:1016A000DF91CF911F910F9108950F931F93CF93C7
:1016B000DF938C01EB010E942E0BC801BE010E943A
:1016C00033182FEF8F3F920739F08AE0C53FD807D4
:1016D00029F40E942E0B02C081E001C080E0DF915E
:1016E000CF911F910F9108952F923F924F925F9249
:1016F0006F927F929F92AF92BF92CF92DF92EF92C2
:10170000FF920F931F93DF93CF93CDB7DEB762970E
:101710000FB6F894DEBF0FBECDBF80913A11826044
:1017200080933A1182FF94C081E596E06FE171E108
:101730000E94D30F80913A118B7F80933A1188C019
:10174000E0905706F0905806F70103E0F695E7950C
:101750000A95E1F7E35FFE4EC7018770907096012E
:1017600002C0220F331F8A95E2F7C9018095928942
:101770008923828B69857A854B855C8580E00E9410
:10178000F30F982E588A4F863A8A298A8F81988536
:1017900005979E878D87C50165EF7AE00E94360B1D
:1017A0008A819816A1F58D819E81E816F90679F552
:1017B0002B853C858B819C812817390741F581E079
:1017C00090E08C0F9D1F988B8F87DA8AC98A00E082
:1017D00010E017C08F819885800F911F9E878D879D
:1017E000C50165EF7AE00E94360BAF85B889E985BF
:1017F000FA85E00FF11F9C918081981741F40F5FEB
:101800001F4F8B859C850817190720F336C09A82D5
:10181000FE82ED828B859C859C838B83CE01029614
:10182000988B8F8785E090E09A8B898B8F81988544
:1018300005979E878D87CE010D9665EF7AE00E9411
:10184000550BCE01079664E77BE00E94550B27C03D
:1018500017E0612E712C6C0E7D1EB1E0CB2ED12CC9
:10186000A2E04A2E512C4C0E5D1EF5E02F2E312C9D
:10187000EDE0AE2EB12CAC0EBD1E81E596E0B301BD
:101880000E94C20E882309F05BCF80913A118D7FB0
:1018900080933A118FE060E070E00E94D874629605
:1018A0000FB6F894DEBF0FBECDBFCF91DF911F9171
:1018B0000F91FF90EF90DF90CF90BF90AF909F90EF
:1018C0007F906F905F904F903F902F900895282FBA
:1018D000392FF90180E09191992329F48F5F8630A7
:1018E000D1F780E0089581E008959C01CB0146E0A6
:1018F000DB011D924A95E9F7F90143E0F695E7957A
:101900004A95E1F7E60FF71F2770307041E050E08D
:1019100002C0440F551F2A95E2F72081242B208313
:101920000E94220F0895972F882319F08130A1F487
:101930000EC0A5E2B1E1E62FF72F9D9180818923AA
:10194000819381E1AB32B807C1F791E006C0862FE1
:101950000E94651091E0811190E0892F08950E9406
:10196000F60A80913A1181FD02C00E94740B81E059
:101970000895A6E0B0E0EFEBFCE00C94A6B18E0178
:101980000F5F1F4FB8010E94750C80E0B8010E94E4
:10199000930CC8010E94670C882381F0A9E1B1E192
:1019A000F8019D9180818923819381E1AF31B8074E
:1019B000C1F7CE0101960E94670C01C080E0269617
:1019C000E4E00C94C2B1A8E1B0E0E9EEFCE00C94D4
:1019D0009CB100E211E010930E1100930D118AEA00
:1019E00091E09093101180930F118AEA91E0801B8F
:1019F000910B26E030E0B9010E9462B18091111193
:101A000090911211682B792B709312116093111120
:101A10008EEC91E08A5A9140B9010E9462B18091A6
:101A2000131190911411682B792B709314116093FA
:101A30001311109215111092161110921711109285
:101A4000181186E0E5E2F1E1DF011D928A95E9F7E0
:101A5000AA2483E1882E912C8C0E9D1EB1E0CB2E02
:101A6000D12C38C0C401B80146E050E00E9433B226
:101A70008D899E890596A0E0B0E0209115113091E6
:101A800016114091171150911811820F931FA41F26
:101A9000B51F8093151190931611A0931711B09351
:101AA00018118F89988DFC01A3E0F695E795AA950A
:101AB000E1F7E35FFE4E87709070960102C0220F3F
:101AC000331F8A95E2F7C901208D282B208F0A5FEA
:101AD0001F4FA39420911111309112118A2D90E083
:101AE0008217930708F4BECFC901880F991F820F90
:101AF000931F880F991F04966C01EE24FF24CE01DA
:101B00000D969A87898786E090E09C878B87AA2428
:101B1000BB2400E010E067E0862E912C8C0E9D1E09
:101B200053E1652E712C6C0E7D1EF80143E0F69595
:101B3000E7954A95E1F7E35FFE4E808D90E09801CE
:101B40002770307002C0969587952A95E2F780FF3E
:101B50003DC0C501880F991F8A0D9B1D880F991FD5
:101B6000049698878F83C40165EF7AE00E94360B54
:101B700089899A898017910749F48D859E85AF855B
:101B8000B8898C159D05AE05BF0559F01A8B098BD8
:101B9000CD86DE86EF86F88AC40165EF7AE00E9482
:101BA000550BC8010E94060EBC01C30146E050E07F
:101BB0000E9433B28D899E890596A0E0B0E0C80EE0
:101BC000D91EEA1EFB1E0894A11CB11C0F5F1F4FFB
:101BD0000D32110509F0A9CF0E94FD0DCE0101962D
:101BE0000E9465106896EEE00C94B8B180913811AF
:101BF000909139110E94AF0C08951092351186EF23
:101C00009DE090933711809336110895A2E0B0E0E3
:101C1000ECE0FEE00C949EB14C0100910D1110918E
:101C20000E11EE24FF245E010894A11CB11C13C008
:101C30006801B8016C5F7F4FC50142E050E00E942F
:101C400033B20A5F1F4F89819A818815990561F027
:101C50000894E11CF11C8091111190911211E81669
:101C6000F90630F3CC24DD24C6012296ECE00C9476
:101C7000BAB1A2E1B0E0EFE3FEE00C94A5B18B01B4
:101C8000BC0153E0769567955A95E1F7FB01E35F58
:101C9000FE4E208D30E0AC014770507002C036958A
:101CA00027954A95E2F720FF4AC0DE011D96E5E23E
:101CB000F1E126E001900D922150E1F7FF2420E0B0
:101CC00030E0FE013D961BC0DF01A40FB51F4C9113
:101CD000542F569555754575540F452F4695469585
:101CE00043735373450F4C93A42FA295AF7050E0EC
:101CF0004F7050704A0F511D240F351FF3944F2D14
:101D000050E04617570700F3A0E087709070FE017F
:101D10003D96E60FF71F0DC0408150E00A2E02C02D
:101D2000569547950A94E2F741705070240F351F7D
:101D3000AF5F4A2F50E04817590770F302C02FEFEA
:101D40003FEFCE0107969C838B83C901880F991FB3
:101D5000820F931F880F991F04969A83898386E0C8
:101D600090E09E838D83CE01019665EF7AE00E941C
:101D7000360B8F819885F801918380836296E5E028
:101D80000C94C1B1A6E0B0E0E8ECFEE00C94A4B184
:101D90007C018B0180E090E0FC0163E0F695E79523
:101DA0006A95E1F7EE0DFF1D6081AC014770507040
:101DB000262F30E0042E02C0369527950A94E2F7CC
:101DC00020FF10C021E030E002C0220F331F4A95EF
:101DD000E2F72095262320830E94060EBC0100977F
:101DE00031F426C001968D329105B1F621C0CE01A5
:101DF000019646E050E00E9433B289819A81F80151
:101E0000938382838D819E81B8010E94390EF801EF
:101E1000808191810596918380838B819C819583BC
:101E200084838D819E81F7019783868381E006C03C
:101E30008FEF9FEFF7019783868380E02696E6E099
:101E40000C94C0B14F925F926F927F929F92AF922B
:101E5000BF92CF92DF92EF92FF920F931F93DF9387
:101E6000CF93CDB7DEB728970FB6F894DEBF0FBE7D
:101E7000CDBF8C0130910F1120911011FC01858193
:101E800086FD12C0C901E92EF82ECC24DD2483E0A2
:101E9000482E512C4C0E5D1EB1E0AB2EB12C3E01F4
:101EA0000894611C711C61C0C8016FEF70E046E0CE
:101EB00050E00E9464B261C0C201B70146E050E048
:101EC0000E9433B22F813885F901A3E0F695E7959A
:101ED000AA95E1F7E00FF11F408127703070842F41
:101EE00090E0022E02C0969587950A94E2F780FF53
:101EF00035C0C50102C0880F991F2A95E2F79C01E1
:101F0000209524232083992422C0880F991F6B8158
:101F10007C81680F791FC30142E050E00E9433B218
:101F200089819A81FC0173E0F695E7957A95E1F74E
:101F3000E00FF11F87709070950102C0220F331FD0
:101F40008A95E2F7C9012081282B20839394892D5B
:101F500090E02D813E8182179307B8F20894C11C4E
:101F6000D11C86E090E0E80EF91E8091131190914B
:101F70001411C816D90608F49FCF28960FB6F89406
:101F8000DEBF0FBECDBFCF91DF911F910F91FF90AC
:101F9000EF90DF90CF90BF90AF909F907F906F9029
:101FA0005F904F900895CF93DF93EC018FEF9FEFF9
:101FB0009F838E83DE01862F972FFC0186E00190A0
:101FC0000D928150E1F7CE010E94220FE5E2F1E18E
:101FD000919188818923899381E1EB32F807C1F7D8
:101FE000DF91CF910895262F372FF90120E030E0BF
:101FF00004C09191890F2F5F3F4F24173507C8F315
:102000000895ACE0B0E0E7E0F0E10C94A1B17C0110
:102010008B01CE0102969A87898785E090E09C87A4
:102020008B87FB0180819181059798878F8387E05B
:10203000C82ED12CCC0EDD1EC60165EF7AE00E94C1
:10204000360B8D819E81E816F906C1F5F8012481D1
:1020500035818B819C812817390781F5CE01019646
:102060009A87898781E090E09C878B87EE24FF2404
:10207000BB24C601DC2CC92E18C0F80180819181D7
:102080008E0D9F1D98878F838D2D9C2D65EF7AE097
:102090000E94360B69857A858B2D41E050E00E94C5
:1020A000F30FB82E0894E11CF11CF801848195818E
:1020B000E816F90610F38A81B81611F082E001C023
:1020C00080E02C96E9E00C94BDB1AEE0B0E0EBE628
:1020D000F0E10C94A0B18C0147E0E42EF12CEC0E61
:1020E000FD1EC701B8010E94D30F86E0D8011D92E2
:1020F0008A95E9F7BE2CAF2C7E010894E11CF11CF7
:1021000031E0C32ED12C1DC08D859E85B7010E9464
:1021100001108823B1F48D859E85FC0123E0F6959E
:10212000E7952A95E1F7E00FF11F8770907096010F
:1021300002C0220F331F8A95E2F7C9012081282BA4
:1021400020838B2D9A2DB7010E94C20E8823E1F6C1
:102150002E96EAE00C94BCB16A9A6B9A80E00895DE
:10216000813039F0813018F0853049F404C072981C
:1021700008957398089580E00E94B010FACF0895F2
:10218000813039F0813018F0853049F404C0729AFA
:102190000895739A089580E00E94C010FACF0895C0
:1021A000882319F0813051F405C08EB194E089275D
:1021B0008EB908958EB198E089278EB908958091DF
:1021C000590680FF07C0809159068E7F809359067B
:1021D0000E941C118091590681FF07C08091590609
:1021E0008D7F809359060E9460118091590682FF6D
:1021F00007C0809159068B7F809359060E94691110
:102200008091590683FF07C080915906877F80938C
:1022100059060E94721180915906882361F02FB7E8
:10222000F8948091E9069091EA0691609093EA060D
:102230008093E9062FBF089580915A0681FF12C04E
:1022400080915A068D7F80935A0680915A06846049
:1022500080935A06E0915B06F0915C06309711F08E
:1022600081E0099580915A0682FF29C0659B16C0BE
:1022700080915A068B7F80935A0680915A068E7FF2
:1022800080935A06E0915D06F0915E06309711F05A
:1022900081E0099585E00E946116089580915906B4
:1022A0008160809359062FB7F8948091E906909148
:1022B000EA0691609093EA068093E9062FBF08959D
:1022C000E0913D11F0913E1181E060E070E00995F0
:1022D0000895E0913F11F091401181E060E070E0DD
:1022E00009950895E0913B11F0913C1180E090E058
:1022F0000995089588E3E3EDF9E1DF011D928A95E0
:10230000E9F785E08093FE1987E49AE16EEC74E0CA
:1023100046E850E00E9433B284EA99E164E575E052
:102320004FE250E00E9433B282EA99E163E875E03F
:1023300042E050E00E9433B28BE09AE165E875E03C
:102340004CE350E00E9433B281E698E0E1E4F1E131
:10235000DF019C011D9221503040E1F70895A4E077
:10236000B0E0E5EBF1E10C94A8B1682F70E0660FE6
:10237000771F660F771F60527A4FCE01019644E0B7
:1023800050E00E9433B269817A818B819C812496CE
:10239000E2E00C94C4B10E947A110E94E30C08950B
:1023A000EF92FF921F93CF93DF93182FEB012097AB
:1023B00061F00E94AF11AC01183220F0CE010E94F2
:1023C00033B203C0CE010E9449B2DF91CF911F9179
:1023D000FF90EF900895EF92FF92CF93DF93EB0180
:1023E000209771F0883260F406C0CB01BE01A901CC
:1023F0000E9449B205C00E94AF119C010097A9F745
:10240000DF91CF91FF90EF900895CF93DF93EB0191
:102410000E94AF11009711F479836883DF91CF9107
:102420000895EF92FF920F931F93CF93DF9318C0FD
:1024300080E696E060E070E0AE010E94971A8A851F
:10244000882359F4EA82FB820C831D8380E696E0A0
:10245000BE01A80197010E94DF18EB85FC85099554
:1024600080916006909161060097D9F00E943F1E0E
:102470007B018C01C0916006D09161068A819B81AD
:10248000AC81BD81A8019701281B390B4A0B5B0B5E
:102490008E819F81A885B985281739074A075B0770
:1024A00038F6CDB7DEB7E6E00C94C0B1CF93DF933A
:1024B000EC01009771F0E0916006F091610606C0B2
:1024C000EC17FD0749F00190F081E02D3097C1F73E
:1024D00009C02FEF3FEF02C020E030E0C901DF91DB
:1024E000CF9108950E943F1E9B01AC011982188272
:1024F0006A837B838C839D8380E696E0BE010E9485
:10250000DF18EACFCF93DF93EC010097D1F08091F1
:102510006006909161068C179D0749F080E696E071
:10252000BE010E94B61ABC01009719F40AC060E00F
:1025300070E080E696E0AE010E94971A20E030E05D
:1025400002C02FEF3FEFC901DF91CF9108958F9225
:102550009F92AF92BF92CF92DF92EF92FF920F9332
:102560000E94C31B4B015C012091740630E040E0E7
:1025700050E060E070E080E090E000E20E94FB0448
:10258000282939294A295B290F91FF90EF90DF9084
:10259000CF90BF90AF909F908F90089580916606E6
:1025A00082FF0BC09FB7F894809166068B7F809363
:1025B00066069FBF0E941112A9C08091620680FF2B
:1025C0000BC09FB7F894809162068E7F809362065D
:1025D0009FBF0E9412249AC08091620681FF0BC0A7
:1025E0009FB7F894809162068D7F809362069FBFAB
:1025F0000E94261C8BC08091660680FF0BC09FB78F
:10260000F894809166068E7F809366069FBF0E9435
:1026100076227CC08091660683FF0BC09FB7F8943A
:1026200080916606877F809366069FBF0E9409227D
:102630006DC08091640686FF0BC09FB7F8948091AF
:1026400064068F7B809364069FBF0E94191B5EC047
:102650008091640687FF0BC09FB7F8948091640651
:102660008F77809364069FBF0E9449144FC080916A
:10267000650681FF0BC09FB7F894809165068D7F3A
:10268000809365069FBF0E94C51A40C08091650671
:1026900082FF0BC09FB7F894809165068B7F809373
:1026A00065069FBF0E94AF1831C08091650680FF0C
:1026B0000BC09FB7F894809165068E7F8093650666
:1026C0009FBF0E94251D22C08091660681FF0BC01E
:1026D0009FB7F894809166068D7F809366069FBFB2
:1026E0000E94AC1713C08091660684FF0FC09FB78D
:1026F000F894809166068F7E809366069FBFE09176
:10270000CD1AF091CE1A309709F0099580916206A2
:10271000882381F480916306882361F480916406A4
:10272000882341F480916506882321F48091660610
:10273000882361F02FB7F8948091E9069091EA061A
:1027400082609093EA068093E9062FBF0895CF93A5
:10275000DF93E82FF0E0DF01A05CB04093E0B59597
:10276000A7959A95E1F7B0E0AA0FBB1FA959B94FF9
:102770006D917C9111976115710599F14FB7F8949E
:10278000EB012A813B81888199814FBF2817390746
:1027900029F12D913C911197E901288D398D280F50
:1027A000391FE90138810196208120642083368316
:1027B0000D90BC91A02D5A962D913C915B9782175C
:1027C000930711F480E090E02181206221832FB7EC
:1027D000F894FB01918380832FBF03C081818064C3
:1027E0008183DF91CF91089590E0805C904033E049
:1027F000959587953A95E1F7E82FF0E0EE0FFF1FEA
:10280000E959F94FA081B1811097B9F090968C9158
:102810009097887191F42FB7F89418968D919C91A8
:1028200019972FBF009749F00190F081E02D048C9B
:10283000F58DE02D309709F009950895FC019389F5
:102840008385992349F4803C19F0883C89F402C0BF
:102850006A9A0895559A0895803C19F0883C41F48D
:1028600004C06A987298729A089555985D985D9A16
:10287000089580EC0E94A713089580EC0E94F41341
:10288000089588EC0E94A713089588EC0E94F41321
:102890000895A3E0B0E0EFE4F4E10C94A3B181E08B
:1028A000898306E010E0DD2452E0E52EF12CEC0EE9
:1028B000FD1E90916E0689818923B9F09FB7F89427
:1028C00020916E068981822780936E069FBF6D2DB1
:1028D00070E0660F771F645D784FC70142E050E0FB
:1028E0000E9433B2EA81FB810995D3948981880FD4
:1028F000898301501040E9F62396E7E00C94BFB1BC
:1029000090916E0621E030E002C0220F331F8A95BD
:10291000E2F7922B90936E06809164068068809314
:1029200064062FB7F8948091E9069091EA068260D8
:102930009093EA068093E9062FBF0895CF93DF9323
:10294000C82FD0E0DE01A05CB040E3E0B595A795CC
:10295000EA95E1F7B0E0AA0FBB1FA959B94FED9175
:10296000FC911197309721F489818F77898335C045
:1029700080A183FD32C0C489D58984FF0AC06883E1
:10298000ED91FC911197848995890196958B848BA3
:1029900024C0209711F12681378186819781019685
:1029A0009783868346815781868997894817590777
:1029B00011F41782168246815781848195814817C8
:1029C000590719F43783268308C0C20FD31F6883C1
:1029D00080859185019691878087DF91CF910895B9
:1029E00090E0805C904033E0959587953A95E1F7CB
:1029F00090E0DC01AA0FBB1FA959B94FED91FC91E2
:102A00001197309701F16FB7F8944281538120817B
:102A100031816FBF4217530711F421E02287FC0177
:102A2000EE0FFF1FE959F94F0190F081E02D828DE3
:102A3000938D009711F4118E108E068CF78DE02D7A
:102A4000309709F00995089588EC0E94F0140895D4
:102A500080EC0E94F0140895805C893030F4E82FF7
:102A6000F0E0E85DFC4F8081089580E00895A0E0EB
:102A7000B0E0EDE3F5E10C94A3B1EC018B017A0138
:102A8000009709F44FC0DB848D2D0E942C158823FC
:102A900009F448C00115110509F444C0E114F1041A
:102AA00009F440C0ED2DF0E0E05CF04073E0F595F6
:102AB000E7957A95E1F7F0E0EE0FFF1FE959F94F3E
:102AC00080819181C817D90769F52FB7F8944E8195
:102AD0005F818C819D812FBFD80120E030E010C044
:102AE000EC89FD89E80FF91F60816D9301966E896D
:102AF0007F898617970711F480E090E02F5F3F4FA2
:102B00008417950719F02E153F0550F34FB7F89429
:102B10009D838C8388859985821B930B99878887F1
:102B20004FBF02C02FEF3FEFC901CDB7DEB7E7E0DF
:102B30000C94BFB1A0E0B0E0E0EAF5E10C94A0B1E4
:102B4000EC018B017A01009709F46AC0CB848C2DCB
:102B50000E942C15882309F463C00115110509F49E
:102B60005FC0E114F10409F45BC0EC2DF0E0E05C1F
:102B7000F040B3E0F595E795BA95E1F7F0E0EE0F98
:102B8000FF1FE959F94F80819181C817D90709F0D2
:102B900047C08A8D9B8D009779F42A813B8188817B
:102BA000998128173907E1F5198F088FFB82EA828E
:102BB00019821882C7012CC08FB7F894CA80DB80B5
:102BC000A880B9808FBFD801960180E090E015C041
:102BD000A9014F5F5F4F6A8D7B8D4617570711F430
:102BE00040E050E04A155B0559F06D91E88DF98D94
:102BF000E20FF31F608301969A018E159F0540F343
:102C00004FB7F8943B832A834FBFCA14DB0431F4D7
:102C10001A86EB85F0E02181206221839C0102C0AD
:102C20002FEF3FEFC901CDB7DEB7EAE00C94BCB19E
:102C30001F93CF93DF93EC010097E1F11B85812F68
:102C40000E942C158823B1F1E12FF0E0E05CF04008
:102C500033E0F595E7953A95E1F7F0E0EE0FFF1FC9
:102C6000E959F94F80819181009721F5D183C08383
:102C70008C85803419F4CE010E941E1419821882AA
:102C80001B821A828C899D89009711F41F8A1E8AE3
:102C9000888D998D009711F41B8E1A8E1D821C82CF
:102CA0001F821E8281E08A87CE010E94701E2B85C2
:102CB00030E002C02FEF3FEFC901DF91CF911F91AC
:102CC00008958830C0F4E82FF0E0EE0FFF1FEB57B7
:102CD000F94F208131812115310569F09DB321E043
:102CE00030E002C0220F331F8A95E2F7922B9DBB82
:102CF00020E030E002C02FEF3FEFC9010895E091DE
:102D00006F06F091700687E0828380E98093BC00B3
:102D1000809166068260809366062FB7F894809152
:102D2000E9069091EA0682609093EA068093E906AC
:102D30002FBF0895E0916F06F09170068281823076
:102D400031F08281833019F08281843019F48581D9
:102D5000880F06C08281853049F48581880F8F5F96
:102D60008093BB0085E88093BC0008950E947F1685
:102D70000895E0916F06F09170062081318186817F
:102D800097812817390780F480819181A085B185CA
:102D9000A80FB91F2C910196918380832093BB00CB
:102DA00085E88093BC00089586E0828384E980935F
:102DB000BC00809166068260809366062FB7F89407
:102DC0008091E9069091EA0682609093EA068093EA
:102DD000E9062FBF0895E0916F06F0917006838594
:102DE0009485A585B685208131812150304031837D
:102DF00020832081318143E0220F331F4A95E1F780
:102E000004C0B695A795979587952A95D2F7809394
:102E1000BB0085E88093BC0080819181009741F4DC
:102E20008281823019F484E08283089585E0828370
:102E30000895E0916F06F09170068281843019F454
:102E40000E94B91608958281823019F08281833000
:102E500019F40E94EB1608958281853021F485EAE9
:102E60008093BC0008950E947F160895E0916F063C
:102E7000F091700682818530A1F48681978181303E
:102E8000910521F48091BC008F7B03C08091BC0030
:102E900080648093BC008091BC0085688093BC00F6
:102EA00008950E947F160895E0916F06F0917006D4
:102EB0009281953011F520813181A085B185A20FD5
:102EC000B31F8C932F5F3F4F31832083208131814B
:102ED0008681978101972817390720F48091BC00DB
:102EE000806403C08091BC008F7B8093BC00809184
:102EF000BC0085688093BC0008950E947F160895E9
:102F0000E0916F06F09170069281953011F5208165
:102F10003181A085B185A20FB31F8C932F5F3F4FE6
:102F20003183208386E0828384E98093BC00809192
:102F300066068260809366062FB7F8948091E90652
:102F40009091EA0682609093EA068093E9062FBF8B
:102F500008950E947F160895A0916F06B0917006A3
:102F60001F96ED91FC9150973097A1F012968C919D
:102F70001297863049F48091BC0084FDFCCF81E03B
:102F800012968C93129704C081E012968C9380E085
:102F90000995089581E012968C9312970895FC018B
:102FA00080917106882309F057C0309709F457C003
:102FB0008481958120813181820F931F20E18130AE
:102FC000920708F04CC081E0809371067093D61A86
:102FD0006093D51AAFECBAE186E001900D92815072
:102FE000E1F7F999FECF80E090E017C0E091D11AA7
:102FF000F091D21AE80FF91F2091CF1A3091D01A10
:10300000A9014F5F5F4F5093D01A4093CF1A32BD42
:1030100021BDF89A20B5208301962091D31A3091D2
:10302000D41A8217930710F31092D41A1092D31A5D
:10303000809165068460809365062FB7F89480912F
:10304000E9069091EA0682609093EA068093E90689
:103050002FBF20E030E005C02EEF3FEF02C02FEF82
:103060003FEFC9010895CF93DF93FC019B0180914D
:103070007106882309F063C0309709F463C060814A
:10308000718184819581860F971F40E1813094077B
:1030900008F058C081E080937106AFECBAE186E099
:1030A00001900D928150E1F73093D61A2093D51AF2
:1030B0002115310519F4C0E0D0E033C0CB010196F1
:1030C0009093D01A8093CF1AE091D11AF091D21A2E
:1030D0004191F093D21AE093D11A8CE00E94BA2168
:1030E0008091D31A9091D41A01979093D41A809317
:1030F000D31A22C06091CF1A7091D01ACB010196D9
:103100009093D01A8093CF1AE091D11AF091D21AED
:103110004191F093D21AE093D11A84E00E94BA212F
:1031200021968091D31A9091D41AC817D90710F319
:10313000F999FECF1092710620E030E005C02EEF25
:103140003FEF02C02FEF3FEFC901DF91CF9108950C
:1031500081E090917106913009F080E008958091AE
:10316000D31A9091D41A009751F410927106E091FD
:10317000D51AF091D61A309709F109950895609102
:10318000CF1A7091D01ACB0101969093D01A8093E8
:10319000CF1AE091D11AF091D21A4191F093D21A3C
:1031A000E093D11A8CE00E94BA218091D31A9091B9
:1031B000D41A01979093D41A8093D31A0895A2E158
:1031C000B0E0E5EEF8E10C9498B19A878987DB01CD
:1031D0002B873C874D875E87FC01E080F180E114FE
:1031E000F10409F497C1222433244B855C856D8555
:1031F0007E859A01AB0160E070E0CB0129833A83C0
:103200004B835C836D837E838F839887F88AEF86F8
:10321000F701BA8BA98B02C01F01FC01E280F38089
:103220000481158126813781408551856B857C8598
:103230008D859E856E157F058007910708F48FC0E8
:1032400060E070E0CB0157016801EE24FF248701A4
:10325000622E6A0C77247394621608F07724932EFA
:103260009B0C88248394931608F08824790C5524A9
:103270005394791408F055248528542E5C0C992415
:103280009394541608F09924850C4424439485148F
:1032900008F044249428052F0D0D11E0051708F0BF
:1032A00010E0900EEE24E394901608F0EE241E2910
:1032B00044244394161608F0442401E0171608F03D
:1032C00000E055245394181608F05524A62C798153
:1032D000A71A21E06A1408F020E0972D8A81981B34
:1032E00081E0791608F080E0492F421B21E0941715
:1032F00008F020E0822B282D9B81291B91E082166B
:1033000008F090E0522F581B81E0251708F080E06C
:10331000982B292DAC812A1B81E0921608F080E0C1
:10332000E22EE91A91E02E1508F090E0892BB12FDA
:10333000B81B8B2F91E01B1708F090E0242D291B60
:10334000922F21E0491608F020E0302F321B232F66
:1033500031E0021708F030E0142F052F95C0390135
:103360004A01AA24BB24650110950095F094E094CD
:10337000E11CF11C011D111D722F7E1961E0271740
:1033800008F060E0872D8F1991E0781608F090E042
:10339000A82FA61B6A2F552453948A1708F055248A
:1033A0009529582C501A81E0851408F080E0B52D3D
:1033B000B91B9B2F442443945B1608F044248429B2
:1033C000292D211B31E0921608F030E0E22EE81A98
:1033D00081E02E1508F080E0832B819551E01816CE
:1033E00008F050E0519541E0151608F040E0419595
:1033F00021E0141608F020E0522E5194A72E2981C6
:10340000A21A11E07A1508F010E0262F3A81231B4A
:1034100031E0621708F030E0622F611B162F61E087
:10342000211708F060E0362B692F7B81671B21E0B4
:10343000961708F020E0062F031B91E0601708F0B4
:1034400090E0292B3E2D9C81391B91E0E31608F07A
:1034500090E0E32EE21A21E03E1508F020E0922BE6
:10346000682F691B91E0861708F090E0A52FA91B33
:103470009A2F81E05A1708F080E0242F281B31E0B2
:10348000421708F030E0862F531A69F5222359F5C8
:10349000992349F5882339F5A989BA8916962D917A
:1034A0003D914D915C91199760E070E0CB019923BB
:1034B00021F51816C0F0882301F51716A0F0772320
:1034C000E1F4161680F06623C1F4E51660F05E158F
:1034D000A1F4041740F0401781F4131720F03117BE
:1034E00061F4A21650F480819181009709F094CE86
:1034F0008F01A989BA891F0111C0EF84F8888F0153
:10350000A989BA89EE15FF0541F41196FC93EE9353
:10351000E985FA85B183A08306C0CF01F101B183AB
:10352000A0838D939C936296E2E10C94B4B1CF9307
:10353000DF93FC01DB01EA01808191814817590783
:1035400039F48881998119821882808391830BC014
:103550008881998111969C938E93198218828C91FF
:1035600011969C911197DF91CF910895DC01ED9117
:10357000FC91119706C0808191818617970719F0F9
:10358000FC013097C1F7CF010895E0917206F091E8
:1035900073060284F385E02D309709F009950895AC
:1035A00023982B981CBC0895E0919906F0919A06F7
:1035B00026813781848195812817390769F0A48D88
:1035C000B58D8481958101969583848384819581CD
:1035D000A80FB91F8C918EBD0895E0919906F091C6
:1035E0009A06309719F40E94D01A0895428553859F
:1035F000228533852F5F3F4F33872287228533858E
:103600002A30310511F41386128662857385208570
:1036100031856217730719F4538742870895495219
:10362000554EDA018C93848595850196958784871C
:1036300008952FB7F894E0919906F0919A06848541
:1036400095852FBF009731F005A0F6A1E02D3097AA
:1036500009F0099508958FB7F894109277061092A3
:103660007606109275068FBF08958091AA0680FF96
:103670000FC081E00E94EA21809170008D7F8093CD
:1036800070000E942B1B8091AA068B7F8093AA0654
:103690000895809170008C7F809370008091B600B7
:1036A00080628093B6001092B2001092B000109227
:1036B000B1001092B3008091B60090E08F719070CD
:1036C0000097C9F783E087BB87E08093B1008091C2
:1036D000700081608093700008958091B60090E042
:1036E0008F7190700097C9F7809170008C7F8093E4
:1036F00070008091B100887F8093B10083B58260B3
:1037000083BD8091B60090E08F7190700097C9F7EB
:103710008091B6008F7D8093B60008959B01AC0127
:103720006091B200862F90E080959095AA2797FD32
:10373000A095BA2F9070A070B07082179307A4075D
:10374000B50778F4281B390B4A0B5B0BBB27A52F59
:10375000942F832F90937606809375062093770697
:103760000895260F8091B60090E08F7190700097B9
:10377000C9F72093B30082E087BB8091700082601C
:10378000809370000895EF92FF920F931F938FB76D
:10379000F894909178062091B20034E43093B4000C
:1037A0004091B60050E04F71507041155105C1F77E
:1037B000B89904C030E040E050E009C02091B20068
:1037C00030E040E050E021503F4F4F4F5F4F8FBF00
:1037D0008FEF989FC0011124AA2797FDA095BA2FBB
:1037E000820F931FA41FB51F9C01AD0175E0220F2E
:1037F000331F441F551F7A95D1F77C018D0162E07C
:1038000016950795F794E7946A95D1F72E0D3F1D0D
:10381000401F511FE0907906F0907A0600917B06D8
:1038200010917C062E0D3F1D401F511F281B390B88
:103830004A0B5B0BB901CA011F910F91FF90EF90EA
:10384000089560E270E080E090E008958FB7F8940A
:1038500060917806109278068FBF70E080E090E06B
:1038600020E43FE140E050E00E9437B19B01AC0111
:103870008091790690917A06A0917B06B0917C06A2
:10388000820F931FA41FB51F8093790690937A0629
:10389000A0937B06B0937C0682179307A407B50715
:1038A00028F4809174068F5F8093740608951F92A8
:1038B0000F920FB60F920BB60F9211242F933F93D6
:1038C0004F935F936F937F938F939F93AF93BF9328
:1038D000EF93FF93809170008D7F80937000109222
:1038E00077068091AA0680FF03C080E00E94EA214B
:1038F0008091AA0682FF11C0809162068160809348
:1039000062062FB7F8948091E9069091EA068260EA
:103910009093EA068093E9062FBFFF91EF91BF9144
:10392000AF919F918F917F916F915F914F913F9157
:103930002F910F900BBE0F900FBE0F901F901895F8
:103940001F920F920FB60F920BB60F9211242F9366
:103950003F934F935F936F937F938F939F93AF9317
:10396000BF93EF93FF938091750690917606009731
:10397000A1F5809177068823E9F48091AA0680FF5B
:1039800003C080E00E94EA218091AA0682FF34C031
:10399000809162068160809362062FB7F8948091CF
:1039A000E9069091EA0682609093EA068093E90620
:1039B0002FBF22C08091B60090E08F719070009769
:1039C000C9F7809177068093B30082E087BB80912E
:1039D000700082608093700009C08091750690919C
:1039E0007606019790937606809375068091AA06D5
:1039F00080FF02C00E945622809178068F5F8093DC
:103A00007806809162068260809362062FB7F894F0
:103A10008091E9069091EA0682609093EA0680938D
:103A2000E9062FBFFF91EF91BF91AF919F918F91C9
:103A30007F916F915F914F913F912F910F900BBEAE
:103A40000F900FBE0F901F901895A0E1B0E0EBE231
:103A5000FDE10C94A5B100917D0610917E06D80180
:103A600012968C911297823029F08430C9F0882305
:103A700031F074C070E060E088E0F82E6BC080E048
:103A800090E0D8011396ED91FC911497E80FF91F7F
:103A9000208120933F0101968031910591F75EC00E
:103AA00010923C0180E010923E018F5F8031D9F787
:103AB00080913C01806880933C0180913D0180FFB2
:103AC000FCCFFE013196CE014196DF0120913F01EE
:103AD0002D93A817B907D1F7219120933F01E8173B
:103AE000F907D1F7C7CFF8018281823019F410921B
:103AF0003C0102C0F0923C01872F90E0AC01405F96
:103B00005F4F9C01D8011396ED91FC911497E20F41
:103B1000F31FE081E0933E012F5F3F4F24173507ED
:103B200089F720913C01206820933C0120913D01C0
:103B300020FFFCCF20913E01D8011396ED91FC911E
:103B40001497E80FF91F208301968417950791F7C2
:103B5000705F6F5FF8018581681728F28DE796E046
:103B60000E943F7380917D0690917E06009789F0B8
:103B7000809165068160809365062FB7F8948091E7
:103B8000E9069091EA0682609093EA068093E9063E
:103B90002FBFD8011696ED91FC9117970995609665
:103BA000E5E00C94C1B180E197E29093A900809385
:103BB000A800E1EAF0E088E0808380818260808371
:103BC000E2E7F0E080818260808308959B01AC0190
:103BD0008091810690918206A0918306B09184061F
:103BE000820F931FA41FB51F8093810690938206B6
:103BF000A0938306B09384068091660684608093C8
:103C000066062FB7F8948091E9069091EA068260E3
:103C10009093EA068093E9062FBF08958FB7F89432
:103C200060918006109280068FBF70E080E090E087
:103C30002AE030E040E050E00E9437B19B01AC0147
:103C40008091810690918206A0918306B0918406AE
:103C5000820F931FA41FB51F809381069093820645
:103C6000A0938306B093840682179307A407B50731
:103C700028F480917F068F5F80937F0608950E94CD
:103C80000E1E60918106709182068091830690914C
:103C9000840608951F920F920FB60F9211242F934E
:103CA0008F939F93809180068F5F80938006809191
:103CB00066068460809366062FB7F8948091E906C3
:103CC0009091EA0682609093EA068093E9062FBFFE
:103CD0009F918F912F910F900FBE0F901F9018956D
:103CE000FC01A385B0E011961C92A385B0E0858508
:103CF000968515969C938E9314978485A385882327
:103D000049F4B0E082E08C93A385B0E012961C9257
:103D1000129707C0B0E01C92A385B0E0828912968A
:103D20008C93A385B0E012968C9112979485892B81
:103D300012968C93A385B0E012968C91129797857A
:103D4000892B12968C93A385B0E012968C911297D2
:103D50009089892B12968C93A385B0E012968C9152
:103D600012979189892B12968C93A385B0E08C9140
:103D700080688C93A385B0E011968C91119788612F
:103D800011968C931197E385F0E08181806881839F
:103D900008951F920F920FB60F920BB60F92112437
:103DA0002F933F934F935F936F937F938F939F9343
:103DB000AF93BF93EF93FF93E1ECF0E080818F7DB1
:103DC000808380E00E948014FF91EF91BF91AF91BA
:103DD0009F918F917F916F915F914F913F912F9123
:103DE0000F900BBE0F900FBE0F901F9018951F9253
:103DF0000F920FB60F920BB60F9211242F933F9391
:103E00004F935F936F937F938F939F93AF93BF93E2
:103E1000EF93FF93E1ECF0E080818F7B808381E082
:103E20000E948014FF91EF91BF91AF919F918F916C
:103E30007F916F915F914F913F912F910F900BBEAA
:103E40000F900FBE0F901F9018951F920F920FB6F4
:103E50000F920BB60F9211242F933F934F935F93C2
:103E60006F937F938F939F93AF93BF93EF93FF9342
:103E70008091C0006091C6008C7131F480EC0E948A
:103E80009E1482E00E948014FF91EF91BF91AF9148
:103E90009F918F917F916F915F914F913F912F9162
:103EA0000F900BBE0F900FBE0F901F9018951F9292
:103EB0000F920FB60F920BB60F9211242F933F93D0
:103EC0004F935F936F937F938F939F93AF93BF9322
:103ED000EF93FF93E9ECF0E080818F7D808383E0B6
:103EE0000E948014FF91EF91BF91AF919F918F91AC
:103EF0007F916F915F914F913F912F910F900BBEEA
:103F00000F900FBE0F901F9018951F920F920FB633
:103F10000F920BB60F9211242F933F934F935F9301
:103F20006F937F938F939F93AF93BF93EF93FF9381
:103F3000E9ECF0E080818F7B808384E00E94801434
:103F4000FF91EF91BF91AF919F918F917F916F9171
:103F50005F914F913F912F910F900BBE0F900FBE2D
:103F60000F901F9018951F920F920FB60F920BB6DD
:103F70000F9211242F933F934F935F936F937F93EF
:103F80008F939F93AF93BF93EF93FF938091C8005C
:103F90006091CE008C7131F488EC0E949E1485E013
:103FA0000E948014FF91EF91BF91AF919F918F91EB
:103FB0007F916F915F914F913F912F910F900BBE29
:103FC0000F900FBE0F901F9018951F920F920FB673
:103FD0000F920BB60F9211242F933F934F935F9341
:103FE0006F937F938F939F93AF93BF93EF93FF93C1
:103FF0000E94351BE0918506F09186060995FF9198
:10400000EF91BF91AF919F918F917F916F915F9150
:104010004F913F912F910F900BBE0F900FBE0F90BD
:104020001F9018951F920F920FB60F920BB60F921A
:1040300011242F933F934F935F936F937F938F93AD
:104040009F93AF93BF93EF93FF930E94351BE09133
:104050008706F09188060995FF91EF91BF91AF9186
:104060009F918F917F916F915F914F913F912F9190
:104070000F900BBE0F900FBE0F901F9018951F92C0
:104080000F920FB60F920BB60F9211242F933F93FE
:104090004F935F936F937F938F939F93AF93BF9350
:1040A000EF93FF930E94351BE0918906F0918A06F9
:1040B0000995FF91EF91BF91AF919F918F917F9162
:1040C0006F915F914F913F912F910F900BBE0F9089
:1040D0000FBE0F901F9018951F920F920FB60F9260
:1040E0000BB60F9211242F933F934F935F936F93CF
:1040F0007F938F939F93AF93BF93EF93FF930E9410
:10410000351BE0918B06F0918C060995FF91EF919C
:10411000BF91AF919F918F917F916F915F914F91DF
:104120003F912F910F900BBE0F900FBE0F901F90DD
:1041300018951F920F920FB60F920BB60F92112483
:104140002F933F934F935F936F937F938F939F939F
:10415000AF93BF93EF93FF930E94351BE0918D06C1
:10416000F0918E060995FF91EF91BF91AF919F91CC
:104170008F917F916F915F914F913F912F910F9010
:104180000BBE0F900FBE0F901F9018951F920F92AD
:104190000FB60F920BB60F9211242F933F934F93AC
:1041A0005F936F937F938F939F93AF93BF93EF939F
:1041B000FF930E94351BE0918F06F09190060995C0
:1041C000FF91EF91BF91AF919F918F917F916F91EF
:1041D0005F914F913F912F910F900BBE0F900FBEAB
:1041E0000F901F9018951F920F920FB60F920BB65B
:1041F0000F9211242F933F934F935F936F937F936D
:104200008F939F93AF93BF93EF93FF930E94351BC0
:10421000E0919106F09192060995FF91EF91BF917F
:10422000AF919F918F917F916F915F914F913F914E
:104230002F910F900BBE0F900FBE0F901F901895EF
:104240001F920F920FB60F920BB60F9211242F935D
:104250003F934F935F936F937F938F939F93AF930E
:10426000BF93EF93FF930E94351BE0919306F0916B
:1042700094060995FF91EF91BF91AF919F918F9116
:104280007F916F915F914F913F912F910F900BBE56
:104290000F900FBE0F901F9018951F920F920FB6A0
:1042A0000F920BB60F9211242F933F934F935F936E
:1042B0006F937F938F939F93AF93BF93EF93FF93EE
:1042C0008091B90090E0887F90708832910569F103
:1042D000893291059CF48031910521F1813191055C
:1042E00034F4009729F18830910589F51BC0883195
:1042F0009105D9F08032910551F51AC088349105A5
:10430000B9F0893491053CF48033910589F080340B
:104310009105E9F410C08035910581F0883591054B
:10432000B1F411C00E949A1612C00E9419170FC052
:104330000E947F160CC00E94361709C08091BB00F6
:104340000E94541704C08091BB000E948017FF9107
:10435000EF91BF91AF919F918F917F916F915F91FD
:104360004F913F912F910F900BBE0F900FBE0F906A
:104370001F901895F999FECF07B600FCFDCF72BDCE
:1043800061BD40BD9FB7F8948FBBF99A9FBF089558
:104390001F920F920FB60F9211242F938F939F931A
:1043A000FB98809165068460809365062FB7F8942A
:1043B0008091E9069091EA0682609093EA068093E4
:1043C000E9062FBF9F918F912F910F900FBE0F90F5
:1043D0001F9018959091AA068170880F9C7F982B4A
:1043E0009093AA06E9E3F1E080818D7F808380913C
:1043F00066068160809366062FB7F8948091E9067F
:104400009091EA0682609093EA068093E9062FBFB6
:1044100008958091AA0680FF48C08091A1008D7FF9
:104420008093A1008091950690919606A0919706A1
:10443000B09198060097A105B10551F40E94C31BE5
:1044400060939506709396068093970690939806CE
:104450008091AA0683FD02C00E943B73F999FECFAA
:104460008091AA0688608093AA0690913901926093
:104470009093390182FF05C087E083BF889513BE02
:104480000AC00E946D1B85E083BF889513BE0E9401
:10449000491B0E94CB2384E48093B4008091B60032
:1044A00090E08F7190700097C9F708958091AA06E7
:1044B00081608093AA068091B60090E08F71907021
:1044C0000097C9F7809166068860809366062FB7CB
:1044D000F8948091E9069091EA0682609093EA064A
:1044E0008093E9062FBF80E090E008950E94C31BEF
:1044F0002091950630919606409197065091980626
:10450000621B730B840B950B109295061092960606
:1045100010929706109298060E94E61D8091A100C5
:1045200082608093A100809141018F718830D9F71A
:104530008091AA06877F8093AA060E943773809194
:10454000AA0681FD07C0E0919B06F0919C0630977A
:1045500009F0099508951F920F920FB60F920BB6AE
:104560000F9211242F933F934F935F938F939F93B9
:10457000AF93BF93EF93FF93E0917206F0917306B0
:10458000838126813781882349F4808191814091FC
:104590007900280F391FD9014C930EC08081918179
:1045A0004091780050917900DC01AA0FBB1FA20F47
:1045B000B31F11965C934E93019691838083E09193
:1045C0007206F091730620813181808591852817CC
:1045D0003907B1F480917A00877F80937A008091C7
:1045E00065068260809365062FB7F8948091E9068E
:1045F0009091EA0682609093EA068093E9062FBFC5
:10460000FF91EF91BF91AF919F918F915F914F91EA
:104610003F912F910F900BBE0F900FBE0F901F90E8
:1046200018951F920F920FB60F920BB60F9211248E
:104630002F933F934F935F936F937F938F939F93AA
:10464000AF93BF93EF93FF93DF93CF930F92CDB7C9
:10465000DEB78EB589830E94D41A89810E94ED1A33
:10466000809164068064809364062FB7F8948091EB
:10467000E9069091EA0682609093EA068093E90643
:104680002FBF0F90CF91DF91FF91EF91BF91AF912D
:104690009F918F917F916F915F914F913F912F915A
:1046A0000F900BBE0F900FBE0F901F901895A0E0BB
:1046B000B0E0EDE5F3E20C9498B110E0C2E8DBE87D
:1046C00000E892E8692E9BE8792E812C912C82E8F3
:1046D000A82E8BE8B82E0E94DE042BE883389207C0
:1046E00018F16E01EE24FF249C0140E050E02258B6
:1046F0003B4840405040C216D306E406F5064CF451
:10470000123039F480916600815080936600000079
:1047100036C0209166002150209366000000EC0115
:10472000C258DB4811E028C02BE88238920739F1E3
:104730006E01EE24FF249C0140E050E013012401AF
:10474000221A330A440A550AC214D304E404F504B5
:104750004CF4113039F4809166008F5F80936600CD
:1047600000000DC0209166002F5F209366000000BE
:10477000E501C81BD90B12E0015009F0ACCFCDB751
:10478000DEB7E2E10C94B4B10E94AE24882311F4A8
:104790000E9457230895CF93DF93C8E8D3E188ECB4
:1047A0000E94D6042197D9F70E94C423DF91CF91AC
:1047B0000895CF93DF93EC01009741F10E94211CF3
:1047C0002E813F81488559850E9437B128EE33E01C
:1047D00040E050E00E9476B12115310541055105B8
:1047E000C1F08091AA0682FD17C084608093AA065A
:1047F000EDE9F6E08DE0099001928150E1F7CA0100
:10480000B9010E948E1B20E030E008C02FEF3FEF7F
:1048100005C02EEF3FEF02C02DEF3FEFC901DF9142
:10482000CF9108958091AA0682FF24C09091A70697
:104830009923B1F4E091A806F091A906309709F008
:1048400009958091AA0682FF15C06091A306709118
:10485000A4068091A5069091A6060E948E1B08953D
:104860008B7F8093AA06E091A806F091A906309765
:1048700009F009950895ADE0B0E0E1E4F4E20C94AC
:10488000A8B1FC01009739F18481958190939C0631
:1048900080939B0680819181A281B3818F839887C9
:1048A000A987BA8781E08B871D861C86CE01019679
:1048B0000E94D9232FEF8F3F920781F02FEF8D3F7A
:1048C000920761F00E9456222FEF8F3F920749F422
:1048D0002DEF3FEF08C02FEF3FEF05C02EEF3FEF6A
:1048E00002C020E030E0C9012D96E2E00C94C4B192
:1048F0008FB390E0FC01E270F07081FDF9CF8FB7CB
:10490000F89499E090935700E4918FBFEF70E230F4
:1049100019F41092AB0603C081E08093AB068FB709
:10492000F8949091AB06992349F45F9350E8509323
:10493000610050E0509361005F9108C05F9350E8C0
:104940005093610051E0509361005F918FBF80915F
:10495000AB06882311F40E94CB2308958091AB0607
:1049600008958091C106982F9F5F9093C106089586
:10497000DC01ED91FC91119790939A1B8093991B08
:104980001092861B1092871B8091B00680938B1B20
:104990002091F11A3091F21A83899489B9010E9409
:1049A00062B1462F6093891B83899489B9010E9463
:1049B00062B1009719F04F5F4093891B8FEF90E031
:1049C0000090A31902C0880F991F0A94E2F78095FE
:1049D0008E7F8093881B0E94B12480938A1B089548
:1049E000FC01878983FF0AC081E090E02389348934
:1049F0002036310528F480E090E0089580E090E0D2
:104A00000895CF93DF934091E11A2091E61A3091F7
:104A1000E71A90E058C0F901225A3F4F578150FDE4
:104A200051C0DF01AA5BBF4F11961C921E928230CB
:104A3000C1F0823018F0833009F048C09091E51A37
:104A40002091E31A921708F041C09F5F9093E51AF6
:104A5000138214821582168290859F70908712822D
:104A600028C02091E41A9091E21A291778F5309124
:104A7000E81AA091E91AB091EA1A90E014C0ED0189
:104A80004C919396442371F42F5F2093E41A21E014
:104A90002883DF01AA5BBF4F68961196DC93CE9303
:104AA000228303C09F5F931750F32091E81A2917C0
:104AB00069F09085907F9087880F8160878311824D
:104AC000108206C09F5F941708F4A5CFE0E0F0E0E5
:104AD000CF01DF91CF9108952091E61A3091E71A26
:104AE000821B930B6EE570E00E9462B1EEE56E9F53
:104AF000F0011124E20FF31F8781869590E0823048
:104B0000910571F0833091051CF08330910539F5E2
:104B10008091E51A882319F181508093E51A1FC00E
:104B20008091E41A882319F081508093E41A20912F
:104B3000E91A3091EA1ADF01AA5BBF4F8D919C916F
:104B4000821B930B63E270E00E9462B1A3E26A9F52
:104B5000D0011124A20FB31F8C9181111C92878167
:104B60008E7F8783089521E030E002C0220F331F3B
:104B70008A95E2F78091AF06822B8093AF062FB71C
:104B8000F8948091E9069091EA0680629093EA0693
:104B90008093E9062FBF0895CF93DF93EC01009730
:104BA00029F16B8F4115510551F0FA0180819181F6
:104BB000A281B3818C8F9D8FAE8FBF8F04C01C8E5E
:104BC0001D8E1E8E1F8EE98DFA8D309719F0CE0145
:104BD0004B960995CE010E94F024882339F010925B
:104BE0009A1B1092991B81E00E94B325DF91CF910F
:104BF00008951F938091C20681508093C2068091D0
:104C0000EB1A8330C9F11091851B1123A9F181E0C2
:104C10008093EB1A6091A31970E06150704088276F
:104C200077FD8095982F2AE030E040E050E00E9428
:104C300037B12091D6063091D7064091D8065091D1
:104C4000D906620F731F841F951F2091B00630E0B4
:104C500040E050E00E9437B16093F31A7093F41A69
:104C60008093F51A9093F61A11501093851B81EBDF
:104C700096E00E9482750AC01092EB1A1092F31A05
:104C80001092F41A1092F51A1092F61A1F910895C4
:104C9000A1E0B0E0EEE4F6E20C94A6B18C018CED5C
:104CA00096E069830E943F736981D80117966C93DF
:104CB00017971596ED91FC911697C80107960995DF
:104CC0008091DC069091DD06009719F080E00E944B
:104CD000B3252196E4E00C94C2B12091C2062F5F67
:104CE0002093C2060E94915F0895AF92BF92DF9217
:104CF000EF92FF920F931F93DF93CF930F92CDB755
:104D0000DEB78C015B01FB01E05BFF4F81E398E2C2
:104D100091838083FB01EE5BFF4F82E08083FB0188
:104D2000ED5BFF4FD80113968D919C911497918361
:104D30008083FB01E65BFF4F58968C9158978083E8
:104D4000FB01E55BFF4F1082FB01E45BFF4F81E05D
:104D50008083FB01E35BFF4F8083FB01E25BFF4F3E
:104D6000808357968C91579786FD0DC081E090E027
:104D700013962D913C911497BFEF283F3B0728F0E5
:104D800080E090E002C081E090E0F501E15BFF4F40
:104D90008083E090F11AF090F21AC8010E94F0248A
:104DA0008823E9F12091861B422F50E08091891BD6
:104DB00090E001974817590711F0DE2C06C02E9D90
:104DC000802D1124F801D388D81A40919B1B509153
:104DD0009C1B405E5F4F30E02E9DC0012F9D900DCB
:104DE0003E9D900D1124D80155962D913C915697DA
:104DF000280F391FCA01B9014D2D50E00E9449B258
:104E0000F501EB5BFF4F8D2D865F8083F501EA5B3B
:104E1000FF4F80919B1B90919C1B469611C0F50102
:104E2000EB5BFF4FD80153968C915397885F80833B
:104E3000F501EA5BFF4F55968D919C915697089727
:104E400091838083F501EA5BFF4FE080F180F701F9
:104E50002081822F8C7E8083D80113968D919C9126
:104E60001497207EBFEF873F9B0710F02860F70163
:104E70002083D7019C91892F8F7D8C93F8012789FE
:104E800022FD03C09F799C9321C08064D7018C933D
:104E9000F5012085207F21602087C80129830E9499
:104EA000F02429812F70882351F080918B1B8295EB
:104EB000807F822BD50118968C93189707C080911C
:104EC000B0068295807F822BF5018087C8010E9401
:104ED000F024D7019C918823E1F090689C939091F5
:104EE000861B18968C911897992359F48C7F8160B2
:104EF00018968C9318978091891B19968C93199703
:104F00000BC08C7F8260F70180878091861B818730
:104F100003C09F77D7019C93F8018585D70111962F
:104F20008C9311978089918913969C938E931297F5
:104F30008685978515969C938E93149782891696ED
:104F40008C93C8010E94F024882329F080918A1B49
:104F5000F701878305C00E94B124D70117968C936F
:104F6000C50109960E946D2680E00F90CF91DF91D8
:104F70001F910F91FF90EF90DF90BF90AF90089539
:104F80006091991B70919A1BFB01808191810E9415
:104F90007526089529E43BE1A901405D5F4F5093D8
:104FA0004A1B4093491B92E09093451B4091FA1A8B
:104FB0005091FB1A5093471B4093461B9BE09093E4
:104FC000481B10924D1B10924E1B91E090934F1B6B
:104FD0009093501B1092511B49EF55E25093541B74
:104FE0004093531B9093521B92E89093791B90919E
:104FF000011B90937A1B4091FD1A5091FE1A509319
:105000007C1B40937B1B4091FF1A5091001B5093D7
:105010007E1B40937D1B9091FC1A90937F1B909177
:10502000021B9093801B92E09093811B9091F81A41
:105030009093821B9091F91A9093831B9091841BFB
:105040009093621B1092F31A1092F41A1092F51AB0
:105050001092F61A8093EB1AC901CD970E946D2623
:105060000895BC018091C20681508093C2068FEBE7
:1050700096E00E94867381E00E94B3250895CF9345
:10508000DF93BC01C091DC06D091DD068CED96E08B
:105090000E948673209719F480E00E94B325DF9167
:1050A000CF910895A3E0B0E0E8E5F8E20C94A2B156
:1050B0008C01675F7F4F7B836A838DE0BE016F5FEA
:1050C0007F4F0E94D0118981D80153962C9153971C
:1050D000882309F43FC0CA80DB8081E0F60181AFFC
:1050E00013968D919C91149793AF82AF285F24AF54
:1050F0005596ED90FC90569788EF9FEFE80EF91EBD
:10510000F6AEE5AE8FEFD70111968C931197F801AB
:105110008089918913969C938E93129786859785A3
:1051200015969C938E931497828916968C930E9461
:10513000B124D70117968C93D601DD96ED91FC91A1
:10514000DE9788E08083EA81FB81E95BFF4F81E3A2
:1051500098E241C0CA80DB8082E0F60181AF8DEF2A
:105160009FEF93AF82AF275F24AFD8015596ED90A4
:10517000FC905697E7EFFFEFEE0EFF1ED601DE968E
:10518000FC92EE92DD97F80183819481D70112960B
:105190009C938E9311978089918914969C938E93FA
:1051A00013978685978516969C938E93159782897B
:1051B00017968C930E94B124F7018087D601DD9663
:1051C000ED91FC91DE978CE08083EA81FB81E95BC5
:1051D000FF4F85E499E291838083EA81FB81EF5B55
:1051E000FF4FD80158968C918083EA81FB81EE5B5A
:1051F000FF4F8091A2198083EA81FB81ED5BFF4F15
:1052000081E08083EA81FB81EC5BFF4F8083EA8150
:10521000FB81EB5BFF4F8083EA81FB81EA5BFF4F01
:1052200080838A819B810E946D2680E02396E8E03E
:105230000C94BEB1A4E0B0E0E0E2F9E20C94A7B1B6
:10524000182F89E1BE016F5F7F4F0E94D011612F3F
:1052500070E080E090E02091C6063091C706409152
:10526000C8065091C9060E9437B19B01AC018981E3
:105270009A81AB81BC81280F391F4A1F5B1FB9017E
:10528000CA012496E3E00C94C3B10F931F93CF930C
:10529000DF93EC018C0109541040D801DD96ED91AB
:1052A000FC91DE97818192816FEF0E9436598823AD
:1052B00049F0229781E398E299838883C8010E948C
:1052C000545F03C0CE010E943128DF91CF911F911E
:1052D0000F9108958F929F92BF92CF92DF92EF929B
:1052E000FF920F931F93DF93CF930F92CDB7DEB74B
:1052F0006B01B42E79018090C4069090C506009190
:10530000C30626E1029F80011124080D191D009794
:1053100019F126E1822E912C880E991E1DC0F401F0
:105320002589243A11F02A3A99F4F4018085B816B7
:1053300079F481859285C816D90651F4C401B70164
:1053400048E050E029830E943CB229810097B9F0DF
:1053500026E130E0820E931E8016910600F3882429
:105360009924C4010F90CF91DF911F910F91FF906D
:10537000EF90DF90CF90BF909F908F900895243A48
:1053800039F7EFCFA1E0B0E0E8ECF9E20C949EB180
:105390004C017B010E945C3E6C01F701E45AFF4F17
:1053A0000081118158EA5F0129C0F5011183008352
:1053B000F80183858330A9F4C8010C960E948E6C95
:1053C0000097D9F0F8012489F4012587FC01808138
:1053D0009181F40194838383C401B7010E947526EF
:1053E0000AC0F80184859585F40194838383C40100
:1053F000B7010E945228582F0EC059EAF401608963
:105400007189C8014289960159830E946A298C01D9
:105410005981009751F6852F2196ECE00C94BAB192
:105420001F93CF93DF93EB01FB01E45AFF4F1182EF
:1054300010820E94C229182F882319F0CE010E94E1
:105440006C25812FDF91CF911F910895A0E0B0E0EE
:10545000ECE2FAE20C94A1B18C01B62EC091C40624
:10546000D091C5069091C30686E1989F70011124E2
:10547000EC0EFD1E3CE0C32ED12CC00ED11E35C05B
:10548000F8012185328590858D89843A11F08A3A18
:1054900059F58885981741F589859A852817390720
:1054A00019F5CE01B80148E050E00E943CB20097E7
:1054B000D9F429C0813049F4F801248535858C85DB
:1054C0009D852817390781F417C0F80194898C89C4
:1054D000981751F4BE01645F7F4FC60148E050E069
:1054E0000E943CB2009741F06696CE15DF0540F26F
:1054F000F801B58AC0E0D0E07E01CE01CDB7DEB7BD
:10550000E9E00C94BDB1F80183859B85891761F7AB
:10551000D1CFCF93DF930E9423B2EC0144E0CC0FB4
:10552000DD1F4A95E1F7C0700E9423B2282F30E0BA
:105530002C2B3D2BC901DF91CF91089588E368EEB4
:105540007AE10E94D0118DE469EE7AE10E940512A1
:105550002091E91A3091EA1A60E083E290E00DC0F0
:10556000462F50E0489FF001499FF00D589FF00DE5
:105570001124E20FF31F10826F5F4091E81A641745
:1055800078F387E361EE7AE10E94D0118CE466EE55
:105590007AE10E9405128091E11AE091E61AF091F9
:1055A000E71A90E006C027812E7F27839F5FE25A8B
:1055B000FF4F9817C0F39091E81A9093E21A823047
:1055C00008F081508093E31A1092E41A1092E51AC1
:1055D0008FE361EF7AE10E94D0118EE360EF7AE110
:1055E0000E94D0118091F01A882351F08EE46CEE65
:1055F0007AE10E9405128FE46BE97BE10E940512BB
:105600004091F01A50E08091F11A9091F21A489F5F
:105610009001499F300D589F300D11248091EC1A54
:105620009091ED1A820F931F9093EF1A8093EE1AC8
:105630001092EB1A0895A1E0B0E0E1E2FBE20C94D5
:10564000A4B110E001E02EE55FEFE52EF12C42C0A1
:10565000129FC0011124E091E61AF091E71AE80FB9
:10566000F91F378130FF35C080858F70823089F512
:105670003E7F323011F0363061F583819481A5810F
:10568000B6818A309105A105B10548F00A97A109B4
:10569000B10983839483A583B68300E01AC0808513
:1056A000807F846080871382148215821682363050
:1056B00059F4C7010090A31902C0880F991F0A94DA
:1056C000E2F780958093881B81E029830E94B325AF
:1056D00029811F5F8091E11A181708F4B9CF8091D2
:1056E000F31A9091F41AA091F51AB091F61A009756
:1056F000A105B10591F08B309105A105B10550F0E0
:105700000A97A109B109E1EEFAE1828B938BA48B90
:10571000B58B09C082E00E94CA27002321F081EBEB
:1057200096E00E948C752196E6E00C94C0B10F9330
:105730001F93CF93DF938C01FC01C081D1816E3C1C
:1057400011F0603F11F423E001C022E0F801E95AB2
:10575000FF4F80819181A281B3818C8F9D8FAE8F0D
:10576000BF8F6B8F233049F08A81882331F4CE01BB
:10577000B8010E94C229883A61F4AE01445E5F4FCD
:10578000F801808191816B8D0E94CC25C8010E9417
:105790006C25DF91CF911F910F910895CF93DF93E7
:1057A000EC01009709F44AC086EA8D8B888588232E
:1057B00009F444C08F3F09F441C08B85833031F434
:1057C0008C898823D9F18F3F19F438C08130B1F525
:1057D0001D8ACE0160E00E94262A009709F53091CB
:1057E000C3068091C4069091C50620E00BC0FC0161
:1057F00045894696483A29F484EA858B309739F4EE
:105800001DC02F5F231798F38EEA8D8B17C0DF0121
:1058100086E109900D928150E1F784EA858B09C0F9
:10582000CE0166EA0E94262A24EAFC01258B009715
:1058300029F080E160E070E00E94D874DF91CF91A0
:105840000895FC01009709F186EA858B80858823FD
:10585000E1F08F3FD1F08385833031F48489882350
:10586000A1F08F3F19F40895813079F4158ACF01A2
:1058700064EA0E94262A009741F028EAFC01258B61
:1058800080E160E070E00E94D8740895BC018AED68
:1058900096E00E94867381E00E94B3250895BC01C2
:1058A00084ED96E00E94867381E00E94B3250895FE
:1058B000AAE0B0E0EEE5FCE20C94A2B1E090FE19A3
:1058C0008EE2BE016F5F7F4F0E94D0118E01095F93
:1058D0001F4F89E1B8010E94D0118F819885A98559
:1058E000BA852E2D30E040E050E0281739074A07EE
:1058F0005B0760F0880F991FAA1FBB1F8F839887D3
:10590000A987BA8789E1B8010E94EB112E2D30E0FA
:10591000295F3F4F442737FD4095542F2093C606FB
:105920003093C7064093C8065093C906E980FF2408
:1059300000E010E0C801B701660F771F881F991FAC
:105940006E0D7F1D801F911F0E9437B12F813885FA
:1059500049855A85620F731F841F951F6093D60671
:105960007093D7068093D8069093D90681EB96E082
:1059700060E02AE030E040E050E00BE11BE20E94F2
:10598000957581E08B838EE2BE016E5F7F4F0E9432
:10599000D0118A8190E0A0E0B0E0880F991FAA1F83
:1059A000BB1F8F3F9105A105B10529F020F08FEFB6
:1059B00090E0A0E0B0E00E941A296B017C0183E234
:1059C000BE016D5F7F4F0E94D0112B8180E090E07F
:1059D000DC018C0D9D1DAE1DBF1D81509E4FAF4F34
:1059E000BF4FCC0CDD1CEE1CFF1C215091F71B821D
:1059F0007C018D01F9E016950795F794E794FA95E7
:105A0000D1F70894E11CF11C011D111D1E821D829D
:105A10001C8289E3BE016C5F7F4F0E94D01187E436
:105A2000BE016B5F7F4F0E9405126D817E818FEFFB
:105A3000E816F1040105110531F028F0EFEFEE2E24
:105A4000F12C012D112D8AEC96E04C8120E032E002
:105A50000E2DEE24E3940E94A6732A96E8E00C949F
:105A6000BEB1882359F00E94892A8093C106109202
:105A7000C20683E260EB76E00E94D0111092DB0652
:105A80001092DA061092D5061092D4061092C00633
:105A90001092BF061092DF061092DE068AE090E0B8
:105AA000A0E0B0E08093921B9093931BA093941B73
:105AB000B093951B80EC97E29093981B8093971B73
:105AC00081E08093961B86E263EA79E10E94D0111F
:105AD0001092F91A1092021B1092F71A1092FE1AE5
