S02B0000526F757465725F5263625F41746D656761313238726661315F384D687A5F4763632F4578652F426CCA
S2840000000C944E040C94331C0C94601C0C948D1C0C94BA1C0C94E71C0C94141D0C94411D0C946E1D0C9486040C9486040C9486040C9486040C94A5180C9486040C94EE180C9486040C9486040C9486040C9486040C9486040C9486040C9486040C9486040C945F1F0C94731B0C94171B0C94451B0C9486040C94F91E0C94161E0C94860400
S2840000800C9486040C9486040C9486040C9486040C94011C0C94A51B0C94D31B0C949B1D0C9486040C9486040C94981A0C945BB10C9486040C9486040C9486040C9486040C9486040C9486040C9486040C9486040C9486040C9486040C9486040C9486040C9486040C9486040C9486040C9486040C94B8B10C9486040C9486040C94E0B1D0
S2840001000C9486040C9486040C9486040C9486040C9486040C9486040C9486040C9486045D0F08000000780F01000100A50F080002000D0F040003002510010004001C1001000500880F01000600890F010007008A0F01000800940F11000900790F02000A007F0F01000B00271002000C001F1001000D00351001000E00AF0F01000F0071
S284000180B00F02001300B90F010014002B10080015007E0F01001600EA07BD001700820C03001800CD0E160019004C0410001E006C0404001F00740402002000780417002100A60414002200CE04110023009E38AF37E338E338E338B537BF37E338E338C837CE37F7370038E33806380F381A38E33823382938E33832386F388438E33835
S28400020075387E389E389E389E389038903890389038903890389038903890389038903890389038903890389038903846389038E338E338E338E338E338E338E338E338E338E338E338E338E338E33890388A389E3890384138553AB539A53AA53AA53ABB39C0396C3AA53AC339C639DF39E439A53AE739EA39ED39A53AF239F5396C3A09
S284000280FA39493A5E3AA53A4C3A4F3AB939523A523A6C3A6C3A6C3A6C3A6C3A6C3A6C3A6C3A6C3A6C3A6C3A6C3A6C3A6C3A6C3A6C3A6C3A2F3A6C3AA53AA53AA53AA53AA53AA53AA53AA53AA53AA53AA53AA53AA53AA53A6C3A613A643A6C3A283A844D8C4D314DD94DD94D5F4D6C4DD94DD94DD94D964DA54D534DD94DD94D2E4D774D3A
S28400030026502650C04FC74FC74FD34FD34FE44FE44F0A500A500A50765026501D662A665766696670667D668A6695669D66BB66E566A7663F80E880AC81C681DF8102832F83F086F086F086F086F086F086F086F086F08688829682F086D17FBA82998147875487768770876D877687808779897989798979897989798979897989798961
S2840003807087768779894487738764876C8D718D768D7B8D808D858D8A8D8A8D988D9B8DB48D9E8DA18DA48DA78DB48DAA8DAD8DB48DB08DAA91E691E691E691B091C991BC91C291F691B691CF91CF91D591E691ED91F19141924492479247924A9256925092539266924D9259925C925F9262922594299451942D94319451943594519452
S284000400439447944E948E984D995F994898A599A5995A995F99629990997999A599A59990997C989399F8A800A912A91BA91DA91FA921A924A9F5A96EAA6EAA1DAA23AA32AA38AA3BAA3EAA41AA47AA00000100020003000400050006000700080009000A000B000C000D000E000F0013001400150016001A001B000000010002000300C2
S2840004800400050006000700080009000A000B000C000D000E000F00130014001500160017001800190000000100020003000400050006000700080009000A000B000C000D000E000F00130014001500160000000100020003000400050006000700080009000A000B000C000D000E000F0018000000000000000000000000000000000091
S28400050000000000000000000000000000000000000000000000000000000000000000000000000000000000000000000000000000000000000000000000000000000000000000000000000000000000000000000000000000000000000000000102010002020508080000FFFF341200000000000000000202010080000000000000000090
S28400058000000000000000000000000000000000000000000000000000000000000000000500FF00000200001E00000334120103030000B80B000010270000010001E803000004E80300001041746D656C2020202020202020202020000000000000000003010085000000070507040205020402040508010804020A01005F0035000E01CC
S28400060014105D0F0800670F0100740F0400780F010023100100241001002B10080027100200B00F0200B90F01001F10010035100100251001007B0F01007C0F01007D0F01007E0F0100790F02007F0F01002110010020100100370F0100390F0100A50F08000D0F04008B0F0400800F0400840F0400880F0100890F01008A0F0100940FEC
S28400068011001C1001008F0F0100900F0400AD0F01003A0F0200AF0F0100AE0F010000000000E3050200E7050100E5050200E9050100EA050100EB050100EC050100ED050100EE050100EF050100F0050100E8050100F1050100F205010000060200F5050100F6050100F7050100FC050400F3050100F4050100F8050100F9050100FA05CC
S2840007000200CB060000EA07000050070000A708000000000000D1080000430E00009B0E0000AD0B0000230C0000C90B00005A0C0000850C0000FD0D00000000000000000000820C0000CD0E0000E30E0000EA10D911EE10F210D511F610D22A2030000000000000000000000000644E0000EF61F56E8F460855DA4D724A8A4200000E60F1
S2840007809045106B34420D5EC34100000000000000000000000002020302020201010101010101020201010102020202020202020202020202030302020302814961450107DF68BF500101DF68BF5001013749374B0101BF482E6C0101BF48076C01077748434E01011E48C56B0101000000000107000000000101000000000103000077BB
S2840008003E01040000773E010500000000010600000000010C000000000101DF680000000100000000010D00000000010700000000010900000000010000000000010100000000010100000000000000001543000700001543000B0000154300000000154300533B0000943B6E3B8D3B00005A3B0000863B613BB63F343B2E3E353EA73E98
S284000880203E9B3B00006B40156E4F6D3F624C6C0000E5639A4B01470000000011248091B516823141F084B78F718093B51680FF05C081E001C081E18093B51614BE809160008861809360001092600011241FBECFEFD1E4DEBFCDBF13E0A0E0B2E0ECEBF6E601E00BBF02C007900D92AA31B107D9F716E1AAE1B3E001C01D92A53BB10729
S284000900E1F70E9403760E94C575FDCF0C9400007F937FB7F8949D9AA5988AEF0E94E7048AEF0E94E7049D9886E40E94E70481E0959980E08F9380EF0E94E7048F917FBF7F9108957F937FB7F8949D9AA59886E00E94E7049D988AE00E94E704889495990894881F8F9384E60E94E7048F917FBF7F9108959F937F9398E00E94A204879567
S28400098077959A959923C9F7872F7F919F9108957F937FB7F894A5989D9A8F9386E00E94E7048F91879508F49D988F9384E60E94E7048F919D987FBF7F9108959F9398E00E94C8049A959923D9F79F91089500000000000000008A958823C9F708955F937F937FB7F894CF93DF93C0E0D0E07F935091B2007091B2007517E1F3739521965D
S284000A005091B2005717D9F77F91CE01DF91CF917FBF7F915F9108950F93DF93CF93CDB7DEB760970FB6F894DEBF0FBECDBF002309F459C029833A834B835C836D837E838F839887E0E2E01B29813A814B815C811E16BCF019861A861B861C868E2F992787FD9095909581959F4F04C0220F331F441F551F8A95D2F72D873E874F87588B24
S284000A802AC0CA01B901002E04C0660F771F881F991F0A94D2F769877A878B879C87DA01C90104C0B695A79597958795EA95D2F72D813E814F81588504C0220F331F441F551F0A95D2F7822B932BA42BB52B8D879E87AF87B88B29853A854B855C856D857E858F85988960960FB6F894DEBF0FBECDBFCF91DF910F91089508958091220348
S284000B0090912303009779F086E0809324032FB7F89480914F049091500494609093500480934F042FBF0895EF92FF92CF93DF93DC011F968C911F97882369F510922303109222030E94560DC1E9D4E0CE0160E072E00E943CB37E01EC2FFF2DDF010D900020E9F7AD01415050404E1B5F0B85E293E0BE010E94E81180E00E94560D82E0CA
S284000B808093240387E792E00E94782B8FE792E00E94782B09C081E090E0909323038093220386E0809324032FB7F89480914F049091500494609093500480934F042FBFDF91CF91FF90EF90089580E00E94760D089581E00E94760D089580918F04909190049C012F5F3F4F3093900420938F0486309105BCF584E993E09093AD0380936D
S284000C00AC0383E090E09093AB038093AA0381E090E09093A6038093A50322E02093990310929B0310929A0321E02093A4039093A8038093A7032093A9038091AE0384608093AE031092AF0389EE95E09093B1038093B00387E993E00E94942881E00E94760D089586E493E00E94330F0895A3E0B0E0EDE3F6E00C9479B20E94937C813000
S284000C8041F48EE795E09B838A83CE0101960E94C37D2396E2E00C9495B288E893E1A0E0B0E08093590390935A03A0935B03B0935C0310925D0387E396E090935F0380935E0383E593E00E94070F0895A1E0B0E0ECE6F6E00C9477B280912403823009F497C0833030F4882359F0813009F0B6C05AC0853009F469C0863009F0AFC091C0CB
S284000D0088EC80933003109231031092450389E190E0909333038093320386E080933403109235031092360310923A031092390310923C0310923B0301E914E010933E0300933D0384EF91E09093400380933F031092420310924103109244031092430385E293E00E9466120E94520D80E00E94660D81E00E94660D81E080932403C80180
S284000D8061E272E00E943CB3D8010D900020E9F7AD0141505040401B510B85E293E0B8010E94E8114FC019828CE1BE016F5F7F4F0E949C0E84E995E0909373038093720380E693E00E94D27D49C080E00E94560D82E08093240380E293E0A0E0B0E080934C0390934D03A0934E03B0934F03109250038DEE95E0909352038093510386E408
S284000E0093E00E94070F83E593E00E94330F26C087E792E00E94782B8FE792E00E94782B1DC08FEF93EDA0E381509040A040E1F700C0000081E00E94760D0E944D0681E0809324032FB7F89480914F049091500494609093500480934F042FBF2196E4E00C9493B2A4E1B0E0E8E3F7E00C9477B28E010F5F1F4F24E1F80111922A95E9F729
S284000E80FC0180818F3861F0803928F4853089F08035F9F434C0803949F08239D1F404C0C80163E472E01BC085E004C080E00E94660D86E0809324032FB7F89480914F049091500494609093500480934F042FBF16C08E010F5F1F4FC80165E672E00E943CB3F80101900020E9F7AF0141505040401B510B85E293E0B8010E94E811649611
S284000F00E4E00C9493B28091220390912303009779F086E0809324032FB7F89480914F049091500494609093500480934F042FBF0895089508950895A6E0B0E0E2EAF7E00C9477B28E010F5F1F4F26E0F80111922A95E9F7FC0123E0F695E7952A95E1F7E00FF11F8770907021E030E002C0220F331F8A95E2F72083C8010E94C80BD8015E
S284000F80E9EAF6E0CE0107963D912081232B2193A817B907C9F78091C40684608093C4062696E4E00C9493B202C00E9400760E94F6148823D1F708950F931F93CF93DF938C01EB010E94D407C801BE010E941D142FEF8F3F920739F087E0CB39D80729F40E94D40702C081E001C080E0DF91CF911F910F9108950F931F93CF93DF938C01CF
S284001000EB010E94D407C801BE010E9481142FEF8F3F920739F087E0CB39D80729F40E94D40702C081E001C080E0DF91CF911F910F9108952F923F924F925F926F927F929F92AF92BF92CF92DF92EF92FF920F931F93DF93CF93CDB7DEB762970FB6F894DEBF0FBECDBF8091C40682608093C40682FF94C087EB93E069EA76E00E94790CEE
S2840010808091C4068B7F8093C40688C0E090BD03F090BE03F70103E0F695E7950A95E1F7E956F94FC70187709070960102C0220F331F8A95E2F7C901809592898923828B69857A854B855C8580E00E94990C982E588A4F863A8A298A8F81988505979E878D87C5016BE977E00E94DC078A819816A1F58D819E81E816F90679F52B853C85C1
S2840011008B819C812817390741F581E090E08C0F9D1F988B8F87DA8AC98A00E010E017C08F819885800F911F9E878D87C5016BE977E00E94DC07AF85B889E985FA85E00FF11F9C918081981741F40F5F1F4F8B859C850817190720F336C09A82FE82ED828B859C859C838B83CE010296988B8F8785E090E09A8B898B8F81988505979E8765
S2840011808D87CE010D966BE977E00E94FB07CE0107966AE178E00E94FB0727C017E0612E712C6C0E7D1EB1E0CB2ED12CA2E04A2E512C4C0E5D1EF5E02F2E312CEDE0AE2EB12CAC0EBD1E87EB93E0B3010E94680B882309F05BCF8091C4068D7F8093C4068FE060E070E00E94EE7462960FB6F894DEBF0FBECDBFCF91DF911F910F91FF9095
S284001200EF90DF90CF90BF90AF909F907F906F905F904F903F902F900895282F392FF90180E09191992329F48F5F8630D1F780E0089581E008959C01CB0146E0DB011D924A95E9F7F90143E0F695E7954A95E1F7E60FF71F2770307041E050E002C0440F551F2A95E2F72081242B20830E94C80B0895972F882319F08130A1F40EC0AFEAA9
S284001280B6E0E62FF72F9D9180818923819386E0A53BB807C1F791E006C0862F0E940B0D91E0811190E0892F08950E949C078091C40681FD02C00E941A0881E00895A6E0B0E0E5E6F9E00C9477B28E010F5F1F4FB8010E941B0980E0B8010E943909C8010E940D09882381F0A3EAB6E0F8019D9180818923819386E0A93AB807C1F7CE013B
S28400130001960E940D0901C080E02696E4E00C9493B2A8E1B0E0EFE8F9E00C946DB200E211E010939806009397068AEA91E090939A06809399068AEA91E0801B910B26E030E0B9010E9433B280919B0690919C06682B792B70939C0660939B068EEC91E08A5A9140B9010E9433B280919D0690919E06682B792B70939E0660939D061092A5
S2840013809F061092A0061092A1061092A20686E0EFEAF6E0DF011D928A95E9F7AA2483E1882E912C8C0E9D1EB1E0CB2ED12C38C0C401B80146E050E00E9404B38D899E890596A0E0B0E020919F063091A0064091A1065091A206820F931FA41FB51F80939F069093A006A093A106B093A2068F89988DFC01A3E0F695E795AA95E1F7E9563F
S284001400F94F87709070960102C0220F331F8A95E2F7C901208D282B208F0A5F1F4FA39420919B0630919C068A2D90E08217930708F4BECFC901880F991F820F931F880F991F04966C01EE24FF24CE010D969A87898786E090E09C878B87AA24BB2400E010E067E0862E912C8C0E9D1E53E1652E712C6C0E7D1EF80143E0F695E7954A959B
S284001480E1F7E956F94F808D90E098012770307002C0969587952A95E2F780FF3DC0C501880F991F8A0D9B1D880F991F049698878F83C4016BE977E00E94DC0789899A898017910749F48D859E85AF85B8898C159D05AE05BF0559F01A8B098BCD86DE86EF86F88AC4016BE977E00E94FB07C8010E94AC0ABC01C30146E050E00E9404B311
S2840015008D899E890596A0E0B0E0C80ED91EEA1EFB1E0894A11CB11C0F5F1F4F0D32110509F0A9CF0E94A30ACE0101960E940B0D6896EEE00C9489B28091C2069091C3060E94550908951092BF068CE99AE09093C1068093C0060895A2E0B0E0E2EBFAE00C946FB24C010091970610919806EE24FF245E010894A11CB11C13C06801B801B9
S2840015806C5F7F4FC50142E050E00E9404B30A5F1F4F89819A818815990561F00894E11CF11C80919B0690919C06E816F90630F3CC24DD24C6012296ECE00C948BB2A2E1B0E0E5EEFAE00C9476B28B01BC0153E0769567955A95E1F7FB01E956F94F208D30E0AC014770507002C0369527954A95E2F720FF4AC0DE011D96EFEAF6E026E059
S28400160001900D922150E1F7FF2420E030E0FE013D961BC0DF01A40FB51F4C91542F569555754575540F452F4695469543735373450F4C93A42FA295AF7050E04F7050704A0F511D240F351FF3944F2D50E04617570700F3A0E087709070FE013D96E60FF71F0DC0408150E00A2E02C0569547950A94E2F741705070240F351FAF5F4A2FCA
S28400168050E04817590770F302C02FEF3FEFCE0107969C838B83C901880F991F820F931F880F991F04969A83898386E090E09E838D83CE0101966BE977E00E94DC078F819885F801918380836296E5E00C9492B2A6E0B0E0EEE6FBE00C9475B27C018B0180E090E0FC0163E0F695E7956A95E1F7EE0DFF1D6081AC0147705070262F30E0FF
S284001700042E02C0369527950A94E2F720FF10C021E030E002C0220F331F4A95E2F72095262320830E94AC0ABC01009731F426C001968D329105B1F621C0CE01019646E050E00E9404B389819A81F801938382838D819E81B8010E94DF0AF801808191810596918380838B819C81958384838D819E81F7019783868381E006C08FEF9FEF69
S284001780F7019783868380E02696E6E00C9491B24F925F926F927F929F92AF92BF92CF92DF92EF92FF920F931F93DF93CF93CDB7DEB728970FB6F894DEBF0FBECDBF8C013091990620919A06FC01858186FD12C0C901E92EF82ECC24DD2483E0482E512C4C0E5D1EB1E0AB2EB12C3E010894611C711C61C0C8016FEF70E046E050E00E94BD
S28400180035B361C0C201B70146E050E00E9404B32F813885F901A3E0F695E795AA95E1F7E00FF11F408127703070842F90E0022E02C0969587950A94E2F780FF35C0C50102C0880F991F2A95E2F79C01209524232083992422C0880F991F6B817C81680F791FC30142E050E00E9404B389819A81FC0173E0F695E7957A95E1F7E00FF11F88
S28400188087709070950102C0220F331F8A95E2F7C9012081282B20839394892D90E02D813E8182179307B8F20894C11CD11C86E090E0E80EF91E80919D0690919E06C816D90608F49FCF28960FB6F894DEBF0FBECDBFCF91DF911F910F91FF90EF90DF90CF90BF90AF909F907F906F905F904F900895CF93DF93EC018FEF9FEF9F838E8301
S284001900DE01862F972FFC0186E001900D928150E1F7CE010E94C80BEFEAF6E0919188818923899386E0E53BF807C1F7DF91CF910895262F372FF90120E030E004C09191890F2F5F3F4F24173507C8F30895ACE0B0E0EDEAFCE00C9472B27C018B01CE0102969A87898785E090E09C878B87FB0180819181059798878F8387E0C82ED12C9A
S284001980CC0EDD1EC6016BE977E00E94DC078D819E81E816F906C1F5F801248135818B819C812817390781F5CE0101969A87898781E090E09C878B87EE24FF24BB24C601DC2CC92E18C0F801808191818E0D9F1D98878F838D2D9C2D6BE977E00E94DC0769857A858B2D41E050E00E94990CB82E0894E11CF11CF80184819581E816F90654
S284001A0010F38A81B81611F082E001C080E02C96E9E00C948EB2AEE0B0E0E1E1FDE00C9471B28C0147E0E42EF12CEC0EFD1EC701B8010E94790C86E0D8011D928A95E9F7BE2CAF2C7E010894E11CF11C31E0C32ED12C1DC08D859E85B7010E94A70C8823B1F48D859E85FC0123E0F695E7952A95E1F7E00FF11F87709070960102C0220FDE
S284001A80331F8A95E2F7C9012081282B20838B2D9A2DB7010E94680B8823E1F62E96EAE00C948DB26A9A6B9A80E00895813039F0813018F0853049F404C0729808957398089580E00E94560DFACF0895813039F0813018F0853049F404C0729A0895739A089580E00E94660DFACF0895882319F0813051F405C08EB194E089278EB9089565
S284001B008EB198E089278EB908958091BF0380FF07C08091BF038E7F8093BF030E94C20D8091BF0381FF07C08091BF038D7F8093BF030E94060E8091BF0382FF07C08091BF038B7F8093BF030E940F0E8091BF0383FF07C08091BF03877F8093BF030E94180E8091BF03882361F02FB7F89480914F049091500491609093500480934F044C
S284001B802FBF08958091C00381FF12C08091C0038D7F8093C0038091C00384608093C003E091C103F091C203309711F081E009958091C00382FF29C0659B16C08091C0038B7F8093C0038091C0038E7F8093C003E091C303F091C403309711F081E0099585E00E94AF1208958091BF0381608093BF032FB7F89480914F04909150049160BA
S284001C009093500480934F042FBF0895E091C706F091C80681E060E070E009950895E091C906F091CA0681E060E070E009950895E091C506F091C60680E090E009950895ECE3FFE088E3DF011D928A95E9F7B19684E080935D0F118212821382148215821682178285E08093670F80EB9FE060EF74E046E850E00E9404B38DE09FE066E797
S284001C8075E04FE250E00E9404B38BE09FE065EA75E042E050E00E9404B384E79FE067EA75E04CE350E00E9404B380E498E0EBECF6E0DF019C011D9221503040E1F70895A4E0B0E0E6E6FEE00C9479B2682F70E0660F771F660F771F6E5F794FCE01019644E050E00E9404B369817A818B819C812496E2E00C9495B20E94200E0E948909A1
S284001D000895EF92FF921F93CF93DF93182FEB01209761F00E94600EAC01183220F0CE010E9404B303C0CE010E941AB3DF91CF911F91FF90EF900895EF92FF92CF93DF93EB01209771F0883260F406C0CB01BE01A9010E941AB305C00E94600E9C010097A9F7DF91CF91FF90EF900895CF93DF93EB010E94600E009711F479836883DF913A
S284001D80CF910895EF92FF920F931F93CF93DF9318C086EC93E060E070E0AE010E94E5168A85882359F4EA82FB820C831D8386EC93E0BE01A80197010E942D15EB85FC8509958091C6039091C7030097D9F00E948D1A7B018C01C091C603D091C7038A819B81AC81BD81A8019701281B390B4A0B5B0B8E819F81A885B985281739074A075C
S284001E005B0738F6CDB7DEB7E6E00C9491B2CF93DF93EC01009771F0E091C603F091C70306C0EC17FD0749F00190F081E02D3097C1F709C02FEF3FEF02C020E030E0C901DF91CF9108950E948D1A9B01AC01198218826A837B838C839D8386EC93E0BE010E942D15EACFCF93DF93EC010097D1F08091C6039091C7038C179D0749F086EC29
S284001E8093E0BE010E940417BC01009719F40AC060E070E086EC93E0AE010E94E51620E030E002C02FEF3FEFC901DF91CF9108958F929F92AF92BF92CF92DF92EF92FF920F930E9411184B015C012091DA0330E040E050E060E070E080E090E000E20E940C05282939294A295B290F91FF90EF90DF90CF90BF90AF909F908F90089580913C
S284001F00CC0382FF0BC09FB7F8948091CC038B7F8093CC039FBF0E94C20EA9C08091C80380FF0BC09FB7F8948091C8038E7F8093C8039FBF0E9460209AC08091C80381FF0BC09FB7F8948091C8038D7F8093C8039FBF0E9474188BC08091CC0380FF0BC09FB7F8948091CC038E7F8093CC039FBF0E94C41E7CC08091CC0383FF0BC09FB78F
S284001F80F8948091CC03877F8093CC039FBF0E94571E6DC08091CA0386FF0BC09FB7F8948091CA038F7B8093CA039FBF0E9467175EC08091CA0387FF0BC09FB7F8948091CA038F778093CA039FBF0E94FA104FC08091CB0381FF0BC09FB7F8948091CB038D7F8093CB039FBF0E94131740C08091CB0382FF0BC09FB7F8948091CB038B7F8C
S2840020008093CB039FBF0E94FD1431C08091CB0380FF0BC09FB7F8948091CB038E7F8093CB039FBF0E94731922C08091CC0381FF0BC09FB7F8948091CC038D7F8093CC039FBF0E94FA1313C08091CC0384FF0FC09FB7F8948091CC038F7E8093CC039FBFE0913610F0913710309709F009958091C803882381F48091C903882361F480916F
S284002080CA03882341F48091CB03882321F48091CC03882361F02FB7F89480914F049091500482609093500480934F042FBF0895CF93DF93E82FF0E0DF01A05CB04093E0B595A7959A95E1F7B0E0AA0FBB1FA353BC4F6D917C9111976115710599F14FB7F894EB012A813B81888199814FBF2817390729F12D913C911197E901288D398D03
S284002100280F391FE9013881019620812064208336830D90BC91A02D5A962D913C915B978217930711F480E090E02181206221832FB7F894FB01918380832FBF03C0818180648183DF91CF91089590E0805C904033E0959587953A95E1F7E82FF0E0EE0FFF1FE353FC4FA081B1811097B9F090968C919097887191F42FB7F89418968D9127
S2840021809C9119972FBF009749F00190F081E02D048CF58DE02D309709F009950895FC0193898385992349F4803C19F0883C89F402C06A9A0895559A0895803C19F0883C41F404C06A987298729A089555985D985D9A089580EC0E945810089580EC0E94A510089588EC0E945810089588EC0E94A5100895A3E0B0E0E0E0F1E10C9474B2F9
S28400220081E0898306E010E0DD2452E0E52EF12CEC0EFD1E9091D40389818923B9F09FB7F8942091D403898182278093D4039FBF6D2D70E0660F771F625B784FC70142E050E00E9404B3EA81FB810995D3948981880F898301501040E9F62396E7E00C9490B29091D40321E030E002C0220F331F8A95E2F7922B9093D4038091CA038068B8
S2840022808093CA032FB7F89480914F049091500482609093500480934F042FBF0895CF93DF93C82FD0E0DE01A05CB040E3E0B595A795EA95E1F7B0E0AA0FBB1FA353BC4FED91FC911197309721F489818F77898335C080A183FD32C0C489D58984FF0AC06883ED91FC911197848995890196958B848B24C0209711F1268137818681978185
S28400230001969783868346815781868997894817590711F41782168246815781848195814817590719F43783268308C0C20FD31F688380859185019691878087DF91CF91089590E0805C904033E0959587953A95E1F790E0DC01AA0FBB1FA353BC4FED91FC911197309701F16FB7F89442815381208131816FBF4217530711F421E02287A9
S284002380FC01EE0FFF1FE353FC4F0190F081E02D828D938D009711F4118E108E068CF78DE02D309709F00995089588EC0E94A111089580EC0E94A1110895805C893030F4E82FF0E0E156FD4F8081089580E00895A0E0B0E0EEEEF1E10C9471B2EC018B017A01009709F46AC0CB848C2D0E94DD11882309F463C00115110509F45FC0E114B7
S284002400F10409F45BC0EC2DF0E0E05CF040B3E0F595E795BA95E1F7F0E0EE0FFF1FE353FC4F80819181C817D90709F047C08A8D9B8D009779F42A813B818881998128173907E1F5198F088FFB82EA8219821882C7012CC08FB7F894CA80DB80A880B9808FBFD801960180E090E015C0A9014F5F5F4F6A8D7B8D4617570711F440E050E074
S2840024804A155B0559F06D91E88DF98DE20FF31F608301969A018E159F0540F34FB7F8943B832A834FBFCA14DB0431F41A86EB85F0E02181206221839C0102C02FEF3FEFC901CDB7DEB7EAE00C948DB21F93CF93DF93EC010097E1F11B85812F0E94DD118823B1F1E12FF0E0E05CF04033E0F595E7953A95E1F7F0E0EE0FFF1FE353FC4FF7
S28400250080819181009721F5D183C0838C85803419F4CE010E94CF10198218821B821A828C899D89009711F41F8A1E8A888D998D009711F41B8E1A8E1D821C821F821E8281E08A87CE010E94BE1A2B8530E002C02FEF3FEFC901DF91CF911F9108958830C0F4E82FF0E0EE0FFF1FE551FC4F208131812115310569F09DB321E030E002C007
S284002580220F331F8A95E2F7922B9DBB20E030E002C02FEF3FEFC9010895E091D503F091D60387E0828380E98093BC008091CC0382608093CC032FB7F89480914F049091500482609093500480934F042FBF0895E091D503F091D6038281823031F08281833019F08281843019F48581880F06C08281853049F48581880F8F5F8093BB0094
S28400260085E88093BC0008950E94CD120895E091D503F091D60320813181868197812817390780F480819181A085B185A80FB91F2C910196918380832093BB0085E88093BC00089586E0828384E98093BC008091CC0382608093CC032FB7F89480914F049091500482609093500480934F042FBF0895E091D503F091D60383859485A585D9
S284002680B6852081318121503040318320832081318143E0220F331F4A95E1F704C0B695A795979587952A95D2F78093BB0085E88093BC0080819181009741F48281823019F484E08283089585E082830895E091D503F091D6038281843019F40E94071308958281823019F08281833019F40E94391308958281853021F485EA8093BC00B5
S28400270008950E94CD120895E091D503F091D60382818530A1F4868197818130910521F48091BC008F7B03C08091BC0080648093BC008091BC0085688093BC0008950E94CD120895E091D503F091D6039281953011F520813181A085B185A20FB31F8C932F5F3F4F31832083208131818681978101972817390720F48091BC00806403C07B
S2840027808091BC008F7B8093BC008091BC0085688093BC0008950E94CD120895E091D503F091D6039281953011F520813181A085B185A20FB31F8C932F5F3F4F3183208386E0828384E98093BC008091CC0382608093CC032FB7F89480914F049091500482609093500480934F042FBF08950E94CD120895A091D503B091D6031F96ED9152
S284002800FC9150973097A1F012968C911297863049F48091BC0084FDFCCF81E012968C93129704C081E012968C9380E00995089581E012968C9312970895FC018091D703882309F057C0309709F457C08481958120813181820F931F20E18130920708F04CC081E08093D70370933F1060933E10A8E3B0E186E001900D928150E1F7F999FB
S284002880FECF80E090E017C0E0913A10F0913B10E80FF91F2091381030913910A9014F5F5F4F509339104093381032BD21BDF89A20B52083019620913C1030913D108217930710F310923D1010923C108091CB0384608093CB032FB7F89480914F049091500482609093500480934F042FBF20E030E005C02EEF3FEF02C02FEF3FEFC90159
S2840029000895CF93DF93FC019B018091D703882309F063C0309709F463C06081718184819581860F971F40E18130940708F058C081E08093D703A8E3B0E186E001900D928150E1F730933F1020933E102115310519F4C0E0D0E033C0CB0101969093391080933810E0913A10F0913B104191F0933B10E0933A108CE00E94081E80913C10E2
S28400298090913D10019790933D1080933C1022C06091381070913910CB0101969093391080933810E0913A10F0913B104191F0933B10E0933A1084E00E94081E219680913C1090913D10C817D90710F3F999FECF1092D70320E030E005C02EEF3FEF02C02FEF3FEFC901DF91CF91089581E09091D703913009F080E0089580913C10909149
S284002A003D10009751F41092D703E0913E10F0913F10309709F1099508956091381070913910CB0101969093391080933810E0913A10F0913B104191F0933B10E0933A108CE00E94081E80913C1090913D10019790933D1080933C100895A2E1B0E0E3E3F5E10C9469B29A878987DB012B873C874D875E87FC01E080F180E114F10409F433
S284002A8097C1222433244B855C856D857E859A01AB0160E070E0CB0129833A834B835C836D837E838F839887F88AEF86F701BA8BA98B02C01F01FC01E280F3800481158126813781408551856B857C858D859E856E157F058007910708F48FC060E070E0CB0157016801EE24FF248701622E6A0C77247394621608F07724932E9B0C8824F2
S284002B008394931608F08824790C55245394791408F055248528542E5C0C99249394541608F09924850C44244394851408F044249428052F0D0D11E0051708F010E0900EEE24E394901608F0EE241E2944244394161608F0442401E0171608F000E055245394181608F05524A62C7981A71A21E06A1408F020E0972D8A81981B81E0791663
S284002B8008F080E0492F421B21E0941708F020E0822B282D9B81291B91E0821608F090E0522F581B81E0251708F080E0982B292DAC812A1B81E0921608F080E0E22EE91A91E02E1508F090E0892BB12FB81B8B2F91E01B1708F090E0242D291B922F21E0491608F020E0302F321B232F31E0021708F030E0142F052F95C039014A01AA24FF
S284002C00BB24650110950095F094E094E11CF11C011D111D722F7E1961E0271708F060E0872D8F1991E0781608F090E0A82FA61B6A2F552453948A1708F055249529582C501A81E0851408F080E0B52DB91B9B2F442443945B1608F044248429292D211B31E0921608F030E0E22EE81A81E02E1508F080E0832B819551E0181608F050E046
S284002C80519541E0151608F040E0419521E0141608F020E0522E5194A72E2981A21A11E07A1508F010E0262F3A81231B31E0621708F030E0622F611B162F61E0211708F060E0362B692F7B81671B21E0961708F020E0062F031B91E0601708F090E0292B3E2D9C81391B91E0E31608F090E0E32EE21A21E03E1508F020E0922B682F691BAE
S284002D0091E0861708F090E0A52FA91B9A2F81E05A1708F080E0242F281B31E0421708F030E0862F531A69F5222359F5992349F5882339F5A989BA8916962D913D914D915C91199760E070E0CB01992321F51816C0F0882301F51716A0F07723E1F4161680F06623C1F4E51660F05E15A1F4041740F0401781F4131720F0311761F4A2168B
S284002D8050F480819181009709F094CE8F01A989BA891F0111C0EF84F8888F01A989BA89EE15FF0541F41196FC93EE93E985FA85B183A08306C0CF01F101B183A0838D939C936296E2E10C9485B2CF93DF93FC01DB01EA01808191814817590739F48881998119821882808391830BC08881998111969C938E93198218828C9111969C918F
S284002E001197DF91CF910895DC01ED91FC91119706C0808191818617970719F0FC013097C1F7CF010895E091D803F091D9030284F385E02D309709F00995089523982B981CBC0895E091FF03F091000426813781848195812817390769F0A48DB58D8481958101969583848384819581A80FB91F8C918EBD0895E091FF03F0910004309704
S284002E8019F40E941E17089542855385228533852F5F3F4F33872287228533852A30310511F41386128662857385208531856217730719F4538742870895405C5F4EDA018C938485958501969587848708952FB7F894E091FF03F0910004848595852FBF009731F005A0F6A1E02D309709F0099508958FB7F8941092DD031092DC03109281
S284002F00DB038FBF08958091100480FF0FC081E00E94381E809170008D7F809370000E947917809110048B7F809310040895809170008C7F809370008091B60080628093B6001092B2001092B0001092B1001092B3008091B60090E08F7190700097C9F783E087BB87E08093B1008091700081608093700008958091B60090E08F7190709C
S284002F800097C9F7809170008C7F809370008091B100887F8093B10083B5826083BD8091B60090E08F7190700097C9F78091B6008F7D8093B60008959B01AC016091B200862F90E080959095AA2797FDA095BA2F9070A070B07082179307A407B50778F4281B390B4A0B5B0BBB27A52F942F832F9093DC038093DB032093DD030895260FEF
S2840030008091B60090E08F7190700097C9F72093B30082E087BB809170008260809370000895EF92FF920F931F938FB7F8949091DE032091B20034E43093B4004091B60050E04F71507041155105C1F7B89904C030E040E050E009C02091B20030E040E050E021503F4F4F4F5F4F8FBF8FEF989FC0011124AA2797FDA095BA2F820F931F5E
S284003080A41FB51F9C01AD0175E0220F331F441F551F7A95D1F77C018D0162E016950795F794E7946A95D1F72E0D3F1D401F511FE090DF03F090E0030091E1031091E2032E0D3F1D401F511F281B390B4A0B5B0BB901CA011F910F91FF90EF90089560E270E080E090E008958FB7F8946091DE031092DE038FBF70E080E090E020E43FE10C
S28400310040E050E00E9408B29B01AC018091DF039091E003A091E103B091E203820F931FA41FB51F8093DF039093E003A093E103B093E20382179307A407B50728F48091DA038F5F8093DA0308951F920F920FB60F920BB60F9211242F933F934F935F936F937F938F939F93AF93BF93EF93FF93809170008D7F809370001092DD03809186
S284003180100480FF03C080E00E94381E8091100482FF11C08091C80381608093C8032FB7F89480914F049091500482609093500480934F042FBFFF91EF91BF91AF919F918F917F916F915F914F913F912F910F900BBE0F900FBE0F901F9018951F920F920FB60F920BB60F9211242F933F934F935F936F937F938F939F93AF93BF93EF93AE
S284003200FF938091DB039091DC030097A1F58091DD038823E9F48091100480FF03C080E00E94381E8091100482FF34C08091C80381608093C8032FB7F89480914F049091500482609093500480934F042FBF22C08091B60090E08F7190700097C9F78091DD038093B30082E087BB8091700082608093700009C08091DB039091DC03019735
S2840032809093DC038093DB038091100480FF02C00E94A41E8091DE038F5F8093DE038091C80382608093C8032FB7F89480914F049091500482609093500480934F042FBFFF91EF91BF91AF919F918F917F916F915F914F913F912F910F900BBE0F900FBE0F901F901895A0E1B0E0E9E7F9E10C9476B20091E3031091E403D80112968C9155
S2840033001297823029F08430C9F0882331F074C070E060E088E0F82E6BC080E090E0D8011396ED91FC911497E80FF91F208120933F0101968031910591F75EC010923C0180E010923E018F5F8031D9F780913C01806880933C0180913D0180FFFCCFFE013196CE014196DF0120913F012D93A817B907D1F7219120933F01E817F907D1F791
S284003380C7CFF8018281823019F410923C0102C0F0923C01872F90E0AC01405F5F4F9C01D8011396ED91FC911497E20FF31FE081E0933E012F5F3F4F2417350789F720913C01206820933C0120913D0120FFFCCF20913E01D8011396ED91FC911497E80FF91F208301968417950791F7705F6F5FF8018581681728F283EE93E00E94557307
S2840034008091E3039091E403009789F08091CB0381608093CB032FB7F89480914F049091500482609093500480934F042FBFD8011696ED91FC91179709956096E5E00C9492B280E197E29093A9008093A800E1EAF0E088E08083808182608083E2E7F0E080818260808308959B01AC018091E7039091E803A091E903B091EA03820F931FDD
S284003480A41FB51F8093E7039093E803A093E903B093EA038091CC0384608093CC032FB7F89480914F049091500482609093500480934F042FBF08958FB7F8946091E6031092E6038FBF70E080E090E02AE030E040E050E00E9408B29B01AC018091E7039091E803A091E903B091EA03820F931FA41FB51F8093E7039093E803A093E90391
S284003500B093EA0382179307A407B50728F48091E5038F5F8093E50308950E945C1A6091E7037091E8038091E9039091EA0308951F920F920FB60F9211242F938F939F938091E6038F5F8093E6038091CC0384608093CC032FB7F89480914F049091500482609093500480934F042FBF9F918F912F910F900FBE0F901F901895FC01A38539
S284003580B0E011961C92A385B0E08585968515969C938E9314978485A385882349F4B0E082E08C93A385B0E012961C92129707C0B0E01C92A385B0E0828912968C93A385B0E012968C9112979485892B12968C93A385B0E012968C9112979785892B12968C93A385B0E012968C9112979089892B12968C93A385B0E012968C91129791897D
S284003600892B12968C93A385B0E08C9180688C93A385B0E011968C911197886111968C931197E385F0E081818068818308951F920F920FB60F920BB60F9211242F933F934F935F936F937F938F939F93AF93BF93EF93FF93E1ECF0E080818F7D808380E00E943111FF91EF91BF91AF919F918F917F916F915F914F913F912F910F900BBE30
S2840036800F900FBE0F901F9018951F920F920FB60F920BB60F9211242F933F934F935F936F937F938F939F93AF93BF93EF93FF93E1ECF0E080818F7B808381E00E943111FF91EF91BF91AF919F918F917F916F915F914F913F912F910F900BBE0F900FBE0F901F9018951F920F920FB60F920BB60F9211242F933F934F935F936F937F93AD
S2840037008F939F93AF93BF93EF93FF938091C0006091C6008C7131F480EC0E944F1182E00E943111FF91EF91BF91AF919F918F917F916F915F914F913F912F910F900BBE0F900FBE0F901F9018951F920F920FB60F920BB60F9211242F933F934F935F936F937F938F939F93AF93BF93EF93FF93E9ECF0E080818F7D808383E00E943111F8
S284003780FF91EF91BF91AF919F918F917F916F915F914F913F912F910F900BBE0F900FBE0F901F9018951F920F920FB60F920BB60F9211242F933F934F935F936F937F938F939F93AF93BF93EF93FF93E9ECF0E080818F7B808384E00E943111FF91EF91BF91AF919F918F917F916F915F914F913F912F910F900BBE0F900FBE0F901F9051
S28400380018951F920F920FB60F920BB60F9211242F933F934F935F936F937F938F939F93AF93BF93EF93FF938091C8006091CE008C7131F488EC0E944F1185E00E943111FF91EF91BF91AF919F918F917F916F915F914F913F912F910F900BBE0F900FBE0F901F9018951F920F920FB60F920BB60F9211242F933F934F935F936F937F935C
S2840038808F939F93AF93BF93EF93FF930E948317E091EB03F091EC030995FF91EF91BF91AF919F918F917F916F915F914F913F912F910F900BBE0F900FBE0F901F9018951F920F920FB60F920BB60F9211242F933F934F935F936F937F938F939F93AF93BF93EF93FF930E948317E091ED03F091EE030995FF91EF91BF91AF919F918F918B
S2840039007F916F915F914F913F912F910F900BBE0F900FBE0F901F9018951F920F920FB60F920BB60F9211242F933F934F935F936F937F938F939F93AF93BF93EF93FF930E948317E091EF03F091F0030995FF91EF91BF91AF919F918F917F916F915F914F913F912F910F900BBE0F900FBE0F901F9018951F920F920FB60F920BB60F9242
S28400398011242F933F934F935F936F937F938F939F93AF93BF93EF93FF930E948317E091F103F091F2030995FF91EF91BF91AF919F918F917F916F915F914F913F912F910F900BBE0F900FBE0F901F9018951F920F920FB60F920BB60F9211242F933F934F935F936F937F938F939F93AF93BF93EF93FF930E948317E091F303F091F4034F
S284003A000995FF91EF91BF91AF919F918F917F916F915F914F913F912F910F900BBE0F900FBE0F901F9018951F920F920FB60F920BB60F9211242F933F934F935F936F937F938F939F93AF93BF93EF93FF930E948317E091F503F091F6030995FF91EF91BF91AF919F918F917F916F915F914F913F912F910F900BBE0F900FBE0F901F906E
S284003A8018951F920F920FB60F920BB60F9211242F933F934F935F936F937F938F939F93AF93BF93EF93FF930E948317E091F703F091F8030995FF91EF91BF91AF919F918F917F916F915F914F913F912F910F900BBE0F900FBE0F901F9018951F920F920FB60F920BB60F9211242F933F934F935F936F937F938F939F93AF93BF93EF9328
S284003B00FF930E948317E091F903F091FA030995FF91EF91BF91AF919F918F917F916F915F914F913F912F910F900BBE0F900FBE0F901F9018951F920F920FB60F920BB60F9211242F933F934F935F936F937F938F939F93AF93BF93EF93FF938091B90090E0887F90708832910569F1893291059CF48031910521F18131910534F40097C7
S284003B8029F18830910589F51BC088319105D9F08032910551F51AC088349105B9F0893491053CF48033910589F080349105E9F410C08035910581F088359105B1F411C00E94E81212C00E9467130FC00E94CD120CC00E94841309C08091BB000E94A21304C08091BB000E94CE13FF91EF91BF91AF919F918F917F916F915F914F913F9145
S284003C002F910F900BBE0F900FBE0F901F901895F999FECF07B600FCFDCF72BD61BD40BD9FB7F8948FBBF99A9FBF08951F920F920FB60F9211242F938F939F93FB988091CB0384608093CB032FB7F89480914F049091500482609093500480934F042FBF9F918F912F910F900FBE0F901F901895909110048170880F9C7F982B909310044D
S284003C80E9E3F1E080818D7F80838091CC0381608093CC032FB7F89480914F049091500482609093500480934F042FBF08958091100480FF48C08091A1008D7F8093A1008091FB039091FC03A091FD03B091FE030097A105B10551F40E9411186093FB037093FC038093FD039093FE038091100483FD02C00E945173F999FECF809110049C
S284003D008860809310049091390192609093390182FF05C087E083BF889513BE0AC00E94BB1785E083BF889513BE0E9497170E94192084E48093B4008091B60090E08F7190700097C9F70895809110048160809310048091B60090E08F7190700097C9F78091CC0388608093CC032FB7F89480914F049091500482609093500480934F04E1
S284003D802FBF80E090E008950E9411182091FB033091FC034091FD035091FE03621B730B840B950B1092FB031092FC031092FD031092FE030E94341A8091A10082608093A100809141018F718830D9F780911004877F809310040E944D738091100481FD07C0E0910104F0910204309709F0099508951F920F920FB60F920BB60F9211244E
S284003E002F933F934F935F938F939F93AF93BF93EF93FF93E091D803F091D903838126813781882349F48081918140917900280F391FD9014C930EC0808191814091780050917900DC01AA0FBB1FA20FB31F11965C934E93019691838083E091D803F091D903208131818085918528173907B1F480917A00877F80937A008091CB0382608A
S284003E808093CB032FB7F89480914F049091500482609093500480934F042FBFFF91EF91BF91AF919F918F915F914F913F912F910F900BBE0F900FBE0F901F9018951F920F920FB60F920BB60F9211242F933F934F935F936F937F938F939F93AF93BF93EF93FF93DF93CF930F92CDB7DEB78EB589830E94221789810E943B178091CA036A
S284003F0080648093CA032FB7F89480914F049091500482609093500480934F042FBF0F90CF91DF91FF91EF91BF91AF919F918F917F916F915F914F913F912F910F900BBE0F900FBE0F901F901895A0E0B0E0EBEAFFE10C9469B210E0C2E8DBE800E892E8692E9BE8792E812C912C82E8A82E8BE8B82E0E94EF042BE88338920718F16E016B
S284003F80EE24FF249C0140E050E022583B4840405040C216D306E406F5064CF4123039F480916600815080936600000036C0209166002150209366000000EC01C258DB4811E028C02BE88238920739F16E01EE24FF249C0140E050E013012401221A330A440A550AC214D304E404F5044CF4113039F4809166008F5F8093660000000DC086
S284004000209166002F5F209366000000E501C81BD90B12E0015009F0ACCFCDB7DEB7E2E10C9485B20E94FC20882311F40E94A51F0895CF93DF93C8E8D3E188EC0E94E7042197D9F70E941220DF91CF910895CF93DF93EC01009741F10E946F182E813F81488559850E9408B228EE33E040E050E00E9447B22115310541055105C1F08091EC
S284004080100482FD17C0846080931004E3E0F4E08DE0099001928150E1F7CA01B9010E94DC1720E030E008C02FEF3FEF05C02EEF3FEF02C02DEF3FEFC901DF91CF9108958091100482FF24C090910D049923B1F4E0910E04F0910F04309709F009958091100482FF15C06091090470910A0480910B0490910C040E94DC1708958B7F809322
S2840041001004E0910E04F0910F04309709F009950895ADE0B0E0EFE8F0E20C9479B2FC01009739F184819581909302048093010480819181A281B3818F839887A987BA8781E08B871D861C86CE0101960E9427202FEF8F3F920781F02FEF8D3F920761F00E94A41E2FEF8F3F920749F42DEF3FEF08C02FEF3FEF05C02EEF3FEF02C020E036
S28400418030E0C9012D96E2E00C9495B28FB390E0FC01E270F07081FDF9CF8FB7F89499E090935700E4918FBFEF70E23019F41092110403C081E0809311048FB7F89490911104992349F45F9350E85093610050E0509361005F9108C05F9350E85093610051E0509361005F918FBF80911104882311F40E94192008958091110408958091E6
S2840042002704982F9F5F909327040895DC01ED91FC91119790930311809302111092EF101092F010809116048093F41020915A1030915B1083899489B9010E9433B2462F6093F21083899489B9010E9433B2009719F04F5F4093F2108FEF90E000900C0F02C0880F991F0A94E2F780958E7F8093F1100E94FF208093F3100895FC0187896C
S28400428083FF0AC081E090E0238934892036310528F480E090E0089580E090E00895CF93DF9340914A1020914F103091501090E058C0F901225A3F4F578150FD51C0DF01AA5BBF4F11961C921E928230C1F0823018F0833009F048C090914E1020914C10921708F041C09F5F90934E10138214821582168290859F709087128228C0209187
S2840043004D1090914B10291778F530915110A0915210B091531090E014C0ED014C919396442371F42F5F20934D1021E02883DF01AA5BBF4F68961196DC93CE93228303C09F5F931750F320915110291769F09085907F9087880F816087831182108206C09F5F941708F4A5CFE0E0F0E0CF01DF91CF91089520914F1030915010821B930BAB
S2840043806EE570E00E9433B2EEE56E9FF0011124E20FF31F8781869590E08230910571F0833091051CF08330910539F580914E10882319F1815080934E101FC080914D10882319F0815080934D102091521030915310DF01AA5BBF4F8D919C91821B930B63E270E00E9433B2A3E26A9FD0011124A20FB31F8C9181111C9287818E7F878376
S284004400089521E030E002C0220F331F8A95E2F780911504822B809315042FB7F89480914F049091500480629093500480934F042FBF0895CF93DF93EC01009729F16B8F4115510551F0FA0180819181A281B3818C8F9D8FAE8FBF8F04C01C8E1D8E1E8E1F8EE98DFA8D309719F0CE014B960995CE010E943E21882339F01092031110929B
S284004480021181E00E940122DF91CF9108951F9380912804815080932804809154108330C9F11091EE101123A9F181E08093541060910C0F70E061507040882777FD8095982F2AE030E040E050E00E9408B220913C0430913D0440913E0450913F04620F731F841F951F2091160430E040E050E00E9408B260935C1070935D1080935E100E
S28400450090935F1011501093EE1087E194E00E9498750AC01092541010925C1010925D1010925E1010925F101F910895A1E0B0E0ECE9F2E20C9477B28C0182E494E069830E9455736981D80117966C9317971596ED91FC911697C801079609958091420490914304009719F080E00E9401222196E4E00C9493B2209128042F5F20932804CA
S2840045800E943A5E0895AF92BF92DF92EF92FF920F931F93DF93CF930F92CDB7DEB78C015B01FB01E05BFF4F8FE794E291838083FB01EE5BFF4F82E08083FB01ED5BFF4FD80113968D919C91149791838083FB01E65BFF4F58968C9158978083FB01E55BFF4F1082FB01E45BFF4F81E08083FB01E35BFF4F8083FB01E25BFF4F80835796CB
S2840046008C91579786FD0DC081E090E013962D913C911497BFEF283F3B0728F080E090E002C081E090E0F501E15BFF4F8083E0905A10F0905B10C8010E943E218823E9F12091EF10422F50E08091F21090E001974817590711F0DE2C06C02E9D802D1124F801D388D81A4091041150910511405E5F4F30E02E9DC0012F9D900D3E9D900D2C
S2840046801124D80155962D913C915697280F391FCA01B9014D2D50E00E941AB3F501EB5BFF4F8D2D865F8083F501EA5BFF4F8091041190910511469611C0F501EB5BFF4FD80153968C915397885F8083F501EA5BFF4F55968D919C915697089791838083F501EA5BFF4FE080F180F7012081822F8C7E8083D80113968D919C911497207EF2
S284004700BFEF873F9B0710F02860F7012083D7019C91892F8F7D8C93F801278922FD03C09F799C9321C08064D7018C93F5012085207F21602087C80129830E943E2129812F70882351F08091F4108295807F822BD50118968C93189707C0809116048295807F822BF5018087C8010E943E21D7019C918823E1F090689C939091EF1018965C
S2840047808C911897992359F48C7F816018968C9318978091F21019968C9319970BC08C7F8260F70180878091EF10818703C09F77D7019C93F8018585D70111968C9311978089918913969C938E9312978685978515969C938E931497828916968C93C8010E943E21882329F08091F310F701878305C00E94FF20D70117968C93C501099653
S2840048000E94BB2280E00F90CF91DF911F910F91FF90EF90DF90BF90AF9008956091021170910311FB01808191810E94C322089522EB30E1A901405D5F4F5093B3104093B21092E09093AE1040916310509164105093B0104093AF109BE09093B1101092B6101092B71091E09093B8109093B9101092BA1047E452E25093BD104093BC10A0
S2840048809093BB1092E89093E21090916A109093E31040916610509167105093E5104093E41040916810509169105093E7104093E610909165109093E81090916B109093E91092E09093EA10909161109093EB10909162109093EC109091ED109093CB1010925C1010925D1010925E1010925F1080935410C901CD970E94BB220895BC01CF
S2840049008091280481508093280485E294E00E949C7381E00E9401220895CF93DF93BC01C0914204D091430482E494E00E949C73209719F480E00E940122DF91CF910895A3E0B0E0E6EAF4E20C9473B28C01675F7F4F7B836A838DE0BE016F5F7F4F0E94810E8981D80153962C915397882309F43FC0CA80DB8081E0F60181AF13968D9154
S2840049809C91149793AF82AF285F24AF5596ED90FC90569788EF9FEFE80EF91EF6AEE5AE8FEFD70111968C931197F8018089918913969C938E9312978685978515969C938E931497828916968C930E94FF20D70117968C93D601DD96ED91FC91DE9788E08083EA81FB81E95BFF4F8FE794E241C0CA80DB8082E0F60181AF8DEF9FEF93AF44
S284004A0082AF275F24AFD8015596ED90FC905697E7EFFFEFEE0EFF1ED601DE96FC92EE92DD97F80183819481D70112969C938E9311978089918914969C938E9313978685978516969C938E931597828917968C930E94FF20F7018087D601DD96ED91FC91DE978CE08083EA81FB81E95BFF4F83E995E291838083EA81FB81EF5BFF4FD80188
S284004A8058968C918083EA81FB81EE5BFF4F80910B0F8083EA81FB81ED5BFF4F81E08083EA81FB81EC5BFF4F8083EA81FB81EB5BFF4F8083EA81FB81EA5BFF4F80838A819B810E94BB2280E02396E8E00C948FB2A4E0B0E0EEE6F5E20C9478B2182F89E1BE016F5F7F4F0E94810E612F70E080E090E020912C0430912D0440912E04509107
S284004B002F040E9408B29B01AC0189819A81AB81BC81280F391F4A1F5B1FB901CA012496E3E00C9494B20F931F93CF93DF93EC018C0109541040D801DD96ED91FC91DE97818192816FEF0E94EA57882349F022978FE794E299838883C8010E94FD5D03C0CE010E947F24DF91CF911F910F9108958F929F92BF92CF92DF92EF92FF920F93CD
S284004B801F93DF93CF930F92CDB7DEB76B01B42E790180902A0490902B040091290426E1029F80011124080D191D009719F126E1822E912C880E991E1DC0F4012589243A11F02A3A99F4F4018085B81679F481859285C816D90651F4C401B70148E050E029830E940DB329810097B9F026E130E0820E931E8016910600F388249924C401BB
S284004C000F90CF91DF911F910F91FF90EF90DF90CF90BF909F908F900895243A39F7EFCFA1E0B0E0E6E1F6E20C946FB24C017B010E94AA3A6C01F701E45AFF4F0081118158EA5F0129C0F50111830083F80183858330A9F4C8010C960E94B36C0097D9F0F8012489F4012587FC0180819181F40194838383C401B7010E94C3220AC0F801A5
S284004C8084859585F40194838383C401B7010E94A024582F0EC059EAF40160897189C8014289960159830E94B8258C015981009751F6852F2196ECE00C948BB21F93CF93DF93EB01FB01E45AFF4F118210820E941026182F882319F0CE010E94BA21812FDF91CF911F910895A0E0B0E0EAE7F6E20C9472B28C01B62EC0912A04D0912B0440
S284004D009091290486E1989F70011124EC0EFD1E3CE0C32ED12CC00ED11E35C0F8012185328590858D89843A11F08A3A59F58885981741F589859A852817390719F5CE01B80148E050E00E940DB30097D9F429C0813049F4F801248535858C859D852817390781F417C0F80194898C89981751F4BE01645F7F4FC60148E050E00E940DB306
S284004D80009741F06696CE15DF0540F2F801B58AC0E0D0E07E01CE01CDB7DEB7E9E00C948EB2F80183859B85891761F7D1CFCF93DF930E94F4B2EC0144E0CC0FDD1F4A95E1F7C0700E94F4B2282F30E02C2B3D2BC901DF91CF91089588E361E570E10E94810E8DE462E570E10E94B60E209152103091531060E083E290E00DC0462F50E0B0
S284004E00489FF001499FF00D589FF00D1124E20FF31F10826F5F40915110641778F387E36AE470E10E94810E8CE46FE470E10E94B60E80914A10E0914F10F091501090E006C027812E7F27839F5FE25AFF4F9817C0F39091511090934B10823008F0815080934C1010924D1010924E108FE36AE570E10E94810E8EE369E570E10E94810E70
S284004E8080915910882351F08EE465E570E10E94B60E8FE464E071E10E94B60E4091591050E080915A1090915B10489F9001499F300D589F300D11248091551090915610820F931F9093581080935710109254100895A1E0B0E0EFE6F7E20C9475B210E001E02EE55FEFE52EF12C42C0129FC0011124E0914F10F0915010E80FF91F3781FD
S284004F0030FF35C080858F70823089F53E7F323011F0363061F583819481A581B6818A309105A105B10548F00A97A109B10983839483A583B68300E01AC08085807F846080871382148215821682363059F4C70100900C0F02C0880F991F0A94E2F780958093F11081E029830E94012229811F5F80914A10181708F4B9CF80915C1090918B
S284004F805D10A0915E10B0915F100097A105B10591F08B309105A105B10550F00A97A109B109EAE4F0E1828B938BA48BB58B09C082E00E941824002321F087E194E00E94A2752196E6E00C9491B20F931F93CF93DF938C01FC01C081D1816E3C11F0603F11F423E001C022E0F801E95AFF4F80819181A281B3818C8F9D8FAE8FBF8F6B8F05
S284005000233049F08A81882331F4CE01B8010E941026883A61F4AE01445E5F4FF801808191816B8D0E941A22C8010E94BA21DF91CF911F910F910895CF93DF93EC01009709F44AC086EA8D8B8885882309F444C08F3F09F441C08B85833031F48C898823D9F18F3F19F438C08130B1F51D8ACE0160E00E947426009709F5309129048091DB
S2840050802A0490912B0420E00BC0FC0145894696483A29F484EA858B309739F41DC02F5F231798F38EEA8D8B17C0DF0186E109900D928150E1F784EA858B09C0CE0166EA0E94742624EAFC01258B009729F080E160E070E00E94EE74DF91CF910895FC01009709F186EA858B80858823E1F08F3FD1F08385833031F484898823A1F08F3F67
S28400510019F40895813079F4158ACF0164EA0E947426009741F028EAFC01258B80E160E070E00E94EE740895BC0180E494E00E949C7381E00E9401220895BC018AE394E00E949C7381E00E9401220895AAE0B0E0ECEAF8E20C9473B2E090670F8EE2BE016F5F7F4F0E94810E8E01095F1F4F89E1B8010E94810E8F819885A985BA852E2D16
S28400518030E040E050E0281739074A075B0760F0880F991FAA1FBB1F8F839887A987BA8789E1B8010E949C0E2E2D30E0295F3F4F442737FD4095542F20932C0430932D0440932E0450932F04E980FF2400E010E0C801B701660F771F881F991F6E0D7F1D801F911F0E9408B22F81388549855A85620F731F841F951F60933C0470933D0467
S28400520080933E0490933F0487E194E060E02AE030E040E050E009E617E20E94AB7581E08B838EE2BE016E5F7F4F0E94810E8A8190E0A0E0B0E0880F991FAA1FBB1F8F3F9105A105B10529F020F08FEF90E0A0E0B0E00E9468256B017C0183E2BE016D5F7F4F0E94810E2B8180E090E0DC018C0D9D1DAE1DBF1D81509E4FAF4FBF4FCC0C74
S284005280DD1CEE1CFF1C215091F71B827C018D01F9E016950795F794E794FA95D1F70894E11CF11C011D111D1E821D821C8289E3BE016C5F7F4F0E94810E87E4BE016B5F7F4F0E94B60E6D817E818FEFE816F1040105110531F028F0EFEFEE2EF12C012D112D80E394E04C8120E032E00E2DEE24E3940E94BC732A96E8E00C948FB28823EC
S28400530059F00E94D726809327041092280483E266E174E00E94810E109241041092400410923B0410923A04109226041092250410924504109244048AE090E0A0E0B0E08093FB109093FC10A093FD10B093FE108EE094E2909301118093001181E08093FF1086E26CE07FE00E94810E1092621010926B10109260101092671010926610C9
S28400538010926110109265101092691010926810109264101092631010926A101092541010925C1010925D1010925E1010925F108EE5ECE6F0E1DF011D928A95E9F783E2EAECF0E1DF011D928A95E9F74091591050E080915A1090915B100196489F9001499F300D589F300D1124809155109091561060E070E0A9010E9435B382EE90E1D0
S2840054009093B3108093B2100E94A6280895A0E0B0E0EDE0FAE20C9473B27C01EC012997809112049091130427E08030920709F061C00AC080E494E00E945573C80163EA40E050E00E941A2200914004109141040115110579F72DC085E294E0B8010E94667320914F1030915010C801821B930BB6010E9433B28EE5689FF0011124E20F47
S284005480F31F808191812781269530E02115310521F02130310581F406C0A8014B5F5F4FF801628103C067EA40E050E00E941A2203C0AEE5CA2ED12C00912504109126040115110549F610E00EE510C0109F9001112480914F1090915010820F931FFC01278120FF02C00E94BA211F5F80914A10181760F3109215041092140481E00E9434
S2840055007F290E94EC268A850E94145A0A85102F11700695017081E56AE274E00E94B60E8DE369E274E00E94810E000F012B033099F0E0912A04F0912B049091290486E1989FC00111248E0F9F1F28EA02C0258B7696E817F907D8F38A8581FF03C08FE394E002C080E393E09093130480931204F70180818E8782E494E00E945573EC85D1
S284005580FD85CE010E9609958091420490914304009719F080E00E940122CDB7DEB7E8E00C948FB2CF93DF93C0914204D09143048A818A3821F1853C09F44AC0893109F065C0809112049091130421E08031920719F480E092E002C080E097E090931304809312048A858D838B858E8387E09AE298878F83CE0103960E94BB6E47C0809117
S28400560012049091130423E08033920721F026E08031920751F48FE394E090931304809312040E94A6281D8202C083EA8D8382E494E00E945573EB81FC81CE01059609958091420490914304009701F180E017C0809112049091130424E08F33920791F480E095E0909313048093120482E090E09C838B8387E194E00E94A27581E00E9485
S284005680012204C0CE0163EA0E949622DF91CF9108959C018FEF6F3F780731F4832F8095881F8827881F089581E02617370709F080E00895FC01009729F4809146049091470408958081918108951F93182FE0E0F0E005C0A381B4818C91181731F0CF010E945A2BFC010097A9F7CF011F910895CF93DF93EC010097E1F086EA8F83EB8103
S284005700FC813097B1F08081982F9150903F88F40E94652B009769F421E08D819E81009709F020E02A8386E494E0BE010E949C731F82DF91CF910895A0E0B0E0E2EAFBE20C9474B2EC0100E010E026C0D80112968C911297882301F51396ED90FC9014976C8D7D8DF701818192810E94492B882399F0D701DC908B8D8D1539F4EF84F8887F
S2840057800E948455E816F90639F08B819C816D2D0E94EA57882339F4C8010E945A2B8C010097A1F609C0DD86D8011596ED91FC911697CE010995F0CFCDB7DEB7E7E00C9490B2ADE2B0E0E7EEFBE20C946FB28C01C62EDC011A96ED90FC901B9715962D913C91169780E394E0B901F70147810E942A74882309F42AC1D70111968C911197DE
S284005800982F91509E3F30F40E94652B5C01009719F41CC1AA24BB24F801228183819481213009F022E02B839D838C83D70111968C918E87F801858196810E94FF67FC01009799F083E08F8780818A8B81818B8B82818C8B83818D8B84818E8B85818F8B8681888F8781898F02C082E08F87D80115968D919C911697998B888B17968D91E2
S2840058809C9118979B8F8A8FF70186818C8F848195819E8F8D8F8281938198A38F8F19968C91199790E09C012A5030403AA329A31DA2208127FD04C09C012850304009C0D70118962C911897237029F49C01295030403AA329A329A13AA1821B930BF80122853385280F391F3CA32BA3CEA282898FA3848588A786859785A089B18989A700
S2840059009AA7ABA7BCA785858DA7D7018C9187FF53C018968C9118978370823009F04CC0E0915710F0915810808189A31AA280809924B1E0CB2ED12C33C08091551090915610DC01A80DB91DE0915710F0915810EC0DFD1D408160915A1070915B10C69E9001C79E300DD69E300D1124280F391FCD01B90150E00E941AB3E0915710F0910E
S2840059805810EC0DFD1D208189A19AA1820F911D9AA389A38081880E911C0894C11CD11C8091601090E0C816D9063CF280915510909156109CA38BA3A114B10449F0D5011596ED91FC911697CE01019609953EC0F8018281813029F4CE0101960E949C2B35C0D70111968C9111978F3F59F5EE24FF246E010894C11CD11C1DC0D701139655
S284005A00ED91FC911497A080AA20A9F012968C911297882381F46D8D7E8D818192810E94492B882341F0AE86D7011596ED91FC911697C6010995C7010E945A2B7C010097E9F604C0CE0101960E94447EF801168A0488F589E02DC80146960995AD96ECE00C948BB2A1E0B0E0E8E3FDE20C9471B28C01DC011A96AD90BC901B97F501818160
S284005A80982F91509E3FC0F40E94652B7C01009709F423C1DC011396ED91FC911497D50114966D917C911597818192810E94492B882309F412C102C0EE24FF24F501808187FF04C09085937009F007C186FF03C18C70883009F401C1D80115962D913C911697BFEF273F3B0708F0F7C0E114F10429F0F7018281882309F0EFC0D5018C9156
S284005B0086FFE5C08370813011F441E001C047E0F0904A10E0914F10F0915010ED5BFF4F50E0842F90E0B501680F791F1AC0DF01A354B0401796AC91A53081F4A081B1812A173B0759F4C380D480C80ED91EDB01EC90D601DC90ED1409F4B9C05F5FE25AFF4F5F1520F382E049830E944F214981009709F4ACC0FC01EA5BFF4F0190F08132
S284005B80E02DDF0158972FEA11962C93119713961C930E931297DC01AE5BBF4F62E06C9353E4E52EF12CE80EF91ED80115962D913C911697D7012D933C93DC01A65BBF4F1C92DC01A55BBF4F1C92DC01A45BBF4F51E05C93DC01A35BBF4F5C93DC01A25BBF4F1C92DC01A05BBF4F2FE734E22D933C93DC01A15BBF4F5C9320812C7F22603F
S284005C002083D5013C913C70237F232B20833C9130712F7E232B322F3F7930833C9130782F71232B20832C9150E035E4E32EF12CE80EF91E24FF0DC0D8011A962D913C911B97240F351FD9012C912183F701608339C028E0D7012C93D50116962C911697218312962D913C9113973383228314962D913C9115973583248311962C9126831E
S284005C80D8011A962D913C911B97240F351FD9012C912783D5012C9127FF14C018962C911897237031F41086F70120812F5F208309C0D7012C912D5F2C93D50118962C912370208709960E94BB2291E001C090E081E08927B1C181E001C080E0F501908197FFA1C1F0849F2D937009F49CC1D80119968C911997E18440915910442309F475
S284005D009AC196EFD92ED80E80915410882321F0813009F090C158C0BF2DB13009F08BC14E1508F488C180915A1090915B102D2D30E08217930708F47EC150E00196489F9001499F300D589F300D1124809155109091561060E070E0A9010E9435B38FEA8093ED10F0925410E0926010F801858196819093641080936310D50111968C91C8
S284005D8011978093651012968D919C911397909367108093661014968D919C911597909369108093681016968C91169780936A1017968C91179780936B10809116048093EE1010926110EE24F5018085982F9370923019F0EE2009F02EC18C7F09F02BC1809160108E1508F426C12091631030916410D80115968D919C91169728173907AB
S284005E0009F019C190916510F5018181981709F012C12091661030916710828193812817390709F008C12091681030916910848195812817390709F0FEC090916A108681981709F0F8C090916B108781981709F0F2C05091611040910C0F2E2D30E0852F90E0840F911D281739070CF0E4C08E2D642F0E9427B2F92EE51670F48E2D891BFB
S284005E808093611081E090E002C0880F991F4A95E2F7819580936210AE2CBB2420915A1030915B10A29EC001A39E900DB29E900D11244091551050915610480F591FD8011A962D913C911B97265F3F4FCA01B9014D2D50E00E941AB3E0915710F0915810EA0DFB1DD082509161105E1591F42091601080910C0F2E19821708F4282F81E0D3
S284005F0090E002C0880F991F2A95E2F781958093621081E090E00F2C02C0880F991F0A94E2F740916210482B409362104F3F79F4252F2150E0906010FF2480910C0F90E0E51AF1088E159F050CF47C01E20E2E2D30E08091601090E001972817390751F44F3F21F483E00E9418245FC082E00E94182461C060910C0F70E061507040CB0129
S284005F80850F911D2817390711F04F3F11F582E00E941824809162108F3F09F04CC080910C0F90916110980F90936110E09490916010E90E8E1508F4E82E81E090E00E2C02C0880F991F0A94E2F781958093621032C0882777FD8095982F2AE030E040E050E00E9408B220913C0430913D0440913E0450913F04620F731F841F951F2091EC
S284006000160430E040E050E00E9408B260935C1070935D1080935E1090935F1087E194E00E94987508C0882331F0C8016FEA0E94E12B80E001C081E02196EAE00C948DB2A3E3B0E0E6E2F0E30C9469B2409012045090130420E1421621E0520609F472C330E3431633E0530609F07EC16BC320914F1030915010C701821B930B6EE570E050
S2840060800E9433B24EE5649F80011124020F131F50E1451656E0550629F080E0481685E0580689F5D80117968C9117978E7F843001F52091521030915310F801EA5BFF4F80819181821B930B63E270E00E9433B2B3E26B9FF0011124E20FF31F6181D70112968C911297882321F4828193810E94E12BA7014B5F5F4FF8018081918163EAAD
S2840061000E941A222DC1D8011796CC901797C694DD24B1E0CB16D104D1F0E2E0CE16D10424F4C114D10461F022C1F2E0CF16D10409F4FCC023E0C216D10409F018C17DC0C801D70112966C910E94E52710C1F80180858F70813009F00AC1D70119968C910E9468256EA77FA788AB99AB609016047724F801808582958F70681A7108D7019E
S28400618012966C911297662351F50E94D7264C01AA24BB242FEF31E040E050E082229322A422B522062C02C0CC0CDD1C0A94E2F79601442737FD4095542F6EA57FA588A999A90E9408B2860E971EA81EB91ED80113968D929D92AD92BC92169724C06E3C11F0603F61F4A7014B5F5F4FF801808191810E941A22C7010E94BA21A3C20E94F6
S284006200D726917028EE33E002C0220F331F6A94E2F73901820F931FA0E0B0E0F80183839483A583B683D80118968C911897807F826018968C93189774C0F80180858F70813009F094C02091EF1030E08091F21090E001972817390759F1E0910C0F7091F110272F30E080E090E01FC00196A901062E02C0559547950A94E2F740FF15C024
S284006280C101062E02C0880F991F0A94E2F7809587238093F1108091F010860F8093EF1085EF90E10E94070F62C0682F8E17F0F2D70119968C910E9468252091160430E0F801408542954F70241B3109A10102C0440F551F2A95E2F79A01442737FD4095542F0E9408B27B018C01C0900211D09003110E94D726A0E0B0E09170A070B070C7
S2840063008E0D9F1DA01FB11FF60183839483A583B683E0910211F09103118085807F8260808787E194E00E94987521C02091521030915310F801EA5BFF4F80819181821B930B63E270E00E9433B243E2649FF0011124E20FF31F8281938161810E94E12BC7010E94BA2103C081E0282E312C85E294E00E9455737C01009709F078CEE2C1CF
S2840063808AE394E00E9455735FE3E51654E0F50651F0D8011A96ED91FC911B9780818370813009F0C3C1F80162855385E62FF52F4081A42FA07446FF14C070914D1020914A1030E0B0914E10872F90E08B0F911D821793070CF0AAC180914B10781708F0A5C1242F2C70243009F4A0C1AA2359F0842F8370823009F499C1283009F496C1FB
S2840064002C3009F493C145FD91C1D80112966C90B62DB13079F0B23009F088C18081837090E0009729F08230910509F07FC180C02C3039F0C8010E94322D882309F492C175C1E62EF52EF8016581768180E394E0D70118964C910E942A74882309F466C1F8018185893008F461C12B82D70111968D919C9112979D838C83858196810E9479
S284006480FF67FC01009791F0AF8680818A8B81818B8B82818C8B83818D8B84818E8B85818F8B8681888F8781898F06C06F86F80185819681998B888BD80117968D919C9118979B8F8A8FF70187818C8F858196819E8F8D8F8381948198A38F8F19968C91199790E009979AA389A31A968D919C911B9709969CA38BA31DA2BEA252968C9177
S28400650052978FA31C968C911C9788A71E968D919D910D90BC91A02D89A79AA7ABA7BCA7D8011D968C918DA7C4010E949C2BFEC0E62FF52FE0904F10F090501080914A10BEE58B9FC00111248E0D9F1DEBC0D70117966C91179760FFE1C018962C9118972F70223009F0DAC0AA5BBF4F7C9111966C90D7012D913C91D80115964D915C9149
S2840065801697D90113962D913C9114974217530709F0C4C0A72FB62D378117962C911797321709F0BBC04481558114962D913C9115974217530709F0B1C04281538112962D913C9113974217530709F0A7C0318116962C911697321709F0A0C0368111962C911197321709F099C06E7F623031F4F7018085807F836080873EC0663009F0BB
S2840066008DC091858091F010981709F08FC060910C0F262F30E0C601062E02C0880F991F0A94E2F781959285982B9287D70118968C911897807F836018968C931897E285EF3FE1F54091F21050E07091F010E72FE150CA01871B9109281739070CF4C9018E0F8093EF1090E0415050408417950741F4C7010E940621C70160E00E94E52704
S28400668055C0760F7093F010809116048093F4107093EF10F20102C0EE0FFF1F6A95E2F7BF0160956E7F6093F1106091021170910311DB018D919C9111972DC0E095E093F11080E090E02E2F30E01BC00196A901072E02C0559547950A94E2F740FF11C0C601072E02C0880F991F0A94E2F780958E238093F1108091F010870F8093EF1004
S28400670003C0782F861710F36091021170910311FB01808191810E94C32208C02EE530E0E20EF31EE816F90608F411CFD80156961C9256975496ED91FC915597C8014696099510C0222423940FEAB02E4E010894811C911C13E0A12EB1E0CB2ED12CAFEF4A2E512C00913A0410913B04E0901204F09013040115110509F002CEE1FE0CC0F1
S28400678006C180E494E0B8010E946673C80163EA40E050E00E941A2200914004109141040115110571F7FDC080910211909103110097A1F0C8010E943E21882351F40EC0F80190818181092F182F0115110509F4E8C0C8010E943E21882391F7D8015796EC905797E7FC62C0C8010E943E21882349F08091041190910511009709F456C025
S284006800E2FE54C0F801838994898036910510F0E3FE4EC0D8015296CC905297CC2031F08C2D0E94652B009709F48AC02E2D2470E2FE0EC0F8018281823039F483819481FFEF883F9F0720F07BC0813009F478C0D80112968C911297982F9250923040F41D968C911D97815F8E3008F064C168C0882309F060C1222309F45DC1F801E088F6
S284006880F1880E94AA3A4C0180E090E007C0DC011B962C911B97213009F452C0B7014C2D94010E94B825009791F745C12AEA49C020EA47C0C8010E943E21882311F083E007C0F801878982FF02C081E001C080E00E944F217C01FEE5CF2EF6E2DF2E18C180E00E944F217C01E0EACE2EE4E2DE2E0FC1C80105960E94B36C0097F9F0DC0147
S2840069008D919C91F801948383836282C8010E943E21882311F083E009C0D80157968C91579782FF02C081E001C080E00E944F217C0173ECC72E72E2D72EEAC029EA01C026EACC24DD24EE24FF2480E494E0B8012BAB0E9466732BA9222391F4F70111830083C8010E943E21882319F0C7010E940621C801B701F6010995282F882349F0B6
S284006980C801622F40E050E00E941A2202C062E0662E00914004109141040115110509F003CF8091120490911304F5E080309F0721F026E08031920781F520E03EE528C0239F80011124E0914F10F0915010E00FF11F87818330D9F480858F70843011F08230A9F48081918163EA40E050E02BAB3AAB0E941A2280914F1090915010800FD3
S284006A00911F8E5A9F4F0E94BA213AA92BA92F5F80914A102817A0F260C034E08F33930709F05BC000E01EE553C0019FC0011124E0914F10F0915010E80FF91F978190FF46C08085282F2F70243009F040C09E7F923011F09630D9F5807FA9F18085982F9F709130A1F1807F805181608087809128048F5F8093280487818E7F823049F447
S284006A80CF0109960E943A5E87E194E00E9498751EC08630E1F48091F1108E7F8093F1108091F0108093EF108091F41081508093F4106091021170910311DB018D919C910E94C32204C0CF0167EA0E94E5270F5F80914A10081708F4A8CF8091120490911304B5E080309B07B9F580912804882399F514C080E00E947F2980E196E09093FA
S284006B00130480931204C80160E00E94962224C0E114F10409F445CF20E017CF0091420410914304F801838194818D7F94838383009791F4DFCFD80112968C911297813009F4CECE813008F4B5CE823009F4DECE833009F0F5CECDCEE396E2E10C9485B280E191E09093130480931204109243041092420410921504109214041092470443
S284006B80109246040E94EC260E94CB6E089529E1FC0122830E948D2408952AE8FC0122830E948D24089525ECFC0122830E948D24089590915110E0915210F091531080E005C02081B3962223D1F48F5F8917C8F390914A10E0914F10F091501080E006C02781E25AFF4F20FD0CC08F5F8917C0F381E090915410992329F480E0089581E02F
S284006C00089581E00895A2E0B0E0E9E0F6E30C9479B29091140470911504272F30E0692F6F5F683008F060E0A901062E02C0569547950A94E2F740FF1CC06093140481E090E0062E02C0880F991F0A94E2F787278093150470E0660F771F665A784FCE01019642E050E00E9404B3E981FA81099504C09617A9F69093140480911504882305
S284006C8061F02FB7F89480914F049091500480629093500480934F042FBF2296E2E00C9495B280916F0F8530A1F0863028F4882349F0823029F40DC0843169F0863149F080E008958091680F882329F08B3028F402C082E0089588E0089582E008950E945136282F30E03695322F222737952795982F990F990F980F290F311DC9010895A3
S284006D00833014F083E01BC0982F9A5F923010F48BEF15C0982F985F923010F489EF0FC0982F965F923010F487EF09C0982F925F943010F484EF03C0823F0CF48FEE80936D0F0895CF93DF930E94F4B2EC0124E0CC0FDD1F2A95E1F7C0700E94F4B2282F30E02C2B3D2BC901DF91CF91089580916F0F8530E9F0863028F4882349F08230C3
S284006D8029F40EC0843191F0863171F080E008958091680F882351F08B3050F489E108958091680F882331F488E2089582E3089580E1089580E10895CF93DF930E946F36EC010E94B73690E08C9FB0018D9F700D9C9F700D112480E090E028EE33E040E050E00E9447B22F5F2093670FDF91CF910895FF920F931F93CF93DF93C8E6DFE0DA
S284006E008BE08093680F80E098EFAFEFB7E08093690F90936A0FA0936B0FB0936C0F8E010B5F1F4F83E0B8010E94810E80916D0F0E94803683E0B8010E949C0EFF24F394F0926E0F10926F0F0E946F369093710F8093700F0E945136982F990F990F980F9093720F0E9451368093730F8E010C52104086E390E0A0E0B0E0F80180839183A5
S284006E80A283B38314821582F6821086178211860E94A236F8018287A1978FEF838789838A838B838C838D838E838F83CFEFDFEFD48BC38B0E94A236F801858B85E0868B84E0878B83E0808F818FD38FC28F80E2848F158E168ED0A3C78F11A612A60E94DC36CDB7DEB7E5E00C9492B20F931F93CF93DF93EC010E94B736182FBE0180E0D1
S284006F0090E020EC33E040E050E00E9408B2212F30E040E050E00E9408B228EE33E040E050E00E9447B2B901CA01DF91CF911F910F910895A4E0B0E0E0EAF7E30C9479B2DC018C91282F30E0205430402434310508F0E6C029513F4FF9010C94A0B211968C9111978093410F08C011968D919C9112979093440F8093430F80E027C111968B
S284006F808C911197853308F020C18093450FF5CF11968C9111978093460FEFCF11968C9111978093470F12968C9112978093480F13968C9113978093490F14968C91149780934A0F15968C91159780934B0F16968C91169780934C0F17968C91179780934D0F18968C91189780934E0FC6CF11968D919C9112979093500F80934F0FBDCFCE
S28400700011968C9111978093510FB7CF11968C911197863008F0D9C08093530FAECF11968C9111979091520F981708F4CEC08093550FA3CF11968D919C9112979093570F8093560F9ACF11968C9111978093590F94CF11968D919C91129790935C0F80935B0F8BCF11968D919C9112970E94763769837A838B839C8382E0BE016F5F7F4FE5
S28400708084C0BD016F5F7F4F82E07FC011968C91119780935D0F12968C91129780935E0F13968C91139780935F0F14968C9114978093600F15968C9115978093610F16968C9116978093620F17968C9117978093630F18968C9118978093640F4ECF11968C9111978093400F48CF11968C911197883008F06AC08093540F3FCF11968C9110
S28400710011978093580F39CF11968C9111978093520F33CF11968C9111978093660F2DCF8330B1F1843028F4813041F0823008F507C08430A9F1883008F045C08BEF46C011962C918091690F90916A0FA0916B0FB0916C0F022E04C0B695A795979587950A94D2F781709070009779F12093680F27C011968C911197982F905E903428F5F1
S2840071800E94803683E06DE67FE00E949C0EF5CE11968C9111978430C0F480936E0FEDCE11968C911197853049F0863018F4833060F404C0843111F0863139F480936F0F0E94DC36DACE84EF01C088EE2496E2E00C9495B2A0E0B0E0E0EFF8E30C946DB2E090530F6091520F70E02091550F30E04E2D50E0CB01821B930B481759070CF4F1
S284007200CA01AA2797FDA095BA2F0097A105B10521F481E090E0A0E0B0E0E0E0AA24BB2465013C014D0108946108710881089108E901219702E010E013C09E012E0F311DA80102C0440F551F2A95E2F79A01442737FD4095542FA20EB31EC41ED51EEF5F2E2F30E040E050E0621673068406950620F7FF2400E010E0E81AF90A0A0B1B0B46
S2840072806150704022E030E002C0220F331F6A95E2F721503040442737FD4095542FC801B7010E9408B26A0D7B1D8C1D9D1D24E130E040E050E00E9408B27B018C010E946F36A0E0B0E0E80EF91E0A1F1B1F0E94B736282F30E040E050E0C801B7010E9408B228EE33E040E050E00E9447B2B901CA01CDB7DEB7EEE00C9489B20F931F936F
S2840073000E94B736182F6091580F70E080E090E020EC33E040E050E00E9408B2212F30E040E050E00E9408B228EE33E040E050E00E9447B2B901CA011F910F910895A4E0B0E0E5EAF9E30C9473B28C01FC012081822F90E0805490408434910508F0BCC0855D9E4FFC010C94A0B28091410FF801818380E0EBC08091430F9091440FD5C094
S2840073808091450FF4CF8091460FF1CF8091470FF80181838091480F82838091490F838380914A0F848380914B0F858380914C0F868380914D0F878380914E0F68C080914F0F9091500FB1C08091510FD0CF8091530FCDCF8091550FCACF8091560F9091570FA3C08091590FC2CF80915B0F90915C0F9BC082E0BE016F5F7F4F0E94810E4D
S284007400C980DA80EB80FC80C114D104E104F104C9F00E94B736682F70E080E090E020EC33E040E050E00E9408B228EE33E040E050E00E9447B240E050E0C701B6010E9447B202C024EF31E0F8013283218391CFB8016F5F7F4F82E00E94810E8ACF80915D0FF801818380915E0F828380915F0F83838091600F84838091610F8583809135
S284007480620F86838091630F87838091640F808770CF8091400F6BCF8091540F68CF8091580F65CFF801118264CF80913C0F90913D0FA0913E0FB0913F0F2FC08091520F56CF8091660F53CF0E947E39F80161837283838394834DCF2330A1F0243028F4213099F0223058F407C0263011F1273049F1253051F517C08091680F38CF809110
S2840075006D0F35CF80916E0F32CF8091690F90916A0FA0916B0FB0916C0FF80181839283A383B48326CF0E946F36F8019283818320CF0E945136982F990F990F980FF801918317CF0E94513612CF84EF2496E8E00C948FB28DE59FE00895FC01808180935D0F818180935E0F828180935F0F83818093600F84818093610F85818093620F5E
S28400758086818093630F87818093640F0895BC018DE59FE048E050E00E940DB39C0181E02115310509F080E00895AF92BF92CF92DF92EF92FF920F931F935B016C010E945136E82E0E94B736FF2400E010E0282F30E040E050E0C801B7010E9408B2A60195010E9408B228EE33E040E050E00E9447B2B901CA011F910F91FF90EF90DF9020
S284007600CF90BF90AF9008952FEF8C3F9207D9F02FEF8D3F920728F42FEF8B3F9207F1F409C02FEF8D3F9207A1F02FEF8F3F9207A9F416C080911C108130A1F49091B80F92FD11C00BC081E090911C10923058F005C09091B80F81E093FD05C080E0089581E0089580E0089581E0909173119A3A09F080E00895E0915911F0915A11209165
