:100000000C944E040C9496180C94C3180C94F0188D
:100010000C941D190C944A190C9477190C94A4197A
:100020000C94D1190C9486040C9486040C948604C8
:100030000C9486040C9461150C9486040C94AA15F7
:100040000C9486040C9486040C9486040C94860408
:100050000C9486040C9486040C9486040C948604F8
:100060000C94C21B0C94D6170C947A170C94A817F6
:100070000C9486040C945C1B0C94791A0C948604E2
:100080000C9486040C9486040C9486040C948604C8
:100090000C9464180C9408180C9436180C94FE19DF
:1000A0000C9486040C9486040C9454170C942BB472
:1000B0000C9486040C9486040C9486040C94860498
:1000C0000C9486040C9486040C9486040C94860488
:1000D0000C9486040C9486040C9486040C94860478
:1000E0000C9486040C9486040C9486040C94860468
:1000F0000C9488B40C9486040C9486040C94B0B4CC
:100100000C9486040C9486040C9486040C94860447
:100110000C9486040C9486040C9486040C94860437
:100120008E0B08000000A90B01000100D60B08008F
:1001300002003E0B04000300560C010004004D0CAD
:1001400001000500B90B01000600BA0B0100070011
:10015000BB0B01000800C50B11000900AA0B02002F
:100160000A00B00B01000B00580C02000C00500CF0
:1001700001000D00660C01000E00E00B01000F00F5
:10018000E10B02001300EA0B010014005C0C0800F4
:100190001500AF0B010016009D04BD0017001109EA
:1001A00003001800FE0A160019004C0410001E007F
:1001B0006C0404001F00740402002000780417007F
:1001C0002100A60414002200CE0411002300E32A1B
:1001D0008C2B502C6A2C832CA62DD32DAA31AA311E
:1001E000AA31AA31AA31AA31AA31AA31AA312C2DB9
:1001F0003A2DAA31752A5E2D3D2C01320E32303255
:100200002A32273230323A323334333433343334CF
:10021000333433343334333433342A3230323334B6
:10022000FE312D321E32644E754DA94EA94EA94E97
:100230007B4D854DA94EA94E8E4D944DBD4DC64D5D
:10024000A94ECC4DD54DE04DA94EE94DEF4DA94EEF
:10025000F84D354E4A4EA94E3B4E444E644E644EC8
:10026000644E564E564E564E564E564E564E564E60
:10027000564E564E564E564E564E564E564E564E5E
:10028000564E564E0C4E564EA94EA94EA94EA94E4C
:10029000A94EA94EA94EA94EA94EA94EA94EA94EA6
:1002A000A94EA94E564E504E644E564E074E1B5008
:1002B0007B4F6B506B506B50814F864F32506B5061
:1002C000894F8C4FA54FAA4F6B50AD4FB04FB34FD6
:1002D0006B50B84FBB4F3250C04F0F5024506B5033
:1002E000125015507F4F1850185032503250325023
:1002F00032503250325032503250325032503250EE
:10030000325032503250325032503250F54F32501B
:100310006B506B506B506B506B506B506B506B5005
:100320006B506B506B506B506B506B503250275072
:100330002A503250EE4F89518E51935198519D5110
:10034000A251A751A751B551B851D151BB51BE517E
:10035000C151C451D151C751CA51D151CD51C755C5
:10036000035603560356CD55E655D955DF5513565A
:10037000D355EC55EC55F25503560A560E565E56BB
:10038000615664566456675673566D56705683565A
:100390006A56765679567C567F56425846586E585D
:1003A0004A584E586E5852586E58605864586B5898
:1003B000AB5C6A5D7C5D655CC25DC25D775D7C5DEA
:1003C0007F5DAD5D965DC25DC25DAD5D995CB05D0A
:1003D000407B487BD47A957B957B1B7B287B957BE8
:1003E000957B957B527B617BF47A007B957BD17A00
:1003F000337B4B804B80D87FDF7FDF7FEB7FEB7FD2
:10040000FC7FFC7F2280228022809B804B80E896AC
:10041000F596229734973B9748975597609768973A
:100420008697B0977297C8ABD0ABE2ABEBABEDABB6
:10043000EFABF1ABF4ABC5AC3EAD3EADEDACF3AC68
:1004400002AD08AD0BAD0EAD11AD17AD0000010052
:100450000200030004000500060007000800090070
:100460000A000B000C000D000E000F00130014001A
:10047000150016001A001B00000001000200030016
:100480000400050006000700080009000A000B0030
:100490000C000D000E000F001300140015001600D4
:1004A00017001800190000000100020003000400FA
:1004B000050006000700080009000A000B000C00F8
:1004C0000D000E000F0013001400150016000000B0
:1004D00001000200030004000500060007000800F8
:1004E00009000A000B000C000D000E000F001800A0
:1004F00000000000000000000000000000000000FC
:1005000000000000000000000000000000000000EB
:1005100000000000000000000000000000000000DB
:1005200000000000000000000000000000000000CB
:1005300000000000000000000000000000000000BB
:1005400000000000000000000000000000000000AB
:100550000000000000000000000000000102010097
:1005600002020508080000FFFF341200000000002E
:1005700000000002020100800000000000000000F6
:10058000000000000000000000000000000000006B
:10059000000000000000000000000000000000005B
:1005A0000500FF00000200001E00000334120103DA
:1005B0000300001027000010270000010001E803DD
:1005C000000004E80300001041746D656C202020D9
:1005D000202020202020202000000000000000001B
:1005E000030100850000000705070402050204025C
:1005F000040308010803020A01005F0035000E0130
:1006000014108E0B0800980B0100A50B0400A90B19
:100610000100540C0100550C01005C0C0800580C42
:100620000200E10B0200EA0B0100500C0100660C15
:100630000100560C0100AC0B0100AD0B0100AE0B2C
:100640000100AF0B0100AA0B0200B00B0100520C1D
:100650000100510C0100680B01006A0B0100D60B70
:1006600008003E0B0400BC0B0400B10B0400B50BEA
:100670000400B90B0100BA0B0100BB0B0100C50B54
:1006800011004D0C0100C00B0100C10B0400DE0B7A
:1006900001006B0B0200E00B0100DF0B010000000A
:1006A0000000E3050200E7050100E5050200E90599
:1006B0000100EA050100EB050100EC050100ED0574
:1006C0000100EE050100EF050100F0050100E8055D
:1006D0000100F1050100F205010000060200F50528
:1006E0000100F6050100F7050100FC050400F30513
:1006F0000100F4050100F8050100F9050100FA0503
:1007000002007E0300009D040000030400005A055F
:1007100000000000000084050000740A0000CC0AFC
:10072000000060080000B20800007C080000E90832
:100730000000140900002E0A000000000000000064
:10074000000011090000FE0A0000140B0000780EE2
:10075000670F7C0E800E630F840EB940E3450000E6
:1007600000000000000000000000967ECB7EA392F7
:10077000F79F97723F850C7EA777926E997B779053
:100780009871DB9B3C6E768ECB6D00000000000004
:100790000000000000000202030202020101010148
:1007A000010101020201010102020202020202022F
:1007B0000202020202030302020302897569710147
:1007C00007AA99E4800101AA99E48001013F756CB0
:1007D000780101C774F99C0101C774D29C01077F9D
:1007E00074757E01012674909C01010000000001D7
:1007F0000700000000010100000000010300006A82
:100800006A010400006A6A01050000000001060098
:10081000000000010C000000000101AA9900000086
:100820000100000000010D000000000107000000B1
:1008300000010900000000010000000000010100AB
:10084000000000010100000000000000001D6F001A
:100850000700001D6F000B00001D6F000000001D51
:100860006F003F67B36B876761678067000046670B
:10087000546779674D67A96B2067216A286A9A6A6D
:10088000136A8E670000736C179F519EF392179D39
:1008900000009994CF780973000000001124809122
:1008A0002713823141F084B78F718093271380FF23
:1008B00005C081E001C081E18093271314BE8091BF
:1008C00060008861809360001092600011241FBE58
:1008D000CFEFD1E4DEBFCDBF12E0A0E0B2E0EEE4A6
:1008E000FCE601E00BBF02C007900D92A237B107F2
:1008F000D9F713E1A2E7B2E001C01D92A732B10718
:10090000E1F70E94D41E0E94961EFDCF0C940000B9
:100910007F937FB7F8949D9AA5988AEF0E94E70489
:100920008AEF0E94E7049D9886E40E94E70481E034
:10093000959980E08F9380EF0E94E7048F917FBFAD
:100940007F9108957F937FB7F8949D9AA59886E04C
:100950000E94E7049D988AE00E94E7048894959994
:100960000894881F8F9384E60E94E7048F917FBFCD
:100970007F9108959F937F9398E00E94A2048795AA
:1009800077959A959923C9F7872F7F919F9108951D
:100990007F937FB7F894A5989D9A8F9386E00E94E5
:1009A000E7048F91879508F49D988F9384E60E94C1
:1009B000E7048F919D987FBF7F9108959F9398E062
:1009C0000E94C8049A959923D9F79F910895000031
:1009D0000000000000008A958823C9F708955F93FE
:1009E0007F937FB7F894CF93DF93C0E0D0E07F93FD
:1009F0005091B2007091B2007517E1F37395219692
:100A00005091B2005717D9F77F91CE01DF91CF9166
:100A10007FBF7F915F9108950F93DF93CF93CDB701
:100A2000DEB760970FB6F894DEBF0FBECDBF0023D0
:100A300009F459C029833A834B835C836D837E8399
:100A40008F839887E0E2E01B29813A814B815C81AA
:100A50001E16BCF019861A861B861C868E2F9927B7
:100A600087FD9095909581959F4F04C0220F331F6D
:100A7000441F551F8A95D2F72D873E874F87588B85
:100A80002AC0CA01B901002E04C0660F771F881F53
:100A9000991F0A94D2F769877A878B879C87DA0136
:100AA000C90104C0B695A79597958795EA95D2F7A1
:100AB0002D813E814F81588504C0220F331F441F72
:100AC000551F0A95D2F7822B932BA42BB52B8D871C
:100AD0009E87AF87B88B29853A854B855C856D8568
:100AE0007E858F85988960960FB6F894DEBF0FBE1D
:100AF000CDBFCF91DF910F91089508950895089586
:100B0000089508950895A6E0B0E0E9E8F5E00C94B2
:100B100047B58E010F5F1F4F26E0F80111922A950D
:100B2000E9F7FC0123E0F695E7952A95E1F7E00F58
:100B3000F11F8770907021E030E002C0220F331F58
:100B40008A95E2F72083C8010E94AF09D801ECE53D
:100B5000F3E0CE0107963D912081232B2193A81726
:100B6000B907C9F78091770384608093770326964D
:100B7000E4E00C9463B502C00E94D11E0E94B21141
:100B80008823D1F708950F931F93CF93DF938C01A0
:100B9000EB010E94BB05C801BE010E94D9102FEFD6
:100BA0008F3F920739F085E0C238D80729F40E94B8
:100BB000BB0502C081E001C080E0DF91CF911F91B1
:100BC0000F9108950F931F93CF93DF938C01EB0147
:100BD0000E94BB05C801BE010E943D112FEF8F3F4F
:100BE000920739F085E0C238D80729F40E94BB0586
:100BF00002C081E001C080E0DF91CF911F910F9191
:100C000008952F923F924F925F926F927F929F92A0
:100C1000AF92BF92CF92DF92EF92FF920F931F930A
:100C2000DF93CF93CDB7DEB762970FB6F894DEBFF0
:100C30000FBECDBF8091770382608093770382FFE0
:100C400094C082E792E06CE573E00E94600A8091B4
:100C500077038B7F8093770388C0E0907802F090D1
:100C60007902F70103E0F695E7950A95E1F7E65B6F
:100C7000FC4FC70187709070960102C0220F331F8E
:100C80008A95E2F7C901809592898923828B6985CB
:100C90007A854B855C8580E00E94800A982E588A70
:100CA0004F863A8A298A8F81988505979E878D87F6
:100CB000C50162E875E00E94C3058A819816A1F516
:100CC0008D819E81E816F90679F52B853C858B810F
:100CD0009C812817390741F581E090E08C0F9D1F1A
:100CE000988B8F87DA8AC98A00E010E017C08F815D
:100CF0009885800F911F9E878D87C50162E875E0FA
:100D00000E94C305AF85B889E985FA85E00FF11F18
:100D10009C918081981741F40F5F1F4F8B859C85B4
:100D20000817190720F336C09A82FE82ED828B8560
:100D30009C859C838B83CE010296988B8F8785E060
:100D400090E09A8B898B8F81988505979E878D87F8
:100D5000CE010D9662E875E00E94E205CE0107968D
:100D600061E076E00E94E20527C017E0612E712C59
:100D70006C0E7D1EB1E0CB2ED12CA2E04A2E512C60
:100D80004C0E5D1EF5E02F2E312CEDE0AE2EB12C79
:100D9000AC0EBD1E82E792E0B3010E944F0988238A
:100DA00009F05BCF809177038D7F809377038FE08D
:100DB00060E070E00E94EC1D62960FB6F894DEBF12
:100DC0000FBECDBFCF91DF911F910F91FF90EF909C
:100DD000DF90CF90BF90AF909F907F906F905F908B
:100DE0004F903F902F900895282F392FF90180E0E0
:100DF0009191992329F48F5F8630D1F780E008958F
:100E000081E008959C01CB0146E0DB011D924A95EB
:100E1000E9F7F90143E0F695E7954A95E1F7E60F22
:100E2000F71F2770307041E050E002C0440F551F9B
:100E30002A95E2F72081242B20830E94AF09089590
:100E4000972F882319F08130A1F40EC0A2E6B3E0F9
:100E5000E62FF72F9D9180818923819383E0A83627
:100E6000B807C1F791E006C0862F0E94F20A91E010
:100E7000811190E0892F08950E9483058091770366
:100E800081FD02C00E94010681E00895A6E0B0E065
:100E9000ECE4F7E00C9447B58E010F5F1F4FB801EB
:100EA0000E94020780E0B8010E942007C8010E944A
:100EB000F406882381F0A6E5B3E0F8019D918081D6
:100EC0008923819383E0AC35B807C1F7CE01019641
:100ED0000E94F40601C080E02696E4E00C9463B51D
:100EE000A8E1B0E0E6E7F7E00C943DB500E211E0E0
:100EF00010934B0300934A038AEA91E090934D03C9
:100F000080934C038AEA91E0801B910B26E030E04D
:100F1000B9010E9403B580914E0390914F03682B55
:100F2000792B70934F0360934E038EEC91E08A5AB5
:100F30009140B9010E9403B58091500390915103F3
:100F4000682B792B709351036093500310925203D6
:100F500010925303109254031092550386E0E2E678
:100F6000F3E0DF011D928A95E9F7AA2483E1882E38
:100F7000912C8C0E9D1EB1E0CB2ED12C38C0C4011B
:100F8000B80146E050E00E94D4B58D899E8905964F
:100F9000A0E0B0E0209152033091530340915403FC
:100FA00050915503820F931FA41FB51F80935203C6
:100FB00090935303A0935403B09355038F89988D56
:100FC000FC01A3E0F695E795AA95E1F7E65BFC4FF7
:100FD00087709070960102C0220F331F8A95E2F746
:100FE000C901208D282B208F0A5F1F4FA3942091C9
:100FF0004E0330914F038A2D90E08217930708F437
:10100000BECFC901880F991F820F931F880F991FA8
:1010100004966C01EE24FF24CE010D969A878987F1
:1010200086E090E09C878B87AA24BB2400E010E038
:1010300067E0862E912C8C0E9D1E53E1652E712C3F
:101040006C0E7D1EF80143E0F695E7954A95E1F7B1
:10105000E65BFC4F808D90E098012770307002C0F5
:10106000969587952A95E2F780FF3DC0C501880FC8
:10107000991F8A0D9B1D880F991F049698878F834F
:10108000C40162E875E00E94C30589899A898017C6
:10109000910749F48D859E85AF85B8898C159D058E
:1010A000AE05BF0559F01A8B098BCD86DE86EF861B
:1010B000F88AC40162E875E00E94E205C8010E9456
:1010C0009308BC01C30146E050E00E94D4B58D896D
:1010D0009E890596A0E0B0E0C80ED91EEA1EFB1E50
:1010E0000894A11CB11C0F5F1F4F0D32110509F0B0
:1010F000A9CF0E948A08CE0101960E94F20A689642
:10110000EEE00C9459B580917503909176030E949E
:101110003C0708951092720383E898E0909374035B
:10112000809373030895A2E0B0E0E9E9F8E00C943D
:101130003FB54C0100914A0310914B03EE24FF246C
:101140005E010894A11CB11C13C06801B8016C5F5A
:101150007F4FC50142E050E00E94D4B50A5F1F4FA7
:1011600089819A818815990561F00894E11CF11C28
:1011700080914E0390914F03E816F90630F3CC248A
:10118000DD24C6012296ECE00C945BB5A2E1B0E050
:10119000ECECF8E00C9446B58B01BC0153E076957D
:1011A00067955A95E1F7FB01E65BFC4F208D30E037
:1011B000AC014770507002C0369527954A95E2F70A
:1011C00020FF4AC0DE011D96E2E6F3E026E0019032
:1011D0000D922150E1F7FF2420E030E0FE013D9622
:1011E0001BC0DF01A40FB51F4C91542F56955575A8
:1011F0004575540F452F4695469543735373450FD8
:101200004C93A42FA295AF7050E04F7050704A0FCE
:10121000511D240F351FF3944F2D50E046175707EB
:1012200000F3A0E087709070FE013D96E60FF71F77
:101230000DC0408150E00A2E02C0569547950A9491
:10124000E2F741705070240F351FAF5F4A2F50E016
:101250004817590770F302C02FEF3FEFCE010796F2
:101260009C838B83C901880F991F820F931F880F5E
:10127000991F04969A83898386E090E09E838D83EC
:10128000CE01019662E875E00E94C3058F819885C2
:10129000F801918380836296E5E00C9462B5A6E044
:1012A000B0E0E5E5F9E00C9445B57C018B0180E008
:1012B00090E0FC0163E0F695E7956A95E1F7EE0DA5
:1012C000FF1D6081AC0147705070262F30E0042E66
:1012D00002C0369527950A94E2F720FF10C021E05E
:1012E00030E002C0220F331F4A95E2F720952623F3
:1012F00020830E949308BC01009731F426C0019618
:101300008D329105B1F621C0CE01019646E050E044
:101310000E94D4B589819A81F801938382838D815B
:101320009E81B8010E94C608F801808191810596CE
:10133000918380838B819C81958384838D819E8121
:10134000F7019783868381E006C08FEF9FEFF70157
:101350009783868380E02696E6E00C9461B54F92F1
:101360005F926F927F929F92AF92BF92CF92DF92E5
:10137000EF92FF920F931F93DF93CF93CDB7DEB71A
:1013800028970FB6F894DEBF0FBECDBF8C01309109
:101390004C0320914D03FC01858186FD12C0C901DB
:1013A000E92EF82ECC24DD2483E0482E512C4C0E5F
:1013B0005D1EB1E0AB2EB12C3E010894611C711C86
:1013C00061C0C8016FEF70E046E050E00E9405B6D2
:1013D00061C0C201B70146E050E00E94D4B52F8140
:1013E0003885F901A3E0F695E795AA95E1F7E00FB6
:1013F000F11F408127703070842F90E0022E02C0D0
:10140000969587950A94E2F780FF35C0C50102C022
:10141000880F991F2A95E2F79C01209524232083A9
:10142000992422C0880F991F6B817C81680F791FD6
:10143000C30142E050E00E94D4B589819A81FC0149
:1014400073E0F695E7957A95E1F7E00FF11F877065
:101450009070950102C0220F331F8A95E2F7C901EF
:101460002081282B20839394892D90E02D813E812B
:1014700082179307B8F20894C11CD11C86E090E053
:10148000E80EF91E8091500390915103C816D906B9
:1014900008F49FCF28960FB6F894DEBF0FBECDBFDD
:1014A000CF91DF911F910F91FF90EF90DF90CF9040
:1014B000BF90AF909F907F906F905F904F900895F6
:1014C000CF93DF93EC018FEF9FEF9F838E83DE013D
:1014D000862F972FFC0186E001900D928150E1F755
:1014E000CE010E94AF09E2E6F3E091918881892361
:1014F000899383E0E836F807C1F7DF91CF9108952B
:10150000262F372FF90120E030E004C09191890F98
:101510002F5F3F4F24173507C8F30895ACE0B0E0C4
:10152000E4E9FAE00C9442B57C018B01CE0102960D
:101530009A87898785E090E09C878B87FB01808173
:101540009181059798878F8387E0C82ED12CCC0E88
:10155000DD1EC60162E875E00E94C3058D819E8193
:10156000E816F906C1F5F801248135818B819C814B
:101570002817390781F5CE0101969A87898781E07E
:1015800090E09C878B87EE24FF24BB24C601DC2CD3
:10159000C92E18C0F801808191818E0D9F1D9887FA
:1015A0008F838D2D9C2D62E875E00E94C3056985AF
:1015B0007A858B2D41E050E00E94800AB82E089475
:1015C000E11CF11CF80184819581E816F90610F3FD
:1015D0008A81B81611F082E001C080E02C96E9E023
:1015E0000C945EB5AEE0B0E0E8EFFAE00C9441B5E3
:1015F0008C0147E0E42EF12CEC0EFD1EC701B80172
:101600000E94600A86E0D8011D928A95E9F7BE2CF7
:10161000AF2C7E010894E11CF11C31E0C32ED12CCB
:101620001DC08D859E85B7010E948E0A8823B1F466
:101630008D859E85FC0123E0F695E7952A95E1F7D7
:10164000E00FF11F87709070960102C0220F331FC8
:101650008A95E2F7C9012081282B20838B2D9A2DB2
:10166000B7010E944F098823E1F62E96EAE00C9418
:101670005DB580917A0280FF07C080917A028E7FEB
:1016800080937A020E94760B80917A0281FF07C0D4
:1016900080917A028D7F80937A020E94BA0B8091AA
:1016A0007A0282FF07C080917A028B7F80937A0250
:1016B0000E94C30B80917A0283FF07C080917A0257
:1016C000877F80937A020E94CC0B80917A028823D4
:1016D00061F02FB7F8948091D4029091D502916077
:1016E0009093D5028093D4022FBF089580917B02FE
:1016F00081FF12C080917B028D7F80937B0280915D
:101700007B02846080937B02E0917C02F0917D02F9
:10171000309711F081E0099580917B0282FF29C00A
:10172000659B16C080917B028B7F80937B028091AA
:101730007B028E7F80937B02E0917E02F0917F029C
:10174000309711F081E0099585E00E946B0F0895B4
:1017500080917A02816080937A022FB7F894809109
:10176000D4029091D50291609093D5028093D402D7
:101770002FBF0895E0917A03F0917B0381E060E050
:1017800070E009950895E0917C03F0917D0381E07C
:1017900060E070E009950895E0917803F091790395
:1017A00080E090E00995089588E3EDE6FBE0DF0135
:1017B0001D928A95E9F785E08093980B81EE9BE076
:1017C00060EF74E046E850E00E94D4B58EE39BE001
:1017D00066E775E04FE250E00E94D4B58CE39BE0F1
:1017E00065EA75E042E050E00E94D4B585EA9BE0EE
:1017F00067EA75E04CE350E00E94D4B58EEB97E0C9
:10180000EEE7F3E0DF019C011D9221503040E1F74B
:101810000895A4E0B0E0EFE0FCE00C9449B5682F37
:1018200070E0660F771F660F771F6E5F794FCE01EE
:10183000019644E050E00E94D4B569817A818B81A1
:101840009C812496E2E00C9465B50E94D40B0E9422
:1018500070070895EF92FF921F93CF93DF93182F95
:10186000EB01209761F00E94090CAC01183220F0C6
:10187000CE010E94D4B503C0CE010E94EAB5DF912B
:10188000CF911F91FF90EF900895EF92FF92CF9329
:10189000DF93EB01209771F0883260F406C0CB0132
:1018A000BE01A9010E94EAB505C00E94090C9C0175
:1018B0000097A9F7DF91CF91FF90EF900895CF9314
:1018C000DF93EB010E94090C009711F47983688380
:1018D000DF91CF910895EF92FF920F931F93CF93D3
:1018E000DF9318C081E892E060E070E0AE010E94F2
:1018F000A1138A85882359F4EA82FB820C831D8315
:1019000081E892E0BE01A80197010E94E911EB85F0
:10191000FC85099580918102909182020097D9F00F
:101920000E9449177B018C01C0918102D0918202F3
:101930008A819B81AC81BD81A8019701281B390B4D
:101940004A0B5B0B8E819F81A885B98528173907C3
:101950004A075B0738F6CDB7DEB7E6E00C9461B511
:10196000CF93DF93EC01009771F0E0918102F09149
:10197000820206C0EC17FD0749F00190F081E02DCE
:101980003097C1F709C02FEF3FEF02C020E030E0F1
:10199000C901DF91CF9108950E9449179B01AC01C5
:1019A000198218826A837B838C839D8381E892E00D
:1019B000BE010E94E911EACFCF93DF93EC010097BB
:1019C000D1F080918102909182028C179D0749F09D
:1019D00081E892E0BE010E94C013BC01009719F497
:1019E0000AC060E070E081E892E0AE010E94A113BD
:1019F00020E030E002C02FEF3FEFC901DF91CF912F
:101A000008958F929F92AF92BF92CF92DF92EF9202
:101A1000FF920F930E94CD144B015C01209195021F
:101A200030E040E050E060E070E080E090E000E214
:101A30000E940C05282939294A295B290F91FF901A
:101A4000EF90DF90CF90BF90AF909F908F900895D0
:101A50008091870282FF0BC09FB7F8948091870224
:101A60008B7F809387029FBF0E946B0CA9C08091DF
:101A7000830280FF0BC09FB7F894809183028E7F12
:101A8000809383029FBF0E94C31C9AC080918302EF
:101A900081FF0BC09FB7F894809183028D7F809364
:101AA00083029FBF0E9430158BC08091870280FF08
:101AB0000BC09FB7F894809187028E7F8093870236
:101AC0009FBF0E94271B7CC08091870283FF0BC0B1
:101AD0009FB7F89480918702877F809387029FBF8A
:101AE0000E94BA1A6DC08091850286FF0BC09FB715
:101AF000F894809185028F7B809385029FBF0E941E
:101B000023145EC08091850287FF0BC09FB7F894B5
:101B1000809185028F77809385029FBF0E94880EF7
:101B20004FC08091860281FF0BC09FB7F8948091CF
:101B300086028D7F809386029FBF0E94CF1340C094
:101B40008091860282FF0BC09FB7F8948091860235
:101B50008B7F809386029FBF0E94B91131C0809114
:101B6000860280FF0BC09FB7F894809186028E7F1B
:101B7000809386029FBF0E942F1622C08091870209
:101B800081FF0BC09FB7F894809187028D7F80936F
:101B900087029FBF0E94B61013C08091870284FF06
:101BA0000FC09FB7F894809187028F7E8093870241
:101BB0009FBFE091670CF091680C309709F0099590
:101BC00080918302882381F480918402882361F4C8
:101BD00080918502882341F480918602882321F434
:101BE00080918702882361F02FB7F8948091D40206
:101BF0009091D50282609093D5028093D4022FBF3A
:101C00000895CF93DF93E82FF0E0DF01A05CB040B0
:101C100093E0B595A7959A95E1F7B0E0AA0FBB1FA1
:101C2000A857BD4F6D917C9111976115710599F180
:101C30004FB7F894EB012A813B81888199814FBF8E
:101C40002817390729F12D913C911197E901288D29
:101C5000398D280F391FE9013881019620812064D0
:101C6000208336830D90BC91A02D5A962D913C91E6
:101C70005B978217930711F480E090E02181206246
:101C800021832FB7F894FB01918380832FBF03C07A
:101C9000818180648183DF91CF91089590E0805CA1
:101CA000904033E0959587953A95E1F7E82FF0E07D
:101CB000EE0FFF1FE857FD4FA081B1811097B9F0DB
:101CC00090968C919097887191F42FB7F89418960C
:101CD0008D919C9119972FBF009749F00190F08149
:101CE000E02D048CF58DE02D309709F009950895CD
:101CF00080EC0E94010E089580EC0E944E0E089523
:101D000088EC0E94010E089588EC0E944E0E089502
:101D1000A3E0B0E0EEE8FEE00C9444B581E08983F6
:101D200006E010E0DD2452E0E52EF12CEC0EFD1E65
:101D300090918F0289818923B9F09FB7F8942091FF
:101D40008F028981822780938F029FBF6D2D70E063
:101D5000660F771F625B784FC70142E050E00E9438
:101D6000D4B5EA81FB810995D3948981880F898351
:101D700001501040E9F62396E7E00C9460B590918D
:101D80008F0221E030E002C0220F331F8A95E2F774
:101D9000922B90938F0280918502806880938502B8
:101DA0002FB7F8948091D4029091D50282609093DD
:101DB000D5028093D4022FBF0895CF93DF93C82F0D
:101DC000D0E0DE01A05CB040E3E0B595A795EA95D0
:101DD000E1F7B0E0AA0FBB1FA857BD4FED91FC91F2
:101DE0001197309721F489818F77898335C080A13D
:101DF00083FD32C0C489D58984FF0AC06883ED9110
:101E0000FC911197848995890196958B848B24C0C8
:101E1000209711F1268137818681978101969783DA
:101E2000868346815781868997894817590711F417
:101E300017821682468157818481958148175907F8
:101E400019F43783268308C0C20FD31F68838085A7
:101E50009185019691878087DF91CF91089590E0D9
:101E6000805C904033E0959587953A95E1F790E056
:101E7000DC01AA0FBB1FA857BD4FED91FC91119734
:101E8000309701F16FB7F8944281538120813181FD
:101E90006FBF4217530711F421E02287FC01EE0FB8
:101EA000FF1FE857FD4F0190F081E02D828D938D4B
:101EB000009711F4118E108E068CF78DE02D30975F
:101EC00009F00995089588EC0E942F0F089580EC81
:101ED0000E942F0F08958830C0F4E82FF0E0EE0F35
:101EE000FF1FEA55FD4F208131812115310569F031
:101EF0009DB321E030E002C0220F331F8A95E2F744
:101F0000922B9DBB20E030E002C02FEF3FEFC901D4
:101F10000895E0919002F091910287E0828380E938
:101F20008093BC00809187028260809387022FB7E4
:101F3000F8948091D4029091D50282609093D5025A
:101F40008093D4022FBF0895E0919002F091910206
:101F50008281823031F08281833019F08281843035
:101F600019F48581880F06C08281853049F4858106
:101F7000880F8F5F8093BB0085E88093BC00089535
:101F80000E94890F0895E0919002F09191022081C2
:101F90003181868197812817390780F4808191816A
:101FA000A085B185A80FB91F2C91019691838083DC
:101FB0002093BB0085E88093BC00089586E082836F
:101FC00084E98093BC0080918702826080938702BD
:101FD0002FB7F8948091D4029091D50282609093AB
:101FE000D5028093D4022FBF0895E0919002F09122
:101FF000910283859485A585B68520813181215004
:102000003040318320832081318143E0220F331F10
:102010004A95E1F704C0B695A795979587952A95B7
:10202000D2F78093BB0085E88093BC0080819181CA
:10203000009741F48281823019F484E0828308950C
:1020400085E082830895E0919002F091910282816F
:10205000843019F40E94C30F08958281823019F0F0
:102060008281833019F40E94F50F089582818530B2
:1020700021F485EA8093BC0008950E94890F089599
:10208000E0919002F091910282818530A1F48681E5
:1020900097818130910521F48091BC008F7B03C032
:1020A0008091BC0080648093BC008091BC008568F6
:1020B0008093BC0008950E94890F0895E0919002DA
:1020C000F09191029281953011F520813181A085A6
:1020D000B185A20FB31F8C932F5F3F4F31832083B5
:1020E000208131818681978101972817390720F453
:1020F0008091BC00806403C08091BC008F7B809382
:10210000BC008091BC0085688093BC0008950E944B
:10211000890F0895E0919002F0919102928195309B
:1021200011F520813181A085B185A20FB31F8C9359
:102130002F5F3F4F3183208386E0828384E9809341
:10214000BC00809187028260809387022FB7F89449
:102150008091D4029091D50282609093D5028093B1
:10216000D4022FBF08950E94890F0895A091900274
:10217000B09191021F96ED91FC9150973097A1F08C
:1021800012968C911297863049F48091BC0084FDA0
:10219000FCCF81E012968C93129704C081E01296D6
:1021A0008C9380E00995089581E012968C931297A4
:1021B0000895FC0180919202882309F057C030975E
:1021C00009F457C08481958120813181820F931F4A
:1021D00020E18130920708F04CC081E080939202A8
:1021E0007093700C60936F0CA9E6BCE086E00190E0
:1021F0000D928150E1F7F999FECF80E090E017C091
:10220000E0916B0CF0916C0CE80FF91F2091690CB8
:1022100030916A0CA9014F5F5F4F50936A0C409355
:10222000690C32BD21BDF89A20B52083019620911A
:102230006D0C30916E0C8217930710F310926E0C98
:1022400010926D0C809186028460809386022FB775
:10225000F8948091D4029091D50282609093D50237
:102260008093D4022FBF20E030E005C02EEF3FEF77
:1022700002C02FEF3FEFC9010895CF93DF93FC0118
:102280009B0180919202882309F063C0309709F482
:1022900063C06081718184819581860F971F40E1C1
:1022A0008130940708F058C081E080939202A9E63B
:1022B000BCE086E001900D928150E1F73093700C04
:1022C00020936F0C2115310519F4C0E0D0E033C024
:1022D000CB01019690936A0C8093690CE0916B0C92
:1022E000F0916C0C4191F0936C0CE0936B0C8CE0D2
:1022F0000E946B1A80916D0C90916E0C01979093D7
:102300006E0C80936D0C22C06091690C70916A0C08
:10231000CB01019690936A0C8093690CE0916B0C51
:10232000F0916C0C4191F0936C0CE0936B0C84E099
:102330000E946B1A219680916D0C90916E0CC817BB
:10234000D90710F3F999FECF1092920220E030E005
:1023500005C02EEF3FEF02C02FEF3FEFC901DF9125
:10236000CF91089581E090919202913009F080E040
:10237000089580916D0C90916E0C009751F410921D
:102380009202E0916F0CF091700C309709F1099571
:1023900008956091690C70916A0CCB01019690933D
:1023A0006A0C8093690CE0916B0CF0916C0C41917C
:1023B000F0936C0CE0936B0C8CE00E946B1A809194
:1023C0006D0C90916E0C019790936E0C80936D0C38
:1023D0000895A2E1B0E0EFEEF1E10C9439B59A87EF
:1023E0008987DB012B873C874D875E87FC01E08076
:1023F000F180E114F10409F497C1222433244B85C0
:102400005C856D857E859A01AB0160E070E0CB0153
:1024100029833A834B835C836D837E838F83988784
:10242000F88AEF86F701BA8BA98B02C01F01FC0165
:10243000E280F380048115812681378140855185B2
:102440006B857C858D859E856E157F058007910740
:1024500008F48FC060E070E0CB0157016801EE2402
:10246000FF248701622E6A0C77247394621608F0A9
:102470007724932E9B0C88248394931608F0882449
:10248000790C55245394791408F055248528542E3A
:102490005C0C99249394541608F09924850C4424D8
:1024A0004394851408F044249428052F0D0D11E061
:1024B000051708F010E0900EEE24E394901608F053
:1024C000EE241E2944244394161608F0442401E007
:1024D000171608F000E055245394181608F05524F8
:1024E000A62C7981A71A21E06A1408F020E0972D24
:1024F0008A81981B81E0791608F080E0492F421B01
:1025000021E0941708F020E0822B282D9B81291BC5
:1025100091E0821608F090E0522F581B81E02517B9
:1025200008F080E0982B292DAC812A1B81E09216BF
:1025300008F080E0E22EE91A91E02E1508F090E014
:10254000892BB12FB81B8B2F91E01B1708F090E05F
:10255000242D291B922F21E0491608F020E0302F6E
:10256000321B232F31E0021708F030E0142F052F23
:1025700095C039014A01AA24BB2465011095009534
:10258000F094E094E11CF11C011D111D722F7E19C5
:1025900061E0271708F060E0872D8F1991E0781629
:1025A00008F090E0A82FA61B6A2F552453948A1791
:1025B00008F055249529582C501A81E0851408F00C
:1025C00080E0B52DB91B9B2F442443945B1608F083
:1025D00044248429292D211B31E0921608F030E093
:1025E000E22EE81A81E02E1508F080E0832B819519
:1025F00051E0181608F050E0519541E0151608F02A
:1026000040E0419521E0141608F020E0522E51944C
:10261000A72E2981A21A11E07A1508F010E0262FC2
:102620003A81231B31E0621708F030E0622F611B12
:10263000162F61E0211708F060E0362B692F7B81AF
:10264000671B21E0961708F020E0062F031B91E09E
:10265000601708F090E0292B3E2D9C81391B91E0FA
:10266000E31608F090E0E32EE21A21E03E1508F0B0
:1026700020E0922B682F691B91E0861708F090E00C
:10268000A52FA91B9A2F81E05A1708F080E0242F6C
:10269000281B31E0421708F030E0862F531A69F505
:1026A000222359F5992349F5882339F5A989BA894F
:1026B00016962D913D914D915C91199760E070E0D7
:1026C000CB01992321F51816C0F0882301F51716C0
:1026D000A0F07723E1F4161680F06623C1F4E51626
:1026E00060F05E15A1F4041740F0401781F4131751
:1026F00020F0311761F4A21650F480819181009787
:1027000009F094CE8F01A989BA891F0111C0EF8405
:10271000F8888F01A989BA89EE15FF0541F4119651
:10272000FC93EE93E985FA85B183A08306C0CF01BF
:10273000F101B183A0838D939C936296E2E10C94A6
:1027400055B5CF93DF93FC01DB01EA0180819181D4
:102750004817590739F48881998119821882808332
:1027600091830BC08881998111969C938E931982D5
:1027700018828C9111969C911197DF91CF910895B9
:10278000DC01ED91FC91119706C080819181861743
:10279000970719F0FC013097C1F7CF010895E09138
:1027A0009302F09194020284F385E02D309709F0B2
:1027B0000995089523982B981CBC0895E091BA02BE
:1027C000F091BB02268137818481958128173907D2
:1027D00069F0A48DB58D848195810196958384835C
:1027E00084819581A80FB91F8C918EBD0895E091C9
:1027F000BA02F091BB02309719F40E94DA130895DF
:1028000042855385228533852F5F3F4F338722874B
:10281000228533852A30310511F4138612866285AC
:102820007385208531856217730719F453874287B2
:1028300008954F58534FDA018C93848595850196FE
:102840009587848708952FB7F894E091BA02F091A4
:10285000BB02848595852FBF009731F005A0F6A1B6
:10286000E02D309709F0099508958FB7F8941092EC
:10287000980210929702109296028FBF089580914D
:10288000CB0280FF0FC081E00E949B1A80917000F4
:102890008D7F809370000E9435148091CB028B7FD6
:1028A0008093CB020895809170008C7F809370009C
:1028B0008091B60080628093B6001092B2001092B0
:1028C000B0001092B1001092B3008091B60090E079
:1028D0008F7190700097C9F783E087BB87E0809382
:1028E000B1008091700081608093700008958091A4
:1028F000B60090E08F7190700097C9F780917000DA
:102900008C7F809370008091B100887F8093B100AC
:1029100083B5826083BD8091B60090E08F71907026
:102920000097C9F78091B6008F7D8093B600089517
:102930009B01AC016091B200862F90E0809590954C
:10294000AA2797FDA095BA2F9070A070B07082173B
:102950009307A407B50778F4281B390B4A0B5B0BC8
:10296000BB27A52F942F832F9093970280939602D5
:10297000209398020895260F8091B60090E08F7101
:1029800090700097C9F72093B30082E087BB8091D5
:1029900070008260809370000895EF92FF920F9311
:1029A0001F938FB7F894909199022091B20034E46C
:1029B0003093B4004091B60050E04F715070411513
:1029C0005105C1F7B89904C030E040E050E009C0BB
:1029D0002091B20030E040E050E021503F4F4F4F97
:1029E0005F4F8FBF8FEF989FC0011124AA2797FDDB
:1029F000A095BA2F820F931FA41FB51F9C01AD0194
:102A000075E0220F331F441F551F7A95D1F77C01C3
:102A10008D0162E016950795F794E7946A95D1F7D2
:102A20002E0D3F1D401F511FE0909A02F0909B0217
:102A300000919C0210919D022E0D3F1D401F511FC1
:102A4000281B390B4A0B5B0BB901CA011F910F916F
:102A5000FF90EF90089560E270E080E090E00895CC
:102A60008FB7F89460919902109299028FBF70E02D
:102A700080E090E020E43FE140E050E00E94D8B4E4
:102A80009B01AC0180919A0290919B02A0919C02C3
:102A9000B0919D02820F931FA41FB51F80939A02CD
:102AA00090939B02A0939C02B0939D028217930780
:102AB000A407B50728F4809195028F5F8093950253
:102AC00008951F920F920FB60F920BB60F9211241A
:102AD0002F933F934F935F936F937F938F939F9326
:102AE000AF93BF93EF93FF93809170008D7F80939E
:102AF0007000109298028091CB0280FF03C080E0AA
:102B00000E949B1A8091CB0282FF11C080918302A8
:102B10008160809383022FB7F8948091D4029091C2
:102B2000D50282609093D5028093D4022FBFFF918B
:102B3000EF91BF91AF919F918F917F916F915F9135
:102B40004F913F912F910F900BBE0F900FBE0F90A2
:102B50001F9018951F920F920FB60F920BB60F92FF
:102B600011242F933F934F935F936F937F938F9392
:102B70009F93AF93BF93EF93FF93809196029091B1
:102B800097020097A1F5809198028823E9F480913B
:102B9000CB0280FF03C080E00E949B1A8091CB0291
:102BA00082FF34C0809183028160809383022FB7BB
:102BB000F8948091D4029091D50282609093D502CE
:102BC0008093D4022FBF22C08091B60090E08F7115
:102BD00090700097C9F7809198028093B30082E0CB
:102BE00087BB8091700082608093700009C08091E3
:102BF0009602909197020197909397028093960284
:102C00008091CB0280FF02C00E94071B8091990235
:102C10008F5F809399028091830282608093830208
:102C20002FB7F8948091D4029091D502826090934E
:102C3000D5028093D4022FBFFF91EF91BF91AF9146
:102C40009F918F917F916F915F914F913F912F91C4
:102C50000F900BBE0F900FBE0F901F901895A0E124
:102C6000B0E0E5E3F6E10C9446B500919E021091C8
:102C70009F02D80112968C911297823029F08430ED
:102C8000C9F0882331F074C070E060E088E0F82E6D
:102C90006BC080E090E0D8011396ED91FC91149701
:102CA000E80FF91F208120933F01019680319105A3
:102CB00091F75EC010923C0180E010923E018F5F60
:102CC0008031D9F780913C01806880933C018091EC
:102CD0003D0180FFFCCFFE013196CE014196DF0120
:102CE00020913F012D93A817B907D1F72191209387
:102CF0003F01E817F907D1F7C7CFF8018281823089
:102D000019F410923C0102C0F0923C01872F90E030
:102D1000AC01405F5F4F9C01D8011396ED91FC918F
:102D20001497E20FF31FE081E0933E012F5F3F4FC6
:102D30002417350789F720913C01206820933C0136
:102D400020913D0120FFFCCF20913E01D801139638
:102D5000ED91FC911497E80FF91F208301968417D9
:102D6000950791F7705F6F5FF8018581681728F20A
:102D70008EE992E00E94851D80919E0290919F02B3
:102D8000009789F0809186028160809386022FB738
:102D9000F8948091D4029091D50282609093D502EC
:102DA0008093D4022FBFD8011696ED91FC9117970E
:102DB00009956096E5E00C9462B580E197E2909306
:102DC000A9008093A800E1EAF0E088E08083808198
:102DD00082608083E2E7F0E08081826080830895F2
:102DE0009B01AC018091A2029091A302A091A40248
:102DF000B091A502820F931FA41FB51F8093A2025A
:102E00009093A302A093A402B093A502809187029D
:102E10008460809387022FB7F8948091D4029091B8
:102E2000D50282609093D5028093D4022FBF08957B
:102E30008FB7F8946091A1021092A1028FBF70E049
:102E400080E090E02AE030E040E050E00E94D8B41A
:102E50009B01AC018091A2029091A302A091A402D7
:102E6000B091A502820F931FA41FB51F8093A202E9
:102E70009093A302A093A402B093A5028217930794
:102E8000A407B50728F48091A0028F5F8093A00269
:102E900008950E9418176091A2027091A302809178
:102EA000A4029091A50208951F920F920FB60F925F
:102EB00011242F938F939F938091A1028F5F809312
:102EC000A102809187028460809387022FB7F894D3
:102ED0008091D4029091D50282609093D502809324
:102EE000D4022FBF9F918F912F910F900FBE0F9003
:102EF0001F9018951F920F920FB60F920BB60F925C
:102F000011242F933F934F935F936F937F938F93EE
:102F10009F93AF93BF93EF93FF93E1ECF0E0808139
:102F20008F7D808380E00E94BF0EFF91EF91BF9163
:102F3000AF919F918F917F916F915F914F913F9151
:102F40002F910F900BBE0F900FBE0F901F901895F2
:102F50001F920F920FB60F920BB60F9211242F9360
:102F60003F934F935F936F937F938F939F93AF9311
:102F7000BF93EF93FF93E1ECF0E080818F7B808340
:102F800081E00E94BF0EFF91EF91BF91AF919F91A1
:102F90008F917F916F915F914F913F912F910F9002
:102FA0000BBE0F900FBE0F901F9018951F920F929F
:102FB0000FB60F920BB60F9211242F933F934F939E
:102FC0005F936F937F938F939F93AF93BF93EF9391
:102FD000FF938091C0006091C6008C7131F480EC49
:102FE0000E94DD0E82E00E94BF0EFF91EF91BF9123
:102FF000AF919F918F917F916F915F914F913F9191
:103000002F910F900BBE0F900FBE0F901F90189531
:103010001F920F920FB60F920BB60F9211242F939F
:103020003F934F935F936F937F938F939F93AF9350
:10303000BF93EF93FF93E9ECF0E080818F7D808375
:1030400083E00E94BF0EFF91EF91BF91AF919F91DE
:103050008F917F916F915F914F913F912F910F9041
:103060000BBE0F900FBE0F901F9018951F920F92DE
:103070000FB60F920BB60F9211242F933F934F93DD
:103080005F936F937F938F939F93AF93BF93EF93D0
:10309000FF93E9ECF0E080818F7B808384E00E94E5
:1030A000BF0EFF91EF91BF91AF919F918F917F9153
:1030B0006F915F914F913F912F910F900BBE0F90A9
:1030C0000FBE0F901F9018951F920F920FB60F9280
:1030D0000BB60F9211242F933F934F935F936F93EF
:1030E0007F938F939F93AF93BF93EF93FF938091C1
:1030F000C8006091CE008C7131F488EC0E94DD0E26
:1031000085E00E94BF0EFF91EF91BF91AF919F911B
:103110008F917F916F915F914F913F912F910F9080
:103120000BBE0F900FBE0F901F9018951F920F921D
:103130000FB60F920BB60F9211242F933F934F931C
:103140005F936F937F938F939F93AF93BF93EF930F
:10315000FF930E943F14E091A602F091A702099507
:10316000FF91EF91BF91AF919F918F917F916F915F
:103170005F914F913F912F910F900BBE0F900FBE1B
:103180000F901F9018951F920F920FB60F920BB6CB
:103190000F9211242F933F934F935F936F937F93DD
:1031A0008F939F93AF93BF93EF93FF930E943F142E
:1031B000E091A802F091A9020995FF91EF91BF91CA
:1031C000AF919F918F917F916F915F914F913F91BF
:1031D0002F910F900BBE0F900FBE0F901F90189560
:1031E0001F920F920FB60F920BB60F9211242F93CE
:1031F0003F934F935F936F937F938F939F93AF937F
:10320000BF93EF93FF930E943F14E091AA02F091C5
:10321000AB020995FF91EF91BF91AF919F918F9173
:103220007F916F915F914F913F912F910F900BBEC6
:103230000F900FBE0F901F9018951F920F920FB610
:103240000F920BB60F9211242F933F934F935F93DE
:103250006F937F938F939F93AF93BF93EF93FF935E
:103260000E943F14E091AC02F091AD020995FF91EC
:10327000EF91BF91AF919F918F917F916F915F91EE
:103280004F913F912F910F900BBE0F900FBE0F905B
:103290001F9018951F920F920FB60F920BB60F92B8
:1032A00011242F933F934F935F936F937F938F934B
:1032B0009F93AF93BF93EF93FF930E943F14E091CE
:1032C000AE02F091AF020995FF91EF91BF91AF91DE
:1032D0009F918F917F916F915F914F913F912F912E
:1032E0000F900BBE0F900FBE0F901F9018951F925E
:1032F0000F920FB60F920BB60F9211242F933F939C
:103300004F935F936F937F938F939F93AF93BF93ED
:10331000EF93FF930E943F14E091B002F091B1024D
:103320000995FF91EF91BF91AF919F918F917F91FF
:103330006F915F914F913F912F910F900BBE0F9026
:103340000FBE0F901F9018951F920F920FB60F92FD
:103350000BB60F9211242F933F934F935F936F936C
:103360007F938F939F93AF93BF93EF93FF930E94AD
:103370003F14E091B202F091B3020995FF91EF91F1
:10338000BF91AF919F918F917F916F915F914F917D
:103390003F912F910F900BBE0F900FBE0F901F907B
:1033A00018951F920F920FB60F920BB60F92112421
:1033B0002F933F934F935F936F937F938F939F933D
:1033C000AF93BF93EF93FF930E943F14E091B40239
:1033D000F091B5020995FF91EF91BF91AF919F9147
:1033E0008F917F916F915F914F913F912F910F90AE
:1033F0000BBE0F900FBE0F901F9018951F920F924B
:103400000FB60F920BB60F9211242F933F934F9349
:103410005F936F937F938F939F93AF93BF93EF933C
:10342000FF938091B90090E0887F90708832910579
:1034300069F1893291059CF48031910521F1813146
:10344000910534F4009729F18830910589F51BC066
:1034500088319105D9F08032910551F51AC0883430
:103460009105B9F0893491053CF48033910589F0D8
:1034700080349105E9F410C08035910581F08835DC
:103480009105B1F411C00E94A40F12C00E94231034
:103490000FC00E94890F0CC00E94401009C080918B
:1034A000BB000E945E1004C08091BB000E948A1085
:1034B000FF91EF91BF91AF919F918F917F916F910C
:1034C0005F914F913F912F910F900BBE0F900FBEC8
:1034D0000F901F901895F999FECF07B600FCFDCF0D
:1034E00072BD61BD40BD9FB7F8948FBBF99A9FBF75
:1034F00008951F920F920FB60F9211242F938F935E
:103500009F93FB98809186028460809386022FB7F8
:10351000F8948091D4029091D50282609093D50264
:103520008093D4022FBF9F918F912F910F900FBE48
:103530000F901F9018959091CB028170880F9C7FFF
:10354000982B9093CB02E9E3F1E080818D7F80831B
:10355000809187028160809387022FB7F8948091D1
:10356000D4029091D50282609093D5028093D402C8
:103570002FBF08958091CB0280FF48C08091A100A9
:103580008D7F8093A1008091B6029091B702A091A7
:10359000B802B091B9020097A105B10551F40E949B
:1035A000CD146093B6027093B7028093B8029093E3
:1035B000B9028091CB0283FD02C00E94811DF9995E
:1035C000FECF8091CB0288608093CB02909139012D
:1035D00092609093390182FF05C087E083BF889590
:1035E00013BE0AC00E94771485E083BF889513BE7E
:1035F0000E9453140E947C1C84E48093B400809148
:10360000B60090E08F7190700097C9F7089580918F
:10361000CB0281608093CB028091B60090E08F71E5
:1036200090700097C9F78091870288608093870225
:103630002FB7F8948091D4029091D5028260909334
:10364000D5028093D4022FBF80E090E008950E94BD
:10365000CD142091B6023091B7024091B80250913A
:10366000B902621B730B840B950B1092B602109279
:10367000B7021092B8021092B9020E94F01680911F
:10368000A10082608093A100809141018F718830F8
:10369000D9F78091CB02877F8093CB020E947D1D5A
:1036A0008091CB0281FD07C0E091BC02F091BD0288
:1036B000309709F0099508951F920F920FB60F9257
:1036C0000BB60F9211242F933F934F935F938F93D9
:1036D0009F93AF93BF93EF93FF93E0919302F09189
:1036E0009402838126813781882349F480819181E6
:1036F00040917900280F391FD9014C930EC0808169
:1037000091814091780050917900DC01AA0FBB1F94
:10371000A20FB31F11965C934E9301969183808301
:10372000E0919302F091940220813181808591850E
:1037300028173907B1F480917A00877F80937A0047
:10374000809186028260809386022FB7F8948091E0
:10375000D4029091D50282609093D5028093D402D6
:103760002FBFFF91EF91BF91AF919F918F915F918B
:103770004F913F912F910F900BBE0F900FBE0F9066
:103780001F9018951F920F920FB60F920BB60F92C3
:1037900011242F933F934F935F936F937F938F9356
:1037A0009F93AF93BF93EF93FF93DF93CF930F92CA
:1037B000CDB7DEB78EB589830E94DE1389810E9462
:1037C000F713809185028064809385022FB7F89467
:1037D0008091D4029091D50282609093D50280931B
:1037E000D4022FBF0F90CF91DF91FF91EF91BF9146
:1037F000AF919F918F917F916F915F914F913F9189
:103800002F910F900BBE0F900FBE0F901F90189529
:10381000A0E0B0E0EEE0FCE10C9439B510E0C2E8C5
:10382000DBE800E892E8692E9BE8792E812C912C48
:1038300082E8A82E8BE8B82E0E94EF042BE883388C
:10384000920718F16E01EE24FF249C0140E050E045
:1038500022583B4840405040C216D306E406F506C5
:103860004CF4123039F480916600815080936600E8
:10387000000036C0209166002150209366000000B1
:10388000EC01C258DB4811E028C02BE882389207CF
:1038900039F16E01EE24FF249C0140E050E0130159
:1038A0002401221A330A440A550AC214D304E40438
:1038B000F5044CF4113039F4809166008F5F8093E9
:1038C000660000000DC0209166002F5F2093660007
:1038D0000000E501C81BD90B12E0015009F0ACCF84
:1038E000CDB7DEB7E2E10C9455B50E945F1D882389
:1038F00011F40E94081C0895CF93DF93C8E8D3E128
:1039000088EC0E94E7042197D9F70E94751CDF918B
:10391000CF910895CF93DF93EC01009741F10E947E
:103920002B152E813F81488559850E94D8B428EEF9
:1039300033E040E050E00E9417B521153105410504
:103940005105C1F08091CB0282FD17C08460809345
:10395000CB02EEEBF2E08DE0099001928150E1F7AD
:10396000CA01B9010E94981420E030E008C02FEF8E
:103970003FEF05C02EEF3FEF02C02DEF3FEFC90133
:10398000DF91CF9108958091CB0282FF24C0909166
:10399000C8029923B1F4E091C902F091CA023097AC
:1039A00009F009958091CB0282FF15C06091C40295
:1039B0007091C5028091C6029091C7020E9498142E
:1039C00008958B7F8093CB02E091C902F091CA02E7
:1039D000309709F009950895ADE0B0E0E2EFFCE121
:1039E0000C9449B5FC01009739F18481958190933D
:1039F000BD028093BC0280819181A281B3818F83BB
:103A00009887A987BA8781E08B871D861C86CE019F
:103A100001960E948A1C2FEF8F3F920781F02FEFB3
:103A20008D3F920761F00E94071B2FEF8F3F920797
:103A300049F42DEF3FEF08C02FEF3FEF05C02EEF09
:103A40003FEF02C020E030E0C9012D96E2E00C9487
:103A500065B58FB390E0FC01E270F07081FDF9CFA5
:103A60008FB7F89499E090935700E4918FBFEF706F
:103A7000E23019F41092CC0203C081E08093CC02B2
:103A80008FB7F8949091CC02992349F45F9350E852
:103A90005093610050E0509361005F9108C05F93C4
:103AA00050E85093610051E0509361005F918FBFE7
:103AB0008091CC02882311F40E947C1C089580918F
:103AC000CC02089590918B11913011F49093CD0216
:103AD00090918B11992379F491E0803809F090E06E
:103AE000979599279795809144018F77892B80939B
:103AF000440180E0089581E0089580E80E94621DFD
:103B0000089580E00E94621D0895FC0120813181AA
:103B10002115310539F0D9018D919C91119791832F
:103B2000808302C020E030E0C9010895FC016115E6
:103B30007105A9F0A081B181A617B70739F48D915D
:103B40009C9111979183808314C0DC01109749F0F8
:103B50008D919C91119786179707B9F704C080E063
:103B6000089580E00895FB018081918111969C93D6
:103B70008E9381E00895DC01ED91FC91119706C0D0
:103B8000E617F70739F00190F081E02D3097C1F783
:103B900080E0089581E008950F931F93CF93DF9302
:103BA000EC018B010E94BB1DF80111821082A881DB
:103BB000B981109721F41983088309C0DC018D9124
:103BC0009C9111970097D1F71196FC93EE93DF919A
:103BD000CF911F910F910895A0E0B0E0E2EFFDE1D9
:103BE0000C9441B5D82E7B0190E08C0123E0169512
:103BF00007952A95E1F78770907021E030E002C0C8
:103C0000220F331F8A95E2F7C22EF801E253FD4FCF
:103C100080818223C9F0C091D202D091D30212C018
:103C2000FE01E00FF11F82818C2129F0EE81FF81DE
:103C30008D2DB701099598818981A92EE5015E0135
:103C4000B82EE501209761F7CDB7DEB7EAE00C9416
:103C50005DB590E0FC0133E0F695E7953A95E1F724
:103C6000E253FD4F208130E08770907041E050E0DA
:103C700002C0440F551F8A95E2F72423352381E0C3
:103C80002115310509F480E0089590E09C0143E09E
:103C9000369527954A95E1F7620F731F87709070EC
:103CA00021E030E002C0220F331F8A95E2F7FB01CA
:103CB0009281922381E009F480E008951F93CF93CD
:103CC000DF93182FEB010E94451E882359F582EDE2
:103CD00092E0BE010E94BB1D882349F41A821B8218
:103CE0001C821D8282ED92E0BE010E94CC1D812FBC
:103CF00090E0FC0163E0F695E7956A95E1F787703F
:103D0000907021E030E002C0220F331F8A95E2F765
:103D1000CE0FDF1F8A81822B8A83E253FD4F808181
:103D2000822B8083DF91CF911F91089580E090E0F6
:103D300061E070E09B01082E02C0220F331F0A943D
:103D4000E2F74091D4025091D5024223532341150A
:103D50005105C9F06FB7F8944091D4025091D50243
:103D600020953095242335233093D5022093D40217
:103D70006FBFFC01EE0FFF1FE050FE4F0190F0817E
:103D8000E02D099504C001968B30910599F620919C
:103D9000D4023091D50281E02115310509F480E08B
:103DA00008950E94961E08950E946EB30E9444A436
:103DB0002FB7F8948091D4029091D50280619093AE
:103DC000D5028093D4022FBF0895FC018081109208
:103DD000C10CE091C20CF091C30C099508951092AA
:103DE000C10C08958091150E80718093150E10926C
:103DF000080F089523E830E13093321020933110FA
:103E0000E091C50CF091C60CDC018C9109950895E8
:103E1000089521E030E002C0220F331F8A95E2F7B7
:103E20008091160290911702822B932B9093170288
:103E3000809316022FB7F8948091D4029091D50206
:103E400080619093D5028093D4022FBF0895809112
:103E5000AC0C9091AD0C009799F08091B00C9091C2
:103E6000B10C009779F48AE49FE19093B10C8093B0
:103E7000B00C81E08093AE0C84E00E94091F08958D
:103E80001092AE0C08951092B10C1092B00C0E94DA
:103E9000271F0895E091AC0CF091AD0C882319F424
:103EA0002EEF3FE302C023E830E13093321020933D
:103EB0003110818B8BE08093AE0C84E00E94091F4F
:103EC0000895E091CA0CF091CB0C80831092CB0C3A
:103ED0001092CA0C21813281CF01F901099583E04A
:103EE0000E94091F0895E091CC0CF091CD0C8083C5
:103EF0001092CD0C1092CC0C21813281CF01F901AE
:103F0000099583E00E94091F089521E030E002C076
:103F1000220F331F8A95E2F7209530958091160283
:103F20009091170282239323909317028093160295
:103F300008958093830F882361F480910A0F9091F4
:103F40000B0F009719F082E00E94091F81E00E9488
:103F5000091F089580E00E94991F089580E00E9443
:103F6000991F089580E00E94991F0895FC018081A7
:103F700080933A0F82E00E94991F81E00E94091FFE
:103F8000089580E00E94991F0895CF93DF93DC018C
:103F9000E091810FF091820FEF01CC57DF4F8C91B0
:103FA00088838481833049F08630D1F08230F9F4FF
:103FB0008C918823D1F484E019C08C918823A9F4D2
:103FC000868197818833910581F4818592852FEFD1
:103FD000883F920750F086A98E3F39F488E006C0EA
:103FE0008C91882311F485E001C087E084831092CE
:103FF000820F1092810F80E00E94991FDF91CF9174
:1040000008958093A40F882319F481E00E94091F6A
:104010000895EF92FF920F931F93CF93DF93C09178
:104020000A0FD0910B0F07E01DE025C02C818A817B
:104030009B81009799F42430B9F48E819F81FE0111
:10404000EC57FF4F8630910511F4108302C082E0D7
:1040500080830C8382E00E94091F06C02250233017
:1040600018F401979B838A8398818981E92EE7015F
:104070007E01F82EE7012097C9F6CDB7DEB7E6E05E
:104080000C9461B5A8E0B0E0E8E4F0E20C9449B526
:1040900019821A821B821C821D821E821F82188630
:1040A000CE0101960E945E8D8091B20C8D7F80932F
:1040B000B20C2896E2E00C9465B51F93182F10926D
:1040C000AE0CE091B00CF091B10C0995112329F4DC
:1040D0008EE060E070E00E94EC1D1F91089588233F
:1040E00041F48EEF9FE3909332108093311085E07E
:1040F00007C083E890E1909332108093311084E000
:1041000060E070E00E94EC1D0E94431F089584E06F
:104110008093AE0C8091B30C81508093B30C8EEAE7
:104120009CE02091AF0C2093850CFC01F19720912D
:10413000420B20832091430B21832091440B228347
:104140002091450B23832091460B24832091470B1C
:1041500025832091480B26832091490B2783E2E495
:10416000FBE052914291329122912093860C309340
:10417000870C4093880C5093890C22A520938A0CBD
:104180002CED35E330938D0C20938C0CC3970E945B
:10419000B68D089581E263EB7CE00E942A0C85E0F5
:1041A0008093AE0C82E08093AF0C0E94872008952C
:1041B00080E094E0909332108093311080E060E0D2
:1041C00070E00E94EC1D0E94CA2008950E94872082
:1041D000089581EE9CE00E94DC0C0895A4E0B0E01C
:1041E000E4EFF0E20C9449B58091F00C882319F1CA
:1041F00089E1BE016F5F7F4F0E942A0C89819A81FD
:10420000AB81BC818093E70C9093E80CA093E90C00
:10421000B093EA0C81E08093EB0C89E192E29093F9
:10422000ED0C8093EC0C81EE9CE00E94DC0C81EEA6
:104230009CE00E94B00C2496E2E00C9465B5CF930C
:10424000DF9382E00E94851F10920B0F10920A0FDD
:1042500081E00E94851F1092820F1092810F1092B0
:10426000830F8DE2E5EAFFE0DF011D928A95E9F711
:10427000E2EDFFE08FE5DF011D928A95E9F7F0930B
:10428000C80FE093C70F1092A40F8FEF8093450DD6
:10429000CCE0DFE0CE010E94DC0C1092160F89E02A
:1042A00090E29093180F8093170F80E890E0A0E0C1
:1042B000B0E08093120F9093130FA093140FB0935C
:1042C000150FCE010E94B00CDF91CF91089583E0CD
:1042D0008093AE0C80913E0B90913F0BA091400BD0
:1042E000B091410B8093A40C9093A50CA093A60CC5
:1042F000B093A70C8091680B8093A80C89E096E39B
:104300009093AA0C8093A90C8BE79CE00E942888CC
:10431000089588E08093AE0C80916A0B80937D0CA9
:104320008CE599E290937F0C80937E0C8BE79CE068
:104330000E94A79F0895EF92FF92CF93DF930E9470
:10434000010DE22EE7017E01F32E0E947050FC0168
:104350002081318182819381282739272E253F258D
:1043600084819581282739278681978128273927B5
:10437000C901DF91CF91FF90EF900895FC018281F8
:104380009381009711F40E949B210E94C9B58DE38F
:1043900090E10E94B00C08958091311090913210FC
:1043A00095FF05C083E390E10E94105108950E949B
:1043B0009B210E94C9B58DE390E10E94B00C089545
:1043C0007093C60C6093C50C8093850C80915B0B39
:1043D0008093860C8AEF9EE19093880C8093870CE3
:1043E0008BE79CE00E948A4B0895A6E0B0E0EBEFDB
:1043F000F1E20C9449B580E00E94611F81E0809356
:10440000CE0C8091DA0CBE016F5F7F4F823011F4C9
:104410008AE101C08BE10E942A0C8EE492E29E8325
:104420008D83CE0101960E94144C2696E2E00C94F6
:1044300065B58091EF0C882399F48091F00C882366
:1044400079F01092DD0C82E696E39093DF0C809376
:10445000DE0C8BED9CE00E9469A381E08093EF0C61
:104460000895FC0180818823C1F48091DA0C8230A8
:1044700031F00E943CA3882311F00E942AA31092DD
:10448000CE0C8091CC0C9091CD0C009721F080E067
:104490000E94731F08950E947F0508958091DA0C91
:1044A000823059F48091D90C882339F40E94192262
:1044B0001092CE0C0E947F0508958FEF9FEFAFEF13
:1044C000B0E08093D20C9093D30CA093D40CB09313
:1044D000D50C81E392E29093D70C8093D60C8FECAD
:1044E0009CE00E94D85608952091DA0C223029F4DD
:1044F0008091EF0C882309F071C08091CA0C9091D3
:10450000CB0C0097C9F18091311087FF0FC00E943A
:104510002E57882359F40E9400A3882339F40E945F
:104520009C4B882319F481E090E002C080E090E089
:104530002091CE0C222311F080E803C0009721F4D3
:1045400084E00E94611F08958091DA0C823049F462
:104550008091D90C882329F40E94E9200E94F5213A
:1045600008951092D20C1092D30C1092D40C109289
:10457000D50C8FEE92E226C08091CC0C9091CD0CA0
:10458000009761F18091CE0C882329F1223061F4EB
:104590008091D90C882341F40E9419221092CE0CEC
:1045A00080E00E94731F08958FEF9FEFAFEFB0E0A0
:1045B0008093D20C9093D30CA093D40CB093D50CD1
:1045C00081E392E29093D70C8093D60C8FEC9CE021
:1045D0000E94D856089580E80E94731F0895FC0138
:1045E0008081882329F40E9433A30E94F521089535
:1045F0000E94611F0895A0E0B0E0E1E0F3E20C94B6
:1046000043B5C0910A0FD0910B0F62E0E62E54E043
:10461000F52E17E001E0D2C08C81873028F4853078
:1046200058F5882339F0C3C08730C9F1883009F0C4
:10463000BEC01DC0809131109091321092FF0EC00B
:104640008091810F9091820F009709F0B0C00C8388
:10465000D093820FC093810F81E006C01C83FE01BE
:10466000EC57FF4F108382E00E94091FA0C0D09337
:10467000140EC093130E9BC0853011F4FC8201C050
:10468000EC82FE01E858FF4F0190F081E02D309759
:1046900009F48DC0CE0186589F4F099588C08AE0E5
:1046A0009FE0BE010E94961D8E819F818130910501
:1046B000C1F4FE01EC57FF4F8081882391F4DE01A5
:1046C000A357BF4FFE01EB57FF4F0081118122819D
:1046D000338144815581668177818D919C910E94BF
:1046E000E59DFE01E858FF4F80819181009709F414
:1046F00054C08E819F818430910509F044C0CE0161
:1047000088579F4FFE01E257FF4F2081FE01EF5572
:10471000FF4F1081293088F4622F70E0660F771FF9
:10472000695F7F4F680F791FFB0110811A3008F015
:1047300019E0412F440F4F5F1EC0BC01675E7F4FE1
:104740002930C1F0223170F4622F70E0660F771FBC
:10475000695F7F4F680F791F12E1121B412F440FD1
:104760004F5F02C040E010E0FE01E257FF4F29E03A
:10477000208301C040E0499650E00E94F3B5FE015D
:10478000EF55FF4F1083FE01E858FF4F0190F08175
:10479000E02DCE0186589F4F099580910A0F909188
:1047A0000B0F009771F082E00E94091F0AC09881E8
:1047B0008981C92EE6016E01D82EE601209709F005
:1047C0002BCFCDB7DEB7E8E00C945FB5AAE2B0E03E
:1047D000ECEEF3E20C9449B5843061F0853018F4C6
:1047E000882331F026C0853039F0863011F506C0B7
:1047F00080E905C081E903C08FE801C08EE88983A4
:104800008091550B9091560B9B838A8380914A0B24
:1048100090914B0B98878F8380914C0B8E83809166
:10482000570B9091580B9D838C83CE0101960E946B
:104830007E05AA96E2E00C9465B5AAE2B0E0E3E258
:10484000F4E20C9449B5813019F0883061F403C06A
:1048500080E6898304C085E989837B836A83CE01EE
:1048600001960E947E05AA96E2E00C9465B56093DD
:104870000A0D70930B0D80930C0D90930D0D4093CA
:104880000E0D8091080F813011F41092440D8FE7C6
:1048900094E39093100D80930F0D81EF9CE00E94A4
:1048A000188808958091440D882381F08150809369
:1048B000440D60910A0D70910B0D80910C0D90913B
:1048C0000D0D40910E0D0E94372408951092080F8F
:1048D000089510922A0D8091450D80932B0D8AE743
:1048E00094E29093340D8093330D87E29DE00E9413
:1048F000E4560895CF93DF93EC018881882399F4DF
:104900008091460D0E94948D80E165E47DE00E94D7
:10491000450C8091450D0E947E8D8091450D8093C0
:104920004C0B0E948D3E0E948A8D20914A0B309143
:104930004B0B8217930779F4E091130EF091140E4C
:10494000818592852FEF883F920728F087E0848346
:1049500082E00E94091F8FEF8093450D8881882394
:1049600029F486E060E070E00E94EC1DDF91CF91B9
:104970000895EF92FF920F93DF93CF93CDB7DEB7F9
:10498000AA970FB6F894DEBF0FBECDBF7B01823071
:1049900019F08330B1F519C0FB01228133814481C4
:1049A0005581668177818085918501E00E94949F81
:1049B000882339F582E98983DE011296F7018BE0BD
:1049C00001900D928150E1F718C0FB0122813381E3
:1049D00044815581668177818085918500E00E94C0
:1049E000949F882371F083E98983DE011296F70191
:1049F0008BE001900D928150E1F7CE0101960E946B
:104A00007E05AA960FB6F894DEBF0FBECDBFCF913C
:104A1000DF910F91FF90EF900895CF93DF93C4E360
:104A2000D2E080E0BE010E945E1E84E0BE010E94D2
:104A30005E1E85E0BE010E945E1E86E0BE010E94F1
:104A40005E1ECCE2D2E082E0BE010E945E1E83E0E8
:104A5000BE010E945E1E87E0BE010E945E1EC4E28F
:104A6000D2E081E0BE010E945E1E88E0BE010E948D
:104A70005E1E89E0BE010E945E1E8CE0BE010E94A7
:104A80005E1EDF91CF910895A8E0B0E0EAE4F5E280
:104A90000C9447B510923210109231100E94250CE0
:104AA0000E947050FC017081818162815381448138
:104AB00035812681978179838A836B835C834D83DB
:104AC0003E832F839887872B862B852B842B832BE4
:104AD000822B892B49F48E010F5F1F4FC8010E9462
:104AE000C2B3C8010E9473501092C60C1092C50C3C
:104AF0001092AE0C1092AD0C1092AC0C1092C70C30
:104B00001092C10C1092C30C1092C20C1092CB0CDC
:104B10001092CA0C1092CD0C1092CC0C1092CE0CAC
:104B20008091DA0C823021F41092F00C1092EE0C8D
:104B30000E940D250E94734B83E890E19093321000
:104B4000809331102FB7F8948091D4029091D502C0
:104B500094609093D5028093D4022FBF8DE390E1AF
:104B60000E94DC0C81E08093471088EE93E0A0E087
:104B7000B0E08093431090934410A0934510B093FD
:104B800046108CEC91E290934910809348108EEB84
:104B900091E290933C1080933B100E94CC21289688
:104BA000E4E00C9463B5ABE0B0E0E9EDF5E20C9421
:104BB00049B5FC01808191819A83898382818B83AD
:104BC00083818C8384818D8385818E8386818F838D
:104BD000878188878085898781858A8782858B8779
:104BE00082E0BE016F5F7F4F0E94EC1D2B96E2E0DA
:104BF0000C9465B58CE169ED7CE00E942A0C8091F3
:104C0000F00C882359F48091D90C882349F481E071
:104C10008093F00C0E94192280E0089580E80895A6
:104C200080E808958091590B8770823011F40E94BA
:104C3000FA2580E00E945D2008958091F00C882381
:104C400031F01092F00C0E94E92080E0089580E895
:104C50000895A1E0B0E0EFE2F6E20C9449B52091AE
:104C6000C20C3091C30C2115310599F528E537E2C6
:104C70003093C30C2093C20C6093C40C91E09093CA
:104C8000C10C9091590B9770923029F469830E945E
:104C90001D2680E0698110927D0C10927E0C10928E
:104CA0007F0C1092800C1092810C1092820C10924A
:104CB000830C1092840C8093850C6093860C82E0A8
:104CC00097E29093880C8093870C8BE79CE00E947E
:104CD000568E2196E2E00C9465B5A1E0B0E0E3E7E2
:104CE000F6E20C9449B589830E94431F8981882389
:104CF00061F48EEF9FE3909332108093311085E042
:104D000060E070E00E94EC1D0AC083E890E190939F
:104D100032108093311081E060E00E9429262196B4
:104D2000E2E00C9465B5E091C70FF091C80FDF0188
:104D30001196CF0109962D91222321F4A817B907C6
:104D4000D1F73AC08091C10C882391F583E080931C
:104D5000C10C818180937D0C828180937E0C838144
:104D600080937F0C84818093800C85818093810C5B
:104D700086818093820C87818093830C80858093C9
:104D8000840C818582958695869581708093850CAB
:104D90008185881F8827881F8093860C8FEE9EE16F
:104DA0009093880C8093870C8BE79CE00E94568E32
:104DB00080E00E94991F08956185862F82958695CF
:104DC00086958370661F6627661F81700E9429265C
:104DD000EFCF8093C40C82E08093C10C8091590B7B
:104DE0008770823011F40E941D260E94422085EEB9
:104DF0009EE19093810C8093800C8BE79CE00E9455
:104E0000964B08951092C10C8091C40C0E94E92623
:104E10000895ABE0B0E0EFE0F7E20C9449B5FC0197
:104E20008091311086FF34C0B081A181728163818D
:104E300054814581368127818B2F8A2B872B862BA6
:104E4000852B842B832B822B89F480852091C20CA7
:104E50003091C30C21153105D9F428E537E23093A0
:104E6000C30C2093C20C0E94E92612C08EEF9FEF64
:104E70009A838983BB83AC837D836E835F834887FA
:104E800039872A8783E0BE016F5F7F4F0E94EC1D48
:104E90002B96E2E00C9465B50E941F210E94F21E41
:104EA0008091590B8770823011F40E941D2608955D
:104EB0000E94F21E0E941F218091C40C882389F158
:104EC0008091B00C9091B10C009759F58FE690E26B
:104ED0009093B10C8093B00C8091590B87708150E6
:104EE000823068F480E094E0909332108093311027
:104EF00080E060E070E00E94EC1D0E94CA2080917A
:104F0000590B8770D9F480E094E09093321080932D
:104F1000311084E060E070E00E94EC1D0E94672187
:104F20000DC00E944C2783E890E19093321080934B
:104F3000311084E060E070E00E94EC1D1092C10C22
:104F40001092C30C1092C20C089540911602509119
:104F5000170241155105B1F180E090E061E070E089
:104F60009B01082E02C0220F331F0A94E2F7F901B9
:104F7000E423F523309711F12427352730931702C6
:104F800020931602FC01EE0FFF1FE85EFD4F01901B
:104F9000F081E02D099580911602909117020097FB
:104FA00089F02FB7F8948091D4029091D502806156
:104FB0009093D5028093D4022FBF08950196863036
:104FC000910571F608950F931F93CF93DF93EC0132
:104FD0008E8D9F8D97FF7DC020E88833920709F45E
:104FE00078C0E0910A0FF0910B0F6FC0AAA1BBA18E
:104FF0009C918581981709F064C08481823041F4C6
:10500000868197818630910509F484C083E00AC0C7
:10501000843009F056C0868197818630910509F465
:105020007BC087E084838E85823069F4DF01A658D7
:10503000BF4F1C92DF01A558BF4F8F8598891196ED
:105040009C938E9327C0833029F5DF01A658BF4F6C
:1050500081E08C93DF01A558BF4F89898C938A89A1
:1050600011968C9311978B8912968C9312978C8939
:1050700013968C9313978D8914968C9314978E891D
:1050800015968C9315978F8916968C931697888D05
:1050900017968C93AF014D575F4F87E4DA011D924D
:1050A0008A95E9F728A139A12834310510F027E4C1
:1050B00030E06AA17BA1CA01A9010E94EAB582E0A1
:1050C00026C090818181E92FF82F309709F08ECF8B
:1050D00025C08091A40F882309F502ED1FE06AA185
:1050E0007BA148A159A1C8010E94EAB5F801BD976A
:1050F0008DE2099001928150E1F782ED9FE090935B
:10510000C80F8093C70F81E00E94012081E00E94B8
:10511000091F04C086E086CF85E084CFDF91CF9160
:105120001F910F910895EF92FF920F931F93CF93CA
:10513000DF93EC0160916B0B70916C0B6115710545
:1051400059F40E94818D7B018C010E940FA46E0D89
:105150007F1D801F911F02C080E090E0E7E09695E0
:10516000879577956795EA95D1F77B836A831C824B
:105170008AE09FE0BE010E94CC1D82E00E94091FD0
:10518000CDB7DEB7E6E00C9461B5CF93DF93209105
:10519000150E25FF08C020612093150E9093E30E95
:1051A0008093E20E3FC09093E10E8093E00E80EB7F
:1051B00099E290938F0E80938E0E83E190E090930E
:1051C0001D0E80931C0E8DEF9FEF9093200E809309
:1051D0001F0E0E947050FC01CAE4DEE080818093C3
:1051E0004A0E8181898382818A8383818B83848132
:1051F0008C8385818D8386818E8387818F83809147
:105200005B0B8093520E0E94BB859093490E809356
:10521000480E8091150E80628093150ECE01C497C2
:105220000E949328DF91CF910895A0E5B0E0EBE1D3
:10523000F9E20C9449B5FC018081882369F48091DE
:10524000590B877061F08091B20C81FD08C082E13A
:1052500096E20E94C52808C00E945D2005C01B86FA
:10526000CE0101960E941226C05BDF4FE2E00C9453
:1052700065B589E08093AE0C8091B20C81FF07C0C8
:105280001092800C80E89CE00E941529089585E129
:1052900099E290937F0C80937E0C8BE79CE00E94B8
:1052A000904B0895FC018081882319F40E943929CC
:1052B00008950E945D200895A1E0B0E0E2E6F9E2E1
:1052C0000C9449B5FC018081882309F58091590B24
:1052D000877019F40E9439291CC08130D1F487E00D
:1052E0008093AE0C8091B20C81FF06C01982CE0172
:1052F00001960E9452290DC082E599E290938A0C92
:105300008093890C8BE79CE00E94F0A202C00E946F
:105310005D202196E2E00C9465B5A1E0B0E0E3E900
:10532000F9E20C9449B5883069F48091590B877083
:10533000823019F40E9439290BC0813049F40E944F
:10534000892106C089830E94422089810E945D20B4
:105350002196E2E00C9465B588E00E948D290895BD
:105360002091150E2F7D2093150EE091E00EF09107
:10537000E10E309709F009958091150E84FF09C060
:105380008F7E8093150E8091E20E9091E30E0E9425
:10539000C52808951F93182F28E330E83093500D47
:1053A00020934F0D82E08093510D0E948A8D90933F
:1053B000530D8093520D22E534E23093C20D2093B9
:1053C000C10D10937B0D89E49DE00E9493281F91ED
:1053D0000895ACE4B0E0EFEEF9E20C943BB58091B7
:1053E000830F823049F483E00E94991F84E89FE094
:1053F0000E947B3E0C947A34882311F00C947A340A
:105400008091A40F813009F0AEC70E94991FE4E893
:10541000FFE080E2DF011D928A95E9F78091C30FDA
:105420009091C40F9C013F772F31310508F066C47D
:10543000A091C70FB091C80F4091B30F4330D9F47A
:1054400035962091B60F2093890F2091B70F2183B5
:105450002091B80F22832091B90F23832091BA0F96
:1054600024832091BB0F25832091BC0F268320919C
:10547000BD0F278308C02091B40F3091B50F309332
:10548000880F2093870F4093860F90689093950F15
:105490008093940F29E33FE030939A0F2093990F64
:1054A0008AEA9FE190939E0F80939D0F80919B0FBE
:1054B000846280939B0F87E4F90111928A95E9F742
:1054C0008C918093390F82E00E94991F80E00E94A6
:1054D0000120E091C30FF091C40FE631F10508F00F
:1054E00039C7E951FF4F0C9470B5E090C70FF090A9
:1054F000C80F2091B40F3091B50F8091BE0F9091DD
:10550000BF0F2817390759F1D70113962C9113971C
:1055100014963C91149715964C91159716965C919C
:10552000169717966C91179718967C91189719965D
:105530008C9119971A969C910E94A79B009779F0DD
:10554000FC012081213011F0253049F4DC01119655
:105550002C911197223019F460E00E94C68D8BE0E7
:105560000E94291E882309F1F70123813481458196
:105570005681678170858185928529833A834B8323
:105580005C836D837E838F8398870E94A79B00979F
:1055900061F0DC018C91813011F0853031F48BE0C9
:1055A000BE016F5F7F4F0E94EC1DF70103811481E4
:1055B00025813681478150856185728581819281FF
:1055C0000E94E59DC7C60091C70F1091C80F0E94A9
:1055D0007050BC01C801019648E050E00E94DDB562
:1055E000009749F1D80111962C91119712963C9190
:1055F000129713964C91139714965C9114971596E5
:105600006C91159716967C91169717968C91179713
:1056100018969C910E94A79BFC01009709F49AC6DA
:105620008081813009F096C684819581BFEF883FE3
:105630009B0728F08FC680914A0B90914B0B90935B
:10564000440F8093430FF801818180933B0F828147
:1056500080933C0F838180933D0F848180933E0F24
:10566000858180933F0F86818093400F878180934F
:10567000410F80858093420F8CE090E09093980FCB
:105680008093970F8185813009F067C60E94729FD1
:105690002091970F3091980F2E5F3F4F3093980FC6
:1056A0002093970F1092450FD8011A961C911A97C4
:1056B0001093460F60E00BE11FC0609FA001112412
:1056C000FC01A081B181A40FB51F4C91413099F428
:1056D000611788F0E72FF0E0EE0FFF1FE95BF04F56
:1056E00014964D915C911597518340837F5F709321
:1056F000450F2E5F3F4F6F5FDC0116964C9116975A
:10570000641708F0B5C02F35310508F0B1C07091AD
:10571000450F7A3090F2ACC00091C70F1091C80FBE
:10572000F8018181928120914A0B30914B0B8217B5
:10573000930769F10E94AE8FFC01009709F40AC635
:105740008081813009F006C6A08571856285538508
:1057500044853585268597858A2F872B862B852B33
:10576000842B832B822B892B09F4F4C5A0933B0F48
:1057700070933C0F60933D0F50933E0F40933F0F4B
:105780003093400F2093410F9093420F1BC00E9413
:105790007050FC01808180933B0F818180933C0F8E
:1057A000828180933D0F838180933E0F848180931B
:1057B0003F0F85818093400F86818093410F8781C1
:1057C0008093420FD80111968D919C9112979093DE
:1057D000440F8093430F8CE090E09093980F809358
:1057E000970F13968C911397813009F0B6C50E94DC
:1057F000729F2091970F3091980F2E5F3F4F3093FB
:10580000980F2093970F1092450FF8011481109371
:10581000460F60E00BE11FC0609FA0011124FC0156
:10582000A081B181A40FB51F4C91413099F461174B
:1058300088F0E72FF0E0EE0FFF1FE95BF04F1496C2
:105840004D915C911597518340837F5F7093450F15
:105850002E5F3F4F6F5FDC0116964C9116976417D1
:1058600038F42F35310520F47091450F7A30A0F2CD
:105870003093980F2093970F70C5E091C70FF09168
:10588000C80F84E090E09093980F8093970F8091D9
:10589000610B9091620B21813281822393237EC11F
:1058A000E091C70FF091C80F81E190E09093980FBD
:1058B0008093970F8181928190933C0F80933B0F4F
:1058C000ADE3BFE0E9E5FBE08DE001900D92815092
:1058D000E1F743C5E091C70FF091C80F86E090E073
:1058E0009093980F8093970F8181928190933C0FB2
:1058F00080933B0F8091660B80933D0F8091670BE7
:1059000080933E0F2AC5E090C70FF090C80F00E0CB
:1059100010E00AC0D8011396ED91FC911497908184
:10592000F7018381981731F0C8010E9441418C0131
:10593000009781F785E090E09093980F8093970F00
:10594000D70111968D919C91129790933C0F809363
:105950003B0F10923D0F0115110509F47BC0D801D2
:105960001396ED91FC911497808180933E0F1396CE
:10597000ED91FC911497818192819093400F8093D7
:105980003F0F1396ED91FC9114978381948190932E
:10599000420F8093410F1396ED91FC9114979581DE
:1059A0009F708091430F807F892B8093430F1396C4
:1059B000ED91FC9114979581907F8F70892B809346
:1059C000430F86E080933D0F1396ED91FC91149761
:1059D00086818093440F1396ED91FC911497C680B5
:1059E000CC0CEC2CFF2425E43FE067817085C901D5
:1059F0004C2D50E00E94EAB58C2D895F80933D0FBD
:105A0000D8011396ED91FC911497818597012B5B3A
:105A1000304FF901819313960D90BC91A02D1996EA
:105A20000C911997000F1A966C911A971B967C91FE
:105A3000CF01402F50E00E94EAB520913D0F2F5F2B
:105A4000200F20933D0F8091970F9091980F820F18
:105A5000911D77C082E82FC084E880933A0F0E949E
:105A6000BB8590933C0F80933B0F10923D0F86E0D7
:105A700090E067C0E091C70FF091C80F8091590B7B
:105A800084FF12C085E190E09093980F8093970F68
:105A90008181928190933C0F80933B0F8FE16DE366
:105AA0007FE00E942A0C59C482E090E09093980F06
:105AB0008093970F84E880933A0F4FC49091C70F5B
:105AC0008091C80F2091590B24FF36C0092F182F41
:105AD00084E090E09093980F8093970FD8011196EF
