S02B0000456E644465766963655F5263625F41746D656761313238726661315F384D687A5F4763632F457865C1
S2840000000C9406040C94EB1B0C94181C0C94451C0C94721C0C949F1C0C94CC1C0C94F91C0C94261D0C943E040C943E040C943E040C943E040C945D180C943E040C94A6180C943E040C943E040C943E040C943E040C943E040C943E040C943E040C943E040C94171F0C942B1B0C94CF1A0C94FD1A0C943E040C94B11E0C94CE1D0C943E0406
S2840000800C943E040C943E040C943E040C943E040C94B91B0C945D1B0C948B1B0C94531D0C943E040C943E040C94501A0C942A8B0C943E040C943E040C943E040C943E040C943E040C943E040C943E040C943E040C943E040C943E040C943E040C943E040C943E040C943E040C943E040C943E040C94878B0C943E040C943E040C94AF8BFE
S2840001000C943E040C943E040C943E040C943E040C943E040C943E040C943E040C943E040C0E08000000260E01000100530E08000200C10D04000300D30E01000400CA0E01000500360E01000600370E01000700380E01000800420E11000900270E02000A002D0E01000B00D50E02000C00CD0E01000D00E30E01000E005D0E01000F00E0
S2840001805E0E02001300670E01001400D90E080015002C0E01001600CA07BD001700EC0B03001800810D16001900BC0310001E00DC0304001F00E40302002000E803170021001604140022003E041100230062375437A737A737A73754375437A737A7375437AB36D436DD36A737E336EC36F736A73700370637A737543738374D37A7375A
S2840002003E374737623762376237543754375437543754375437543754375437543754375437543754375437543754370F375437A737A737A737A737A737A737A737A737A737A737A737A737A737A737543754376237413954398B398B398B395439543954398B395439E938033908398B390B390E3911398B39163919395439543936396C
S2840002804A398B3939393C3901393F393F39543954395439543954395439543954395439543954395439543954395439543954391E3954398B398B398B398B398B398B398B398B398B398B398B398B398B398B39543954394D3987412B422B42CE41DB412B422B422B42E841F741A741B3412B428441DB412365CC659066AA66C366E66734
S2840003001368A26AA26AA26AA26AA26AA26AA26AA26AA26A6C677A67A26AB5649E677D66F96A066B286B226B1F6B286B326B2B6D2B6D2B6D2B6D2B6D2B6D2B6D2B6D2B6D226B286B2B6DF66A256B166B46714B71507155715A715F7164716471727175718E7178717B717E7181718E71847187718E718A716B75727572757275797587757F
S2840003809C7580758E759575CC75CF75D275D275D575DB75E575D875DE75E175627A217B337B1C7A797B797B2E7B337B367B647B4D7B797B797B647B507A677B00000100020003000400050006000700080009000A000B000C000D000E000F0013001400150016001A001B0000000100020003000400050006000700080009000A000B00E1
S2840004000C000D000E000F00130014001500160017001800190000000100020003000400050006000700080009000A000B000C000D000E000F00130014001500160000000100020003000400050006000700080009000A000B000C000D000E000F00180000000000000000000000000000000000000000000000000000000000000000004D
S284000480000000000000000000000000000000000000000000000000000000000000000000000000000000000000000000000000000000000000000000000000000000000000000000000000000000000202010002020508080000FFFF34120000000000000000020201008000000000000000000000000000000000000000000000000010
S284000500000000000000000000000000000000000500FF00000200001E00000334120103030000B80B000010270000010001E803000004E80300001041746D656C2020202020202020202020000000000000000003010085000000070507040205020400000008010803020A01005F0035000E0114100C0E0800150E0100220E0400260E86
S2840005800100D10E0100D20E0100D90E0800D50E02005E0E0200670E0100CD0E0100E30E0100D30E0100290E01002A0E01002B0E01002C0E0100270E02002D0E0100CF0E0100CE0E0100EB0D0100ED0D0100530E0800C10D0400390E04002E0E0400320E0400360E0100370E0100380E0100420E1100CA0E01003D0E01003E0E04005B0EA9
S2840006000100EE0D02005D0E01005C0E010000000000530502005705010055050200590501005A0501005B0501005C0501005D0501005E0501005F05010060050100580501006105010062050100700502006505010066050100670501006C050400630501006405010068050100690501006A050200AB060000CA070000300700008708B3
S284000680000000000000B1080000000000004F0D0000000000008D0B000000000000C40B0000EF0B0000090D00000000000000000000EC0B0000810D0000970D0000A2109111A610AA108D11AE108A2AD82F0000000000000000000000004A43CF44C74EB64600000000000000001E490000E5510000623EC93DFD4F583D00000000000090
S284000700000000000000020203020202010101010101010202010101020202020202020202020202020303020203020000000001070000000001010000000001017D44C94201010000000001010000000001074B4429430101000000000101000000000107000000000101000000000103000000000104000000000105000000000106002D
S284000780000000010C00000000010100000000000100000000010D0000000001070000000001090000000001000000000001010000000001010000000000000000CA3E00070000CA3E000B0000CA3E00000000CA3E00383AB13B00000000000000003F3A0000E33A463A0000193A523B000000000000EA3A0000253C000000000000BF53A2
S284000800000000007F43000000000000112480910815823141F084B78F718093081580FF05C081E001C081E18093081514BE809160008861809360001092600011241FBECFEFD1E4DEBFCDBF13E0A0E0B2E0EAE5FAE101E00BBF02C007900D92AA31B107D9F715E1AAE1B3E001C01D92A830B107E1F70E946C5A0E942E5AFDCF0C94000019
S2840008807F937FB7F8949D9AA5988AEF0E949F048AEF0E949F049D9886E40E949F0481E0959980E08F9380EF0E949F048F917FBF7F9108957F937FB7F8949D9AA59886E00E949F049D988AE00E949F04889495990894881F8F9384E60E949F048F917FBF7F9108959F937F9398E00E945A04879577959A959923C9F7872F7F919F91089519
S2840009007F937FB7F894A5989D9A8F9386E00E949F048F91879508F49D988F9384E60E949F048F919D987FBF7F9108959F9398E00E9480049A959923D9F79F91089500000000000000008A958823C9F708955F937F937FB7F894CF93DF93C0E0D0E07F935091B2007091B2007517E1F3739521965091B2005717D9F77F91CE01DF91CF917F
S2840009807FBF7F915F9108950F93DF93CF93CDB7DEB760970FB6F894DEBF0FBECDBF002309F459C029833A834B835C836D837E838F839887E0E2E01B29813A814B815C811E16BCF019861A861B861C868E2F992787FD9095909581959F4F04C0220F331F441F551F8A95D2F72D873E874F87588B2AC0CA01B901002E04C0660F771F881F12
S284000A00991F0A94D2F769877A878B879C87DA01C90104C0B695A79597958795EA95D2F72D813E814F81588504C0220F331F441F551F0A95D2F7822B932BA42BB52B8D879E87AF87B88B29853A854B855C856D857E858F85988960960FB6F894DEBF0FBECDBFCF91DF910F91089508958091220390912303009779F086E0809324032FB70E
S284000A80F89480914F049091500494609093500480934F042FBF0895EF92FF92CF93DF93DC011F968C911F97882369F510922303109222030E940E0DC1E7D4E0CE0160E072E00E940B8D7E01EC2FFF2DDF010D900020E9F7AD01415050404E1B5F0B85E293E0BE010E94A01180E00E940E0D82E08093240387E792E00E94302B8FE792E04A
S284000B000E94302B09C081E090E0909323038093220386E0809324032FB7F89480914F049091500494609093500480934F042FBFDF91CF91FF90EF90089580E00E942E0D089581E00E942E0D089580916F04909170049C012F5F3F4F3093700420936F0486309105BCF584E993E09093AD038093AC0383E090E09093AB038093AA0381E018
S284000B8090E09093A6038093A50322E02093990310929B0310929A0321E02093A4039093A8038093A7032093A9038091AE0384608093AE031092AF0381EA95E09093B1038093B00387E993E00E944C2881E00E942E0D089586E493E00E94EB0E0895A3E0B0E0E5EFF5E00C94488C0E946260813041F486E395E09B838A83CE0101960E9435
S284000C0030612396E2E00C94648C88E893E1A0E0B0E08093590390935A03A0935B03B0935C0310925D038FEE95E090935F0380935E0383E593E00E94BF0E0895A1E0B0E0E4E2F6E00C94468C80912403823009F497C0833030F4882359F0813009F0B6C05AC0853009F469C0863009F0AFC091C088EC80933003109231031092450389E159
S284000C8090E0909333038093320386E080933403109235031092360310923A031092390310923C0310923B0301E714E010933E0300933D0384EF91E09093400380933F031092420310924103109244031092430385E293E00E941E120E940A0D80E00E941E0D81E00E941E0D81E080932403C80161E272E00E940B8DD8010D900020E9F7C2
S284000D00AD0141505040401B510B85E293E0B8010E94A0114FC019828CE1BE016F5F7F4F0E94540E8CE495E0909373038093720380E693E00E94E26249C080E00E940E0D82E08093240380E293E0A0E0B0E080934C0390934D03A0934E03B0934F031092500385EA95E0909352038093510386E493E00E94BF0E83E593E00E94EB0E26C0D2
S284000D8087E792E00E94302B8FE792E00E94302B1DC08FEF93EDA0E381509040A040E1F700C0000081E00E942E0D0E94050681E0809324032FB7F89480914F049091500494609093500480934F042FBF2196E4E00C94628CA4E1B0E0E0EFF6E00C94468C8E010F5F1F4F24E1F80111922A95E9F7FC0180818F3861F0803928F4853089F02C
S284000E008035F9F434C0803949F08239D1F404C0C80163E472E01BC085E004C080E00E941E0D86E0809324032FB7F89480914F049091500494609093500480934F042FBF16C08E010F5F1F4FC80165E672E00E940B8DF80101900020E9F7AF0141505040401B510B85E293E0B8010E94A0116496E4E00C94628C809122039091230300972B
S284000E8079F086E0809324032FB7F89480914F049091500494609093500480934F042FBF0895089508950895A6E0B0E0EAE5F7E00C94468C8E010F5F1F4F26E0F80111922A95E9F7FC0123E0F695E7952A95E1F7E00FF11F8770907021E030E002C0220F331F8A95E2F72083C8010E94800BD801E9E8F6E0CE0107963D912081232B2193B4
S284000F00A817B907C9F78091A40684608093A4062696E4E00C94628C02C00E94695A0E94AE148823D1F708950F931F93CF93DF938C01EB010E948C07C801BE010E94D5132FEF8F3F920739F087E0C335D80729F40E948C0702C081E001C080E0DF91CF911F910F9108950F931F93CF93DF938C01EB010E948C07C801BE010E9439142FEF96
S284000F808F3F920739F087E0C335D80729F40E948C0702C081E001C080E0DF91CF911F910F9108952F923F924F925F926F927F929F92AF92BF92CF92DF92EF92FF920F931F93DF93CF93CDB7DEB762970FB6F894DEBF0FBECDBF8091A40682608093A40682FF94C087EB93E069E876E00E94310C8091A4068B7F8093A40688C0E090BD0399
S284001000F090BE03F70103E0F695E7950A95E1F7E958F94FC70187709070960102C0220F331F8A95E2F7C901809592898923828B69857A854B855C8580E00E94510C982E588A4F863A8A298A8F81988505979E878D87C50163E577E00E9494078A819816A1F58D819E81E816F90679F52B853C858B819C812817390741F581E090E08C0FCB
S2840010809D1F988B8F87DA8AC98A00E010E017C08F819885800F911F9E878D87C50163E577E00E949407AF85B889E985FA85E00FF11F9C918081981741F40F5F1F4F8B859C850817190720F336C09A82FE82ED828B859C859C838B83CE010296988B8F8785E090E09A8B898B8F81988505979E878D87CE010D9663E577E00E94B307CE0134
S284001100079662ED77E00E94B30727C017E0612E712C6C0E7D1EB1E0CB2ED12CA2E04A2E512C4C0E5D1EF5E02F2E312CEDE0AE2EB12CAC0EBD1E87EB93E0B3010E94200B882309F05BCF8091A4068D7F8093A4068FE060E070E00E94575962960FB6F894DEBF0FBECDBFCF91DF911F910F91FF90EF90DF90CF90BF90AF909F907F906F9020
S2840011805F904F903F902F900895282F392FF90180E09191992329F48F5F8630D1F780E0089581E008959C01CB0146E0DB011D924A95E9F7F90143E0F695E7954A95E1F7E60FF71F2770307041E050E002C0440F551F2A95E2F72081242B20830E94800B0895972F882319F08130A1F40EC0AFE8B6E0E62FF72F9D9180818923819386E066
S284001200A539B807C1F791E006C0862F0E94C30C91E0811190E0892F08950E9454078091A40681FD02C00E94D20781E00895A6E0B0E0EDE1F9E00C94468C8E010F5F1F4FB8010E94D30880E0B8010E94F108C8010E94C508882381F0A3E8B6E0F8019D9180818923819386E0A938B807C1F7CE0101960E94C50801C080E02696E4E00C94C9
S284001280628CA8E1B0E0E7E4F9E00C943C8C00E211E010937806009377068AEA91E090937A06809379068AEA91E0801B910B26E030E0B9010E94028C80917B0690917C06682B792B70937C0660937B068EEC91E08A5A9140B9010E94028C80917D0690917E06682B792B70937E0660937D0610927F0610928006109281061092820686E038
S284001300EFE8F6E0DF011D928A95E9F7AA2483E1882E912C8C0E9D1EB1E0CB2ED12C38C0C401B80146E050E00E94D38C8D899E890596A0E0B0E020917F06309180064091810650918206820F931FA41FB51F80937F0690938006A0938106B09382068F89988DFC01A3E0F695E795AA95E1F7E958F94F87709070960102C0220F331F8A95C3
S284001380E2F7C901208D282B208F0A5F1F4FA39420917B0630917C068A2D90E08217930708F4BECFC901880F991F820F931F880F991F04966C01EE24FF24CE010D969A87898786E090E09C878B87AA24BB2400E010E067E0862E912C8C0E9D1E53E1652E712C6C0E7D1EF80143E0F695E7954A95E1F7E958F94F808D90E0980127703070E8
S28400140002C0969587952A95E2F780FF3DC0C501880F991F8A0D9B1D880F991F049698878F83C40163E577E00E94940789899A898017910749F48D859E85AF85B8898C159D05AE05BF0559F01A8B098BCD86DE86EF86F88AC40163E577E00E94B307C8010E94640ABC01C30146E050E00E94D38C8D899E890596A0E0B0E0C80ED91EEA1EC8
S284001480FB1E0894A11CB11C0F5F1F4F0D32110509F0A9CF0E945B0ACE0101960E94C30C6896EEE00C94588C8091A2069091A3060E940D09089510929F0684E59AE09093A1068093A0060895A2E0B0E0EAE6FAE00C943E8C4C010091770610917806EE24FF245E010894A11CB11C13C06801B8016C5F7F4FC50142E050E00E94D38C0A5F4C
S2840015001F4F89819A818815990561F00894E11CF11C80917B0690917C06E816F90630F3CC24DD24C6012296ECE00C945A8CA2E1B0E0EDE9FAE00C94458C8B01BC0153E0769567955A95E1F7FB01E958F94F208D30E0AC014770507002C0369527954A95E2F720FF4AC0DE011D96EFE8F6E026E001900D922150E1F7FF2420E030E0FE018C
S2840015803D961BC0DF01A40FB51F4C91542F569555754575540F452F4695469543735373450F4C93A42FA295AF7050E04F7050704A0F511D240F351FF3944F2D50E04617570700F3A0E087709070FE013D96E60FF71F0DC0408150E00A2E02C0569547950A94E2F741705070240F351FAF5F4A2F50E04817590770F302C02FEF3FEFCE01C7
S28400160007969C838B83C901880F991F820F931F880F991F04969A83898386E090E09E838D83CE01019663E577E00E9494078F819885F801918380836296E5E00C94618CA6E0B0E0E6E2FBE00C94448C7C018B0180E090E0FC0163E0F695E7956A95E1F7EE0DFF1D6081AC0147705070262F30E0042E02C0369527950A94E2F720FF10C0DB
S28400168021E030E002C0220F331F4A95E2F72095262320830E94640ABC01009731F426C001968D329105B1F621C0CE01019646E050E00E94D38C89819A81F801938382838D819E81B8010E94970AF801808191810596918380838B819C81958384838D819E81F7019783868381E006C08FEF9FEFF7019783868380E02696E6E00C94608C2A
S2840017004F925F926F927F929F92AF92BF92CF92DF92EF92FF920F931F93DF93CF93CDB7DEB728970FB6F894DEBF0FBECDBF8C013091790620917A06FC01858186FD12C0C901E92EF82ECC24DD2483E0482E512C4C0E5D1EB1E0AB2EB12C3E010894611C711C61C0C8016FEF70E046E050E00E94048D61C0C201B70146E050E00E94D38CD9
S2840017802F813885F901A3E0F695E795AA95E1F7E00FF11F408127703070842F90E0022E02C0969587950A94E2F780FF35C0C50102C0880F991F2A95E2F79C01209524232083992422C0880F991F6B817C81680F791FC30142E050E00E94D38C89819A81FC0173E0F695E7957A95E1F7E00FF11F87709070950102C0220F331F8A95E2F7CA
S284001800C9012081282B20839394892D90E02D813E8182179307B8F20894C11CD11C86E090E0E80EF91E80917D0690917E06C816D90608F49FCF28960FB6F894DEBF0FBECDBFCF91DF911F910F91FF90EF90DF90CF90BF90AF909F907F906F905F904F900895CF93DF93EC018FEF9FEF9F838E83DE01862F972FFC0186E001900D928150CD
S284001880E1F7CE010E94800BEFE8F6E0919188818923899386E0E539F807C1F7DF91CF910895262F372FF90120E030E004C09191890F2F5F3F4F24173507C8F30895ACE0B0E0E5E6FCE00C94418C7C018B01CE0102969A87898785E090E09C878B87FB0180819181059798878F8387E0C82ED12CCC0EDD1EC60163E577E00E9494078D8102
S2840019009E81E816F906C1F5F801248135818B819C812817390781F5CE0101969A87898781E090E09C878B87EE24FF24BB24C601DC2CC92E18C0F801808191818E0D9F1D98878F838D2D9C2D63E577E00E94940769857A858B2D41E050E00E94510CB82E0894E11CF11CF80184819581E816F90610F38A81B81611F082E001C080E02C9628
S284001980E9E00C945D8CAEE0B0E0E9ECFCE00C94408C8C0147E0E42EF12CEC0EFD1EC701B8010E94310C86E0D8011D928A95E9F7BE2CAF2C7E010894E11CF11C31E0C32ED12C1DC08D859E85B7010E945F0C8823B1F48D859E85FC0123E0F695E7952A95E1F7E00FF11F87709070960102C0220F331F8A95E2F7C9012081282B20838B2D4A
S284001A009A2DB7010E94200B8823E1F62E96EAE00C945C8C6A9A6B9A80E00895813039F0813018F0853049F404C0729808957398089580E00E940E0DFACF0895813039F0813018F0853049F404C0729A0895739A089580E00E941E0DFACF0895882319F0813051F405C08EB194E089278EB908958EB198E089278EB908958091BF0380FFDA
S284001A8007C08091BF038E7F8093BF030E947A0D8091BF0381FF07C08091BF038D7F8093BF030E94BE0D8091BF0382FF07C08091BF038B7F8093BF030E94C70D8091BF0383FF07C08091BF03877F8093BF030E94D00D8091BF03882361F02FB7F89480914F049091500491609093500480934F042FBF08958091C00381FF12C08091C00308
S284001B008D7F8093C0038091C00384608093C003E091C103F091C203309711F081E009958091C00382FF29C0659B16C08091C0038B7F8093C0038091C0038E7F8093C003E091C303F091C403309711F081E0099585E00E94671208958091BF0381608093BF032FB7F89480914F049091500491609093500480934F042FBF0895E091A70681
S284001B80F091A80681E060E070E009950895E091A906F091AA0681E060E070E009950895E091A506F091A60680E090E009950895E0EFFDE082E3DF011D928A95E9F77C9687E080930C0E118212821382148215821682178285E08093150E8EE59EE060E674E046E850E00E94D38C81EC9DE066EE74E04FE250E00E94D38C8FEB9DE065E19F
S284001C0075E042E050E00E94D38C82E29EE067E175E04CE350E00E94D38C84E197E0EBEAF6E0DF019C011D9221503040E1F70895A4E0B0E0EEE1FEE00C94488C682F70E0660F771F660F771F6E587A4FCE01019644E050E00E94D38C69817A818B819C812496E2E00C94648C0E94D80D0E9441090895EF92FF921F93CF93DF93182FEB015E
S284001C80209761F00E94180EAC01183220F0CE010E94D38C03C0CE010E94E98CDF91CF911F91FF90EF900895EF92FF92CF93DF93EB01209771F0883260F406C0CB01BE01A9010E94E98C05C00E94180E9C010097A9F7DF91CF91FF90EF900895CF93DF93EB010E94180E009711F479836883DF91CF910895EF92FF920F931F93CF93DF93CC
S284001D0018C086EC93E060E070E0AE010E949D168A85882359F4EA82FB820C831D8386EC93E0BE01A80197010E94E514EB85FC8509958091C6039091C7030097D9F00E94451A7B018C01C091C603D091C7038A819B81AC81BD81A8019701281B390B4A0B5B0B8E819F81A885B985281739074A075B0738F6CDB7DEB7E6E00C94608CCF938F
S284001D80DF93EC01009771F0E091C603F091C70306C0EC17FD0749F00190F081E02D3097C1F709C02FEF3FEF02C020E030E0C901DF91CF9108950E94451A9B01AC01198218826A837B838C839D8386EC93E0BE010E94E514EACFCF93DF93EC010097D1F08091C6039091C7038C179D0749F086EC93E0BE010E94BC16BC01009719F40AC01E
S284001E0060E070E086EC93E0AE010E949D1620E030E002C02FEF3FEFC901DF91CF9108958F929F92AF92BF92CF92DF92EF92FF920F930E94C9174B015C012091DA0330E040E050E060E070E080E090E000E20E94C404282939294A295B290F91FF90EF90DF90CF90BF90AF909F908F9008958091CC0382FF0BC09FB7F8948091CC038B7FC9
S284001E808093CC039FBF0E947A0EA9C08091C80380FF0BC09FB7F8948091C8038E7F8093C8039FBF0E9418209AC08091C80381FF0BC09FB7F8948091C8038D7F8093C8039FBF0E942C188BC08091CC0380FF0BC09FB7F8948091CC038E7F8093CC039FBF0E947C1E7CC08091CC0383FF0BC09FB7F8948091CC03877F8093CC039FBF0E94C3
S284001F000F1E6DC08091CA0386FF0BC09FB7F8948091CA038F7B8093CA039FBF0E941F175EC08091CA0387FF0BC09FB7F8948091CA038F778093CA039FBF0E94B2104FC08091CB0381FF0BC09FB7F8948091CB038D7F8093CB039FBF0E94CB1640C08091CB0382FF0BC09FB7F8948091CB038B7F8093CB039FBF0E94B51431C08091CB0307
S284001F8080FF0BC09FB7F8948091CB038E7F8093CB039FBF0E942B1922C08091CC0381FF0BC09FB7F8948091CC038D7F8093CC039FBF0E94B21313C08091CC0384FF0FC09FB7F8948091CC038F7E8093CC039FBFE091E40EF091E50E309709F009958091C803882381F48091C903882361F48091CA03882341F48091CB03882321F480918D
S284002000CC03882361F02FB7F89480914F049091500482609093500480934F042FBF0895CF93DF93E82FF0E0DF01A05CB04093E0B595A7959A95E1F7B0E0AA0FBB1FA353BC4F6D917C9111976115710599F14FB7F894EB012A813B81888199814FBF2817390729F12D913C911197E901288D398D280F391FE901388101962081206420834F
S28400208036830D90BC91A02D5A962D913C915B978217930711F480E090E02181206221832FB7F894FB01918380832FBF03C0818180648183DF91CF91089590E0805C904033E0959587953A95E1F7E82FF0E0EE0FFF1FE353FC4FA081B1811097B9F090968C919097887191F42FB7F89418968D919C9119972FBF009749F00190F081E02D8F
S284002100048CF58DE02D309709F009950895FC0193898385992349F4803C19F0883C89F402C06A9A0895559A0895803C19F0883C41F404C06A987298729A089555985D985D9A089580EC0E941010089580EC0E945D10089588EC0E941010089588EC0E945D100895A3E0B0E0E8EBF0E10C94438C81E0898306E010E0DD2452E0E52EF12CE2
S284002180EC0EFD1E9091D40389818923B9F09FB7F8942091D403898182278093D4039FBF6D2D70E0660F771F6254794FC70142E050E00E94D38CEA81FB810995D3948981880F898301501040E9F62396E7E00C945F8C9091D40321E030E002C0220F331F8A95E2F7922B9093D4038091CA0380688093CA032FB7F89480914F049091500469
S28400220082609093500480934F042FBF0895CF93DF93C82FD0E0DE01A05CB040E3E0B595A795EA95E1F7B0E0AA0FBB1FA353BC4FED91FC911197309721F489818F77898335C080A183FD32C0C489D58984FF0AC06883ED91FC911197848995890196958B848B24C0209711F126813781868197810196978386834681578186899789481749
S284002280590711F41782168246815781848195814817590719F43783268308C0C20FD31F688380859185019691878087DF91CF91089590E0805C904033E0959587953A95E1F790E0DC01AA0FBB1FA353BC4FED91FC911197309701F16FB7F89442815381208131816FBF4217530711F421E02287FC01EE0FFF1FE353FC4F0190F081E02D69
S284002300828D938D009711F4118E108E068CF78DE02D309709F00995089588EC0E945911089580EC0E9459110895805C893030F4E82FF0E0E156FD4F8081089580E00895A0E0B0E0E6EAF1E10C94408CEC018B017A01009709F46AC0CB848C2D0E949511882309F463C00115110509F45FC0E114F10409F45BC0EC2DF0E0E05CF040B3E025
S284002380F595E795BA95E1F7F0E0EE0FFF1FE353FC4F80819181C817D90709F047C08A8D9B8D009779F42A813B818881998128173907E1F5198F088FFB82EA8219821882C7012CC08FB7F894CA80DB80A880B9808FBFD801960180E090E015C0A9014F5F5F4F6A8D7B8D4617570711F440E050E04A155B0559F06D91E88DF98DE20FF31FE6
S284002400608301969A018E159F0540F34FB7F8943B832A834FBFCA14DB0431F41A86EB85F0E02181206221839C0102C02FEF3FEFC901CDB7DEB7EAE00C945C8C1F93CF93DF93EC010097E1F11B85812F0E9495118823B1F1E12FF0E0E05CF04033E0F595E7953A95E1F7F0E0EE0FFF1FE353FC4F80819181009721F5D183C0838C858034FE
S28400248019F4CE010E948710198218821B821A828C899D89009711F41F8A1E8A888D998D009711F41B8E1A8E1D821C821F821E8281E08A87CE010E94761A2B8530E002C02FEF3FEFC901DF91CF911F9108958830C0F4E82FF0E0EE0FFF1FE551FC4F208131812115310569F09DB321E030E002C0220F331F8A95E2F7922B9DBB20E030E094
S28400250002C02FEF3FEFC9010895E091D503F091D60387E0828380E98093BC008091CC0382608093CC032FB7F89480914F049091500482609093500480934F042FBF0895E091D503F091D6038281823031F08281833019F08281843019F48581880F06C08281853049F48581880F8F5F8093BB0085E88093BC0008950E9485120895E09194
S284002580D503F091D60320813181868197812817390780F480819181A085B185A80FB91F2C910196918380832093BB0085E88093BC00089586E0828384E98093BC008091CC0382608093CC032FB7F89480914F049091500482609093500480934F042FBF0895E091D503F091D60383859485A585B68520813181215030403183208320815B
S284002600318143E0220F331F4A95E1F704C0B695A795979587952A95D2F78093BB0085E88093BC0080819181009741F48281823019F484E08283089585E082830895E091D503F091D6038281843019F40E94BF1208958281823019F08281833019F40E94F11208958281853021F485EA8093BC0008950E9485120895E091D503F091D60318
S28400268082818530A1F4868197818130910521F48091BC008F7B03C08091BC0080648093BC008091BC0085688093BC0008950E9485120895E091D503F091D6039281953011F520813181A085B185A20FB31F8C932F5F3F4F31832083208131818681978101972817390720F48091BC00806403C08091BC008F7B8093BC008091BC00856842
S2840027008093BC0008950E9485120895E091D503F091D6039281953011F520813181A085B185A20FB31F8C932F5F3F4F3183208386E0828384E98093BC008091CC0382608093CC032FB7F89480914F049091500482609093500480934F042FBF08950E9485120895A091D503B091D6031F96ED91FC9150973097A1F012968C9112978630D2
S28400278049F48091BC0084FDFCCF81E012968C93129704C081E012968C9380E00995089581E012968C9312970895FC018091D703882309F057C0309709F457C08481958120813181820F931F20E18130920708F04CC081E08093D7037093ED0E6093EC0EA6EEBEE086E001900D928150E1F7F999FECF80E090E017C0E091E80EF091E90EAB
S284002800E80FF91F2091E60E3091E70EA9014F5F5F4F5093E70E4093E60E32BD21BDF89A20B5208301962091EA0E3091EB0E8217930710F31092EB0E1092EA0E8091CB0384608093CB032FB7F89480914F049091500482609093500480934F042FBF20E030E005C02EEF3FEF02C02FEF3FEFC9010895CF93DF93FC019B018091D7038823D4
S28400288009F063C0309709F463C06081718184819581860F971F40E18130940708F058C081E08093D703A6EEBEE086E001900D928150E1F73093ED0E2093EC0E2115310519F4C0E0D0E033C0CB0101969093E70E8093E60EE091E80EF091E90E4191F093E90EE093E80E8CE00E94C01D8091EA0E9091EB0E01979093EB0E8093EA0E22C06F
S2840029006091E60E7091E70ECB0101969093E70E8093E60EE091E80EF091E90E4191F093E90EE093E80E84E00E94C01D21968091EA0E9091EB0EC817D90710F3F999FECF1092D70320E030E005C02EEF3FEF02C02FEF3FEFC901DF91CF91089581E09091D703913009F080E008958091EA0E9091EB0E009751F41092D703E091EC0EF09128
S284002980ED0E309709F1099508956091E60E7091E70ECB0101969093E70E8093E60EE091E80EF091E90E4191F093E90EE093E80E8CE00E94C01D8091EA0E9091EB0E01979093EB0E8093EA0E0895A2E1B0E0EBEEF4E10C94388C9A878987DB012B873C874D875E87FC01E080F180E114F10409F497C1222433244B855C856D857E859A0135
S284002A00AB0160E070E0CB0129833A834B835C836D837E838F839887F88AEF86F701BA8BA98B02C01F01FC01E280F3800481158126813781408551856B857C858D859E856E157F058007910708F48FC060E070E0CB0157016801EE24FF248701622E6A0C77247394621608F07724932E9B0C88248394931608F08824790C552453947914D2
S284002A8008F055248528542E5C0C99249394541608F09924850C44244394851408F044249428052F0D0D11E0051708F010E0900EEE24E394901608F0EE241E2944244394161608F0442401E0171608F000E055245394181608F05524A62C7981A71A21E06A1408F020E0972D8A81981B81E0791608F080E0492F421B21E0941708F020E0E9
S284002B00822B282D9B81291B91E0821608F090E0522F581B81E0251708F080E0982B292DAC812A1B81E0921608F080E0E22EE91A91E02E1508F090E0892BB12FB81B8B2F91E01B1708F090E0242D291B922F21E0491608F020E0302F321B232F31E0021708F030E0142F052F95C039014A01AA24BB24650110950095F094E094E11CF11CCF
S284002B80011D111D722F7E1961E0271708F060E0872D8F1991E0781608F090E0A82FA61B6A2F552453948A1708F055249529582C501A81E0851408F080E0B52DB91B9B2F442443945B1608F044248429292D211B31E0921608F030E0E22EE81A81E02E1508F080E0832B819551E0181608F050E0519541E0151608F040E0419521E01416FD
S284002C0008F020E0522E5194A72E2981A21A11E07A1508F010E0262F3A81231B31E0621708F030E0622F611B162F61E0211708F060E0362B692F7B81671B21E0961708F020E0062F031B91E0601708F090E0292B3E2D9C81391B91E0E31608F090E0E32EE21A21E03E1508F020E0922B682F691B91E0861708F090E0A52FA91B9A2F81E041
S284002C805A1708F080E0242F281B31E0421708F030E0862F531A69F5222359F5992349F5882339F5A989BA8916962D913D914D915C91199760E070E0CB01992321F51816C0F0882301F51716A0F07723E1F4161680F06623C1F4E51660F05E15A1F4041740F0401781F4131720F0311761F4A21650F480819181009709F094CE8F01A98939
S284002D00BA891F0111C0EF84F8888F01A989BA89EE15FF0541F41196FC93EE93E985FA85B183A08306C0CF01F101B183A0838D939C936296E2E10C94548CCF93DF93FC01DB01EA01808191814817590739F48881998119821882808391830BC08881998111969C938E93198218828C9111969C911197DF91CF910895DC01ED91FC911197CC
S284002D8006C0808191818617970719F0FC013097C1F7CF010895E091D803F091D9030284F385E02D309709F00995089523982B981CBC0895E091FF03F091000426813781848195812817390769F0A48DB58D8481958101969583848384819581A80FB91F8C918EBD0895E091FF03F0910004309719F40E94D61608954285538522853385F4
S284002E002F5F3F4F33872287228533852A30310511F41386128662857385208531856217730719F45387428708954251514FDA018C938485958501969587848708952FB7F894E091FF03F0910004848595852FBF009731F005A0F6A1E02D309709F0099508958FB7F8941092DD031092DC031092DB038FBF08958091100480FF0FC081E0F9
S284002E800E94F01D809170008D7F809370000E943117809110048B7F809310040895809170008C7F809370008091B60080628093B6001092B2001092B0001092B1001092B3008091B60090E08F7190700097C9F783E087BB87E08093B1008091700081608093700008958091B60090E08F7190700097C9F7809170008C7F809370008091D4
S284002F00B100887F8093B10083B5826083BD8091B60090E08F7190700097C9F78091B6008F7D8093B60008959B01AC016091B200862F90E080959095AA2797FDA095BA2F9070A070B07082179307A407B50778F4281B390B4A0B5B0BBB27A52F942F832F9093DC038093DB032093DD030895260F8091B60090E08F7190700097C9F72093A5
S284002F80B30082E087BB809170008260809370000895EF92FF920F931F938FB7F8949091DE032091B20034E43093B4004091B60050E04F71507041155105C1F7B89904C030E040E050E009C02091B20030E040E050E021503F4F4F4F5F4F8FBF8FEF989FC0011124AA2797FDA095BA2F820F931FA41FB51F9C01AD0175E0220F331F441F03
S284003000551F7A95D1F77C018D0162E016950795F794E7946A95D1F72E0D3F1D401F511FE090DF03F090E0030091E1031091E2032E0D3F1D401F511F281B390B4A0B5B0BB901CA011F910F91FF90EF90089560E270E080E090E008958FB7F8946091DE031092DE038FBF70E080E090E020E43FE140E050E00E94D78B9B01AC018091DF0319
S2840030809091E003A091E103B091E203820F931FA41FB51F8093DF039093E003A093E103B093E20382179307A407B50728F48091DA038F5F8093DA0308951F920F920FB60F920BB60F9211242F933F934F935F936F937F938F939F93AF93BF93EF93FF93809170008D7F809370001092DD038091100480FF03C080E00E94F01D8091100465
S28400310082FF11C08091C80381608093C8032FB7F89480914F049091500482609093500480934F042FBFFF91EF91BF91AF919F918F917F916F915F914F913F912F910F900BBE0F900FBE0F901F9018951F920F920FB60F920BB60F9211242F933F934F935F936F937F938F939F93AF93BF93EF93FF938091DB039091DC030097A1F5809142
S284003180DD038823E9F48091100480FF03C080E00E94F01D8091100482FF34C08091C80381608093C8032FB7F89480914F049091500482609093500480934F042FBF22C08091B60090E08F7190700097C9F78091DD038093B30082E087BB8091700082608093700009C08091DB039091DC0301979093DC038093DB038091100480FF02C065
S2840032000E945C1E8091DE038F5F8093DE038091C80382608093C8032FB7F89480914F049091500482609093500480934F042FBFFF91EF91BF91AF919F918F917F916F915F914F913F912F910F900BBE0F900FBE0F901F901895A0E1B0E0E1E3F9E10C94458C0091E3031091E403D80112968C911297823029F08430C9F0882331F074C0F8
S28400328070E060E088E0F82E6BC080E090E0D8011396ED91FC911497E80FF91F208120933F0101968031910591F75EC010923C0180E010923E018F5F8031D9F780913C01806880933C0180913D0180FFFCCFFE013196CE014196DF0120913F012D93A817B907D1F7219120933F01E817F907D1F7C7CFF8018281823019F410923C0102C001
S284003300F0923C01872F90E0AC01405F5F4F9C01D8011396ED91FC911497E20FF31FE081E0933E012F5F3F4F2417350789F720913C01206820933C0120913D0120FFFCCF20913E01D8011396ED91FC911497E80FF91F208301968417950791F7705F6F5FF8018581681728F283EE93E00E94BE578091E3039091E403009789F08091CB033E
S28400338081608093CB032FB7F89480914F049091500482609093500480934F042FBFD8011696ED91FC91179709956096E5E00C94618C80E197E29093A9008093A800E1EAF0E088E08083808182608083E2E7F0E080818260808308959B01AC018091E7039091E803A091E903B091EA03820F931FA41FB51F8093E7039093E803A093E903E2
S284003400B093EA038091CC0384608093CC032FB7F89480914F049091500482609093500480934F042FBF08958FB7F8946091E6031092E6038FBF70E080E090E02AE030E040E050E00E94D78B9B01AC018091E7039091E803A091E903B091EA03820F931FA41FB51F8093E7039093E803A093E903B093EA0382179307A407B50728F4809133
S284003480E5038F5F8093E50308950E94141A6091E7037091E8038091E9039091EA0308951F920F920FB60F9211242F938F939F938091E6038F5F8093E6038091CC0384608093CC032FB7F89480914F049091500482609093500480934F042FBF9F918F912F910F900FBE0F901F901895FC01A385B0E011961C92A385B0E08585968515968C
S2840035009C938E9314978485A385882349F4B0E082E08C93A385B0E012961C92129707C0B0E01C92A385B0E0828912968C93A385B0E012968C9112979485892B12968C93A385B0E012968C9112979785892B12968C93A385B0E012968C9112979089892B12968C93A385B0E012968C9112979189892B12968C93A385B0E08C9180688C9313
S284003580A385B0E011968C911197886111968C931197E385F0E081818068818308951F920F920FB60F920BB60F9211242F933F934F935F936F937F938F939F93AF93BF93EF93FF93E1ECF0E080818F7D808380E00E94E910FF91EF91BF91AF919F918F917F916F915F914F913F912F910F900BBE0F900FBE0F901F9018951F920F920FB6D3
S2840036000F920BB60F9211242F933F934F935F936F937F938F939F93AF93BF93EF93FF93E1ECF0E080818F7B808381E00E94E910FF91EF91BF91AF919F918F917F916F915F914F913F912F910F900BBE0F900FBE0F901F9018951F920F920FB60F920BB60F9211242F933F934F935F936F937F938F939F93AF93BF93EF93FF938091C00027
S2840036806091C6008C7131F480EC0E94071182E00E94E910FF91EF91BF91AF919F918F917F916F915F914F913F912F910F900BBE0F900FBE0F901F9018951F920F920FB60F920BB60F9211242F933F934F935F936F937F938F939F93AF93BF93EF93FF93E9ECF0E080818F7D808383E00E94E910FF91EF91BF91AF919F918F917F916F9120
S2840037005F914F913F912F910F900BBE0F900FBE0F901F9018951F920F920FB60F920BB60F9211242F933F934F935F936F937F938F939F93AF93BF93EF93FF93E9ECF0E080818F7B808384E00E94E910FF91EF91BF91AF919F918F917F916F915F914F913F912F910F900BBE0F900FBE0F901F9018951F920F920FB60F920BB60F9211241E
S2840037802F933F934F935F936F937F938F939F93AF93BF93EF93FF938091C8006091CE008C7131F488EC0E94071185E00E94E910FF91EF91BF91AF919F918F917F916F915F914F913F912F910F900BBE0F900FBE0F901F9018951F920F920FB60F920BB60F9211242F933F934F935F936F937F938F939F93AF93BF93EF93FF930E943B177A
S284003800E091EB03F091EC030995FF91EF91BF91AF919F918F917F916F915F914F913F912F910F900BBE0F900FBE0F901F9018951F920F920FB60F920BB60F9211242F933F934F935F936F937F938F939F93AF93BF93EF93FF930E943B17E091ED03F091EE030995FF91EF91BF91AF919F918F917F916F915F914F913F912F910F900BBEB3
S2840038800F900FBE0F901F9018951F920F920FB60F920BB60F9211242F933F934F935F936F937F938F939F93AF93BF93EF93FF930E943B17E091EF03F091F0030995FF91EF91BF91AF919F918F917F916F915F914F913F912F910F900BBE0F900FBE0F901F9018951F920F920FB60F920BB60F9211242F933F934F935F936F937F938F9310
S2840039009F93AF93BF93EF93FF930E943B17E091F103F091F2030995FF91EF91BF91AF919F918F917F916F915F914F913F912F910F900BBE0F900FBE0F901F9018951F920F920FB60F920BB60F9211242F933F934F935F936F937F938F939F93AF93BF93EF93FF930E943B17E091F303F091F4030995FF91EF91BF91AF919F918F917F9194
S2840039806F915F914F913F912F910F900BBE0F900FBE0F901F9018951F920F920FB60F920BB60F9211242F933F934F935F936F937F938F939F93AF93BF93EF93FF930E943B17E091F503F091F6030995FF91EF91BF91AF919F918F917F916F915F914F913F912F910F900BBE0F900FBE0F901F9018951F920F920FB60F920BB60F921124D9
S284003A002F933F934F935F936F937F938F939F93AF93BF93EF93FF930E943B17E091F703F091F8030995FF91EF91BF91AF919F918F917F916F915F914F913F912F910F900BBE0F900FBE0F901F9018951F920F920FB60F920BB60F9211242F933F934F935F936F937F938F939F93AF93BF93EF93FF930E943B17E091F903F091FA030995DD
S284003A80FF91EF91BF91AF919F918F917F916F915F914F913F912F910F900BBE0F900FBE0F901F9018951F920F920FB60F920BB60F9211242F933F934F935F936F937F938F939F93AF93BF93EF93FF938091B90090E0887F90708832910569F1893291059CF48031910521F18131910534F4009729F18830910589F51BC088319105D9F0C6
S284003B008032910551F51AC088349105B9F0893491053CF48033910589F080349105E9F410C08035910581F088359105B1F411C00E94A01212C00E941F130FC00E9485120CC00E943C1309C08091BB000E945A1304C08091BB000E948613FF91EF91BF91AF919F918F917F916F915F914F913F912F910F900BBE0F900FBE0F901F901895BF
S284003B80F999FECF07B600FCFDCF72BD61BD40BD9FB7F8948FBBF99A9FBF08951F920F920FB60F9211242F938F939F93FB988091CB0384608093CB032FB7F89480914F049091500482609093500480934F042FBF9F918F912F910F900FBE0F901F901895909110048170880F9C7F982B90931004E9E3F1E080818D7F80838091CC038160EF
S284003C008093CC032FB7F89480914F049091500482609093500480934F042FBF08958091100480FF48C08091A1008D7F8093A1008091FB039091FC03A091FD03B091FE030097A105B10551F40E94C9176093FB037093FC038093FD039093FE038091100483FD02C00E94BA57F999FECF8091100488608093100490913901926090933901CD
S284003C8082FF05C087E083BF889513BE0AC00E94731785E083BF889513BE0E944F170E94D11F84E48093B4008091B60090E08F7190700097C9F70895809110048160809310048091B60090E08F7190700097C9F78091CC0388608093CC032FB7F89480914F049091500482609093500480934F042FBF80E090E008950E94C9172091FB0368
S284003D003091FC034091FD035091FE03621B730B840B950B1092FB031092FC031092FD031092FE030E94EC198091A10082608093A100809141018F718830D9F780911004877F809310040E94B6578091100481FD07C0E0910104F0910204309709F0099508951F920F920FB60F920BB60F9211242F933F934F935F938F939F93AF93BF934F
S284003D80EF93FF93E091D803F091D903838126813781882349F48081918140917900280F391FD9014C930EC0808191814091780050917900DC01AA0FBB1FA20FB31F11965C934E93019691838083E091D803F091D903208131818085918528173907B1F480917A00877F80937A008091CB0382608093CB032FB7F89480914F04909150042F
S284003E0082609093500480934F042FBFFF91EF91BF91AF919F918F915F914F913F912F910F900BBE0F900FBE0F901F9018951F920F920FB60F920BB60F9211242F933F934F935F936F937F938F939F93AF93BF93EF93FF93DF93CF930F92CDB7DEB78EB589830E94DA1689810E94F3168091CA0380648093CA032FB7F89480914F049091ED
S284003E80500482609093500480934F042FBF0F90CF91DF91FF91EF91BF91AF919F918F917F916F915F914F913F912F910F900BBE0F900FBE0F901F901895A0E0B0E0E3E6FFE10C94388C10E0C2E8DBE800E892E8692E9BE8792E812C912C82E8A82E8BE8B82E0E94A7042BE88338920718F16E01EE24FF249C0140E050E022583B484040B3
S284003F005040C216D306E406F5064CF4123039F480916600815080936600000036C0209166002150209366000000EC01C258DB4811E028C02BE88238920739F16E01EE24FF249C0140E050E013012401221A330A440A550AC214D304E404F5044CF4113039F4809166008F5F8093660000000DC0209166002F5F209366000000E501C81B1E
S284003F80D90B12E0015009F0ACCFCDB7DEB7E2E10C94548C0E94B420882311F40E945D1F0895CF93DF93C8E8D3E188EC0E949F042197D9F70E94CA1FDF91CF910895CF93DF93EC01009741F10E9427182E813F81488559850E94D78B28EE33E040E050E00E94168C2115310541055105C1F08091100482FD17C0846080931004E3E0F4E057
S2840040008DE0099001928150E1F7CA01B9010E94941720E030E008C02FEF3FEF05C02EEF3FEF02C02DEF3FEFC901DF91CF9108958091100482FF24C090910D049923B1F4E0910E04F0910F04309709F009958091100482FF15C06091090470910A0480910B0490910C040E94941708958B7F80931004E0910E04F0910F04309709F00995B5
S2840040800895ADE0B0E0E7E4F0E20C94488CFC01009739F184819581909302048093010480819181A281B3818F839887A987BA8781E08B871D861C86CE0101960E94DF1F2FEF8F3F920781F02FEF8D3F920761F00E945C1E2FEF8F3F920749F42DEF3FEF08C02FEF3FEF05C02EEF3FEF02C020E030E0C9012D96E2E00C94648C8FB390E093
S284004100FC01E270F07081FDF9CF8FB7F89499E090935700E4918FBFEF70E23019F41092110403C081E0809311048FB7F89490911104992349F45F9350E85093610050E0509361005F9108C05F9350E85093610051E0509361005F918FBF80911104882311F40E94D11F089580911104089580912704982F9F5F909327040895DC01ED9171
S284004180FC9111979093B10F8093B00F10929D0F10929E0F809116048093A20F2091080F3091090F83899489B9010E94028C462F6093A00F83899489B9010E94028C009719F04F5F4093A00F8FEF90E00090C00D02C0880F991F0A94E2F780958E7F80939F0F0E94B7208093A10F0895FC01878983FF0AC081E090E02389348920363105E8
S28400420028F480E090E0089580E090E00895CF93DF934091F80E2091FD0E3091FE0E90E058C0F901225A3F4F578150FD51C0DF01AA5BBF4F11961C921E928230C1F0823018F0833009F048C09091FC0E2091FA0E921708F041C09F5F9093FC0E138214821582168290859F709087128228C02091FB0E9091F90E291778F53091FF0EA09134
S284004280000FB091010F90E014C0ED014C919396442371F42F5F2093FB0E21E02883DF01AA5BBF4F68961196DC93CE93228303C09F5F931750F32091FF0E291769F09085907F9087880F816087831182108206C09F5F941708F4A5CFE0E0F0E0CF01DF91CF9108952091FD0E3091FE0E821B930B6EE570E00E94028CEEE56E9FF001112422
S284004300E20FF31F8781869590E08230910571F0833091051CF08330910539F58091FC0E882319F181508093FC0E1FC08091FB0E882319F081508093FB0E2091000F3091010FDF01AA5BBF4F8D919C91821B930B63E270E00E94028CA3E26A9FD0011124A20FB31F8C9181111C9287818E7F8783089521E030E002C0220F331F8A95E2F788
S28400438080911504822B809315042FB7F89480914F049091500480629093500480934F042FBF0895CF93DF93EC01009729F16B8F4115510551F0FA0180819181A281B3818C8F9D8FAE8FBF8F04C01C8E1D8E1E8E1F8EE98DFA8D309719F0CE014B960995CE010E94F620882339F01092B10F1092B00F81E00E94B921DF91CF9108951F93E9
S284004400809128048150809328048091020F8330C9F110919C0F1123A9F181E08093020F6091C00D70E061507040882777FD8095982F2AE030E040E050E00E94D78B20913C0430913D0440913E0450913F04620F731F841F951F2091160430E040E050E00E94D78B60930A0F70930B0F80930C0F90930D0F115010939C0F87E194E00E946A
S284004480015A0AC01092020F10920A0F10920B0F10920C0F10920D0F1F910895A1E0B0E0E4E5F2E20C94468C8C0182E494E069830E94BE576981D80117966C9317971596ED91FC911697C801079609958091420490914304009719F080E00E94B9212196E4E00C94628C209128042F5F209328040E942A500895AF92BF92DF92EF92FF9296
S2840045000F931F93DF93CF930F92CDB7DEB78C015B01FB01E05BFF4F87E394E291838083FB01EE5BFF4F82E08083FB01ED5BFF4FD80113968D919C91149791838083FB01E65BFF4F58968C9158978083FB01E55BFF4F1082FB01E45BFF4F81E08083FB01E35BFF4F8083FB01E25BFF4F808357968C91579786FD0DC081E090E013962D91B0
S2840045803C911497BFEF283F3B0728F080E090E002C081E090E0F501E15BFF4F8083E090080FF090090FC8010E94F6208823E9F120919D0F422F50E08091A00F90E001974817590711F0DE2C06C02E9D802D1124F801D388D81A4091B20F5091B30F405E5F4F30E02E9DC0012F9D900D3E9D900D1124D80155962D913C915697280F391F7D
S284004600CA01B9014D2D50E00E94E98CF501EB5BFF4F8D2D865F8083F501EA5BFF4F8091B20F9091B30F469611C0F501EB5BFF4FD80153968C915397885F8083F501EA5BFF4F55968D919C915697089791838083F501EA5BFF4FE080F180F7012081822F8C7E8083D80113968D919C911497207EBFEF873F9B0710F02860F7012083D70161
S2840046809C91892F8F7D8C93F801278922FD03C09F799C9321C08064D7018C93F5012085207F21602087C80129830E94F62029812F70882351F08091A20F8295807F822BD50118968C93189707C0809116048295807F822BF5018087C8010E94F620D7019C918823E1F090689C9390919D0F18968C911897992359F48C7F816018968C9398
S28400470018978091A00F19968C9319970BC08C7F8260F701808780919D0F818703C09F77D7019C93F8018585D70111968C9311978089918913969C938E9312978685978515969C938E931497828916968C93C8010E94F620882329F08091A10FF701878305C00E94B720D70117968C93C50109960E94732280E00F90CF91DF911F910F9195
S284004780FF90EF90DF90BF90AF9008956091B00F7091B10FFB01808191810E947B22089520E63FE0A901405D5F4F5093610F4093600F92E090935C0F4091110F5091120F50935E0F40935D0F9BE090935F0F1092640F1092650F91E09093660F9093670F1092680F4FEF51E250936B0F40936A0F9093690F92E89093900F9091180F909331
S284004800910F4091140F5091150F5093930F4093920F4091160F5091170F5093950F4093940F9091130F9093960F9091190F9093970F92E09093980F90910F0F9093990F9091100F90939A0F90919B0F9093790F10920A0F10920B0F10920C0F10920D0F8093020FC901CD970E9473220895BC018091280481508093280485E294E00E9423
S284004880055881E00E94B9210895CF93DF93BC01C0914204D091430482E494E00E940558209719F480E00E94B921DF91CF910895A3E0B0E0EEE5F4E20C94428C8C01675F7F4F7B836A838DE0BE016F5F7F4F0E94390E8981D80153962C915397882309F43FC0CA80DB8081E0F60181AF13968D919C91149793AF82AF285F24AF5596ED9024
S284004900FC90569788EF9FEFE80EF91EF6AEE5AE8FEFD70111968C931197F8018089918913969C938E9312978685978515969C938E931497828916968C930E94B720D70117968C93D601DD96ED91FC91DE9788E08083EA81FB81E95BFF4F87E394E241C0CA80DB8082E0F60181AF8DEF9FEF93AF82AF275F24AFD8015596ED90FC905697E1
S284004980E7EFFFEFEE0EFF1ED601DE96FC92EE92DD97F80183819481D70112969C938E9311978089918914969C938E9313978685978516969C938E931597828917968C930E94B720F7018087D601DD96ED91FC91DE978CE08083EA81FB81E95BFF4F8BE495E291838083EA81FB81EF5BFF4FD80158968C918083EA81FB81EE5BFF4F8091F5
S284004A00BF0D8083EA81FB81ED5BFF4F81E08083EA81FB81EC5BFF4F8083EA81FB81EB5BFF4F8083EA81FB81EA5BFF4F80838A819B810E94732280E02396E8E00C945E8CA4E0B0E0E6E2F5E20C94478C182F89E1BE016F5F7F4F0E94390E612F70E080E090E020912C0430912D0440912E0450912F040E94D78B9B01AC0189819A81AB81EB
S284004A80BC81280F391F4A1F5B1FB901CA012496E3E00C94638C0F931F93CF93DF93EC018C0109541040D801DD96ED91FC91DE97818192816FEF0E94074C882349F0229787E394E299838883C8010E94ED4F03C0CE010E943724DF91CF911F910F9108958F929F92BF92CF92DF92EF92FF920F931F93DF93CF930F92CDB7DEB76B01B42EA0
S284004B00790180902A0490902B040091290426E1029F80011124080D191D009719F126E1822E912C880E991E1DC0F4012589243A11F02A3A99F4F4018085B81679F481859285C816D90651F4C401B70148E050E029830E94DC8C29810097B9F026E130E0820E931E8016910600F388249924C4010F90CF91DF911F910F91FF90EF90DF90E5
S284004B80CF90BF909F908F900895243A39F7EFCFA1E0B0E0EEECF5E20C943E8C4C017B010E948F396C01F701E45AFF4F0081118158EA5F0129C0F50111830083F80183858330A9F4C8010C960E942E540097D9F0F8012489F4012587FC0180819181F40194838383C401B7010E947B220AC0F80184859585F40194838383C401B7010E9454
S284004C005824582F0EC059EAF40160897189C8014289960159830E9470258C015981009751F6852F2196ECE00C945A8C1F93CF93DF93EB01FB01E45AFF4F118210820E94C825182F882319F0CE010E947221812FDF91CF911F910895A0E0B0E0E2E3F6E20C94418C8C01B62EC0912A04D0912B049091290486E1989F70011124EC0EFD1E48
S284004C803CE0C32ED12CC00ED11E35C0F8012185328590858D89843A11F08A3A59F58885981741F589859A852817390719F5CE01B80148E050E00E94DC8C0097D9F429C0813049F4F801248535858C859D852817390781F417C0F80194898C89981751F4BE01645F7F4FC60148E050E00E94DC8C009741F06696CE15DF0540F2F801B58AE9
S284004D00C0E0D0E07E01CE01CDB7DEB7E9E00C945D8CF80183859B85891761F7D1CFCF93DF930E94C38CEC0144E0CC0FDD1F4A95E1F7C0700E94C38C282F30E02C2B3D2BC901DF91CF91089588E36FEF7EE00E94390E8DE460E07FE00E946E0E2091000F3091010F60E083E290E00DC0462F50E0489FF001499FF00D589FF00D1124E20F5D
S284004D80F31F10826F5F4091FF0E641778F387E368EF7EE00E94390E8CE46DEF7EE00E946E0E8091F80EE091FD0EF091FE0E90E006C027812E7F27839F5FE25AFF4F9817C0F39091FF0E9093F90E823008F081508093FA0E1092FB0E1092FC0E8FE368E07FE00E94390E8EE367E07FE00E94390E8091070F882351F08EE463E07FE00E94D9
S284004E006E0E8FE462EB7FE00E946E0E4091070F50E08091080F9091090F489F9001499F300D589F300D11248091030F9091040F820F931F9093060F8093050F1092020F0895A1E0B0E0E7E2F7E20C94448C10E001E02EE55FEFE52EF12C42C0129FC0011124E091FD0EF091FE0EE80FF91F378130FF35C080858F70823089F53E7F323038
S284004E8011F0363061F583819481A581B6818A309105A105B10548F00A97A109B10983839483A583B68300E01AC08085807F846080871382148215821682363059F4C7010090C00D02C0880F991F0A94E2F7809580939F0F81E029830E94B92129811F5F8091F80E181708F4B9CF80910A0F90910B0FA0910C0FB0910D0F0097A105B1055E
S284004F0091F08B309105A105B10550F00A97A109B109E8EFFEE0828B938BA48BB58B09C082E00E94D023002321F087E194E00E940B5A2196E6E00C94608C0F931F93CF93DF938C01FC01C081D1816E3C11F0603F11F423E001C022E0F801E95AFF4F80819181A281B3818C8F9D8FAE8FBF8F6B8F233049F08A81882331F4CE01B8010E94DF
S284004F80C825883A61F4AE01445E5F4FF801808191816B8D0E94D221C8010E947221DF91CF911F910F910895CF93DF93EC01009709F44AC086EA8D8B8885882309F444C08F3F09F441C08B85833031F48C898823D9F18F3F19F438C08130B1F51D8ACE0160E00E942C26009709F53091290480912A0490912B0420E00BC0FC01458946961F
S284005000483A29F484EA858B309739F41DC02F5F231798F38EEA8D8B17C0DF0186E109900D928150E1F784EA858B09C0CE0166EA0E942C2624EAFC01258B009729F080E160E070E00E945759DF91CF910895FC01009709F186EA858B80858823E1F08F3FD1F08385833031F484898823A1F08F3F19F40895813079F4158ACF0164EA0E94AA
S2840050802C26009741F028EAFC01258B80E160E070E00E9457590895BC0180E494E00E94055881E00E94B9210895BC018AE394E00E94055881E00E94B9210895AAE0B0E0E4E6F8E20C94428CE090150E8EE2BE016F5F7F4F0E94390E8E01095F1F4F89E1B8010E94390E8F819885A985BA852E2D30E040E050E0281739074A075B0760F012
S284005100880F991FAA1FBB1F8F839887A987BA8789E1B8010E94540E2E2D30E0295F3F4F442737FD4095542F20932C0430932D0440932E0450932F04E980FF2400E010E0C801B701660F771F881F991F6E0D7F1D801F911F0E94D78B2F81388549855A85620F731F841F951F60933C0470933D0480933E0490933F0487E194E060E02AE088
S28400518030E040E050E001E217E20E94145A81E08B838EE2BE016E5F7F4F0E94390E8A8190E0A0E0B0E0880F991FAA1FBB1F8F3F9105A105B10529F020F08FEF90E0A0E0B0E00E9420256B017C0183E2BE016D5F7F4F0E94390E2B8180E090E0DC018C0D9D1DAE1DBF1D81509E4FAF4FBF4FCC0CDD1CEE1CFF1C215091F71B827C018D01AD
S284005200F9E016950795F794E794FA95D1F70894E11CF11C011D111D1E821D821C8289E3BE016C5F7F4F0E94390E87E4BE016B5F7F4F0E946E0E6D817E818FEFE816F1040105110531F028F0EFEFEE2EF12C012D112D80E394E04C8120E032E00E2DEE24E3940E9425582A96E8E00C945E8C882359F00E948F26809327041092280483E2B3
S28400528066E174E00E94390E109241041092400410923B0410923A04109226041092250410924504109244048AE090E0A0E0B0E08093A90F9093AA0FA093AB0FB093AC0F86EC93E29093AF0F8093AE0F81E08093AD0F86E260EC7DE00E94390E1092100F1092190F10920E0F1092150F1092140F10920F0F1092130F1092170F1092160F05
S2840053001092120F1092110F1092180F1092020F10920A0F10920B0F10920C0F10920D0F8EE5EAE1FFE0DF011D928A95E9F783E2E8E7FFE0DF011D928A95E9F74091070F50E08091080F9091090F0196489F9001499F300D589F300D11248091030F9091040F60E070E0A9010E94048D80E99FE09093610F8093600F0E945E280895A0E0CE
S284005380B0E0E5ECF9E20C94428C7C01EC012997809112049091130427E08030920709F061C00AC080E494E00E94BE57C80163EA40E050E00E94D22100914004109141040115110579F72DC085E294E0B8010E94CF572091FD0E3091FE0EC801821B930BB6010E94028C8EE5689FF0011124E20FF31F808191812781269530E0211531050E
S28400540021F02130310581F406C0A8014B5F5F4FF801628103C067EA40E050E00E94D22103C0AEE5CA2ED12C00912504109126040115110549F610E00EE510C0109F900111248091FD0E9091FE0E820F931FFC01278120FF02C00E9472211F5F8091F80E181760F3109215041092140481E00E9437290E94A4268A850E94254C0A85102F89
S28400548011700695017081E56AE274E00E946E0E8DE369E274E00E94390E000F012B033099F0E0912A04F0912B049091290486E1989FC00111248E0F9F1F28EA02C0258B7696E817F907D8F38A8581FF03C08FE394E002C080E393E09093130480931204F70180818E8782E494E00E94BE57EC85FD85CE010E96099580914204909143048C
S284005500009719F080E00E94B921CDB7DEB7E8E00C945E8CCF93DF93C0914204D09143048A818A3821F1853C09F44AC0893109F065C0809112049091130421E08031920719F480E092E002C080E097E090931304809312048A858D838B858E838FEB99E298878F83CE0103960E94195547C0809112049091130423E08033920721F026E07E
S2840055808031920751F48FE394E090931304809312040E945E281D8202C083EA8D8382E494E00E94BE57EB81FC81CE01059609958091420490914304009701F180E017C0809112049091130424E08F33920791F480E095E0909313048093120482E090E09C838B8387E194E00E940B5A81E00E94B92104C0CE0163EA0E944E22DF91CF91CB
S28400560008959C018FEF6F3F780731F4832F8095881F8827881F089581E02617370709F080E00895FC01009729F4809146049091470408958081918108951F93182FE0E0F0E005C0A381B4818C91181731F0CF010E94122BFC010097A9F7CF011F910895CF93DF93EC010097E1F086EA8F83EB81FC813097B1F08081982F9150903F88F41F
S2840056800E941D2B009769F421E08D819E81009709F020E02A8386E494E0BE010E9405581F82DF91CF910895A0E0B0E0EAE5FBE20C94438CEC0100E010E026C0D80112968C911297882301F51396ED90FC9014976C8D7D8DF701818192810E94012B882399F0D701DC908B8D8D1539F4EF84F8880E947A49E816F90639F08B819C816D2D21
S2840057000E94074C882339F4C8010E94122B8C010097A1F609C0DD86D8011596ED91FC911697CE010995F0CFCDB7DEB7E7E00C945F8CADE2B0E0EFE9FBE20C943E8C8C01C62EDC011A96ED90FC901B9715962D913C91169780E394E0B901F70147810E949358882309F42AC1D70111968C911197982F91509E3F30F40E941D2B5C010097CF
S28400578019F41CC1AA24BB24F801228183819481213009F022E02B839D838C83D70111968C918E87F801858196810E945D53FC01009799F083E08F8780818A8B81818B8B82818C8B83818D8B84818E8B85818F8B8681888F8781898F02C082E08F87D80115968D919C911697998B888B17968D919C9118979B8F8A8FF70186818C8F8481AA
S28400580095819E8F8D8F8281938198A38F8F19968C91199790E09C012A5030403AA329A31DA2208127FD04C09C012850304009C0D70118962C911897237029F49C01295030403AA329A329A13AA1821B930BF80122853385280F391F3CA32BA3CEA282898FA3848588A786859785A089B18989A79AA7ABA7BCA785858DA7D7018C9187FF0F
S28400588053C018968C9118978370823009F04CC0E091050FF091060F808189A31AA280809924B1E0CB2ED12C33C08091030F9091040FDC01A80DB91DE091050FF091060FEC0DFD1D40816091080F7091090FC69E9001C79E300DD69E300D1124280F391FCD01B90150E00E94E98CE091050FF091060FEC0DFD1D208189A19AA1820F911D14
S2840059009AA389A38081880E911C0894C11CD11C80910E0F90E0C816D9063CF28091030F9091040F9CA38BA3A114B10449F0D5011596ED91FC911697CE01019609953EC0F8018281813029F4CE0101960E94542B35C0D70111968C9111978F3F59F5EE24FF246E010894C11CD11C1DC0D7011396ED91FC911497A080AA20A9F012968C91D8
S2840059801297882381F46D8D7E8D818192810E94012B882341F0AE86D7011596ED91FC911697C6010995C7010E94122B7C010097E9F604C0CE0101960E942863F801168A0488F589E02DC80146960995AD96ECE00C945A8CA1E0B0E0E0EFFCE20C94408C8C01DC011A96AD90BC901B97F5018181982F91509E3FC0F40E941D2B7C0100971A
S284005A0009F423C1DC011396ED91FC911497D50114966D917C911597818192810E94012B882309F412C102C0EE24FF24F501808187FF04C09085937009F007C186FF03C18C70883009F401C1D80115962D913C911697BFEF273F3B0708F0F7C0E114F10429F0F7018281882309F0EFC0D5018C9186FFE5C08370813011F441E001C047E0C1
S284005A80F090F80EE091FD0EF091FE0EED5BFF4F50E0842F90E0B501680F791F1AC0DF01A354B0401796AC91A53081F4A081B1812A173B0759F4C380D480C80ED91EDB01EC90D601DC90ED1409F4B9C05F5FE25AFF4F5F1520F382E049830E9407214981009709F4ACC0FC01EA5BFF4F0190F081E02DDF0158972FEA11962C931197139627
S284005B001C930E931297DC01AE5BBF4F62E06C9353E4E52EF12CE80EF91ED80115962D913C911697D7012D933C93DC01A65BBF4F1C92DC01A55BBF4F1C92DC01A45BBF4F51E05C93DC01A35BBF4F5C93DC01A25BBF4F1C92DC01A05BBF4F27E334E22D933C93DC01A15BBF4F5C9320812C7F22602083D5013C913C70237F232B20833C9125
S284005B8030712F7E232B322F3F7930833C9130782F71232B20832C9150E035E4E32EF12CE80EF91E24FF0DC0D8011A962D913C911B97240F351FD9012C912183F701608339C028E0D7012C93D50116962C911697218312962D913C9113973383228314962D913C9115973583248311962C912683D8011A962D913C911B97240F351FD901CA
S284005C002C912783D5012C9127FF14C018962C911897237031F41086F70120812F5F208309C0D7012C912D5F2C93D50118962C912370208709960E94732291E001C090E081E08927B1C181E001C080E0F501908197FFA1C1F0849F2D937009F49CC1D80119968C911997E1844091070F442309F49AC196EFD92ED80E8091020F882321F00C
S284005C80813009F090C158C0BF2DB13009F08BC14E1508F488C18091080F9091090F2D2D30E08217930708F47EC150E00196489F9001499F300D589F300D11248091030F9091040F60E070E0A9010E94048D8FEA80939B0FF092020FE0920E0FF801858196819093120F8093110FD50111968C9111978093130F12968D919C9113979093EC
S284005D00150F8093140F14968D919C9115979093170F8093160F16968C9116978093180F17968C9117978093190F8091160480939C0F10920F0FEE24F5018085982F9370923019F0EE2009F02EC18C7F09F02BC180910E0F8E1508F426C12091110F3091120FD80115968D919C9116972817390709F019C19091130FF5018181981709F0F6
S284005D8012C12091140F3091150F828193812817390709F008C12091160F3091170F848195812817390709F0FEC09091180F8681981709F0F8C09091190F8781981709F0F2C050910F0F4091C00D2E2D30E0852F90E0840F911D281739070CF0E4C08E2D642F0E94F68BF92EE51670F48E2D891B80930F0F81E090E002C0880F991F4A957E
S284005E00E2F781958093100FAE2CBB242091080F3091090FA29EC001A39E900DB29E900D11244091030F5091040F480F591FD8011A962D913C911B97265F3F4FCA01B9014D2D50E00E94E98CE091050FF091060FEA0DFB1DD08250910F0F5E1591F420910E0F8091C00D2E19821708F4282F81E090E002C0880F991F2A95E2F781958093E7
S284005E80100F81E090E00F2C02C0880F991F0A94E2F74091100F482B4093100F4F3F79F4252F2150E0900E0FFF248091C00D90E0E51AF1088E159F050CF47C01E20E2E2D30E080910E0F90E001972817390751F44F3F21F483E00E94D0235FC082E00E94D02361C06091C00D70E061507040CB01850F911D2817390711F04F3F11F582E001
S284005F000E94D0238091100F8F3F09F04CC08091C00D90910F0F980F90930F0FE09490910E0FE90E8E1508F4E82E81E090E00E2C02C0880F991F0A94E2F781958093100F32C0882777FD8095982F2AE030E040E050E00E94D78B20913C0430913D0440913E0450913F04620F731F841F951F2091160430E040E050E00E94D78B60930A0F28
S284005F8070930B0F80930C0F90930D0F87E194E00E94015A08C0882331F0C8016FEA0E94992B80E001C081E02196EAE00C945C8CA3E3B0E0EEEDFFE20C94388C409012045090130420E1421621E0520609F472C330E3431633E0530609F07EC16BC32091FD0E3091FE0EC701821B930B6EE570E00E94028C4EE5649F80011124020F131FCF
S28400600050E1451656E0550629F080E0481685E0580689F5D80117968C9117978E7F843001F52091000F3091010FF801EA5BFF4F80819181821B930B63E270E00E94028CB3E26B9FF0011124E20FF31F6181D70112968C911297882321F4828193810E94992BA7014B5F5F4FF8018081918163EA0E94D2212DC1D8011796CC901797C694BB
S284006080DD24B1E0CB16D104D1F0E2E0CE16D10424F4C114D10461F022C1F2E0CF16D10409F4FCC023E0C216D10409F018C17DC0C801D70112966C910E949D2710C1F80180858F70813009F00AC1D70119968C910E9420256EA77FA788AB99AB609016047724F801808582958F70681A7108D70112966C911297662351F50E948F264C01A4
S284006100AA24BB242FEF31E040E050E082229322A422B522062C02C0CC0CDD1C0A94E2F79601442737FD4095542F6EA57FA588A999A90E94D78B860E971EA81EB91ED80113968D929D92AD92BC92169724C06E3C11F0603F61F4A7014B5F5F4FF801808191810E94D221C7010E947221A3C20E948F26917028EE33E002C0220F331F6A9446
S284006180E2F73901820F931FA0E0B0E0F80183839483A583B683D80118968C911897807F826018968C93189774C0F80180858F70813009F094C020919D0F30E08091A00F90E001972817390759F1E091C00D70919F0F272F30E080E090E01FC00196A901062E02C0559547950A94E2F740FF15C0C101062E02C0880F991F0A94E2F78095C3
S284006200872380939F0F80919E0F860F80939D0F83EA9FE00E94BF0E62C0682F8E17F0F2D70119968C910E9420252091160430E0F801408542954F70241B3109A10102C0440F551F2A95E2F79A01442737FD4095542F0E94D78B7B018C01C090B00FD090B10F0E948F26A0E0B0E09170A070B0708E0D9F1DA01FB11FF60183839483A58383
S284006280B683E091B00FF091B10F8085807F8260808787E194E00E94015A21C02091000F3091010FF801EA5BFF4F80819181821B930B63E270E00E94028C43E2649FF0011124E20FF31F8281938161810E94992BC7010E94722103C081E0282E312C85E294E00E94BE577C01009709F078CEE2C18AE394E00E94BE575FE3E51654E0F50608
S28400630051F0D8011A96ED91FC911B9780818370813009F0C3C1F80162855385E62FF52F4081A42FA07446FF14C07091FB0E2091F80E30E0B091FC0E872F90E08B0F911D821793070CF0AAC18091F90E781708F0A5C1242F2C70243009F4A0C1AA2359F0842F8370823009F499C1283009F496C12C3009F493C145FD91C1D80112966C90C4
S284006380B62DB13079F0B23009F088C18081837090E0009729F08230910509F07FC180C02C3039F0C8010E94EA2C882309F492C175C1E62EF52EF8016581768180E394E0D70118964C910E949358882309F466C1F8018185893008F461C12B82D70111968D919C9112979D838C83858196810E945D53FC01009791F0AF8680818A8B8181A2
S2840064008B8B82818C8B83818D8B84818E8B85818F8B8681888F8781898F06C06F86F80185819681998B888BD80117968D919C9118979B8F8A8FF70187818C8F858196819E8F8D8F8381948198A38F8F19968C91199790E009979AA389A31A968D919C911B9709969CA38BA31DA2BEA252968C9152978FA31C968C911C9788A71E968D9121
S2840064809D910D90BC91A02D89A79AA7ABA7BCA7D8011D968C918DA7C4010E94542BFEC0E62FF52FE090FD0EF090FE0E8091F80EBEE58B9FC00111248E0D9F1DEBC0D70117966C91179760FFE1C018962C9118972F70223009F0DAC0AA5BBF4F7C9111966C90D7012D913C91D80115964D915C911697D90113962D913C9114974217530793
S28400650009F0C4C0A72FB62D378117962C911797321709F0BBC04481558114962D913C9115974217530709F0B1C04281538112962D913C9113974217530709F0A7C0318116962C911697321709F0A0C0368111962C911197321709F099C06E7F623031F4F7018085807F836080873EC0663009F08DC0918580919E0F981709F08FC060914B
S284006580C00D262F30E0C601062E02C0880F991F0A94E2F781959285982B9287D70118968C911897807F836018968C931897E285EF3FE1F54091A00F50E070919E0FE72FE150CA01871B9109281739070CF4C9018E0F80939D0F90E0415050408417950741F4C7010E94BE20C70160E00E949D2755C0760F70939E0F809116048093A20F80
S28400660070939D0FF20102C0EE0FFF1F6A95E2F7BF0160956E7F60939F0F6091B00F7091B10FDB018D919C9111972DC0E095E0939F0F80E090E02E2F30E01BC00196A901072E02C0559547950A94E2F740FF11C0C601072E02C0880F991F0A94E2F780958E2380939F0F80919E0F870F80939D0F03C0782F861710F36091B00F7091B10F82
S284006680FB01808191810E947B2208C02EE530E0E20EF31EE816F90608F411CFD80156961C9256975496ED91FC915597C8014696099510C0222423940FEAB02E4E010894811C911C13E0A12EB1E0CB2ED12CAFEF4A2E512C00913A0410913B04E0901204F09013040115110509F002CEE1FE0CC006C180E494E0B8010E94CF57C80163EAA7
S28400670040E050E00E94D22100914004109141040115110571F7FDC08091B00F9091B10F0097A1F0C8010E94F620882351F40EC0F80190818181092F182F0115110509F4E8C0C8010E94F620882391F7D8015796EC905797E7FC62C0C8010E94F620882349F08091B20F9091B30F009709F456C0E2FE54C0F801838994898036910510F0A0
S284006780E3FE4EC0D8015296CC905297CC2031F08C2D0E941D2B009709F48AC02E2D2470E2FE0EC0F8018281823039F483819481FFEF883F9F0720F07BC0813009F478C0D80112968C911297982F9250923040F41D968C911D97815F8E3008F064C168C0882309F060C1222309F45DC1F801E088F1880E948F394C0180E090E007C0DC017D
S2840068001B962C911B97213009F452C0B7014C2D94010E947025009791F745C12AEA49C020EA47C0C8010E94F620882311F083E007C0F801878982FF02C081E001C080E00E9407217C01F6E1CF2EF6E2DF2E18C180E00E9407217C01E8E5CE2EE4E2DE2E0FC1C80105960E942E540097F9F0DC018D919C91F801948383836282C8010E949E
S284006880F620882311F083E009C0D80157968C91579782FF02C081E001C080E00E9407217C017BE7C72E72E2D72EEAC029EA01C026EACC24DD24EE24FF2480E494E0B8012BAB0E94CF572BA9222391F4F70111830083C8010E94F620882319F0C7010E94BE20C801B701F6010995282F882349F0C801622F40E050E00E94D22102C062E077
S284006900662E00914004109141040115110509F003CF8091120490911304F5E080309F0721F026E08031920781F520E03EE528C0239F80011124E091FD0EF091FE0EE00FF11F87818330D9F480858F70843011F08230A9F48081918163EA40E050E02BAB3AAB0E94D2218091FD0E9091FE0E800F911F8E5A9F4F0E9472213AA92BA92F5F78
S2840069808091F80E2817A0F260C034E08F33930709F05BC000E01EE553C0019FC0011124E091FD0EF091FE0EE80FF91F978190FF46C08085282F2F70243009F040C09E7F923011F09630D9F5807FA9F18085982F9F709130A1F1807F805181608087809128048F5F8093280487818E7F823049F4CF0109960E942A5087E194E00E94015AA8
S284006A001EC08630E1F480919F0F8E7F80939F0F80919E0F80939D0F8091A20F81508093A20F6091B00F7091B10FDB018D919C910E947B2204C0CF0167EA0E949D270F5F8091F80E081708F4A8CF8091120490911304B5E080309B07B9F580912804882399F514C080E00E94372980E196E09093130480931204C80160E00E944E2224C035
S284006A80E114F10409F445CF20E017CF0091420410914304F801838194818D7F94838383009791F4DFCFD80112968C911297813009F4CECE813008F4B5CE823009F4DECE833009F0F5CECDCEE396E2E10C94548C80E191E090931304809312041092430410924204109215041092140410924704109246040E94A4260E942955089529E183
S284006B00FC0122830E94452408952AE8FC0122830E944524089525ECFC0122830E94452408959091FF0EE091000FF091010F80E005C02081B3962223D1F48F5F8917C8F39091F80EE091FD0EF091FE0E80E006C02781E25AFF4F20FD0CC08F5F8917C0F381E09091020F992329F480E0089581E0089581E00895A2E0B0E0E1ECF5E30C9400
S284006B80488C9091140470911504272F30E0692F6F5F683008F060E0A901062E02C0569547950A94E2F740FF1CC06093140481E090E0062E02C0880F991F0A94E2F787278093150470E0660F771F6653794FCE01019642E050E00E94D38CE981FA81099504C09617A9F69093140480911504882361F02FB7F89480914F04909150048062AC
S284006C009093500480934F042FBF2296E2E00C94648C80911D0E8530A1F0863028F4882349F0823029F40DC0843169F0863149F080E008958091160E882329F08B3028F402C082E0089588E0089582E008950E940936282F30E03695322F222737952795982F990F990F980F290F311DC9010895833014F083E01BC0982F9A5F923010F46B
S284006C808BEF15C0982F985F923010F489EF0FC0982F965F923010F487EF09C0982F925F943010F484EF03C0823F0CF48FEE80931B0E089580911D0E8530E9F0863028F4882349F0823029F40EC0843191F0863171F080E008958091160E882351F08B3050F489E108958091160E882331F488E2089582E3089580E1089580E10895CF93EC
S284006D00DF930E942736EC010E945A3690E08C9FB0018D9F700D9C9F700D112480E090E028EE33E040E050E00E94168C2F5F2093150EDF91CF910895DC018C91282F30E0205430402234310508F0AEC029513F4FF9010C946F8C11968C9111978093F60D12968C9112978093F70D13968C9113978093F80D14968C9114978093F90D1596A5
S284006D808C9115978093FA0D16968C9116978093FB0D17968C9117978093FC0D18968C9118978093FD0D7EC011968D919C9112979093FF0D8093FE0D75C011968C9111978093000E6FC011968C911197863008F0C0C08093020E66C011968C9111979091010E981708F4B5C08093040E5BC011968D919C9112979093060E8093050E52C0EF
S284006E0011968C9111978093080E4CC011968D919C91129790930B0E80930A0E43C011968C91119780930C0E12968C91129780930D0E13968C91139780930E0E14968C91149780930F0E15968C9115978093100E16968C9116978093110E17968C9117978093120E18968C9118978093130E1AC011968C9111978093F40D14C011968C9159
S284006E801197883008F065C08093030E0BC011968C9111978093070E05C011968C9111978093010E80E008958330B1F1843028F4813041F0823008F507C08430A9F1883008F045C08BEF089511962C918091170E9091180EA091190EB0911A0E022E04C0B695A795979587950A94D2F781709070009779F12093160E27C011968C911197BE
S284006F00982F905E903428F50E94383683E06BE17EE00E94540EC6CF11968C9111978430C0F480931C0EBECF11968C911197853049F0863018F4833070F404C0843111F0863149F480931D0E0E947F36ABCF84EF089588EE089588EE0895FF920F931F93CF93DF93C6E1DEE08BE08093160E80E098EFAFEFB7E08093170E9093180EA093AC
S284006F80190EB0931A0E8E010B5F1F4F83E0B8010E94390E80911B0E0E94383683E0B8010E94540EFF24F394F0921C0E10921D0E0E94273690931F0E80931E0E0E940936982F990F990F980F9093200E0E9409368093210E8E010652104086E390E0A0E0B0E0F80180839183A283B3831482F582A0978FEF868389838A838B838C838D83C4
S2840070008E838F83CFEFDFEFD787C6870E94C38C0E94C38CF801808B85E0818B84E0828B83E0838B848BD68BC58B80E2878B108E118ED38FC28F14A20E947F36CDB7DEB7E5E00C94618CA0E0B0E0E9E2F8E30C943C8CE090020E6091010E70E02091040E30E04E2D50E0CB01821B930B481759070CF4CA01AA2797FDA095BA2F0097A1051F
S284007080B10521F481E090E0A0E0B0E0E0E0AA24BB2465013C014D0108946108710881089108E901219702E010E013C09E012E0F311DA80102C0440F551F2A95E2F79A01442737FD4095542FA20EB31EC41ED51EEF5F2E2F30E040E050E0621673068406950620F7FF2400E010E0E81AF90A0A0B1B0B6150704022E030E002C0220F331F9B
S2840071006A95E2F721503040442737FD4095542FC801B7010E94D78B6A0D7B1D8C1D9D1D24E130E040E050E00E94D78B7B018C010E942736A0E0B0E0E80EF91E0A1F1B1F0E945A36282F30E040E050E0C801B7010E94D78B28EE33E040E050E00E94168CB901CA01CDB7DEB7EEE00C94588C0F931F930E945A36182F6091070E70E080E0D4
S28400718090E020EC33E040E050E00E94D78B212F30E040E050E00E94D78B28EE33E040E050E00E94168CB901CA011F910F910895CF93DF93EC012881822F90E0805490408234910508F070C0875D9E4FFC010C946F8C8091F60D89838091F70D8A838091F80D8B838091F90D8C838091FA0D8D838091FB0D8E838091FC0D8F838091FD0D93
S284007200888780E089C08091FE0D9091FF0D75C08091000E5EC08091020E5BC08091040E58C08091050E9091060E67C08091080E50C080910A0E90910B0E5FC080910C0E898380910D0E8A8380910E0E8B8380910F0E8C838091100E8D838091110E8E838091120E8F838091130ECACF8091F40D30C08091030E2DC08091070E2AC01982B4
S284007280C0CF8091F00D9091F10DA091F20DB091F30D2CC08091010E1CC00E94B73869837A838B839C83ADCF2330A9F0243028F42130A1F0223058F407C0263009F1273039F1253041F517C08091160E02C080911B0E898396CF80911C0EFBCF8091170E9091180EA091190EB0911A0E89839A83AB83BC8386CF0E9427369A83898381CF33
S2840073000E940936982F990F990F980F998379CF0E940936DECF84EFDF91CF9108958CE09EE00895FC01808180930C0E818180930D0E828180930E0E838180930F0E84818093100E85818093110E86818093120E87818093130E0895BC018CE09EE048E050E00E94DC8C9C0181E02115310509F080E00895AF92BF92CF92DF92EF92FF92EF
S2840073800F931F935B016C010E940936E82E0E945A36FF2400E010E0282F30E040E050E0C801B7010E94D78BA60195010E94D78B28EE33E040E050E00E94168CB901CA011F910F91FF90EF90DF90CF90BF90AF9008952FEF8C3F9207D9F02FEF8D3F920728F42FEF8B3F9207F1F409C02FEF8D3F9207A1F02FEF8F3F9207A9F416C0809103
S284007400CA0E8130A1F49091660E92FD11C00BC081E09091CA0E923058F005C09091660E81E093FD05C080E0089581E0089580E0089581E0909114109A3A09F080E00895E0910710F09108102091091030910A10408140FF05C0418152818417950731F03B96E217F307A0F3E0E0F0E0CF01089581E09091D40F913409F080E0089581E000
S2840074809091CF0F963D09F080E0089581E09091FB0F933109F080E008951092BB0E8091CE0E9091CF0E9295907F8F70892B8093BC0E8091BD0E9091670E9F70990F990F990F8478892B8093BD0EEEEBFEE08091D90E8093BE0E8091DA0E81838091DB0E82838091DC0E83838091DD0E84838091DE0E85838091DF0E86838091E00E8783B3
S2840075008FEF8093C60E8093C70E8093C80E80916D0E8093C90EE0910D10F0910E1080910F109091101030E020E04081463051F0413011F0453031F44181423011F42F5F01C03F5F7B96E817F90778F380911310932F831708F4982F891B982F281708F4922F891721F48091BD0E8B7723C090916E0E91FD05C081E04091E10E341708F003
S28400758080E0382F330F330F8091BD0E8B7F832B8093BD0E90FD05C081E09091E20E291708F080E0982F9795992797958091BD0E8F77892B8093BD0E0895803108F08FE08093670E089581E090914B109A3D09F080E0089581E090914A109E3809F080E00895A6E0B0E0E7EFFAE30C94488CDE011196E8EAF2E096E001900D929150E1F728
S284007600FE0131962191821718F49F5F9630D1F7892F8F5F2696E2E00C94648CA1E0B0E0E4E1FBE30C94468C20910D1030910E10DC01A21BB30B23E13AEDA29FF001A39FF00DB29FF00D11249F01220F331F2E0F3F1F220F331F0091111010911210020F131FF8018281882341F08695962F96959695682F6695680F690FF8016283862F43
